:020000040800F2
:1000000020590020E1D70008DDD10008EDD100081B
:10001000F5D10008F7D10008F9D100080000000070
:10002000000000000000000000000000FBD10008FC
:10003000FDD1000800000000FFD1000801D2000837
:1000400009D2000801D3000881D8000885D800082B
:1000500089D80008E5D100088DD8000891D800089B
:1000600095D8000899D800089DD800088BD20008C0
:10007000A1D80008A5D80008A9D80008ADD8000864
:10008000B1D80008B5D80008B9D80008BDD8000814
:10009000C1D80008C5D80008C9D80008CDD80008C4
:1000A000D1D80008D5D80008D9D80008DDD8000874
:1000B000F9D20008E1D80008E5D80008E9D800081E
:1000C000EDD80008F1D80008F5D80008F9D80008E4
:1000D000FDD8000813D2000801D9000805D900088E
:1000E00009D900080DD9000811D9000815D9000850
:1000F00019D900081DD9000821D9000825D9000800
:1001000029D900082DD9000831D9000835D90008AF
:1001100039D900083DD9000841D9000845D900085F
:1001200049D900084DD9000851D90008ADD20008BE
:10013000BFF34F8FDFF8D8130A6812F4E062DFF8DC
:10014000D40302430A60BFF34F8F00BFFDE7C1F342
:100150000F2202617047C1F30F224261704738B528
:1001600005000C00280002F06BF9002C03D02100E0
:10017000280002F089F9042115F1D40002F077F982
:10018000052115F1F40002F072F931BD38B5040013
:100190000D002900200002F059F932BD2DE9F84385
:1001A00004000D0016005FF000093100200002F08D
:1001B0004DF907003900280002F0F9FC804640465E
:1001C000C0B2002810D0280002F0E3FC390028005B
:1001D00002F0EDFC80464046C0B2002804D0012069
:1001E00080F31388FFF7A4FF5FFA88F84046BDE864
:1001F000F2832DE9F84304000D00160000275FF09C
:100200000008A178200002F077FDA06DA179405C84
:10021000012812D0C0F07481032877D03ED305287E
:1002200000F0B480C0F08C80072800F0FB80C0F0A4
:10023000D380082800F01C8162E10321200002F035
:1002400064FDA06D6179415C200002F055FDA06D58
:10025000E179405CA16DE2791144497811EB00210C
:10026000A06DE2791044807810EB0120A16DE27955
:100270001144C97811EB002188464146280002F05C
:100280008EFC07003900C9B2200002F035FDA06DD8
:10029000A179415C200002F02FFD33E102F054FD12
:1002A00002F056FD0A21B0FBF1F14FF47A704143A0
:1002B00088460721200002F028FDA06D6179415C8D
:1002C000200002F019FD3900C9B2200002F014FD2F
:1002D000A06DA179415C200002F00EFD4146090E9F
:1002E000C9B2200002F008FD4146090CC9B2200045
:1002F00002F002FD4146090AC9B2200002F0FCFCEE
:100300004146C9B2200002F0F7FCFBE082480068D9
:1003100002F03FFC0321200002F0F7FCA06D6179A0
:10032000415C200002F0E8FC3900C9B2200002F074
:10033000E3FCA06DA179415C200002F0DDFCE1E06E
:10034000A06DE179405C002805D042F2200173489D
:10035000FFF701FF04E042F220017048FFF7F7FECB
:100360000321200002F0D1FCA06D6179415C2000E6
:1003700002F0C2FC3900C9B2200002F0BDFCA06D41
:10038000A179415C200002F0B7FCBBE0A06DE179EF
:10039000405C002805D041F210016048FFF7DBFE09
:1003A00004E041F210015D48FFF7D1FE0321200077
:1003B00002F0ABFCA06D6179415C200002F09CFC76
:1003C0003900C9B2200002F097FCA06DA179415C10
:1003D000200002F091FC95E0A06DE179405C0028DE
:1003E00005D048F280014D48FFF7B5FE04E048F221
:1003F00080014A48FFF7ABFE0321200002F085FC94
:10040000A06D6179415C200002F076FC3900C9B230
:10041000200002F071FCA06DA179415C200002F087
:100420006BFC6FE0A06DE179405C002805D044F2E0
:1004300040013A48FFF78FFE04E044F2400137489C
:10044000FFF785FE0321200002F05FFCA06D6179BB
:10045000415C200002F050FC3900C9B2200002F0DB
:100460004BFCA06DA179415C200002F045FC49E005
:10047000A06DE179405C002816D0DFF8A09042F230
:1004800020014846FFF767FE41F210014846FFF79A
:1004900062FE48F280014846FFF75DFE44F24001EB
:1004A0004846FFF758FE15E0DFF8709042F2200151
:1004B0004846FFF74CFE41F210014846FFF747FE61
:1004C00048F280014846FFF742FE44F240014846A8
:1004D000FFF73DFE0321200002F017FCA06D6179BB
:1004E000415C200002F008FC3900C9B2200002F093
:1004F00003FCA06DA179415C200002F0FDFB01E04E
:10050000012007003800C0B2BDE8F28300000000FF
:100510000CED00E00400FA0538000020000801405E
:100520002DE9F84F04000D0016001F005FF00008D1
:100530005FF00009A178200002F0DEFBA06DA17938
:10054000405C012822D0C0F03D83032800F0868063
:1005500050D3052800F0EA80C0F0B480072800F0EE
:100560004381C0F01281092800F09C81C0F06B81AA
:100570000B2800F0A782C0F02A820D2800F0E2824A
:10058000C0F0C0820E2800F0FD821BE3A06DE1796F
:10059000405CA16DE2791144497811EB0021A06D16
:1005A000E2791044807810EB0120A16DE2791144CA
:1005B000C97811EB002189460321200002F0A5FB38
:1005C000A06D6179415C200002F096FB00212000C3
:1005D00002F092FBA06DA179415C200002F08CFB3F
:1005E000C5F8C4900423D5F8C4201821380002F0BF
:1005F00058FAE9E2A06DE179405CA16DE27911441D
:10060000497811EB0021A06DE2791044807810EB5D
:100610000120A16DE2791144C97811EB00218946CE
:100620000321200002F071FBA06D6179415C200084
:1006300002F062FB0021200002F05EFBA06DA179B8
:10064000415C200002F058FBC5F8C8900423D5F89F
:10065000C8201C21380002F024FAB5E2A06DE1792F
:10066000405CA16DE2791144497811EB0021A06D45
:10067000E2791044807810EB0120A16DE2791144F9
:10068000C97811EB002189460321200002F03DFBCF
:10069000A06D6179415C200002F02EFB002120005A
:1006A00002F02AFBA06DA179415C200002F024FB3E
:1006B000C5F8CC900423D5F8CC202021380002F0D6
:1006C000F0F981E2A06DE179405CA16DE27911441D
:1006D000497811EB0021A06DE2791044807810EB8D
:1006E0000120A16DE2791144C97811EB00218946FE
:1006F0000321200002F009FBA06D6179415C20001C
:1007000002F0FAFA0021200002F0F6FAA06DA179B9
:10071000415C200002F0F0FAC5F8D0900423D5F82F
:10072000D0202421380002F0BCF94DE2D5F8C400F5
:1007300081460721200002F0E8FAA06D6179415C52
:10074000200002F0D9FA0021200002F0D5FAA06DB5
:10075000A179415C200002F0CFFA4946090EC9B2E6
:10076000200002F0C9FA4946090CC9B2200002F083
:10077000C3FA4946090AC9B2200002F0BDFA494647
:10078000C9B2200002F0B8FA1EE2D5F8C8008146CE
:100790000721200002F0B9FAA06D6179415C2000C8
:1007A00002F0AAFA0021200002F0A6FAA06DA179B9
:1007B000415C200002F0A0FA4946090EC9B22000AF
:1007C00002F09AFA4946090CC9B2200002F094FAE4
:1007D0004946090AC9B2200002F08EFA4946C9B258
:1007E000200002F089FAEFE1D5F8CC00814607211C
:1007F000200002F08AFAA06D6179415C200002F0CD
:100800007BFA0021200002F077FAA06DA179415C0B
:10081000200002F071FA4946090EC9B2200002F028
:100820006BFA4946090CC9B2200002F065FA494644
:10083000090AC9B2200002F05FFA4946C9B2200095
:1008400002F05AFAC0E1D5F8D00081460721200015
:1008500002F05BFAA06D6179415C200002F04CFA75
:100860000021200002F048FAA06DA179415C20002F
:1008700002F042FA4946090EC9B2200002F03CFAE1
:100880004946090CC9B2200002F036FA4946090A65
:10089000C9B2200002F030FA4946C9B2200002F085
:1008A0002BFA91E10321200002F02FFAA06D61796B
:1008B000415C200002F020FA0021200002F01CFA26
:1008C000A06DA179415C200002F016FAA06DE179DB
:1008D000405CA16DE2791144497811EB0021A06DD3
:1008E000E2791044807810EB0120A16DE279114487
:1008F000C97811EB002100910098C5F8C4000423C9
:10090000D5F8C4201821380002F0CBF8A06DE179A9
:1009100008440079A16DE2791144497911EB002175
:10092000A06DE2791044807910EB0120A16DE2798D
:10093000114491F807A01AEB002AC5F8C8A00423B7
:10094000D5F8C8201C21380002F0ABF8A06DE17981
:100950000844007AA16DE2791144497A11EB002133
:10096000A06DE2791044807A10EB0120A16DE2794C
:10097000114491F80BB01BEB002BC5F8CCB004234D
:10098000D5F8CC202021380002F08BF8A06DE17959
:100990000844007BA16DE2791144497B11EB0021F1
:1009A000A06DE2791044807B10EB0120A16DE2790B
:1009B0001144C97B11EB00218946C5F8D09004236E
:1009C000D5F8D0202421380002F06BF8FCE0D5F8EF
:1009D000C40000901321200002F097F9A06D617906
:1009E000415C200002F088F90021200002F084F927
:1009F000A06DA179415C200002F07EF90099090EFA
:100A0000C9B2200002F078F90099090CC9B220009F
:100A100002F072F90099090AC9B2200002F06CF9DB
:100A20000099C9B2200002F067F9D5F8C8A0514674
:100A3000090EC9B2200002F05FF95146090CC9B293
:100A4000200002F059F95146090AC9B2200002F00B
:100A500053F95146C9B2200002F04EF9D5F8CCB096
:100A60005946090EC9B2200002F046F95946090C50
:100A7000C9B2200002F040F95946090AC9B2200063
:100A800002F03AF95946C9B2200002F035F9D5F81A
:100A9000D00081464946090EC9B2200002F02CF967
:100AA0004946090CC9B2200002F026F94946090A54
:100AB000C9B2200002F020F94946C9B2200002F074
:100AC0001BF981E0D5F8C4102800FFF75FFB010097
:100AD000300002F064F880460321200002F015F98E
:100AE000A06D6179415C200002F006F94146C9B26F
:100AF000200002F001F9A06DA179415C200002F014
:100B0000FBF861E0D5F8C8102800FFF73FFB0100B3
:100B1000300002F044F880460321200002F0F5F88E
:100B2000A06D6179415C200002F0E6F84146C9B24F
:100B3000200002F0E1F8A06DA179415C200002F0F4
:100B4000DBF841E0D5F8CC102800FFF71FFB0100CF
:100B5000300002F024F880460321200002F0D5F88E
:100B6000A06D6179415C200002F0C6F84146C9B22F
:100B7000200002F0C1F8A06DA179415C200002F0D4
:100B8000BBF821E0D5F8D0102800FFF7FFFA0100EC
:100B9000300002F004F880460321200002F0B5F88E
:100BA000A06D6179415C200002F0A6F84146C9B20F
:100BB000200002F0A1F8A06DA179415C200002F0B4
:100BC0009BF801E0012080464046C0B2BDE8F28FAC
:100BD00038B504000D002900C9B2200001F03EFC28
:100BE00032BD2DE9F84306005FF00008002400251F
:100BF0000421B01D02F0E0F800273800C0B204283C
:100C00002FDA3800C0B206EB4000C088002140F661
:100C1000E4485FF00009A8FB002308FB013309FB4F
:100C2000003342F210785FF00009A8FB020108FBD4
:100C3000031109FB0211B6F8BE20002302F020F9CF
:100C4000B6F8C020002302F01BF904000D002000BC
:100C5000000B401C3900C9B206EB4101C8817F1C62
:100C6000CBE70020BDE8F2832DE9F04104000D0040
:100C700016001F005FF00008A06DA179405C0128FC
:100C80000BD0C0F02882032800F0E18055D305285E
:100C900000F01882C0F056811DE2A178200002F019
:100CA0002BF80B21200002F030F8A06D6179415C37
:100CB000200002F021F80021200002F01DF8A06DB4
:100CC000A179415C200002F017F8D5F8E410090E74
:100CD000C9B2200002F010F8D5F8E410090CC9B22E
:100CE000200002F009F8D5F8E410090AC9B2200082
:100CF00002F002F8D5F8E410C9B2200001F0FCFFC0
:100D0000B5F8E81089B2090AC9B2200001F0F4FF71
:100D1000B5F8E810C9B2200001F0EEFFB5F8EA100E
:100D200089B2090AC9B2200001F0E6FFB5F8EA105D
:100D3000C9B2200001F0E0FFCFE1A178200001F06E
:100D4000DBFF0321200001F0E0FFA06D6179415C31
:100D5000200001F0D1FF0021200001F0CDFFA06DA7
:100D6000A179415C200001F0C7FFA06DE179405CF2
:100D7000C5F8E400D5F8E400A16DE27911444978A2
:100D800011EB0021C5F8E410D5F8E400A16DE2797B
:100D90001144897811EB0021C5F8E410D5F8E4007E
:100DA000A16DE2791144C97811EB0021C5F8E41076
:100DB0000423D5F8E4203021380001F072FEA06D44
:100DC000E17908440079A5F8E800B5F8E800A16DDC
:100DD000E2791144497911EB0021A5F8E8100223CA
:100DE000B5F8E8203421380001F05BFEA06DE17910
:100DF00008448079A5F8EA00B5F8EA00A16DE27927
:100E00001144C97911EB0021A5F8EA10B5F8EA0000
:100E1000C92802DBC820A5F8EA000223B5F8EA20B9
:100E20003621380001F03DFEB5F8E800C5F8E000D5
:100E3000D5F8E010B5F8EA004143C5F8E010D5F860
:100E4000E010D5F8E4004118C5F8E01045E1A178BC
:100E5000200001F051FF1121200001F056FFA06D8C
:100E60006179415C200001F047FF0021200001F082
:100E700043FFA06DA179415C200001F03DFFB5F872
:100E8000D61089B2090AC9B2200001F035FFB5F8C1
:100E9000D610C9B2200001F02FFFB5F8D81089B2E2
:100EA000090AC9B2200001F027FFB5F8D810C9B26D
:100EB000200001F021FFB5F8EC1089B2090AC9B28F
:100EC000200001F019FFB5F8EC10C9B2200001F0C4
:100ED00013FFB5F8EE1089B2090AC9B2200001F07B
:100EE0000BFFB5F8EE10C9B2200001F005FFB5F810
:100EF000F01089B2090AC9B2200001F0FDFEB5F870
:100F0000F010C9B2200001F0F7FEB5F8DA1089B28E
:100F1000090AC9B2200001F0EFFEB5F8DA10C9B233
:100F2000200001F0E9FEB5F8DC1089B2090AC9B267
:100F3000200001F0E1FEB5F8DC10C9B2200001F09C
:100F4000DBFECAE0A178200001F0D6FE03212000DC
:100F500001F0DBFEA06D6179415C200001F0CCFE68
:100F60000021200001F0C8FEA06DA179415C2000A5
:100F700001F0C2FEA06DE179405CA5F8D600B5F89D
:100F8000D600A16DE2791144497811EB0021A5F852
:100F9000D6100223B5F8D6202821380001F081FDB3
:100FA000A06DE17908448078A5F8D800B5F8D8009C
:100FB000A16DE2791144C97811EB0021A5F8D81090
:100FC0000223B5F8D8202A21380001F06AFDA06D6F
:100FD000E17908440079A5F8EC00B5F8EC00A16DC2
:100FE000E2791144497911EB0021A5F8EC10B5F82C
:100FF000EC00152802DB1420A5F8EC000223B5F85C
:10100000EC203A21380001F04CFDA06DE179084454
:101010008079A5F8EE00B5F8EE00A16DE2791144F3
:10102000C97911EB0021A5F8EE100223B5F8EE20E6
:101030003C21380001F035FDA06DE1790844007ACB
:10104000A5F8F000B5F8F000A16DE2791144497AF5
:1010500011EB0021A5F8F0100223B5F8F0203E2195
:10106000380001F01EFDA06DE1790844807AA5F8F2
:10107000DA00B5F8DA00A16DE2791144C97A11EB12
:101080000021A5F8DA100223B5F8DA202C21380067
:1010900001F007FDA06DE1790844007BA5F8DC00B4
:1010A000B5F8DC00A16DE2791144497B11EB002118
:1010B000A5F8DC100223B5F8DC202E21380001F061
:1010C000F0FC0AE0330015F1D4022900200000F002
:1010D00045FA804601E0012080464046C0B2BDE8A6
:1010E000F0812DE9F04104000D0016001F005FF0B3
:1010F0000008A06DA179405C01280BD0C0F02882C7
:10110000032800F0E18055D3052800F01882C0F0D4
:1011100056811DE2A178200001F0EEFD0B21200098
:1011200001F0F3FDA06D6179415C200001F0E4FD68
:101130000021200001F0E0FDA06DA179415C2000BC
:1011400001F0DAFDD5F80411090EC9B2200001F052
:10115000D3FDD5F80411090CC9B2200001F0CCFD73
:10116000D5F80411090AC9B2200001F0C5FDD5F86F
:101170000411C9B2200001F0BFFDB5F8081189B211
:10118000090AC9B2200001F0B7FDB5F80811C9B2CB
:10119000200001F0B1FDB5F80A1189B2090AC9B2FF
:1011A000200001F0A9FDB5F80A11C9B2200001F034
:1011B000A3FDCFE1A178200001F09EFD03212000D6
:1011C00001F0A3FDA06D6179415C200001F094FD68
:1011D0000021200001F090FDA06DA179415C20006C
:1011E00001F08AFDA06DE179405CC5F80401D5F8F5
:1011F0000401A16DE2791144497811EB0021C5F891
:101200000411D5F80401A16DE2791144897811EB3C
:101210000021C5F80411D5F80401A16DE27911444B
:10122000C97811EB0021C5F804110423D5F8042175
:101230004821380001F035FCA06DE17908440079BF
:10124000A5F80801B5F80801A16DE27911444979C2
:1012500011EB0021A5F808110223B5F808214C2153
:10126000380001F01EFCA06DE17908448079A5F8F2
:101270000A01B5F80A01A16DE2791144C97911EBAF
:101280000021A5F80A11B5F80A01C92802DBC82017
:10129000A5F80A010223B5F80A214E21380001F011
:1012A00000FCB5F80801C5F80001D5F80011B5F843
:1012B0000A014143C5F80011D5F80011D5F8040121
:1012C0004118C5F8001145E1A178200001F014FD96
:1012D0001121200001F019FDA06D6179415C200011
:1012E00001F00AFD0021200001F006FDA06DA179AA
:1012F000415C200001F000FDB5F8F61089B2090A42
:10130000C9B2200001F0F8FCB5F8F610C9B220000F
:1013100001F0F2FCB5F8F81089B2090AC9B2200050
:1013200001F0EAFCB5F8F810C9B2200001F0E4FCC5
:10133000B5F80C1189B2090AC9B2200001F0DCFC31
:10134000B5F80C11C9B2200001F0D6FCB5F80E11A9
:1013500089B2090AC9B2200001F0CEFCB5F80E111D
:10136000C9B2200001F0C8FCB5F8101189B2090A11
:10137000C9B2200001F0C0FCB5F81011C9B22000BC
:1013800001F0BAFCB5F8FA1089B2090AC9B2200016
:1013900001F0B2FCB5F8FA10C9B2200001F0ACFCC3
:1013A000B5F8FC1089B2090AC9B2200001F0A4FC0A
:1013B000B5F8FC10C9B2200001F09EFCCAE0A1788B
:1013C000200001F099FC0321200001F09EFCA06D9B
:1013D0006179415C200001F08FFC0021200001F0C8
:1013E0008BFCA06DA179415C200001F085FCA06D13
:1013F000E179405CA5F8F600B5F8F600A16DE27958
:101400001144497811EB0021A5F8F6100223B5F834
:10141000F6204021380001F044FBA06DE17908443A
:101420008078A5F8F800B5F8F800A16DE2791144CC
:10143000C97811EB0021A5F8F8100223B5F8F820BF
:101440004221380001F02DFBA06DE17908440079BC
:10145000A5F80C01B5F80C01A16DE27911444979A8
:1014600011EB0021A5F80C11B5F80C01152802DBD1
:101470001420A5F80C010223B5F80C2152213800E4
:1014800001F00FFBA06DE17908448079A5F80E0109
:10149000B5F80E01A16DE2791144C97911EB002173
:1014A000A5F80E110223B5F80E215421380001F0E1
:1014B000F8FAA06DE1790844007AA5F81001B5F8B2
:1014C0001001A16DE2791144497A11EB0021A5F8D0
:1014D00010110223B5F810215621380001F0E1FA6D
:1014E000A06DE1790844807AA5F8FA00B5F8FA0011
:1014F000A16DE2791144C97A11EB0021A5F8FA1027
:101500000223B5F8FA204421380001F0CAFAA06D90
:10151000E1790844007BA5F8FC00B5F8FC00A16D5A
:10152000E2791144497B11EB0021A5F8FC1002235C
:10153000B5F8FC204621380001F0B3FA0AE0330088
:1015400015F1F4022900200000F008F8804601E0BF
:10155000012080464046C0B2BDE8F0812DE9F94F38
:101560008BB00D00160000275FF000080020ADF8DA
:1015700000005FF0000905A80021016007A8002114
:101580000022C0E9001202A80021016001A8002188
:10159000016009A800210022C0E9001204A800216E
:1015A0000160306903900020069001F094FD5FF027
:1015B000000B584680B204281EDA0020594689B232
:1015C00005EB4101A1F8B600002005A95A4692B2E8
:1015D0008854002007A95A4692B221F81200002030
:1015E00002A95A4692B28854002001A95A4692B2E2
:1015F00088541BF1010BDCE70B9881780B9801F004
:101600007BFBF08AC0000C30010089B20B9801F01E
:101610007CFB31780B9801F06FFB00210B9801F0F7
:101620006BFB05210B9801F067FB306980B24FF42A
:10163000FA6190FBF1F080B2C000001DADF802002D
:10164000BDF80210C9B20B9801F056FB0020ADF8AE
:10165000020042F22001DFF84C09FEF77CFD41F266
:101660001001DFF84009FEF776FD48F28001DFF84F
:101670003409FEF770FD44F24001DFF82809FEF757
:101680006AFDDFF82499DFF824194846FEF763FD68
:10169000DFF81C194846FEF75EFDDFF818194846CA
:1016A000FEF759FD40F60801DFF80C09FEF753FD7F
:1016B00044F240014846FEF74EFD48F2800148469C
:1016C000FEF749FDDFF8F4184846FEF744FDDFF861
:1016D000401D4846FEF73FFD5FF0000A5046F18A84
:1016E00080B2884280F0EF81DFF8C0184846FEF7EC
:1016F00032FDDFF8BC184846FEF729FDDFF8B418C4
:101700004846FEF728FD40F60801DFF8AC08FEF772
:101710001EFD44F240014846FEF71DFD48F28001DF
:101720004846FEF714FDDFF894184846FEF713FD0F
:10173000DFF8DCBC59464846FEF709FD039928004E
:1017400001F01DFF069006990C9801F028FA039904
:10175000B08A41180391DFF858184846FEF7FBFCA1
:10176000DFF848184846FEF7F2FC40F60801DFF8BB
:101770004808FEF7F0FCDFF83C184846FEF7E7FCA7
:1017800048F280014846FEF7E6FC44F24001484634
:10179000FEF7DDFC59464846FEF7DDFCDFF81C1875
:1017A0004846FEF7D4FC052002F072F8504680B29D
:1017B000032802DA012002F06BF82800FFF711FA83
:1017C000002007003800C0B2042880F2778150461C
:1017D00080B2002817D13800C0B205EB4000C089A4
:1017E000B188884208D37088C8303900C9B205EB87
:1017F0004101C989884206DA01203900C9B205EBE6
:101800004101A1F8B6003800C0B205EB4000B0F8C5
:10181000B60000281DD1504680B2F18A491E884288
:1018200017D13800C0B205EB4000C0893189884229
:1018300007D3F0883900C9B205EB4101C989884254
:1018400007D21AF101003900C9B205EB4101A1F834
:10185000B6003800C0B205EB4000B0F8B600002872
:1018600040F0168105A93800C0B2085C002809D1F3
:101870003800C0B205EB4000C08907AA3B00DBB2CC
:1018800022F813003800C0B2085C401C3A00D2B203
:10189000885409A83A00D2B230F812203B00DBB2DB
:1018A00005EB4303DB899A4207D0002204ABBC4618
:1018B0005FFA8CFC03F80C2016E004AA3B00DBB2B4
:1018C000D35C5B1CBC465FFA8CFC02F80C303B001E
:1018D000DBB2D25C042A07DB1AF101023B00DBB267
:1018E00005EB4303A3F8B6203A00D2B205EB42025F
:1018F000D2893B00DBB220F813205046328B80B2F5
:10190000904210D23900C9B22820414305EB0100B2
:10191000514689B200EB41003900C9B205EB4101E3
:10192000C989C182B4E028203A00D2B242432A4495
:1019300016321400002290464246D2B2338B5B1E10
:101940009A4205DA62882280A41C18F10108F3E7A4
:101950003A00D2B205EB4202D28922800122ADF8D0
:1019600000203A00D2B242432A44D28A3B00DBB282
:1019700005EB4303DB899A420ED23A00D2B205EB63
:101980004202D2893B00DBB200FB03F02844C08A4C
:10199000121AADF8002019E03A00D2B205EB42026B
:1019A000D2893B00DBB243432B44DB8A9A420DD2FF
:1019B0003A00D2B200FB02F02844C28A3800C0B21A
:1019C00005EB4000C089121AADF80020BDF80000F8
:1019D000B28B904215D202A83A00D2B2825C521C5D
:1019E0003B00DBB2C2543A00D2B2805C04282DDB4B
:1019F0001AF101003A00D2B205EB4202A2F8B60099
:101A000024E0708BBDF80020904215D201A83A0066
:101A1000D2B2825C521C3B00DBB2C2543A00D2B25A
:101A2000805C042812DB1AF101003A00D2B205EB07
:101A30004202A2F8B60009E0002002AA3B00DBB295
:101A4000D054002001AA3B00DBB2D0543800C0B211
:101A5000085C14281CDB00203A00D2B288543800FD
:101A6000C0B205EB4000C18907A83A00D2B230F8F5
:101A70001200091AADF80010BDF80000052807DAB9
:101A80001AF101003900C9B205EB4101A1F8B60015
:101A90003800C0B205EB4000C18989B2090AC9B259
:101AA0000B9801F029F93800C0B205EB4000C1895C
:101AB000C9B20B9801F020F97F1C83E601F0F8FE13
:101AC0001AF1010A0AE65FF0000B5846C0B204287A
:101AD00018DA5846C0B205EB4000B0F8B61089B22B
:101AE000090AC9B20B9801F007F95846C0B205EBD4
:101AF0004000B0F8B610C9B20B9801F0FDF81BF128
:101B0000010BE2E7DFF89C7442F220013800FEF797
:101B10001EFB41F210013800FEF719FB48F280016C
:101B20003800FEF714FB44F240013800FEF70FFBCB
:101B3000DFF878144846FEF70EFBDFF874144846C9
:101B4000FEF705FBDFF86C144846FEF704FB40F691
:101B50000801DFF86404FEF7FAFA44F2400148464F
:101B6000FEF7F9FA48F280014846FEF7F0FADFF88E
:101B70004C144846FEF7EFFADFF894184846FEF793
:101B8000E6FA0C9801F005F800200DB0BDE8F08FE2
:101B9000F8B504000D0016000027A06DA179405C87
:101BA000012811D0C0F08681032851D029D30528FF
:101BB00000F0988073D3072800F0F280C0F0C18055
:101BC000082800F0268175E1A178200001F094F842
:101BD0000421200001F099F8A06D6179415C20009A
:101BE00001F08AF80021200001F086F8A06DA179AB
:101BF000415C200001F080F82978200001F07CF899
:101C00005AE1A178200001F077F80521200001F0C9
:101C10007CF8A06D6179415C200001F06DF8002135
:101C2000200001F069F8A06DA179415C200001F06D
:101C300063F8B5F8BE1089B2090AC9B2200001F0F4
:101C40005BF8B5F8BE10C9B2200001F055F833E1D9
:101C5000A178200001F050F80521200001F055F88E
:101C6000A06D6179415C200001F046F80021200060
:101C700001F042F8A06DA179415C200001F03CF830
:101C8000B5F8C01089B2090AC9B2200001F034F8D1
:101C9000B5F8C010C9B2200001F02EF80CE1A1780F
:101CA000200001F029F80321200001F02EF8A06D9A
:101CB0006179415C200001F01FF80021200001F053
:101CC0001BF8A06DA179415C200001F015F8A06D12
:101CD000E179405C287001232A780821300000F067
:101CE000E0FEE9E0A178200001F006F803212000E1
:101CF00001F00BF8A06D6179415C200000F0FCFF61
:101D00000021200000F0F8FFA06DA179415C2000C7
:101D100000F0F2FFA06DE179405CA5F8BE00B5F8D7
:101D2000BE00A16DE2791144497811EB0021A5F8BC
:101D3000BE100223B5F8BE200921300000F0B1FE2C
:101D4000BAE0A178200000F0D7FF0321200000F0C6
:101D5000DCFFA06D6179415C200000F0CDFF002127
:101D6000200000F0C9FFA06DA179415C200000F0C7
:101D7000C3FFA06DE179405CA5F8C000B5F8BE00D6
:101D8000A16DE2791144497811EB0021A5F8C0104A
:101D90000223B5F8C0200B21300000F082FE8BE05A
:101DA000A178200000F0A8FF0821200000F0ADFF7E
:101DB000A06D6179415C200000F09EFF00212000B1
:101DC00000F09AFFA06DA179415C200000F094FF23
:101DD0002978200000F090FFB5F8BE1089B2090AFA
:101DE000C9B2200000F088FFB5F8BE10C9B22000CB
:101DF00000F082FFB5F8C01089B2090AC9B220000C
:101E000000F07AFFB5F8C010C9B2200000F074FFEE
:101E100052E0A178200000F06FFF0321200000F0C5
:101E200074FFA06D6179415C200000F065FF002126
:101E3000200000F061FFA06DA179415C200000F05E
:101E40005BFFA06DE179405C287001232A780821AE
:101E5000300000F026FEA06DE17908444078A5F836
:101E6000BE00B5F8BE00A16DE2791144897811EB8E
:101E70000021A5F8BE100223B5F8BE2009213000CC
:101E800000F00FFEA06DE1790844C078A5F8C0000D
:101E9000B5F8C000A16DE2791144097911EB002178
:101EA000A5F8C0100223B5F8C0200B21300000F0C7
:101EB000F8FD01E0012007003800C0B2F2BD2DE9B5
:101EC000F04104000D0016001F005FF00008A06D37
:101ED0006179405C002808D002280ED006D304287F
:101EE00019D012D305281ED025E026E03A00310093
:101EF0002000FEF77EF980461FE03B0032002900FB
:101F00002000FEF70DFB804617E03A002900200074
:101F1000FFF73EFE11E03B00320029002000FEF7F3
:101F2000A3FE804609E03B00320029002000FFF7B5
:101F3000D8F8804601E0012080464046C0B2BDE8A6
:101F4000F081F8B504000D0016001F00200000F01D
:101F5000B1FE012820D1200000F0E6FE002810D1BB
:101F6000200000F0E7FE00280BD13B0032002900E2
:101F70002000FFF7A4FF00280AD1200000F0CEFEC9
:101F800006E02278521EDFF88C14200002F0C2FA1C
:101F9000200000F089FE02E0200000F091FEF2BD7A
:101FA0000000000000080140001001402000200453
:101FB0004000400480008004000C01400100010446
:101FC00080B500F05DFA02BDF8B5040002F00CFC2B
:101FD0000425002614F1B60732002900380002F06B
:101FE00027FC0020F2BD80B502F002FC002002BDFB
:101FF00038B50400002000252800C0B204283FDACC
:102000002800C0B2002805D0022817D00CD303281E
:102010001ED027E02800C0B204EB4000B0F8B600A4
:10202000C0B202F0E9FB29E02800C0B204EB400096
:10203000B0F8B600C0B202F0E6FB1FE02800C0B264
:1020400004EB4000B0F8B600C0B202F0E3FB15E0CC
:102050002800C0B204EB4000B0F8B600C0B202F0F5
:10206000E0FB0BE0012002F0C7FB012002F0CBFBFC
:10207000012002F0CFFB012002F0D3FB6D1CBBE777
:10208000002032BD2DE9F14F0C0015001E00FFF7B6
:1020900097FF07003800C0B2FF2801D10220B4E149
:1020A0003800C0B20F2847D1DFF86C8342F220011C
:1020B0004046FEF74CF841F210014046FEF747F863
:1020C00048F280014046FEF742F844F240014046A3
:1020D000FEF73DF8280000F05CFDDFF84083DFF8F4
:1020E00040B359464046FEF732F840F202294946CD
:1020F0004046FEF72CF8DFF82CA340F2044150468E
:10210000FEF725F859465046FEF721F8DFF800B3F0
:1021100059464046FEF71BF840F201114046FEF7D3
:1021200016F849465046FEF712F859465046FEF753
:102130000EF800F0CCFF60E13000C0B2002801D101
:10214000032062E1DFF8D492DFF8D48241464846AA
:10215000FDF7FDFF40F2022A51464846FDF7F7FF22
:10216000DFF8C0B240F204415846FDF7F0FF4146A7
:102170005846FDF7ECFFDFF8988241464846FDF7E8
:10218000E6FF40F201114846FDF7E1FF514658468F
:10219000FDF7DDFF41465846FDF7D9FF3100C9B2D2
:1021A0002000FEF715FD2000FFF70EFF3800C0B23B
:1021B00001280BD0C0F00481032841D023D3052887
:1021C00078D05AD3062800F0B880F9E0D4F8C420BB
:1021D00029002000FDF7E2FFDFF83C8242F22001F7
:1021E0004046FDF7B8FF41F210014046FDF7B3FF4E
:1021F00048F280014046FDF7AEFF44F24001404600
:10220000FDF7A9FFF4E0D4F8C82029002000FDF76D
:10221000C5FFDFF8048242F220014046FDF79BFF34
:1022200041F210014046FDF796FF48F2800140461A
:10223000FDF791FF44F240014046FDF78CFFD7E0E7
:10224000D4F8CC2029002000FDF7A8FFDFF8C881D2
:1022500042F220014046FDF77EFF41F21001404668
:10226000FDF779FF48F280014046FDF774FF44F224
:1022700040014046FDF76FFFBAE0D4F8D0202900B6
:102280002000FDF78BFFDFF8908142F220014046ED
:10229000FDF761FF41F210014046FDF75CFF48F297
:1022A00080014046FDF757FF44F240014046FDF7EC
:1022B00052FF9DE02B0014F1D40221000098FFF79B
:1022C0004DF9DFF854B142F220015846FDF73FFFC7
:1022D00041F210015846FDF73AFF48F2800949469D
:1022E0005846FDF734FF44F2400A51465846FDF780
:1022F0002EFFDFF834B14D495846FDF72CFF4C490D
:102300005846FDF728FF4B495846FDF724FF40F695
:1023100008014948FDF71FFF51465846FDF71BFFCE
:1023200049465846FDF717FF44495846FDF713FF45
:1023300041465846FDF70FFF5AE02B0014F1F40216
:1023400021000098FFF70AF9DFF8CCB042F2200133
:102350005846FDF7FCFE41F210015846FDF7F7FE26
:1023600048F2800949465846FDF7F1FE44F2400A1A
:1023700051465846FDF7EBFEDFF8ACB02B49584606
:10238000FDF7E9FE2A495846FDF7E5FE294958467A
:10239000FDF7E1FE40F608012748FDF7DCFE514657
:1023A0005846FDF7D8FE49465846FDF7D4FE234966
:1023B0005846FDF7D0FE41465846FDF7CCFE17E0E3
:1023C000DFF8548042F220014046FDF7C0FE41F2A2
:1023D00010014046FDF7BBFE48F280014046FDF784
:1023E000B6FE44F240014046FDF7B1FEFF20070073
:1023F0002000FFF7FDFDFFF7F6FD3800C0B2FF2813
:1024000001D0002007003800C0B2BDE8F28F000004
:1024100002000204FCD60008000801400018014038
:1024200004000404001401400010014020002004B6
:102430004000400480008004000C014001000104C1
:1024400010B50400200001F090F810BD38B504006C
:102450000D002900200001F092F832BD38B50400CB
:102460000D002900C9B2200001F0EAF832BD38B5EC
:1024700004000D002900C9B2200001F0FDF832BDB2
:1024800080B501F0B1F902BD2DE9F24F88B004002A
:1024900000256846102102F00BFA04A8102102F072
:1024A00007FADFF8D46605236A460821306802F08F
:1024B00010FA052304AA5821306802F00AFA05220E
:1024C00004A9684602F080FA002813D005236A4662
:1024D000A821306802F0FDF905236A46082130681A
:1024E00002F0E9F905236A465821306802F0E3F961
:1024F000012005009DF80000FF2817D09DF800007E
:10250000207068464178A4F8BE10B4F8BE108278F6
:1025100012EB0122A4F8BE20C178A4F8C010B4F8D0
:10252000C010007910EB0120A4F8C0009DF8000055
:10253000002801D10120050010275FF00008E946BE
:1025400042463900484602F073F95FF010095FF027
:10255000000A0DF1100B52464946584602F068F940
:1025600010236A461821306802F0B3F9102304AA38
:102570006821306802F0ADF9102204A9684602F023
:1025800023FA002813D010236A46B821306802F0DD
:10259000A0F910236A461821306802F08CF9102344
:1025A0006A461821306802F086F9022005009DF87D
:1025B0000000FF2861D09DF80000C4F8C400684600
:1025C000D4F8C410427812EB0122C4F8C420D4F825
:1025D000C410827812EB0122C4F8C420D4F8C410CD
:1025E000C27812EB0122C4F8C4200179C4F8C810E3
:1025F000D4F8C810427912EB0122C4F8C820D4F8EC
:10260000C810827912EB0122C4F8C820D4F8C8108F
:10261000C27912EB0122C4F8C820017AC4F8CC10A8
:10262000D4F8CC10427A12EB0122C4F8CC20D4F8B2
:10263000CC10827A12EB0122C4F8CC20D4F8CC1052
:10264000C27A12EB0122C4F8CC20017BC4F8D0106E
:10265000D4F8D010427B12EB0122C4F8D020D4F879
:10266000D010827B12EB0122C4F8D020D4F8D01015
:10267000C07B10EB0120C4F8D00010275FF00008E9
:10268000E94642463900484602F0D2F85FF01009A8
:102690005FF0000A0DF1100B52464946584602F011
:1026A000C7F810236A462821306802F012F9102377
:1026B00004AA7821306802F00CF9102204A96846B7
:1026C00002F082F9002813D010236A46C82130682E
:1026D00002F0FFF810236A462821306802F0EBF878
:1026E00010236A467821306802F0E5F803200500DF
:1026F0009DF80000FF2867D09DF80000A4F8D600E0
:102700006846B4F8D610427812EB0122A4F8D6201D
:102710008178A4F8D810B4F8D810C27812EB01224E
:10272000A4F8D8200179A4F8DA10B4F8DA104279C4
:1027300012EB0122A4F8DA208179A4F8DC10B4F8B5
:10274000DC10C27912EB0122A4F8DC20017AC4F873
:10275000E410D4F8E410427A12EB0122C4F8E42029
:10276000D4F8E410827A12EB0122C4F8E420D4F801
:10277000E410C27A12EB0122C4F8E420017BA4F831
:10278000E810B4F8E810427B12EB0122A4F8E8202C
:10279000817BA4F8EA10B4F8EA10C07B10EB0120AA
:1027A000A4F8EA00B4F8EA00C4F8E000D4F8E010B5
:1027B000B4F8E8004143C4F8E010D4F8E010D4F8CD
:1027C000E4004118C4F8E01010275FF00008E94663
:1027D00042463900484602F02BF85FF010095FF0DE
:1027E000000A0DF1100B52464946584602F020F8F7
:1027F00008236A463821306802F06BF8082304AADF
:102800008821306802F065F8082204A9684602F0C1
:10281000DBF8002813D008236A46D821306802F07C
:1028200058F808236A463821306802F044F8082333
:102830006A468821306802F03EF8042005009DF8C1
:102840000000FF281ED068468178A4F8EC10B4F888
:10285000EC10C27812EB0122A4F8EC200179A4F864
:10286000EE10B4F8EE10427912EB0122A4F8EE203B
:102870008179A4F8F010B4F8F010C07910EB0120C1
:10288000A4F8F00010275FF00008E946424639003E
:10289000484601F0CDFF5FF010095FF0000A0DF12E
:1028A000100B52464946584601F0C2FF10236A46B3
:1028B0004021306802F00DF8102304AA90213068FE
:1028C00002F007F8102204A9684602F07DF80028FB
:1028D00013D010236A46E021306801F0FAFF10237C
:1028E0006A464021306801F0E6FF10236A469021D5
:1028F000306801F0E0FF052005009DF80000FF288A
:1029000067D09DF80000A4F8F6006846B4F8F61009
:10291000427812EB0122A4F8F6208178A4F8F8108E
:10292000B4F8F810C27812EB0122A4F8F82001796B
:10293000A4F8FA10B4F8FA10427912EB0122A4F8C4
:10294000FA208179A4F8FC10B4F8FC10C27912EBDB
:102950000122A4F8FC20017AC4F80411D4F804116F
:10296000427A12EB0122C4F80421D4F80411827ACD
:1029700012EB0122C4F80421D4F80411C27A12EB3C
:102980000122C4F80421017BA4F80811B4F808114D
:10299000427B12EB0122A4F80821817BA4F80A11E2
:1029A000B4F80A11C07B10EB0120A4F80A01B4F8B6
:1029B0000A01C4F80001D4F80011B4F80801414339
:1029C000C4F80011D4F80011D4F804014118C4F877
:1029D000001110275FF00008E946424639004846DA
:1029E00001F026FF5FF010095FF0000A0DF1100BF7
:1029F00052464946584601F01BFF08236A465021BB
:102A0000306801F066FF082304AAA021306801F0B5
:102A100060FF082204A9684601F0D6FF002813D001
:102A200008236A46F021306801F053FF08236A4604
:102A30005021306801F03FFF08236A46A02130682A
:102A400001F039FF062005009DF80000FF281ED088
:102A500068468178A4F80C11B4F80C11C27812EB16
:102A60000122A4F80C210179A4F80E11B4F80E117A
:102A7000427912EB0122A4F80E218179A4F81011F9
:102A8000B4F81011C07910EB0120A4F8100128004F
:102A9000C0B2002802D0200000F0AAFC09B0BDE8B6
:102AA000F08F2DE9FC4704000D0016001F005FF0B9
:102AB00000086846002101603000000E8DF800001B
:102AC00068463100090C41703100090A8170C670F6
:102AD0003800C0B2002805D03800C0B2052801DA9D
:102AE000002C01D1012043E0DFF88C903B00DBB2E9
:102AF0009BB268463900C9B249420844021D290008
:102B000089B2D9F8000001F0D6FE82465046C0B224
:102B1000002801D01AF1020A3B00DBB29BB26846E2
:102B20003900C9B249420844021D15F1500189B269
:102B3000D9F8000001F0BFFE80464046C0B2002830
:102B400001D018F103083B00DBB29BB268463900A4
:102B5000C9B249420844021D15F1A00189B2D9F851
:102B6000000001F0A8FE0100C9B2002900D0001D3C
:102B7000C0B2BDE8F68700000800002070B5040070
:102B80000D0016003200D2B22900200001F035FFFE
:102B900070BD10B50400200001F03AFF10BD38B53B
:102BA00004000D002900200001F038FF32BD38B5C7
:102BB00004000D002900200001F038FF32BD10B5DF
:102BC0000400200001F03AFF10BDF0B40246106886
:102BD00095681318506803EB5004C0071DD54D4489
:102BE0001BE013F8017B05F8017B491EF9D1A0B168
:102BF000B60813F8011B06F00306032E08BF13F8EE
:102C0000016B01EB06214942801C294405D011F8D3
:102C1000016B05F8016B401EF9D1A3420ED013F8E9
:102C2000016B16F0030104BF13F8011BC91C300926
:102C30000F28DAD113F8010B0F30D6E7F0BC02F100
:102C40000C0070472DE9F04F85B006000F0090464C
:102C500099460E9CDDF83CA0109DDDF844B00020A4
:102C60008DF81000CDF80CB02800C0B20290CDF85D
:102C700004A0200080B200904B46DBB242463900EF
:102C800089B2300001F0E0FE8DF8100005200190BF
:102C900004200090032303220021300001F008FFEC
:102CA000C0B205B0BDE8F08F10B50400200001F0FF
:102CB00018FF10BD10B50400200001F018FF10BD72
:102CC00010B504000121200001F017FF10BD38B538
:102CD00004000D002900C9B2200001F017FF32BD29
:102CE00010B50400200001F020FF10BD10B5040055
:102CF000200001F020FF10BD38B504000D002900B0
:102D0000C9B2200001F01DFF32BD38B504000D002E
:102D1000290089B2200001F01DFF32BD10B504006A
:102D2000200001F020FF10BD10B50400200001F0CC
:102D300020FF10BD10B50400200001F0F0FE10BD12
:102D400080B501F01CFF01BD80B501F01CFF01BD85
:102D500080B501F01CFF02BD38B504000D0029004C
:102D6000C9B2200001F017FF31BD30B4002513E0D7
:102D700050F8042BD30744BFA9F101039A18091F87
:102D8000042942F8045BFAD213468C0744BF15802D
:102D90009B1CC90748BF1D7050F8041B0029E7D1D0
:102DA00030BC704780B501F0FFFE02BD10B50400D5
:102DB000200001F003FF10BD2DE9F04704000D00D5
:102DC00000272B4801F0F4FE2800C0B2032802DBE4
:102DD000284801F0EDFE284E306800780028FAD02F
:102DE0002800C0B2032804DB2448006800780028CB
:102DF000FAD0306801F0E8FE2800C0B2032803DBF7
:102E00001E48006801F0E0FE5FF00008404629001F
:102E1000C0B2C9B2884228D24046C0B2002805D00C
:102E200002280BD006D303280DD011E0306840886B
:102E3000208017E030688088608013E00F480068C9
:102E40004088A0800EE00D4800688088E08009E09E
:102E50002F00FFB25FF00009A2464A4639005046F3
:102E600001F0E6FC18F10108D0E70020BDE8F0878A
:102E700000240140003C014000000020040000202C
:102E8000BBBBE1B1B2F5803F80F07E80022A1ED943
:102E90008C46B1FBF2F102FB11C31B0443EA104361
:102EA000B3FBF2FC02FB1C3380B240EA0343B3FBEA
:102EB000F2F002FB103240EA0C4000237047022A75
:102EC00005D98446B0FBF2F002FB10C270474AB14C
:102ED00005D100F0010249085FEA30007047002286
:102EE0000023704701F076BE0B0002000021002095
:102EF0007047904271EB030CF6D3B3F5803F2FD2AD
:102F0000F0B5B3FA83F7B1FA81F4A7F10F0E3D1BC8
:102F10005340CEF1200602FA0EF2F3415340B5F1D0
:102F20000F0746D80F3C2C444140C4F12006A04076
:102F3000F1414140B1FBF3F603FB1611A2FB06453C
:102F4000001BA94102D2761E8018594180EA010275
:102F500021FA0EF362FA0EF200215A403046F0BD1B
:102F600030B4B1FBF3FC03FB1C11A2FB0C45001BAE
:102F7000A94103D2ACF1010C8018594130BC024682
:102F80000B46604600217047B2F1807F65D3F0B5F3
:102F9000B2FA82F7B1FA81F4C7F10F063D1B22FAAB
:102FA00006F307F1110EF24120355A40B5F10F0733
:102FB000B8D94140C4F12006A040F1414140B1FBE5
:102FC000F3FC03FB1C11A2FB0C45001BA94103D21F
:102FD000BCF1010C801859410F2F12D30F3FC903C8
:102FE00041EA5041B1FBF3F603FB1611A2FB064583
:102FF000D4EBC030A94102D2761E8018594146EA6E
:10300000CC3C07B34140C7F12006B840F1414140F4
:10301000B1FBF3F603FB1611A2FB0645001BA94109
:1030200002D2761E8018594180EA010221FA0EF37D
:10303000C7F1200462FA0EF20CFA07F05A402CFA9B
:1030400004F13043F0BD80EA010221FA0EF30021C1
:1030500062FA0EF260465A40F0BD8C46B1FBF2F1C6
:1030600002FB11C31B0243EA1063B3FBF2FC02FB39
:103070001C331B024CEA002043EA1063B3FBF2FC52
:1030800002FB1C331B024CEA002043EA1063B3FB33
:10309000F2FC02FB1C331B024CEA002043EA1063E3
:1030A000B3FBF2FC02FB1C324CEA00200023704709
:1030B00080B501F090FD01BD10B504002000C0B244
:1030C00001F08DFD10BD80B501F090FD01BD80B512
:1030D00001F090FD01BD80B501F090FD01BD80B50E
:1030E00001F090FD02BD80B501F090FD01BD10B56D
:1030F00004000F20FFF7E0FFFFF7E5FFFFF7E7FF12
:1031000010BD80B501F086FD01BDB1F5807F02D311
:103110004FF0FF3070470170012070470078401E6B
:103120008041C043C00F7047806810EA112080B210
:10313000C1F30F21884201D1012000E00020C0B27C
:103140007047C1F30F220261704730B585B0DFF8D8
:1031500070460121200001F061FD0121200001F0F5
:103160005DFD0121200001F059FD0121200001F049
:1031700055FD6846142101F09BFB012001900120C0
:103180000290002003900120049042F22005009557
:103190006946200001F0BAFD29002000FFF7D1FFA9
:1031A00041F2100500956946200001F0AFFD2900AD
:1031B0002000FFF7C6FF48F2800500956946200011
:1031C00001F0A4FD29002000FFF7BBFF44F24005F9
:1031D00000956946200001F099FD29002000FFF7C5
:1031E000B0FF05B030BD2DE9F04F85B0DFF8D44514
:1031F0000121200001F012FD0121200001F00EFD4F
:103200000121200001F00AFD0121200001F006FD4E
:103210000121200001F002FD0121200001F0FEFC4F
:103220000121200001F0FAFC0121200001F0F6FC50
:10323000DFF894550121280001F0F0FC012128005D
:1032400001F0ECFC0121280001F0E8FC012128003C
:1032500001F0E4FC0121280001F0E0FC012128003C
:1032600001F0DCFC0121280001F0D8FC012128003C
:1032700001F0D4FC6846142101F01AFB01200190F2
:10328000012002900420039001200490DFF83C0507
:1032900000906946200001F039FDDFF8301520006C
:1032A000FFF74FFFDFF8286500966946200001F020
:1032B0002DFD31002000FFF744FFDFF8187500975F
:1032C0006946200001F022FD39002000FFF739FF98
:1032D000DFF80485CDF800806946200001F016FD76
:1032E00041462000FFF72DFF44F24009CDF8009041
:1032F0006946200001F00AFD49462000FFF721FF42
:1033000042F2200ACDF800A06946200001F0FEFC40
:1033100051462000FFF715FF41F2100BCDF800B029
:103320006946200001F0F2FC59462000FFF709FF32
:1033300040F6080000906946200001F0E7FC40F6E6
:1033400008012000FFF7FDFE48F280040094694662
:10335000280001F0DBFC21002800FFF7F2FECDF889
:1033600000906946280001F0D1FC49462800FFF78B
:10337000E8FECDF800A06946280001F0C7FC5146E0
:103380002800FFF7DEFECDF800B06946280001F006
:10339000BDFC59462800FFF7D4FEDFF8300400904A
:1033A0006946280001F0B2FCDFF820142800FFF77E
:1033B000C8FE00966946280001F0A8FC31002800EC
:1033C000FFF7BFFE00976946280001F09FFC390017
:1033D0002800FFF7B6FECDF800806946280001F00E
:1033E00095FC41462800FFF7ACFE05B0BDE8F08F24
:1033F0002DE9F84304000220207004250026671CF4
:1034000032002900380001F013FA6420A4F8BE004D
:103410006420A4F8C0004FF44840C4F8C4004AF641
:103420008010C4F8C80047F60C30C4F8CC0045F64C
:103430000A20C4F8D00004275FF0000814F1B60990
:1034400042463900484601F0F3F94FF4E170A4F820
:10345000D600FA20A4F8D8004FF4FA50A4F8DA0005
:103460004FF4C870A4F8DC0045F20820C4F8E4006A
:103470004FF49670A4F8E8002420A4F8EA00B4F809
:10348000EA00C4F8E000D4F8E010B4F8E8004143E2
:10349000C4F8E010D4F8E010D4F8E4004118C4F8FF
:1034A000E010B4F8EA00C92802DBC820A4F8EA005A
:1034B0004FF46160A4F8F2000620A4F8EC00242088
:1034C000A4F8EE000220A4F8F000B4F8EC001528EF
:1034D00002DB1420A4F8EC004FF46170A4F8F600AD
:1034E0004FF41670A4F8F80040F24C40A4F8FA002B
:1034F0004FF42F70A4F8FC004AF2F870C4F80401ED
:10350000C820A4F808011620A4F80A01B4F80A019A
:10351000C4F80001D4F80011B4F808014143C4F81C
:103520000011D4F80011D4F804014118C4F80011B6
:10353000B4F80A01C92802DBC820A4F80A0140F641
:10354000C410A4F812010620A4F80C011E20A4F84F
:103550000E010220A4F81001B4F80C01152802DBBA
:103560001420A4F80C01BDE8F18310B5040020007C
:10357000FFF73EFFFFF7E9FDFFF735FE10BD2DE930
:10358000F84305000C0000260027287801280AD0FF
:1035900051D3032819D018D305283AD027D30728A8
:1035A00013D036D347E0DFF834825FF00009220001
:1035B0000023A2FB080102FB091103FB081141F6DD
:1035C00032120023FFF75CFC38E0DFF814825FF072
:1035D000000922000023A2FB080102FB091103FBE2
:1035E000081149F26E620023FFF74AFC26E0DFF87B
:1035F000F4815FF0000922000023A2FB080102FB16
:10360000091103FB08114FF448620023FFF738FC4F
:1036100014E0DFF8D0815FF0000922000023A2FB54
:10362000080102FB091103FB08114FF4C8520023E3
:10363000FFF726FC02E044F620600021BDE8F2839B
:1036400010B40200002000231800C0B2042810DAD1
:10365000C80705D501201C00E4B21444607004E0E2
:1036600000201C00E4B214446070C9B249085B1C1D
:10367000EAE7002010BC704702001170002070477C
:1036800038B500244F4D51492800FFF74DFD002863
:1036900001D154F001044E492800FFF745FD0028F0
:1036A00001D154F002044B492800FFF73DFD0028EA
:1036B00001D154F0040448492800FFF735FD0028E3
:1036C00001D154F008042000C0B232BD38B5002446
:1036D0003C4D44F240012800FFF726FD002801D1AF
:1036E00054F0010442F220012800FFF71DFD0028DC
:1036F00001D154F0020441F210012800FFF714FD3B
:10370000002801D154F0040440F608012800FFF716
:103710000BFD002801D154F008042000C0B232BDD6
:1037200038B50024284D48F280012800FFF7FCFC42
:10373000002801D154F0010444F240012800FFF7B1
:10374000F3FC002801D154F0020442F220012800C9
:10375000FFF7EAFC002801D154F0040441F2100103
:103760002800FFF7E1FC002801D154F008042000F4
:10377000C0B232BD38B50024134D14492800FFF7FC
:10378000D3FC002801D154F0010411492800FFF7AF
:10379000CBFC002801D154F002040E492800FFF7A9
:1037A000C3FC002801D154F004040B492800FFF7A2
:1037B000BBFC002801D154F008042000C0B232BD87
:1037C00000080140001801400014014080008004FE
:1037D000400040042000200410001004EA4C0F00B8
:1037E000001BB70040420F0070B5FFF749FF04000F
:1037F000FFF76CFF05002543FFF792FF06002E43FD
:10380000FFF7B8FF0100314311F00F010800C0B20B
:10381000012816D033D3032817D014D3052818D085
:1038200015D3072819D016D309281AD017D30B2877
:103830001BD018D30D281CD019D30F281DD01AD394
:103840001DE001201CE002201AE0032018E0042003
:1038500016E0052014E0062012E0072010E0082002
:103860000EE009200CE00A200AE00B2008E00C2002
:1038700006E00D2004E00E2002E00F2000E0FF2013
:10388000C0B270BD10B50400200001F08DFA10BD6B
:1038900010B50400200001F081FA10BD10B504003D
:1038A000200001F087FA10BD80B501F089FA02BD51
:1038B00080B501F089FA02BDDFF8DC060068C0F3CC
:1038C00002207047012210F01F018A40DFF8CC1659
:1038D00003005BB25B0941F82320704710B402007B
:1038E00052B2002A0AD50A01DFF8B436040064B2E5
:1038F00014F00F04234403F8042C05E00A01DFF858
:10390000A436040064B21A5510BC704770B40300AA
:1039100013F00704D4F10700052801D3042001E0C7
:10392000D4F10700251D072D01D2002500E0E51E7A
:10393000012616FA00F0401E0140A94016FA05F5CE
:103940006D1E2A401143080070BC704781B0DFF83B
:1039500058160A6802430A600968014000910099FC
:1039600001B07047DFF840160A6882430A6070476A
:1039700081B0DFF838160A6802430A60096801401E
:103980000091009901B07047DFF820160A68824361
:103990000A607047F0B510EB116491FAA1F5B5FA21
:1039A00085F391FAA1F6B6FA86F7D4F800C05FF075
:1039B0000F0EDBB29B001EFA03FE3CEA0E0CFFB2B8
:1039C000BB0012FA03F353EA0C0CC4F800C0F0BDBC
:1039D000C1F30F2202617047C1F30F2242617047A9
:1039E000C16851F40051C1607047016931F49041E0
:1039F0000161416931F02A01416170470068800925
:103A000010F0010070470068C00910F00100704715
:103A10007FF0400101607047C16851F02001C16032
:103A20007047C16851F04001C1607047C16851F0F2
:103A30008001C1607047C16831F04001C1607047CA
:103A4000C16831F08001C1607047C068800910F022
:103A500001007047C068C00910F0010070470A00FB
:103A6000D2B2426070470100002008700020487008
:103A7000002088700020C870002008710020487164
:103A8000002088710020C871002088600020C86074
:103A9000002008610020486100208861002081F832
:103AA0003C00002081F83D00002081F83F0000200C
:103AB00081F840000020A1F842000020A1F8440055
:103AC0000020A1F846000020A1F84800002081F85D
:103AD0003E00002081F84A000020C86400200865EC
:103AE000002048650020886500200877002048777E
:103AF0000020C877002081F82000002048840020A2
:103B000088840020C8840020088501208877002050
:103B100081F82A000020C862002008630020486362
:103B2000002088630020C865002070472DE9F84F09
:103B300004000F00904699460A9DDDF82CA00C9ECB
:103B4000DDF834B02000FFF78EFF84F83D90A4F834
:103B50004870C4F8588066772585C4F838A0C4F842
:103B60005CB0002C08D0DFF848040068844203D120
:103B7000200000F099FD11E0002C05D0002C03D1AD
:103B8000200000F023FE09E0002C05D0002C03D11A
:103B9000200000F01EFE01E0022000E00020BDE851
:103BA000F28F38B504000D00E06800280ED0280020
:103BB000C0B2012805D10922A168E068FFF7EAFE3A
:103BC00004E00822A168E068FFF7E4FE002032BDAF
:103BD00038B504000D00606900280CD02800C0B280
:103BE000012804D121696069FFF7F6FE03E021692D
:103BF0006069FFF7EDFE002032BD70B504000D00D6
:103C00000026E06D002802D0E06D80470600280005
:103C1000C0B2002803D0E664E06C206502E0E662F2
:103C2000E06A2063002070BDF8B504000D001600A6
:103C30000027E06D002803D0E06D8047801C07005E
:103C40003000C0B200281FD02765E06C216D88428B
:103C500009D2216DE06C091A8D4235D2012084F819
:103C60004A00012031E0206DE16C88422CD2E16CE9
:103C70005FF0FF30411A206D41188D4224D201209F
:103C800084F84A00012020E02763E06A216B884223
:103C900009D2216BE06A091A8D4215D2012084F8FD
:103CA0002A00012011E0206BE16A88420CD2E16A0F
:103CB0005FF0FF30411A206B41188D4204D2012081
:103CC00084F82A00012000E00020F2BD70B5040055
:103CD0000D0000262800C0B200281FD0E06C00288C
:103CE00042D0606D00283FD0E06C002801D1002058
:103CF0003CE00122616D2000FFF796FF06003000D6
:103D0000C0B2002830D02278521EDFF87819200087
:103D100000F000FC200000F0B2FB25E0E06A002883
:103D200022D0606B00281FD0E06A002801D100205B
:103D30001CE00022616B2000FFF776FF06003000D8
:103D4000C0B200280DD0E06A00280AD02278521EA6
:103D5000DFF83419200000F0DDFB200000F0ADFB9F
:103D600002E0002084F82A003000C0B270BD38B5EF
:103D700004000D00DFF814190D7094F83F000028BE
:103D800005D002283DD01CD3032866D066E0B4F8E5
:103D90004400002814D160780A78904210D1087845
:103DA000A16D0870012084F83F000120A4F84600AE
:103DB00001212000FFF721FF0121200000F04EFB30
:103DC0004CE00878002814D00878B4F84820D2B223
:103DD00090420ED20878A26D50700878A4F8420084
:103DE000B4F84600401CA4F84600022084F83F00C6
:103DF00002E0002084F83F0001212000FFF7FDFED3
:103E00002CE0A06DB4F84420104409788170B4F817
:103E10004400401CA4F84400B4F84600401CA4F838
:103E20004600B4F84400B4F8481080B2884202D387
:103E30000020A4F8440001212000FFF7DEFEB4F8C2
:103E40004400B4F8421080B2884205D3032084F8BD
:103E50003F00012084F83E0000E0FFE7002032BD73
:103E600038B504000D00DFF838190D7094F83F00E4
:103E7000002807D0022837D01ED3042800F08980FC
:103E80005BD387E0B4F84400002814D160780A7846
:103E9000904210D10878A16D0870012084F83F008D
:103EA0000120A4F8460001212000FFF7A6FE012111
:103EB000200000F0D3FA6DE00878A26D5070087809
:103EC000A4F84200B4F842000002A4F84200022024
:103ED00084F83F00B4F84600401CA4F846000121D5
:103EE0002000FFF78AFE55E00878A26D9070B4F8C4
:103EF000422008788218A4F84220B4F84600401CFA
:103F0000A4F84600B4F8420000280ED0B4F84200ED
:103F1000B4F8481080B2884207D2B4F84200A4F83E
:103F20004600032084F83F0002E0002084F83F00B0
:103F300001212000FFF761FE2CE0A06DB4F84420C1
:103F400010440978C170B4F84400401CA4F844003F
:103F5000B4F84600401CA4F84600B4F84400B4F895
:103F6000481080B2884202D30020A4F84400012106
:103F70002000FFF742FEB4F84400B4F8421080B2CB
:103F8000884205D3042084F83F00012084F83E00D5
:103F900000E0FFE7002032BD0CED00E000E100E0B2
:103FA00018ED00E000E400E01C1002401810024090
:103FB0003400002038B504000D00B4F84800FF2894
:103FC00005DA2900C9B22000FFF7D1FE04E029007C
:103FD000C9B22000FFF744FF32BD38B504000D0020
:103FE0002900C9B2A069FFF73AFDA069FFF706FDF5
:103FF000002802D1FFF75CFCF7E7A069FFF708FD96
:10400000002032BD10B50400608C00282CD0A08C9C
:10401000618C80B2884223D0A06BA18C415CA069E6
:10402000FFF71DFDA08C401CA084A08C218D80B2C8
:10403000884201D30020A084A08C618C80B2884289
:1040400018D3E08C002815D0A08CE18C80B2884277
:1040500010D3A069FFF7F4FCA069FFF7E2FC09E0C8
:10406000A069FFF7EDFC05E0A069FFF7E9FC20007F
:1040700000F023FA00212000FFF7BFFD002010BD53
:1040800010B504006069002809D0E07F002806D13F
:104090000D21A069FFF7E3FC0120E07714E06069DF
:1040A000002809D0E07F012806D10A21A069FFF786
:1040B000D6FC0220E07707E00020E077A069FFF758
:1040C000BAFC200000F0F9F9002010BD38B504005A
:1040D0000D00A06B00281ED0608C218D80B288421C
:1040E00001D300206084A06B618C4554608C401C1F
:1040F0006084A069FFF7AEFC00280AD101212000EE
:10410000FFF766FD01212000FFF74BFDA069FFF7D7
:104110008DFC002000E0012032BD70B504000D00D0
:104120000126A06B00283FD0607F012802D0607F6D
:10413000022801D16D1C08E0607F032801D1AD1C6D
:1041400003E0607F042800D12D1D60792179401A99
:10415000002800D06D1C94F82000012800D1AD1C6F
:10416000208DFB280EDB290089B2090AC9B2200084
:10417000FFF7ACFF2900C9B22000FFF7A7FF060038
:10418000ED1C06E02900C9B22000FFF79FFF0600E2
:10419000AD1C60792179401A002804D0E178200014
:1041A000FFF794FF0600E5843000C0B270BD38B55B
:1041B0000400607F002856D000F00EFE002852D187
:1041C0000025607F01280AD1618CA06B00F023FEDE
:1041D00005002900C9B22000FFF778FF41E0607FA9
:1041E00002280BD1628CA16B072000F009FE0500AC
:1041F0002900C9B22000FFF769FF32E0607F032881
:1042000010D1618CA06B00F0F3FD05002900090AB4
:10421000C9B22000FFF75AFF2900C9B22000FFF7FA
:1042200055FF1EE0607F04281BD1618CA06B00F05D
:10423000D7FD05002900090EC9B22000FFF746FF8F
:104240002900090CC9B22000FFF740FF2900090A24
:10425000C9B22000FFF73AFF2900C9B22000FFF7DA
:1042600035FF00200CE094F82000012807D10D2133
:104270002000FFF72BFF0A212000FFF727FF012076
:1042800032BDF8B5040000250026B4F8427094F859
:104290003D00002800F0E08000F09EFD002840F086
:1042A000DB8094F83D00012823D17F1EB4F848003C
:1042B000FA2809DAA06D4770A06D390089B2084468
:1042C00080780600BF1C0DE0380080B2000AA16DA6
:1042D0004870A06D8770A06D390089B20844C0781D
:1042E0000600FF1C390089B2A06D00F094FD0500A6
:1042F000AEE094F83D00022824D17F1EB4F84800B7
:10430000FA2809DAA06D4770A06D390089B2084417
:1043100080780600BF1C0DE0380080B2000AA16D55
:104320004870A06D8770A06D390089B20844C078CC
:104330000600FF1C3A0092B2A16D072000F060FD5C
:10434000050085E094F83D00032831D1BF1EB4F884
:104350004800FA2810DAA06D4770A06D390089B2C4
:1043600008444078A16D3A0092B21144897811EB6B
:1043700000210E00BF1C14E0380080B2000AA16DBD
:104380004870A06D8770A06D390089B208448078AC
:10439000A16D3A0092B21144C97811EB00210E00D0
:1043A000FF1C390089B2A06D00F022FD05004FE02E
:1043B00094F83D0004284BD13F1FB4F84800FA2878
:1043C0001EDAA06D4770A06D390089B2084410F85C
:1043D000010CA16D3A0092B2895C11EB0021A06D35
:1043E0003A0092B21044407810EB0120A16D3A00DF
:1043F00092B21144897811EB00210E00BF1C21E01C
:10440000380080B2000AA16D4870A06D8770A06D61
:10441000390089B2405CA16D3A0092B211444978EA
:1044200011EB0021A06D3A0092B21044807810EB9D
:104430000120A16D3A0092B21144C97811EB00211C
:104440000E00FF1C390089B2A06D00F0C9FC050008
:10445000B54201D0012000E00020F2BD02000800BA
:10446000C0B2002803D0002082F84A0002E00020F9
:1044700082F82A000020704790F83E00704710B57F
:10448000040000212000FFF7A3FB002084F83F0078
:104490000020A4F842000020A4F844000020A4F862
:1044A0004600002084F83E000020E06400202065E3
:1044B000002084F84A00002010BD10B5040001203F
:1044C000A077002060840020A0840020E0840020E9
:1044D000E06200202063002084F82A000020E077BA
:1044E00000212000FFF774FB00212000FFF759FB9B
:1044F000002010BD020050791179401A002807D021
:10450000906D1179405CD178884201D0012000E0A3
:10451000002070470CB42DE9F84F04000D00A0698D
:10452000FFF798FA002807D0A069FFF76CFA002877
:1045300002D0FFF7BDF9F7E7A069FFF786FA002878
:104540000DD0A069FFF75AFA002805D0E07F0028B7
:1045500002D1FFF7ADF9F4E7A069FFF759FA01219D
:104560002000FFF735FB01212000FFF71AFB5FF069
:10457000000A5FF0000B0AAE8A4F33002A004FF4A6
:104580008061380000F050FC80465FF0000948462A
:10459000414680B289B2884208D2484680B2395C2E
:1045A0002000FFF71AFD19F10109F0E700212000B2
:1045B000FFF70EFB00212000FFF7F3FABDE8F10F33
:1045C0005DF80CFB38B504000D00774884420ED12D
:1045D0002800C0B2002804D04FF48040FFF7C8F98B
:1045E00003E04FF48040FFF7CFF9002048E06F4828
:1045F00084420ED12800C0B2002804D05FF40030FD
:10460000FFF7A4F903E05FF40030FFF7ABF90020F7
:1046100036E0674884420ED12800C0B2002804D09A
:104620005FF48020FFF792F903E05FF48020FFF74A
:1046300099F9002024E05F4884420ED12800C0B2DE
:10464000002804D05FF40020FFF780F903E05FF456
:104650000020FFF787F9002012E0574884420ED16E
:104660002800C0B2002804D05FF48010FFF76EF974
:1046700003E05FF48010FFF775F9002000E00120EF
:1046800032BD00001CD700083CD700081A490020A2
:1046900070B40600039D049CF17032717371B571A2
:1046A000F471002070BC7047F0B58BB00400434D2E
:1046B0000121280000F0B2FA6846142100F0F8F851
:1046C0000920019003200290002003900120049013
:1046D0003B4E00966946280000F018FB39480090D0
:1046E000082001906946280000F010FB2E4F38008A
:1046F00000F01DFC01213800FFF764FF05A8182118
:1047000000F0D6F85FF4E13005900020069000201C
:104710000790002008900C20099000200A9005A91D
:10472000380000F048FC3800FFF75FF9FFF7C4F8E5
:1047300000220221FFF7EAF801002520FFF7CEF85A
:104740002520FFF7BFF83800FFF766F93800FFF7BC
:1047500047F9E560A660A76102202070E06D00289F
:1047600004D0642060656420606303E0002060651D
:104770000020606300206077552060705A20A07090
:1047800000212000FFF724FA00212000FFF709FA9A
:104790000D492000FFF7BEFE00200BB0F0BD000069
:1047A0001B490020D83E0020003801400044004052
:1047B00000480040004C004000500040000801400C
:1047C000020002040400040490D700080100002045
:1047D000704701000020704780B500F04BFC01BD20
:1047E00080B500F04BFC02BD80B500F04BFC01BD74
:1047F00080B500F04BFC01BD10B504002000C0B234
:1048000000F048FC10BD10B504002000C0B200F05C
:1048100048FC10BD10B504002000C0B200F048FCF8
:1048200010BD10B504002000C0B200F048FC10BD5F
:1048300062F30F2262F31F42401810F0030308D006
:10484000C91A1FD3DB0748BF00F8012D28BF20F885
:10485000022D130030B414461546103928BF20E944
:104860003C00FAD8490728BF20E90C0048BF40F8AF
:10487000042D890028BF20F8022D48BF00F8012D23
:1048800030BC7047C91818BF00F8012DCB0728BFEE
:1048900000F8012D70478268521C8260426832B174
:1048A0000268531C036011704168491E41607047E3
:1048B000002200F00BBCF8B504000D0016001F002C
:1048C0003B009BB23200290089B2200000F017FCA7
:1048D000F2BDF8B504000D0016001F003B009BB2AE
:1048E0003200290089B2200000F017FCF2BDF0B4BC
:1048F0000300002000264C1E00252800270080B25F
:10490000BFB2B8422ED2002006003700BFB2A44684
:104910001FFA8CFC280080B2BCEB000C67451FDA44
:10492000300080B233F810003700BFB203EB470706
:104930007F88B84212D2300080B203EB400040883A
:104940000200300080B233F810003700BFB203EB32
:1049500047077880300080B223F81020761CD4E717
:104960006D1CCAE70020F0BC70472DE9F843814672
:104970000E001700002400250020B84640463100F4
:1049800080B289B288420ED2404680B239F8100017
:1049900000F0D2FB22002B0000F0DCFB04000D0035
:1049A00018F10108EAE7B6B2BFB2F61B300000F01A
:1049B0008FFC02000B002000290000F09BFC00F09F
:1049C000BDFD80B2BDE8F28330B4030000200024B6
:1049D0002000150080B2ADB2A8420BD2200080B2F8
:1049E000185C2500ADB24D5DA84201D0012002E067
:1049F000641CEDE7002030BC704770B504000D006A
:104A000016003200D2B22900200000F01EFE70BD58
:104A100010B50400200001F02CF810BD38B50400DA
:104A20000D002900200001F09FF832BD38B50400C8
:104A30000D002900200001F009F932BD10B5040075
:104A4000200001F012F910BD2DE9F34F85B00600EA
:104A500017009846109CDDF84490129DDDF84CA09C
:104A600000208DF81000CDF80CA02800C0B20290F4
:104A7000CDF80490200080B200904346DBB23A00AB
:104A8000BDF818103000FFF751F883465846C0B201
:104A9000002808D100F0A0F9002804D0002086F8F2
:104AA0003D00002070775846C0B207B0BDE8F08FD7
:104AB0002DE9FE4306000F00904699460A9D0B9C87
:104AC0002000C0B201902800C0B200904B46DBB27B
:104AD0004246D2B23900C9B23000FFF7D9FDBDE875
:104AE000FE8310B504002000FFF7C9FC10BD10B50F
:104AF00004002000FFF7C0FC10BD38B504000D0015
:104B00002900C9B22000FFF7E1F832BD38B5040032
:104B10000D002900C9B22000FFF74CFA32BD10B5D4
:104B200004002000FFF7E6FC10BD10B504002000D3
:104B3000FFF768FA10BD10B504002000FFF7A0FAD7
:104B400010BD38B504000D002900C9B22000FFF7E0
:104B5000BDFA32BD38B504000D00290089B220002D
:104B6000FFF7DBFA32BD10B504002000FFF71FFB92
:104B700010BD10B504002000FFF783FB10BD80B509
:104B800001F01CFB01BD80B501F0D3FA01BD80B579
:104B900001F010FB02BD38B504000D002900C9B2B8
:104BA000200001F00FFB31BD80B501F079FF02BD9F
:104BB00010B50400200001F079FF10BD10B504000D
:104BC000200001F0A2FF10BD10B50400200001F08C
:104BD000EFFF10BD704780B502F059FB01BD10B565
:104BE00004002000C0B202F060FB10BD80B502F0EE
:104BF00078FB01BD80B502F0C5FB01BD80B502F0B8
:104C000012FC01BD80B502F057FC02BD80B502F078
:104C1000F7FD01BD80B502F027FF01BD38B50400E6
:104C20000D002900C9B2200003F0FAFD31BD80B5A6
:104C300003F0FFFD01BD0000F0B510EB116491FA27
:104C4000A1F5B5FA85F391FAA1F6B6FA86F7D4F88C
:104C500000C05FF00F0EDBB29B001EFA03FE3CEAC1
:104C60000E0CFFB2BB0012FA03F353EA0C0CC4F8AB
:104C700000C0F0BDF0B510EB116491FAA1F5B5FAE2
:104C800085F391FAA1F6B6FA86F7D4F800C05FF082
:104C9000030EDBB29B001EFA03FE3CEA0E0CFFB2D1
:104CA000BB0012FA03F353EA0C0CC4F800C0F0BDC9
:104CB000F0B510EB116491FAA1F5B5FA85F391FA0C
:104CC000A1F6B6FA86F7D4F800C05FF0040EDBB2A6
:104CD0009B001EFA03FE3CEA0E0CFFB2BB0012FA68
:104CE00003F353EA0C0CC4F800C0F0BD30B4C36841
:104CF0000C00240A94FAA4F4B4FA84F533EA1123DC
:104D000012FA05F52B43C36030BC70472DE9F04122
:104D100004000D002F683F023F0C97FAA7F0B0FA8D
:104D200080F85FFA88F8380030FA08F0002832D0AE
:104D3000380030FA08F0C0072AD5B8F1080F05D2BC
:104D400040F2011010FA08F0060007E05FF00111D0
:104D500040460838814051F080610E006A68310099
:104D60002000FFF769FF2A6931002000FFF7BEFF2E
:104D70006868012802D06868092809D1AA6831004A
:104D80002000FFF777FFEA6831002000FFF790FF6F
:104D900018F10108C7E70120BDE8F08110B5040053
:104DA000200003F04BFD10BD10B50400200003F0FF
:104DB00055FD10BD10B50400200003F067FD10BDC7
:104DC00080B503F089FD02BD80B503F0A4FD02BDEE
:104DD00080B503F0A9FD01BD80B503F0A9FD02BDBA
:104DE00038B504000D002900200003F0A5FD32BDF8
:104DF00038B504000D002900200003F0A5FD32BDE8
:104E000070B504000D001600320029002000C0B269
:104E100003F0A2FD70BD38B504000D00290020008C
:104E200003F0A5FD32BD000008B584B00023039354
:104E300000290EBF01930190491E0291009301A920
:104E400004AB07487844183003F09AFD019909B182
:104E500000220A70002858BF039805B000BD00BFAB
:104E600037FAFFFFC068400B10F00100704702697D
:104E700032F440520A4302617047426932F4407290
:104E80000A4342617047F0B46423192404FB01F51E
:104E90009600B5FBF6F56426B5FBF6F504FB01F6C6
:104EA0009700B6FBF7F604FB01F75FEA820CB7FB4D
:104EB000FCF75FF0640CB7FBFCF703FB17663601E9
:104EC00032366427B6FBF7F616F0F00616EB051639
:104ED00004FB01F59700B5FBF7F504FB01F497001F
:104EE000B4FBF7F46427B4FBF7F403FB14531B0182
:104EF00032336424B3FBF4F313F00F039E19B6B2FC
:104F00008660F0BC704753490A6802430A607047E4
:104F100050490A6882430A6070474F490A68024351
:104F20000A6070474C490A6882430A60704738B586
:104F3000040001254948844208D14FF48040FFF71E
:104F4000ECFF4FF48040FFF7EDFF31E0444884422E
:104F500008D15FF40030FFF7D6FF5FF40030FFF7B1
:104F6000D7FF25E03F48844208D15FF48020FFF757
:104F7000CAFF5FF48020FFF7CBFF19E03A48844274
:104F800008D15FF40020FFF7BEFF5FF40020FFF7B9
:104F9000BFFF0DE03548844208D15FF48010FFF771
:104FA000B2FF5FF48010FFF7B3FF01E000200500BF
:104FB0002800C0B232BDF8B584B005000E0000274D
:104FC00000242800FFF74EFF00283DD1E96828485B
:104FD000014070680143F068014330690143E960B2
:104FE000B1682800FFF743FF71692800FFF745FF0C
:104FF000684604F08CFC1948854202D103980400ED
:1050000016E01748854202D10298040010E01548C6
:10501000854202D1029804000AE01348854202D179
:105020000298040004E01148854201D1029804006E
:10503000002C09D03068002806D001200700326813
:1050400021002800FFF71FFF3800C0B205B0F0BDF7
:1050500000000000101002400C1002400038014017
:105060000044004000480040004C00400050004018
:10507000F3E9FFFF80B504F0B5FD01BD80B504F094
:10508000E3FD02BD80B504F0EDFD01BD80B504F087
:1050900013FE01BD10B504002000C0B204F023FED1
:1050A00010BD10B504002000C0B204F02CFE10BDED
:1050B00010B504002000C0B204F037FE10BD10B5DA
:1050C00004002000C0B204F042FE10BD00B500BFD5
:1050D000130096469446103928BFA0E80C50FAD821
:1050E0005FEA417C28BF0CC048BF40F8042BC907C9
:1050F00028BF20F8022B48BF00F8012B00BDF8B5EF
:1051000004000D0016001F003B009BB23200290076
:1051100089B2200005F083F8F2BDF8B504000D0057
:1051200016001F003B009BB23200290089B220000C
:1051300005F0C5F9F2BD0000014648B1B0FA80F1B2
:105140008840C91CC1F58461090501EBD0214005E7
:105150007047000070B44FF0004591EA030F45F12D
:10516000D1816B40841A71EB030604D26E40001BA0
:10517000B141121973414FF4001C1CEB410F34BFB5
:105180007CEB430683E00C0DA4EB1356362E00F3A4
:105190007C80012E45EAC32341DC43EA525312BF0F
:1051A000D20292025B08240545EAC12141EA50512E
:1051B000D2EBC020994125D407D1B0FA80F610FA7D
:1051C00006F162D00020203608E0B1FA81F6B14045
:1051D000C6F1200220FA02F21143B0404FEAF47403
:1051E000B4EB465434F001064FEA74040AD8D6F5FD
:1051F0000016760D04F00044F04061FA06F25040CB
:10520000F1404840C00A40EA415021F0004128BF27
:105210005FEA500550F1000044EBD12135E0DB0A94
:1052200045EAC121C90AB6F120050EDD42EA024273
:10523000120CC5F1200603FA06F6EB4042EA060519
:105240006D42984161F100010DE062FA06F5F2400D
:10525000554063FA06FC82EA0C02F3405A406D4264
:10526000904161EB030111F4801F05D1641E6205BA
:1052700002D06D004041494121F48011430875F18D
:10528000004350F1000041EB045170BC70471CEB2F
:10529000410F15D223F0004352EA43060BD04FEAE8
:1052A0004C0CBCEB410F04D80C0D661E342EB7DD40
:1052B000EBE7801A994150EA410608BF0021E4E774
:1052C00008BF1CEB430F28BF6FF00001DDE70000B3
:1052D000C11768B14840401AB0FA80F29040D21C21
:1052E000C907C2F5846241EA025202EBD0214005AF
:1052F00070470000F0B540F2FF7581EA030C0CF036
:10530000004C15EA11541DBF15EA1357AC42AF42C9
:10531000E5E0BC41C1F31301C3F31303801A9941C3
:1053200043F4801304D2641E40004941801859415F
:10533000C90241EA5051B1FBF3F603FB1611A2FB7F
:105340000675D7EBC020A94102D2761E80185941BC
:10535000C90241EA5051B1FBF3FE03FB1E11A2FB4F
:105360000E75D7EBC020A94103D2AEF1010E801813
:105370005941890241EA9051760546EA8E2EB1FBE9
:10538000F3F603FB1611A2FB0675D7EB8020A941AB
:1053900002D2761E80185941C90241EA50514EEAA4
:1053A000060EB1FBF3F603FB1611A2FB0675D7EB55
:1053B000C020A94102D2761E80185941C90241EA93
:1053C0005051B1FBF3F703FB1711A2FB0735D3EBE9
:1053D000C020A94167F100070CBF004247F0010758
:1053E00066F3D5274FEA1E31B80814F5806412DD44
:1053F000BD0775F1004250EB0E5051EB045111F511
:10540000801F5CBF41EA0C01F0BD4CF07F6141F0B0
:10541000E0410020F0BDBD076D0840EA0E5041F4A8
:105420008011D4F10104B4F120060ADAC4F1200697
:105430000200E04001FA06F3E1401843B240154390
:105440000EE0342C13DCC6F1200445EA40056D085B
:1054500020FA06F2154321FA06F0A1400D4300217F
:1054600075F1004250F1000051EB0C01F0BD00203D
:105470005FEA0C01F0BDCFB992185B41B3FA83F734
:1054800004BFB2FA82F6BF190B3FB7F120062FBF57
:1054900002FA06F3BB40C7F1200622FA06F638BF2F
:1054A0003343BA401CB1E419641E33E77F4231F044
:1054B0000041B1FA81F404BFB0FA80F6A4190B3CA4
:1054C000B4F120062FBF00FA06F1A140C4F1200676
:1054D00020FA06F638BF3143A0403C1B1AE7AC4225
:1054E0001ABF05EA1357AF4212E050EA41061CBF4B
:1054F00052EA4306BFE750EA4107304661461CBF07
:1055000041EA0551F0BD52EA430C08BFC143F0BD6A
:1055100000204FF4001616EB410F98BF16EB430F17
:1055200008BF16EB410F24BFC14305E016EB430F44
:105530000CBF61464CEA0551F0BD0000C1F30A53AF
:1055400040F2FE329B1A14DDD3F120034FEAE172E0
:1055500008DDC90241EA505141F00040D8408018AE
:105560005040704703F2E13010B1D24382F0004066
:105570007047002070470000012101700121417037
:10558000002181700021C170002101710021417151
:10559000022181712321C1710D21017241214172CA
:1055A0000D2181724121C1720021017300214173DB
:1055B000002181730021C173002101740021417415
:1055C000002181740021C174002101750021417501
:1055D000002181750021C1750021017600214176ED
:1055E000002181760021C1760021C1610021016284
:1055F000DFF8F016416281620021C162002101637F
:10560000002141637047010000208863DFF8D8065D
:10561000C86344F240020A64486448F28000886427
:10562000002081F84C00002081F84D0000204865E2
:105630003420A1F84E0000200865002070470100CA
:1056400000207047010000207047F8B504000D00ED
:10565000160000272000FFF78FFF002C08D0DFF88E
:105660008C060068844203D12000FFF7CCFF11E0D4
:10567000002C05D0002C03D12000FFF7E0FF09E04B
:10568000002C05D0002C03D12000FFF7DBFF01E048
:10569000012014E03000C0B2002803D0012084F8BB
:1056A0004C0008E0290014F1380004F094FF0700D2
:1056B000012084F84C00200000F002F8C0B2F2BDD6
:1056C00070B504000025211D200000F04EF8211DBA
:1056D000200000F04AF806003000C0B2002804D1D3
:1056E000A11D200000F041F806003000C0B270BDDE
:1056F0002DE9F84304000D0016005FF000090027B3
:10570000012114F1380004F06EFF80464046C0B21B
:10571000002802D0022080461CE00020070038004C
:105720003100C0B2C9B2884214D23800C0B2295C7C
:1057300014F1380004F075FF14F1380004F062FF32
:1057400080464046C0B2002802D0F81C804601E0E6
:105750007F1CE4E714F1380004F04EFF4046C0B26D
:10576000BDE8F28303000120704738B504000D0046
:1057700094F84C00002805D1022229002000FFF7F0
:10578000F1FF04E0022229002000FFF7B1FF32BD43
:105790000022C261704770B504000D00A06A60620B
:1057A0000020E061DFF84805854204D3050041F29E
:1057B0004460E0610BE045F20820854203D2050019
:1057C0000320E06103E029002000FFF7E1FFE5622C
:1057D000E06A4FF47A71B0FBF1F02063E06945199B
:1057E000DFF81005854206D30020A070002020704D
:1057F00000206070E8E0DFF80005854207D3002054
:10580000A07002202070002060706D00DCE0DFF8E6
:10581000EC04854208D30020A070032020700020F3
:10582000607003204543CFE0DFF8D404854207D3FE
:105830000020A0700420207000206070AD00C3E044
:10584000DFF8C004854208D30020A0700520207036
:105850000020607006204543B6E0DFF8AC048542C6
:1058600007D30020A0700620207000206070ED009B
:10587000AAE0DFF89804854208D30020A070072032
:105880002070002060700C2045439DE0DFF880040C
:10589000854207D30020A070062020700120607090
:1058A0002D0191E0DFF86C04854208D30020A07040
:1058B00007202070012060701820454384E0DFF845
:1058C0005804854207D30020A070062020700220D3
:1058D00060706D0178E0DFF84404854208D3002051
:1058E000A0700720207002206070302045436BE0DC
:1058F000DFF82C04854207D30020A070062020701A
:1059000003206070AD015FE0DFF81804854208D322
:105910000020A070072020700320607060204543A5
:1059200052E0DFF80404854207D30020A070042071
:10593000207005206070ED0146E0DFF8F00385423D
:1059400008D30020A0700520207005206070C020C2
:10595000454339E0DFF8D80385420AD30120A0701F
:105960000620207004206070ED01606A40086062CB
:105970002AE04BF21C7085420BD30120A070072057
:10598000207004206070C0204543606A4008606257
:105990001AE048F6551085420AD30120A07006206F
:1059A0002070052060702D02606A400860620BE084
:1059B0000120A07007202070052060704FF4C07097
:1059C0004543606A40086062AD00280004F038FE7C
:1059D0000600606A04F034FE0100300004F03EFE70
:1059E0006063606B04F0B8FEE070E07804F028FEBD
:1059F0000100606B04F0C6FEDFF8381304F002FF0C
:105A000004F06CFF20620D2020722078400160724B
:105A1000607A617850EA81006072607A50F001002B
:105A2000607248202073A078002801D1002000E097
:105A300010206073617BE078014361734A20207419
:105A4000206A800C10F03F006074206A400C10F057
:105A5000010050F04C002075206A400A6075206AF1
:105A6000000A10F0010050F04E002076206A6076A7
:105A700070BD2DE9F84F8EB004002000FFF720FE26
:105A80000028FAD102200D9000200C9014F10A0594
:105A90000C9A0D992800FEF7CBFE02200B900020F7
:105AA0000A9014F10E050A9A0B992800FEF7C0FE21
:105AB000022009900020089014F11205089A099913
:105AC0002800FEF7B5FE022007900020069014F192
:105AD0001605069A07992800FEF7AAFE02200590EF
