:020000040800F2
:10000000E0580020B1C00008B1BA0008C1BA000829
:10001000C9BA0008CBBA0008CDBA00080000000039
:10002000000000000000000000000000CFBA00083F
:10003000D1BA000800000000D3BA0008D5BA000801
:10004000DDBA0008D5BB00084DC1000851C1000849
:1000500055C10008B9BA000859C100085DC10008BF
:1000600061C1000865C1000869C100085FBB0008E4
:100070006DC1000871C1000875C1000879C1000890
:100080007DC1000881C1000885C1000889C1000840
:100090008DC1000891C1000895C1000899C10008F0
:1000A0009DC10008A1C10008A5C10008A9C10008A0
:1000B000CDBB0008ADC10008B1C10008B5C1000842
:1000C000B9C10008BDC10008C1C10008C5C1000810
:1000D000C9C10008E7BA0008CDC10008D1C10008B5
:1000E000D5C10008D9C10008DDC10008E1C1000880
:1000F000E5C10008E9C10008EDC10008F1C1000830
:10010000F5C10008F9C10008FDC1000801C20008DE
:1001100005C2000809C200080DC2000811C200088B
:1001200015C2000819C200081DC2000881BB0008E2
:10013000C1F30F2202617047C1F30F224261704781
:1001400010B50400200001F0D9FF042114F1D400FF
:1001500001F0EBFF052114F1F40001F0E6FF10BD02
:1001600038B504000D002900200001F0CDFF32BD9C
:10017000F8B504000D0016003100200001F0C4FFA6
:1001800007003900280001F0EEFFF2BD2DE9F04133
:1001900004000D0000260027A178200002F088F856
:1001A000A06DA179405C012812D0C0F071810328B4
:1001B00074D03ED3052800F0B180C0F089800728B4
:1001C00000F0F880C0F0D080082800F019815FE1CD
:1001D0000321200002F075F8A06D6179415C2000D8
:1001E00002F066F8A06DE179405CA16DE2791144FE
:1001F000497811EB0021A06DE2791044807810EB72
:100200000120A16DE2791144C97811EB00210F00A2
:100210003900280001F0A7FF06003100C9B2200014
:1002200002F046F8A06DA179415C200002F040F890
:1002300030E102F065F802F067F84FF47A71484354
:1002400007000721200002F03CF8A06D6179415CB5
:10025000200002F02DF83100C9B2200002F028F889
:10026000A06DA179415C200002F022F83900090E4E
:10027000C9B2200002F01CF83900090CC9B22000F4
:1002800002F016F83900090AC9B2200002F010F88D
:100290003900C9B2200002F00BF8FBE0804800688A
:1002A00001F05BFF0321200002F00BF8A06D6179E3
:1002B000415C200001F0FCFF3100C9B2200001F0D8
:1002C000F7FFA06DA179415C200001F0F1FFE1E0B2
:1002D000A06DE179405C002805D042F22001714810
:1002E000FFF72AFF04E042F220016E48FFF720FFEB
:1002F0000321200001F0E5FFA06D6179415C200041
:1003000001F0D6FF3100C9B2200001F0D1FFA06D8D
:10031000A179415C200001F0CBFFBBE0A06DE17949
:10032000405C002805D041F210015E48FFF704FF51
:1003300004E041F210015B48FFF7FAFE03212000C0
:1003400001F0BFFFA06D6179415C200001F0B0FFBA
:100350003100C9B2200001F0ABFFA06DA179415C72
:10036000200001F0A5FF95E0A06DE179405C002838
:1003700005D048F280014B48FFF7DEFE04E048F26A
:1003800080014848FFF7D4FE0321200001F099FFC7
:10039000A06D6179415C200001F08AFF3100C9B293
:1003A000200001F085FFA06DA179415C200001F0E3
:1003B0007FFF6FE0A06DE179405C002805D044F23A
:1003C00040013848FFF7B8FE04E044F240013548E8
:1003D000FFF7AEFE0321200001F073FFA06D6179ED
:1003E000415C200001F064FF3100C9B2200001F03F
:1003F0005FFFA06DA179415C200001F059FF49E049
:10040000A06DE179405C002816D0DFF8988042F2B8
:1004100020014046FFF790FE41F210014046FFF7F1
:100420008BFE48F280014046FFF786FE44F2400111
:100430004046FFF781FE15E0DFF8688042F22001B8
:100440004046FFF775FE41F210014046FFF770FE8F
:1004500048F280014046FFF76BFE44F240014046FF
:10046000FFF766FE0321200001F02BFFA06D6179EC
:10047000415C200001F01CFF3100C9B2200001F0F6
:1004800017FFA06DA179415C200001F011FF01E090
:10049000012006003000C0B2BDE8F081000000007D
:1004A00034000020000801402DE9F84F04000D0041
:1004B000160000275FF00008A178200001F0F8FE88
:1004C000A06DA179405C012821D0C0F002830328EF
:1004D00077D049D3052800F0CE80C0F09F80072850
:1004E00000F02781C0F0F680092800F08081C0F07C
:1004F0004F810B2800F06D82C0F0F1810D2800F0D3
:10050000A882C0F086820E2800F0C382E1E2A06DCE
:10051000E179405CA16DE2791144497811EB002149
:10052000A06DE2791044807810EB0120A16DE27992
:100530001144C97811EB002188460321200001F005
:10054000C0FEA06D6179415C200001F0B1FE002188
:10055000200001F0ADFEA06DA179415C200001F00A
:10056000A7FEC5F8C480B6E2A06DE179405CA16D3C
:10057000E2791144497811EB0021A06DE279104431
:10058000807810EB0120A16DE2791144C97811EB5C
:10059000002188460321200001F093FEA06D6179BF
:1005A000415C200001F084FE0021200001F080FE6B
:1005B000A06DA179415C200001F07AFEC5F8C880E9
:1005C00089E2A06DE179405CA16DE279114449783E
:1005D00011EB0021A06DE2791044807810EB01202E
:1005E000A16DE2791144C97811EB002188460321FD
:1005F000200001F066FEA06D6179415C200001F0F1
:1006000057FE0021200001F053FEA06DA179415C4E
:10061000200001F04DFEC5F8CC805CE2A06DE179D0
:10062000405CA16DE2791144497811EB0021A06D85
:10063000E2791044807810EB0120A16DE279114439
:10064000C97811EB002188460321200001F039FE12
:10065000A06D6179415C200001F02AFE002120009C
:1006600001F026FEA06DA179415C200001F020FE82
:10067000C5F8D0802FE2D5F8C400804607212000BD
:1006800001F01FFEA06D6179415C200001F010FEB9
:100690000021200001F00CFEA06DA179415C20003A
:1006A00001F006FE4146090EC9B2200001F000FE2D
:1006B0004146090CC9B2200001F0FAFD4146090A81
:1006C000C9B2200001F0F4FD4146C9B2200001F09A
:1006D000EFFD00E2D5F8C80080460721200001F0B8
:1006E000F0FDA06D6179415C200001F0E1FD002189
:1006F000200001F0DDFDA06DA179415C200001F03A
:10070000D7FD4146090EC9B2200001F0D1FD414696
:10071000090CC9B2200001F0CBFD4146090AC9B25B
:10072000200001F0C5FD4146C9B2200001F0C0FD26
:10073000D1E1D5F8CC0080460721200001F0C1FDB1
:10074000A06D6179415C200001F0B2FD0021200024
:1007500001F0AEFDA06DA179415C200001F0A8FD83
:100760004146090EC9B2200001F0A2FD4146090C24
:10077000C9B2200001F09CFD4146090AC9B220001F
:1007800001F096FD4146C9B2200001F091FDA2E1C1
:10079000D5F8D00080460721200001F092FDA06D21
:1007A0006179415C200001F083FD0021200001F00F
:1007B0007FFDA06DA179415C200001F079FD4146EB
:1007C000090EC9B2200001F073FD4146090CC9B2FF
:1007D000200001F06DFD4146090AC9B2200001F078
:1007E00067FD4146C9B2200001F062FD73E1A06DD2
:1007F000E179405CA16DE2791144497811EB002167
:10080000A06DE2791044807810EB0120A16DE279AF
:10081000114491F8039019EB0029C5F8C490A06D1C
:10082000E17908440079A16DE2791144497911EB2D
:100830000021A06DE2791044807910EB0120A16DB8
:10084000E279114491F807A01AEB002AC5F8C8A074
:10085000A06DE1790844007AA16DE2791144497AEA
:1008600011EB0021A06DE2791044807A10EB012099
:10087000A16DE279114491F80BB01BEB002BC5F888
:10088000CCB0A06DE1790844007BA16DE279114400
:10089000497B11EB0021A06DE2791044807B10EBC5
:1008A0000120A16DE2791144C97B11EB002188463A
:1008B000C5F8D0800321200001F003FDA06D61790F
:1008C000415C200001F0F4FC0021200001F0F0FC6C
:1008D000A06DA179415C200001F0EAFCFBE0D5F8B5
:1008E000C4901321200001F0ECFCA06D6179415C03
:1008F000200001F0DDFC0021200001F0D9FCA06DFA
:10090000A179415C200001F0D3FC4946090EC9B22F
:10091000200001F0CDFC4946090CC9B2200001F0CD
:10092000C7FC4946090AC9B2200001F0C1FC49468A
:10093000C9B2200001F0BCFCD5F8C8A05146090E90
:10094000C9B2200001F0B4FC5146090CC9B2200024
:1009500001F0AEFC5146090AC9B2200001F0A8FC22
:100960005146C9B2200001F0A3FCD5F8CCB05946DD
:10097000090EC9B2200001F09BFC5946090CC9B20E
:10098000200001F095FC5946090AC9B2200001F087
:100990008FFC5946C9B2200001F08AFCD5F8D0007E
:1009A00080464146090EC9B2200001F081FC414653
:1009B000090CC9B2200001F07BFC4146090AC9B20A
:1009C000200001F075FC4146C9B2200001F070FC26
:1009D00081E0D5F8C4102800FFF7C2FB0100300009
:1009E00001F0C1FB07000321200001F06AFCA06DAB
:1009F0006179415C200001F05BFC3900C9B2200044
:100A000001F056FCA06DA179415C200001F050FC82
:100A100061E0D5F8C8102800FFF7A2FB0100300004
:100A200001F0A1FB07000321200001F04AFCA06DAA
:100A30006179415C200001F03BFC3900C9B2200023
:100A400001F036FCA06DA179415C200001F030FC82
:100A500041E0D5F8CC102800FFF782FB0100300000
:100A600001F081FB07000321200001F02AFCA06DAA
:100A70006179415C200001F01BFC3900C9B2200003
:100A800001F016FCA06DA179415C200001F010FC82
:100A900021E0D5F8D0102800FFF762FB01003000FC
:100AA00001F061FB07000321200001F00AFCA06DAA
:100AB0006179415C200001F0FBFB3900C9B22000E4
:100AC00001F0F6FBA06DA179415C200001F0F0FB84
:100AD00001E0012007003800C0B2BDE8F28F38B550
:100AE00004000D002900C9B2200001F015FB32BD41
:100AF0002DE9F84306005FF00008002400250421DA
:100B0000B01D01F035FC00273800C0B204282FDAF0
:100B10003800C0B206EB4000C088002140F6E4482F
:100B20005FF00009A8FB002308FB013309FB003339
:100B300042F210785FF00009A8FB020108FB0311E4
:100B400009FB0211B6F8BE20002301F075FCB6F8CF
:100B5000C020002301F070FC04000D002000000BF9
:100B6000401C3900C9B206EB4101C8817F1CCBE7AC
:100B70000020BDE8F283F8B504000D001600002740
:100B8000A06DA179405C01280BD0C0F0E281032860
:100B900000F0CC8055D3052800F0D281C0F041810F
:100BA000D7E1A178200001F083FB0B21200001F0A8
:100BB00088FBA06D6179415C200001F079FB002188
:100BC000200001F075FBA06DA179415C200001F0CF
:100BD0006FFBD5F8E410090EC9B2200001F068FBE4
:100BE000D5F8E410090CC9B2200001F061FBD5F87A
:100BF000E410090AC9B2200001F05AFBD5F8E4104C
:100C0000C9B2200001F054FBB5F8E81089B2090A16
:100C1000C9B2200001F04CFBB5F8E810C9B22000C1
:100C200001F046FBB5F8EA1089B2090AC9B2200002
:100C300001F03EFBB5F8EA10C9B2200001F038FB24
:100C400089E1A06DE179405CC5F8E400D5F8E400E5
:100C5000A16DE2791144497811EB0021C5F8E41047
:100C6000D5F8E400A16DE2791144897811EB0021F7
:100C7000C5F8E410D5F8E400A16DE2791144C97813
:100C800011EB0021C5F8E410A06DE179084400796A
:100C9000A5F8E800B5F8E800A16DE27911444979BA
:100CA00011EB0021A5F8E810A06DE17908448079E6
:100CB000A5F8EA00B5F8EA00A16DE2791144C97916
:100CC00011EB0021A5F8EA10B5F8EA00C92802DB0B
:100CD000C820A5F8EA00B5F8E800C5F8E000D5F8A6
:100CE000E010B5F8EA004143C5F8E010D5F8E0108F
:100CF000D5F8E4004118C5F8E010A178200001F013
:100D0000D7FA0321200001F0DCFAA06D6179415C83
:100D1000200001F0CDFA0021200001F0C9FAA06DF9
:100D2000A179415C200001F0C3FA14E1A178200010
:100D300001F0BEFA1121200001F0C3FAA06D617923
:100D4000415C200001F0B4FA0021200001F0B0FA6B
:100D5000A06DA179415C200001F0AAFAB5F8D61087
:100D600089B2090AC9B2200001F0A2FAB5F8D6107A
:100D7000C9B2200001F09CFAB5F8D81089B2090A6E
:100D8000C9B2200001F094FAB5F8D810C9B2200019
:100D900001F08EFAB5F8EC1089B2090AC9B2200048
:100DA00001F086FAB5F8EC10C9B2200001F080FA23
:100DB000B5F8EE1089B2090AC9B2200001F078FA3C
:100DC000B5F8EE10C9B2200001F072FAB5F8F010D3
:100DD00089B2090AC9B2200001F06AFAB5F8F01028
:100DE000C9B2200001F064FAB5F8DA1089B2090A34
:100DF000C9B2200001F05CFAB5F8DA10C9B22000DF
:100E000001F056FAB5F8DC1089B2090AC9B220001F
:100E100001F04EFAB5F8DC10C9B2200001F048FA32
:100E200099E0A06DE179405CA5F8D600B5F8D60050
:100E3000A16DE2791144497811EB0021A5F8D61093
:100E4000A06DE17908448078A5F8D800B5F8D800FD
:100E5000A16DE2791144C97811EB0021A5F8D810F1
:100E6000A06DE17908440079A5F8EC00B5F8EC0034
:100E7000A16DE2791144497911EB0021A5F8EC103C
:100E8000B5F8EC00152802DB1420A5F8EC00A06DE5
:100E9000E17908448079A5F8EE00B5F8EE00A16D7F
:100EA000E2791144C97911EB0021A5F8EE10A06D8B
:100EB000E1790844007AA5F8F000B5F8F000A16DDA
:100EC000E2791144497A11EB0021A5F8F010A06DE8
:100ED000E1790844807AA5F8DA00B5F8DA00A16D66
:100EE000E2791144C97A11EB0021A5F8DA10A06D5E
:100EF000E1790844007BA5F8DC00B5F8DC00A16DC1
:100F0000E2791144497B11EB0021A5F8DC10A178AE
:100F1000200001F0CDF90321200001F0D2F9A06DED
:100F20006179415C200001F0C3F90021200001F04B
:100F3000BFF9A06DA179415C200001F0B9F90AE088
:100F4000330015F1D4022900200000F0FAF907005F
:100F500001E0012007003800C0B2F2BDF8B504007E
:100F60000D0016000027A06DA179405C01280BD070
:100F7000C0F0E281032800F0CC8055D3052800F0B2
:100F8000D281C0F04181D7E1A178200001F090F931
:100F90000B21200001F095F9A06D6179415C2000E2
:100FA00001F086F90021200001F082F9A06DA179FD
:100FB000415C200001F07CF9D5F80411090EC9B29A
:100FC000200001F075F9D5F80411090CC9B2200010
:100FD00001F06EF9D5F80411090AC9B2200001F038
:100FE00067F9D5F80411C9B2200001F061F9B5F82C
:100FF000081189B2090AC9B2200001F059F9B5F8FF
:101000000811C9B2200001F053F9B5F80A1189B2EC
:10101000090AC9B2200001F04BF9B5F80A11C9B2AA
:10102000200001F045F989E1A06DE179405CC5F847
:101030000401D5F80401A16DE2791144497811EB5E
:101040000021C5F80411D5F80401A16DE27911441D
:10105000897811EB0021C5F80411D5F80401A16DC0
:10106000E2791144C97811EB0021C5F80411A06D93
:10107000E17908440079A5F80801B5F80801A16DE7
:10108000E2791144497911EB0021A5F80811A06D0E
:10109000E17908448079A5F80A01B5F80A01A16D43
:1010A000E2791144C97911EB0021A5F80A11B5F8CC
:1010B0000A01C92802DBC820A5F80A01B5F8080111
:1010C000C5F80001D5F80011B5F80A014143C5F88B
:1010D0000011D5F80011D5F804014118C5F8001128
:1010E000A178200001F0E4F80321200001F0E9F8E4
:1010F000A06D6179415C200001F0DAF80021200048
:1011000001F0D6F8A06DA179415C200001F0D0F883
:1011100014E1A178200001F0CBF81121200001F0AA
:10112000D0F8A06D6179415C200001F0C1F8002188
:10113000200001F0BDF8A06DA179415C200001F014
:10114000B7F8B5F8F61089B2090AC9B2200001F063
:10115000AFF8B5F8F610C9B2200001F0A9F8B5F85B
:10116000F81089B2090AC9B2200001F0A1F8B5F857
:10117000F810C9B2200001F09BF8B5F80C1189B243
:10118000090AC9B2200001F093F8B5F80C11C9B2F0
:10119000200001F08DF8B5F80E1189B2090AC9B224
:1011A000200001F085F8B5F80E11C9B2200001F059
:1011B0007FF8B5F8101189B2090AC9B2200001F010
:1011C00077F8B5F81011C9B2200001F071F8B5F840
:1011D000FA1089B2090AC9B2200001F069F8B5F81D
:1011E000FA10C9B2200001F063F8B5F8FC1089B21A
:1011F000090AC9B2200001F05BF8B5F8FC10C9B2C9
:10120000200001F055F899E0A06DE179405CA5F867
:10121000F600B5F8F600A16DE2791144497811EBBA
:101220000021A5F8F610A06DE17908448078A5F8B2
:10123000F800B5F8F800A16DE2791144C97811EB16
:101240000021A5F8F810A06DE17908440079A5F80F
:101250000C01B5F80C01A16DE2791144497911EB4B
:101260000021A5F80C11B5F80C01152802DB14209B
:10127000A5F80C01A06DE17908448079A5F80E016C
:10128000B5F80E01A16DE2791144C97911EB002185
:10129000A5F80E11A06DE1790844007AA5F81001B7
:1012A000B5F81001A16DE2791144497A11EB0021E2
:1012B000A5F81011A06DE1790844807AA5F8FA002C
:1012C000B5F8FA00A16DE2791144C97A11EB002159
:1012D000A5F8FA10A06DE1790844007BA5F8FC00A0
:1012E000B5F8FC00A16DE2791144497B11EB0021B6
:1012F000A5F8FC10A178200000F0DAFF03212000FF
:1013000000F0DFFFA06D6179415C200000F0D0FFAC
:101310000021200000F0CCFFA06DA179415C2000ED
:1013200000F0C6FF0AE0330015F1F40229002000A6
:1013300000F007F8070001E0012007003800C0B204
:10134000F2BD2DE9F94F89B00D00160000275FF0BE
:1013500000080020ADF800005FF00009306901903E
:101360000020049001F093F95FF0000B584680B222
:1013700004281EDA0020594689B205EB4101A1F884
:10138000B600002005A95A4692B28854002006A94A
:101390005A4692B221F81200002003A95A4692B28E
:1013A0008854002002A95A4692B288541BF1010BBE
:1013B000DCE709988178099800F07AFFF08AC0008C
:1013C0000C30010089B2099800F07BFF3178099850
:1013D00000F06EFF0021099800F06AFF05210998CE
:1013E00000F066FF306980B24FF4FA6190FBF1F0D3
:1013F00080B2C000001DADF80200BDF80210C9B2F5
:10140000099800F055FF0020ADF8020042F22001DB
:10141000DFF8B80CFEF790FE41F21001DFF8AC0CDB
:10142000FEF78AFE48F28001DFF8A00CFEF784FE8A
:1014300044F24001DFF8940CFEF77EFEDFF8909C4A
:10144000DFF8901C4846FEF777FEDFF88C1C484614
:10145000FEF772FEDFF8841C4846FEF76DFE40F68C
:101460000801DFF87C0CFEF767FE44F240014846B5
:10147000FEF762FE48F280014846FEF75DFEDFF8A7
:10148000641C4846FEF758FEDFF85C1C4846FEF731
:1014900053FE5FF0000A5046F18A80B2884280F025
:1014A000B481DFF8301C4846FEF746FEDFF8281C02
:1014B0004846FEF73DFEDFF8241C4846FEF73CFE9A
:1014C00040F60801DFF8180CFEF732FE44F2400146
:1014D0004846FEF731FE48F280014846FEF728FEF6
:1014E000DFF8001C4846FEF727FEDFF8FCBB594634
:1014F0004846FEF71DFE0199280001F005FB049007
:1015000004990A9800F02FFE0199B08A41180191C0
:10151000DFF8C41B4846FEF70FFEDFF8B81B48464D
:10152000FEF706FE40F60801DFF8B40BFEF704FEF6
:10153000DFF8A81B4846FEF7FBFD48F2800148464D
:10154000FEF7FAFD44F240014846FEF7F1FD594628
:101550004846FEF7F1FDDFF88C1B4846FEF7E8FD34
:10156000042001F05DFC2800FFF7C2FA002007000C
:101570003800C0B2042880F24381504680B200286F
:1015800017D13800C0B205EB4000C089B18888424D
:1015900008D37088C8303900C9B205EB4101C98948
:1015A000884206DA01203900C9B205EB4101A1F8F1
:1015B000B6003800C0B205EB4000B0F8B600002815
:1015C0001DD1504680B2F18A491E884217D1380099
:1015D000C0B205EB4000C0893189884207D3F0884A
:1015E0003900C9B205EB4101C989884207D21AF115
:1015F00001003900C9B205EB4101A1F8B60038007D
:10160000C0B205EB4000B0F8B600002840F0E28020
:1016100005A93800C0B2085C002809D13800C0B262
:1016200005EB4000C08906AA3B00DBB222F813009C
:101630003800C0B2085C401C3A00D2B28854504610
:10164000328B80B2904210D23900C9B22820414377
:1016500005EB0100514689B200EB41003900C9B2E7
:1016600005EB4101C989C182B4E028203A00D2B219
:1016700042432A4416321400002290464246D2B217
:10168000338B5B1E9A4205DA62882280A41C18F113
:101690000108F3E73A00D2B205EB4202D289228078
:1016A0000122ADF800203A00D2B242432A44D28A45
:1016B0003B00DBB205EB4303DB899A420ED23A00D2
:1016C000D2B205EB4202D2893B00DBB200FB03F051
:1016D0002844C08A121AADF8002019E03A00D2B2AC
:1016E00005EB4202D2893B00DBB243432B44DB8A49
:1016F0009A420DD23A00D2B200FB02F02844C28ACC
:101700003800C0B205EB4000C089121AADF80020C5
:10171000BDF80000B28B904215D203A83A00D2B2B5
:10172000825C521C3B00DBB2C2543A00D2B2805CF5
:1017300004282DDB1AF101003A00D2B205EB420277
:10174000A2F8B60024E0708BBDF80020904215D2BC
:1017500002A83A00D2B2825C521C3B00DBB2C254F7
:101760003A00D2B2805C042812DB1AF101003A0080
:10177000D2B205EB4202A2F8B60009E0002003AAAB
:101780003B00DBB2D054002002AA3B00DBB2D054B5
:101790003800C0B2085C14281CDB00203A00D2B22A
:1017A00088543800C0B205EB4000C18906A83A0051
:1017B000D2B230F81200091AADF80010BDF80000DE
:1017C000052807DA1AF101003900C9B205EB410119
:1017D000A1F8B6003800C0B205EB4000C18989B25B
:1017E000090AC9B2099800F063FD3800C0B205EBE0
:1017F0004000C189C9B2099800F05AFD7F1CB7E6C4
:1018000001F01AFB1AF1010A45E65FF0000B584699
:10181000C0B2042818DA5846C0B205EB4000B0F850
:10182000B61089B2090AC9B2099800F041FD5846BC
:10183000C0B205EB4000B0F8B610C9B2099800F08C
:1018400037FD1BF1010BE2E7DFF8807842F220015F
:101850003800FEF76DFC41F210013800FEF768FC1D
:1018600048F280013800FEF763FC44F24001380082
:10187000FEF75EFCDFF85C184846FEF75DFCDFF81B
:1018800058184846FEF754FCDFF850184846FEF753
:1018900053FC40F60801DFF84808FEF749FC44F223
:1018A00040014846FEF748FC48F280014846FEF7F2
:1018B0003FFCDFF830184846FEF73EFCDFF82818FA
:1018C0004846FEF735FC0A9800F047FC00200BB0B4
:1018D000BDE8F08F70B504000D000026A06DA17961
:1018E000405C012811D0C0F05E81032851D029D37B
:1018F000052800F0928073D3072800F0DE80C0F046
:10190000B480082800F012814DE1A178200000F099
:10191000CFFC0421200000F0D4FCA06D6179415C73
:10192000200000F0C5FC0021200000F0C1FCA06DEB
:10193000A179415C200000F0BBFC2978200000F078
:10194000B7FC32E1A178200000F0B2FC05212000B4
:1019500000F0B7FCA06D6179415C200000F0A8FCAC
:101960000021200000F0A4FCA06DA179415C2000C2
:1019700000F09EFCB5F8BE1089B2090AC9B2200079
:1019800000F096FCB5F8BE10C9B2200000F090FC43
:101990000BE1A178200000F08BFC0521200000F075
:1019A00090FCA06D6179415C200000F081FC002179
:1019B000200000F07DFCA06DA179415C200000F0CA
:1019C00077FCB5F8C01089B2090AC9B2200000F04E
:1019D0006FFCB5F8C010C9B2200000F069FCE4E06B
:1019E000A06DE179405C2870A178200000F060FCD7
:1019F0000321200000F065FCA06D6179415C2000AE
:101A000000F056FC0021200000F052FCA06DA179EE
:101A1000415C200000F04CFCC7E0A06DE179405C27
:101A2000A5F8BE00B5F8BE00A16DE2791144497871
:101A300011EB0021A5F8BE10A178200000F038FCC1
:101A40000321200000F03DFCA06D6179415C200085
:101A500000F02EFC0021200000F02AFCA06DA179EE
:101A6000415C200000F024FC9FE0A06DE179405C27
:101A7000A5F8C000B5F8BE00A16DE279114449781F
:101A800011EB0021A5F8C010A178200000F010FC97
:101A90000321200000F015FCA06D6179415C20005D
:101AA00000F006FC0021200000F002FCA06DA179EE
:101AB000415C200000F0FCFB77E0A178200000F002
:101AC000F7FB0821200000F0FCFBA06D6179415C70
:101AD000200000F0EDFB0021200000F0E9FBA06DEC
:101AE000A179415C200000F0E3FB2978200000F0A0
:101AF000DFFBB5F8BE1089B2090AC9B2200000F0B8
:101B0000D7FBB5F8BE10C9B2200000F0D1FBB5F884
:101B1000C01089B2090AC9B2200000F0C9FBB5F8AB
:101B2000C010C9B2200000F0C3FB3EE0A06DE17917
:101B3000405C2870A06DE17908444078A5F8BE00AB
:101B4000B5F8BE00A16DE2791144897811EB00214E
:101B5000A5F8BE10A06DE1790844C078A5F8C000D2
:101B6000B5F8C000A16DE2791144097911EB0021AB
:101B7000A5F8C010A178200000F09AFB03212000F6
:101B800000F09FFBA06D6179415C200000F090FBAC
:101B90000021200000F08CFBA06DA179415C2000A9
:101BA00000F086FB01E0012006003000C0B270BDED
:101BB000F8B504000D0016000027A06D6179405CA7
:101BC000002808D002280DD006D3042816D010D340
:101BD00005281AD020E021E031002000FEF7D6FAD7
:101BE00007001BE0320029002000FEF75DFC070023
:101BF00014E029002000FFF76DFE0FE032002900FD
:101C00002000FEF7B8FF070008E03200290020009E
:101C1000FFF7A4F9070001E0012007003800C0B277
:101C2000F2BD70B504000D001600200000F01EFB90
:101C300001281FD1200000F053FB00280FD1200005
:101C400000F054FB00280AD1320029002000FFF7E1
:101C5000AFFF00280AD1200000F03CFB06E022780C
:101C6000521EDFF88814200001F018FF200000F059
:101C7000F7FA02E0200000F0FFFA70BD80B500F036
:101C80005DFA02BDF8B5040002F072F804250026E2
:101C900014F1B60732002900380002F08DF8002058
:101CA000F2BD80B502F068F8002002BD38B504002E
:101CB000002000252800C0B204283FDA2800C0B266
:101CC000002805D0022817D00CD303281ED027E007
:101CD0002800C0B204EB4000B0F8B600C0B202F079
:101CE0004FF829E02800C0B204EB4000B0F8B6007D
:101CF000C0B202F04CF81FE02800C0B204EB400074
:101D0000B0F8B600C0B202F049F815E02800C0B241
:101D100004EB4000B0F8B600C0B202F046F80BE0A9
:101D2000012002F02DF8012002F031F8012002F02C
:101D300035F8012002F039F86D1CBBE7002032BDF8
:101D40002DE9F14F0C0015001E00FFF797FF07006B
:101D50003800C0B2FF2801D10220B4E13800C0B27F
:101D60000F2847D1DFF8648342F220014046FEF796
:101D7000DFF941F210014046FEF7DAF948F280013E
:101D80004046FEF7D5F944F240014046FEF7D0F94F
:101D9000280000F0E2F9DFF85883DFF858B359461D
:101DA0004046FEF7C5F940F2022949464046FEF793
:101DB000BFF9DFF844A340F204415046FEF7B8F9FA
:101DC00059465046FEF7B4F9DFF81CB35946404671
:101DD000FEF7AEF940F201114046FEF7A9F9494677
:101DE0005046FEF7A5F959465046FEF7A1F900F016
:101DF0004AFC60E13000C0B2002801D1032062E15A
:101E0000DFF8EC92DFF8EC8241464846FEF790F9A5
:101E100040F2022A51464846FEF78AF9DFF8D8B266
:101E200040F204415846FEF783F941465846FEF712
:101E30007FF9DFF8B48241464846FEF779F940F26F
:101E400001114846FEF774F951465846FEF770F9FD
:101E500041465846FEF76CF93100C9B22000FEF742
:101E60003EFE2000FFF70EFF3800C0B201280BD065
:101E7000C0F00481032841D023D3052878D05AD359
:101E8000062800F0B880F9E0D4F8C420290020002A
:101E9000FEF76EF9DFF8348242F220014046FEF789
:101EA0004BF941F210014046FEF746F948F2800135
:101EB0004046FEF741F944F240014046FEF73CF946
:101EC000F4E0D4F8C82029002000FEF751F9DFF82B
:101ED000FC8142F220014046FEF72EF941F210014A
:101EE0004046FEF729F948F280014046FEF724F902
:101EF00044F240014046FEF71FF9D7E0D4F8CC2069
:101F000029002000FEF734F9DFF8C08142F22001F9
:101F10004046FEF711F941F210014046FEF70CF978
:101F200048F280014046FEF707F944F2400140467E
:101F3000FEF702F9BAE0D4F8D02029002000FEF71D
:101F400017F9DFF8888142F220014046FEF7F4F8E5
:101F500041F210014046FEF7EFF848F2800140469A
:101F6000FEF7EAF844F240014046FEF7E5F89DE04E
:101F70002B0014F1D40221000098FFF7E2F9DFF8FA
:101F80004CB142F220015846FEF7D2F841F210015E
:101F90005846FEF7CDF848F2800949465846FEF704
:101FA000C7F844F2400A51465846FEF7C1F8DFF838
:101FB00020B148495846FEF7BFF847495846FEF752
:101FC000BBF846495846FEF7B7F840F608014448C2
:101FD000FEF7B2F851465846FEF7AEF84946584665
:101FE000FEF7AAF83F495846FEF7A6F8414658467C
:101FF000FEF7A2F85AE02B0014F1F4022100009839
:10200000FFF79FF9DFF8C4B042F220015846FEF70F
:102010008FF841F210015846FEF78AF848F280091D
:1020200049465846FEF784F844F2400A514658465D
:10203000FEF77EF8DFF898B026495846FEF77CF8A0
:1020400025495846FEF778F824495846FEF774F8B3
:1020500040F608012248FEF76FF851465846FEF751
:102060006BF849465846FEF767F81E495846FEF792
:1020700063F841465846FEF75FF817E0DFF84C80FA
:1020800042F220014046FEF753F841F2100140466B
:10209000FEF74EF848F280014046FEF749F844F258
:1020A00040014046FEF744F8FF2007002000FFF7FC
:1020B000FDFDFFF7F6FD3800C0B2FF2801D000207B
:1020C00007003800C0B2BDE8F28F000000080140F0
:1020D00000100140200020044000400480008004E3
:1020E000000C01400100010402000204CCBF000802
:1020F00000180140040004040014014010B504005D
:10210000200000F0F7FC10BD38B504000D002900D8
:10211000200000F0F9FC32BD38B504000D002900A4
:10212000C9B2200000F051FD32BD38B504000D00E9
:102130002900C9B2200000F064FD32BD80B500F076
:102140001BFE02BD70B504000D0016003200D2B2B5
:102150002900200001F063FE70BD10B504002000CE
:1021600001F068FE10BD38B504000D002900200004
:1021700001F066FE32BD10B50400200001F068FEDB
:1021800010BDF0B40246106895681318506803EB50
:102190005004C0071DD54D441BE013F8017B05F822
:1021A000017B491EF9D1A0B1B60813F8011B06F056
:1021B0000306032E08BF13F8016B01EB0621494209
:1021C000801C294405D011F8016B05F8016B401EF5
:1021D000F9D1A3420ED013F8016B16F0030104BF2E
:1021E00013F8011BC91C30090F28DAD113F8010BB1
:1021F0000F30D6E7F0BC02F10C0070472DE9F04F2C
:1022000085B006000F00904699460E9CDDF83CA074
:10221000109DDDF844B000208DF81000CDF80CB012
:102220002800C0B20290CDF804A0200080B2009037
:102230004B46DBB24246390089B2300001F00EFE57
:102240008DF8100005200190042000900323032244
:102250000021300001F036FEC0B205B0BDE8F08FBD
:1022600010B50400200001F046FE10BD10B50400BA
:10227000200001F046FE10BD10B504000121200031
:1022800001F045FE10BD38B504000D002900C9B2AB
:10229000200001F045FE32BD10B50400200001F021
:1022A0004EFE10BD10B50400200001F04EFE10BD22
:1022B00038B504000D002900C9B2200001F04BFE22
:1022C00032BD38B504000D00290089B2200001F0AC
:1022D0004BFE32BD10B50400200001F04EFE10BDD3
:1022E00010B50400200001F04EFE10BD10B5040032
:1022F000200001F01EFE10BD80B501F04AFE01BDB8
:1023000080B501F04AFE01BD80B501F04AFE02BD74
:1023100038B504000D002900C9B2200001F045FEC7
:1023200031BD30B4002513E050F8042BD30744BF6F
:10233000A9F101039A18091F042942F8045BFAD293
:1023400013468C0744BF15809B1CC90748BF1D70EE
:1023500050F8041B0029E7D130BC704780B501F06C
:102360002DFE02BD10B50400200001F031FE10BDAD
:102370002DE9F04704000D0000272B4801F022FE54
:102380002800C0B2032802DB284801F01BFE284EBB
:10239000306800780028FAD02800C0B2032804DB97
:1023A0002448006800780028FAD0306801F016FE52
:1023B0002800C0B2032803DB1E48006801F00EFEAF
:1023C0005FF0000840462900C0B2C9B2884228D256
:1023D0004046C0B2002805D002280BD006D30328FF
:1023E0000DD011E030684088208017E03068808888
:1023F000608013E00F4800684088A0800EE00D4820
:1024000000688088E08009E02F00FFB25FF00009DB
:10241000A2464A463900504601F0CEFC18F10108A8
:10242000D0E70020BDE8F08700240140003C0140D7
:102430000000002004000020BBBBE1B1B2F5803FEA
:1024400080F07E80022A1ED98C46B1FBF2F102FB9D
:1024500011C31B0443EA1043B3FBF2FC02FB1C3321
:1024600080B240EA0343B3FBF2F002FB103240EAD1
:102470000C4000237047022A05D98446B0FBF2F0D5
:1024800002FB10C270474AB105D100F001024908B1
:102490005FEA3000704700220023704701F0A4BDBE
:1024A0000B000200002100207047904271EB030CEA
:1024B000F6D3B3F5803F2FD2F0B5B3FA83F7B1FA74
:1024C00081F4A7F10F0E3D1B5340CEF1200602FA16
:1024D0000EF2F3415340B5F10F0746D80F3C2C44A0
:1024E0004140C4F12006A040F1414140B1FBF3F668
:1024F00003FB1611A2FB0645001BA94102D2761E62
:102500008018594180EA010221FA0EF362FA0EF2B4
:1025100000215A403046F0BD30B4B1FBF3FC03FB60
:102520001C11A2FB0C45001BA94103D2ACF1010C0C
:102530008018594130BC02460B4660460021704766
:10254000B2F1807F65D3F0B5B2FA82F7B1FA81F4C7
:10255000C7F10F063D1B22FA06F307F1110EF241F7
:1025600020355A40B5F10F07B8D94140C4F12006D3
:10257000A040F1414140B1FBF3FC03FB1C11A2FB65
:102580000C45001BA94103D2BCF1010C8018594134
:102590000F2F12D30F3FC90341EA5041B1FBF3F6AD
:1025A00003FB1611A2FB0645D4EBC030A94102D2B1
:1025B000761E8018594146EACC3C07B34140C7F12A
:1025C0002006B840F1414140B1FBF3F603FB161180
:1025D000A2FB0645001BA94102D2761E8018594174
:1025E00080EA010221FA0EF3C7F1200462FA0EF22A
:1025F0000CFA07F05A402CFA04F13043F0BD80EA9F
:10260000010221FA0EF3002162FA0EF260465A40EE
:10261000F0BD8C46B1FBF2F102FB11C31B0243EA91
:102620001063B3FBF2FC02FB1C331B024CEA0020DC
:1026300043EA1063B3FBF2FC02FB1C331B024CEABF
:10264000002043EA1063B3FBF2FC02FB1C331B02C5
:102650004CEA002043EA1063B3FBF2FC02FB1C329D
:102660004CEA00200023704780B501F0BEFC01BD9C
:1026700010B504002000C0B201F0BBFC10BD80B555
:1026800001F0BEFC01BD80B501F0BEFC01BD80B50E
:1026900001F0BEFC01BD80B501F0BEFC02BD80B5FD
:1026A00001F0BEFC01BD10B504000F20FFF7E0FFF4
:1026B000FFF7E5FFFFF7E7FF10BD80B501F0B4FCC1
:1026C00001BDB1F5807F02D34FF0FF30704701703C
:1026D000012070470078401E8041C043C00F704702
:1026E000806810EA112080B2C1F30F21884201D125
:1026F000012000E00020C0B27047C1F30F22026148
:10270000704730B585B0DFF844460121200001F064
:102710008FFC0121200001F08BFC0121200001F041
:1027200087FC0121200001F083FC6846142101F0A0
:1027300099FC0120019001200290002003900120CB
:10274000049042F2200500956946200001F0F8FC53
:1027500029002000FFF7D1FF41F2100500956946DE
:10276000200001F0EDFC29002000FFF7C6FF48F231
:10277000800500956946200001F0E2FC2900200058
:10278000FFF7BBFF44F2400500956946200001F0C9
:10279000D7FC29002000FFF7B0FF05B030BD2DE9C0
:1027A000F04F85B0DFF8A8450121200001F040FC82
:1027B0000121200001F03CFC0121200001F038FC47
:1027C0000121200001F034FC0121200001F030FC47
:1027D0000121200001F02CFC0121200001F028FC47
:1027E0000121200001F024FCDFF8685501212800B8
:1027F00001F01EFC0121280001F01AFC0121280033
:1028000001F016FC0121280001F012FC0121280032
:1028100001F00EFC0121280001F00AFC0121280032
:1028200001F006FC0121280001F002FC6846142199
:1028300001F018FC01200190012002900420039077
:1028400001200490DFF8100500906946200001F097
:1028500077FCDFF804152000FFF74FFFDFF8FC647A
:1028600000966946200001F06BFC31002000FFF764
:1028700044FFDFF8EC7400976946200001F060FC2B
:1028800039002000FFF739FFDFF8D884CDF8008049
:102890006946200001F054FC41462000FFF72DFF5F
:1028A00044F24009CDF800906946200001F048FC50
:1028B00049462000FFF721FF42F2200ACDF800A090
:1028C0006946200001F03CFC51462000FFF715FF4F
:1028D00041F2100BCDF800B06946200001F030FC49
:1028E00059462000FFF709FF40F6080000906946AE
:1028F000200001F025FC40F608012000FFF7FDFE56
:1029000048F2800400946946280001F019FC210077
:102910002800FFF7F2FECDF800906946280001F08C
:102920000FFC49462800FFF7E8FECDF800A06946F5
:10293000280001F005FC51462800FFF7DEFECDF827
:1029400000B06946280001F0FBFB59462800FFF75C
:10295000D4FEDFF8040400906946280001F0F0FB83
:10296000DFF8F4132800FFF7C8FE00966946280038
:1029700001F0E6FB31002800FFF7BFFE0097694633
:10298000280001F0DDFB39002800FFF7B6FECDF886
:1029900000806946280001F0D3FB41462800FFF77C
:1029A000ACFE05B0BDE8F08F2DE9F843040002202D
:1029B000207004250026671C32002900380001F031
:1029C000FBF96420A4F8BE006420A4F8C0004FF412
:1029D0004840C4F8C4004AF68010C4F8C80047F65E
:1029E0000C30C4F8CC004FF4B440C4F8D000042735
:1029F0005FF0000814F1B60942463900484601F07C
:102A0000DBF94FF4E170A4F8D600FA20A4F8D8005E
:102A10004FF44870A4F8DA004FF4FA71A4F8DC100F
:102A200045F20821C4F8E410DFF83C13D1F8E420A3
:102A300002F524526832C4F8E020C822A4F8E82045
:102A40003522A4F8EA20B4F8EA20C92A02DBC82219
:102A5000A4F8EA204FF46162A4F8F2200622A4F858
:102A6000EC201422A4F8EE200222A4F8F020B4F8FE
:102A7000EC20152A02DB1422A4F8EC20A4F8F600BE
:102A80004FF41670A4F8F8004FF4AF60A4F8FA0001
:102A900040F24C40A4F8FC004AF2F870C4F804017B
:102AA000D1F8040100F588503030C4F80001C82086
:102AB000A4F808011620A4F80A01B4F80A01C928EC
:102AC00002DBC820A4F80A0140F6C410A4F81201E1
:102AD0000620A4F80C011E20A4F80E010220A4F880
:102AE0001001B4F80C01152802DB1420A4F80C0125
:102AF000BDE8F18310B504002000FFF755FFFFF794
:102B000000FEFFF74CFE10BD2DE9F84305000C0058
:102B100000260027287801280AD051D3032819D08D
:102B200018D305283AD027D3072813D036D347E047
:102B3000DFF838825FF0000922000023A2FB0801C1
:102B400002FB091103FB081141F632120023FFF7C3
:102B500073FC38E0DFF818825FF0000922000023E0
:102B6000A2FB080102FB091103FB081149F26E6286
:102B70000023FFF761FC26E0DFF8F8815FF0000931
:102B800022000023A2FB080102FB091103FB08112C
:102B90004FF448620023FFF74FFC14E0DFF8D481C4
:102BA0005FF0000922000023A2FB080102FB0911CB
:102BB00003FB08114FF4C8520023FFF73DFC02E06D
:102BC00044F620600021BDE8F28310B4020000202A
:102BD00000231800C0B2042810DAC80705D5012068
:102BE0001C00E4B21444607004E000201C00E4B255
:102BF00014446070C9B249085B1CEAE7002010BCAD
:102C00007047020011700020704738B50024504D05
:102C100051492800FFF764FD002801D154F0010458
:102C20004E492800FFF75CFD002801D154F0020452
:102C30004B492800FFF754FD002801D154F004044B
:102C400048492800FFF74CFD002801D154F0080442
:102C50002000C0B232BD38B500243D4D44F24001E1
:102C60002800FFF73DFD002801D154F0010442F295
:102C700020012800FFF734FD002801D154F00204A0
:102C800041F210012800FFF72BFD002801D154F07C
:102C9000040440F608012800FFF722FD002801D1B6
:102CA00054F008042000C0B232BD38B50024294DCC
:102CB00048F280012800FFF713FD002801D154F0ED
:102CC000010444F240012800FFF70AFD002801D169
:102CD00054F0020442F220012800FFF701FD002811
:102CE00001D154F0040441F210012800FFF7F8FC70
:102CF000002801D154F008042000C0B232BD38B51C
:102D00000024144D14492800FFF7EAFC002801D1E3
:102D100054F0010411492800FFF7E2FC002801D11A
:102D200054F002040E492800FFF7DAFC002801D114
:102D300054F004040B492800FFF7D2FC002801D10D
:102D400054F008042000C0B232BD00000008014069
:102D5000001801400014014080008004400040043D
:102D6000200020041000100454450020EA4C0F00FD
:102D7000001BB70040420F0070B5FFF746FF04008C
:102D8000FFF769FF05002543FFF78FFF06002E437D
:102D9000FFF7B5FF0100314311F00F010800C0B289
:102DA000012816D033D3032817D014D3052818D000
:102DB00015D3072819D016D309281AD017D30B28F2
:102DC0001BD018D30D281CD019D30F281DD01AD30F
:102DD0001DE001201CE002201AE0032018E004207E
:102DE00016E0052014E0062012E0072010E008207D
:102DF0000EE009200CE00A200AE00B2008E00C207D
:102E000006E00D2004E00E2002E00F2000E0FF208D
:102E1000C0B270BD10B50400200001F0DFF910BD94
:102E200010B50400200001F0D3F910BD10B5040066
:102E3000200001F0D9F910BD80B501F0DBF902BD29
:102E4000DFF8DC060068C0F302207047012210F0B2
:102E50001F018A40DFF8CC1603005BB25B0941F822
:102E60002320704710B4020052B2002A0AD50A018A
:102E7000DFF8B436040064B214F00F04234403F8FE
:102E8000042C05E00A01DFF8A436040064B21A55E8
:102E900010BC704770B4030013F00704D4F10700AE
:102EA000052801D3042001E0D4F10700251D072DDA
:102EB00001D2002500E0E51E012616FA00F0401EB2
:102EC0000140A94016FA05F56D1E2A40114308007D
:102ED00070BC704781B0DFF858160A6802430A6078
:102EE000096801400091009901B07047DFF8401671
:102EF0000A6882430A60704781B0DFF838160A68B2
:102F000002430A60096801400091009901B07047CE
:102F1000DFF820160A6882430A607047F0B510EBAC
:102F2000116491FAA1F5B5FA85F391FAA1F6B6FA12
:102F300086F7D4F800C05FF00F0EDBB29B001EFADC
:102F400003FE3CEA0E0CFFB2BB0012FA03F353EA95
:102F50000C0CC4F800C0F0BDC1F30F220261704731
:102F6000C1F30F2242617047C16851F40051C16042
:102F70007047016931F490410161416931F02A01E2
:102F8000416170470068800910F0010070470068D7
:102F9000C00910F0010070477FF0400101607047E8
:102FA000C16851F02001C1607047C16851F0400113
:102FB000C1607047C16851F08001C1607047C1684D
:102FC00031F04001C1607047C16831F08001C160DB
:102FD0007047C068800910F001007047C068C009E0
:102FE00010F0010070470A00D2B242607047010041
:102FF0000020087000204870002088700020C870F1
:103000000020087100204871002088710020C871DC
:10301000002088600020C86000200861002048610E
:1030200000208861002081F83C00002081F83D00EC
:10303000002081F83F00002081F840000020A1F826
:1030400042000020A1F844000020A1F84600002022
:10305000A1F84800002081F83E00002081F84A00D5
:103060000020C864002008650020486500208865AD
:1030700000200877002048770020C877002081F8DA
:10308000200000204884002088840020C88400207C
:10309000088501208877002081F82A000020C86276
:1030A0000020086300204863002088630020C86572
:1030B000002070472DE9F84F04000F009046994614
:1030C0000A9DDDF82CA00C9EDDF834B02000FFF73F
:1030D0008EFF84F83D90A4F84870C4F85880667755
:1030E0002585C4F838A0C4F85CB0002C08D0DFF8FF
:1030F00048040068844203D1200000F099FD11E0EB
:10310000002C05D0002C03D1200000F023FE09E0A4
:10311000002C05D0002C03D1200000F01EFE01E0A1
:10312000022000E00020BDE8F28F38B504000D0059
:10313000E06800280ED02800C0B2012805D109227D
:10314000A168E068FFF7EAFE04E00822A168E068F1
:10315000FFF7E4FE002032BD38B504000D006069C1
:1031600000280CD02800C0B2012804D12169606970
:10317000FFF7F6FE03E021696069FFF7EDFE00202E
:1031800032BD70B504000D000026E06D002802D0AD
:10319000E06D804706002800C0B2002803D0E66436
:1031A000E06C206502E0E662E06A2063002070BD0A
:1031B000F8B504000D0016000027E06D002803D0CC
:1031C000E06D8047801C07003000C0B200281FD08F
:1031D0002765E06C216D884209D2216DE06C091AE7
:1031E0008D4235D2012084F84A00012031E0206D63
:1031F000E16C88422CD2E16C5FF0FF30411A206D07
:1032000041188D4224D2012084F84A00012020E098
:103210002763E06A216B884209D2216BE06A091AB0
:103220008D4215D2012084F82A00012011E0206B84
:10323000E16A88420CD2E16A5FF0FF30411A206BEC
:1032400041188D4204D2012084F82A00012000E0B8
:103250000020F2BD70B504000D0000262800C0B2A9
:1032600000281FD0E06C002842D0606D00283FD0BD
:10327000E06C002801D100203CE00122616D2000BB
:10328000FFF796FF06003000C0B2002830D0227849
:10329000521EDFF87819200000F000FC200000F03A
:1032A000B2FB25E0E06A002822D0606B00281FD026
:1032B000E06A002801D100201CE00022616B2000A0
:1032C000FFF776FF06003000C0B200280DD0E06A9C
:1032D00000280AD02278521EDFF83419200000F0AE
:1032E000DDFB200000F0ADFB02E0002084F82A00A6
:1032F0003000C0B270BD38B504000D00DFF81419FD
:103300000D7094F83F00002805D002283DD01CD352
:10331000032866D066E0B4F84400002814D1607831
:103320000A78904210D10878A16D0870012084F8C5
:103330003F000120A4F8460001212000FFF721FFF3
:103340000121200000F04EFB4CE00878002814D04A
:103350000878B4F84820D2B290420ED20878A26D14
:1033600050700878A4F84200B4F84600401CA4F855
:103370004600022084F83F0002E0002084F83F006D
:1033800001212000FFF7FDFE2CE0A06DB4F84420E1
:10339000104409788170B4F84400401CA4F844003B
:1033A000B4F84600401CA4F84600B4F84400B4F851
:1033B000481080B2884202D30020A4F844000121C2
:1033C0002000FFF7DEFEB4F84400B4F8421080B2EB
:1033D000884205D3032084F83F00012084F83E0092
:1033E00000E0FFE7002032BD38B504000D00DFF833
:1033F00038190D7094F83F00002807D0022837D004
:103400001ED3042800F089805BD387E0B4F8440021
:10341000002814D160780A78904210D10878A16D04
:103420000870012084F83F000120A4F84600012123
:103430002000FFF7A6FE0121200000F0D3FA6DE086
:103440000878A26D50700878A4F84200B4F84200E1
:103450000002A4F84200022084F83F00B4F84600BD
:10346000401CA4F8460001212000FFF78AFE55E029
:103470000878A26D9070B4F8422008788218A4F8F9
:103480004220B4F84600401CA4F84600B4F84200BC
:1034900000280ED0B4F84200B4F8481080B2884238
:1034A00007D2B4F84200A4F84600032084F83F0095
:1034B00002E0002084F83F0001212000FFF761FEB8
:1034C0002CE0A06DB4F8442010440978C170B4F821
:1034D0004400401CA4F84400B4F84600401CA4F882
:1034E0004600B4F84400B4F8481080B2884202D3D1
:1034F0000020A4F8440001212000FFF742FEB4F8A8
:103500004400B4F8421080B2884205D3042084F805
:103510003F00012084F83E0000E0FFE7002032BDBC
:103520000CED00E000E100E018ED00E000E400E058
:103530001C100240181002403000002038B5040072
:103540000D00B4F84800FF2805DA2900C9B22000B0
:10355000FFF7D1FE04E02900C9B22000FFF744FFC5
:1035600032BD38B504000D002900C9B2A069FFF7CB
:103570003AFDA069FFF706FD002802D1FFF75CFCC9
:10358000F7E7A069FFF708FD002032BD10B5040081
:10359000608C00282CD0A08C618C80B2884223D013
:1035A000A06BA18C415CA069FFF71DFDA08C401CA5
:1035B000A084A08C218D80B2884201D30020A084F9
:1035C000A08C618C80B2884218D3E08C002815D082
:1035D000A08CE18C80B2884210D3A069FFF7F4FC84
:1035E000A069FFF7E2FC09E0A069FFF7EDFC05E048
:1035F000A069FFF7E9FC200000F023FA0021200079
:10360000FFF7BFFD002010BD10B504006069002861
:1036100009D0E07F002806D10D21A069FFF7E3FC67
:103620000120E07714E06069002809D0E07F0128DC
:1036300006D10A21A069FFF7D6FC0220E07707E057
:103640000020E077A069FFF7BAFC200000F0F9F94C
:10365000002010BD38B504000D00A06B00281ED05E
:10366000608C218D80B2884201D300206084A06BE1
:10367000618C4554608C401C6084A069FFF7AEFCEF
:1036800000280AD101212000FFF766FD012120005A
:10369000FFF74BFDA069FFF78DFC002000E0012043
:1036A00032BD70B504000D000126A06B00283FD08C
:1036B000607F012802D0607F022801D16D1C08E0E4
:1036C000607F032801D1AD1C03E0607F042800D196
:1036D0002D1D60792179401A002800D06D1C94F8C6
:1036E0002000012800D1AD1C208DFB280EDB290015
:1036F00089B2090AC9B22000FFF7ACFF2900C9B29C
:103700002000FFF7A7FF0600ED1C06E02900C9B264
:103710002000FFF79FFF0600AD1C60792179401A59
:10372000002804D0E1782000FFF794FF0600E5842C
:103730003000C0B270BD38B50400607F002856D09C
:1037400000F060FD002852D10025607F01280AD1D9
:10375000618CA06B00F075FD05002900C9B2200046
:10376000FFF778FF41E0607F02280BD1628CA16BEC
:10377000072000F05BFD05002900C9B22000FFF71B
:1037800069FF32E0607F032810D1618CA06B00F0EC
:1037900045FD05002900090AC9B22000FFF75AFFBC
:1037A0002900C9B22000FFF755FF1EE0607F042802
:1037B0001BD1618CA06B00F029FD05002900090ECA
:1037C000C9B22000FFF746FF2900090CC9B220004A
:1037D000FFF740FF2900090AC9B22000FFF73AFFAE
:1037E0002900C9B22000FFF735FF00200CE094F853
:1037F0002000012807D10D212000FFF72BFF0A210F
:103800002000FFF727FF012032BDF8B50400002596
:103810000026B4F8427094F83D00002800F0E080E3
:1038200000F0F0FC002840F0DB8094F83D00012817
:1038300023D17F1EB4F84800FA2809DAA06D47703A
:10384000A06D390089B2084480780600BF1C0DE0E5
:10385000380080B2000AA16D4870A06D8770A06D1D
:10386000390089B20844C0780600FF1C390089B2CB
:10387000A06D00F0E6FC0500AEE094F83D000228E3
:1038800024D17F1EB4F84800FA2809DAA06D4770E9
:10389000A06D390089B2084480780600BF1C0DE095
:1038A000380080B2000AA16D4870A06D8770A06DCD
:1038B000390089B20844C0780600FF1C3A0092B271
:1038C000A16D072000F0B2FC050085E094F83D00F2
:1038D000032831D1BF1EB4F84800FA2810DAA06DD1
:1038E0004770A06D390089B208444078A16D3A0054
:1038F00092B21144897811EB00210E00BF1C14E034
:10390000380080B2000AA16D4870A06D8770A06D6C
:10391000390089B208448078A16D3A0092B211440E
:10392000C97811EB00210E00FF1C390089B2A06D8F
:1039300000F074FC05004FE094F83D0004284BD1E2
:103940003F1FB4F84800FA281EDAA06D4770A06D3A
:10395000390089B2084410F8010CA16D3A0092B206
:10396000895C11EB0021A06D3A0092B210444078BE
:1039700010EB0120A16D3A0092B21144897811EB4D
:1039800000210E00BF1C21E0380080B2000AA16DAA
:103990004870A06D8770A06D390089B2405CA16D40
:1039A0003A0092B21144497811EB0021A06D3A001F
:1039B00092B21044807810EB0120A16D3A0092B2CF
:1039C0001144C97811EB00210E00FF1C390089B2A7
:1039D000A06D00F01BFC0500B54201D0012000E005
:1039E0000020F2BD02000800C0B2002803D0002071
:1039F00082F84A0002E0002082F82A000020704786
:103A000090F83E00704710B5040000212000FFF739
:103A1000A3FB002084F83F000020A4F8420000200F
:103A2000A4F844000020A4F84600002084F83E00DA
:103A30000020E06400202065002084F84A00002077
:103A400010BD10B504000120A07700206084002084
:103A5000A0840020E0840020E06200202063002099
:103A600084F82A000020E07700212000FFF774FB93
:103A700000212000FFF759FB002010BD0200507903
:103A80001179401A002807D0906D1179405CD178E7
:103A9000884201D0012000E0002070470CB42DE9DD
:103AA000F84F04000D00A069FFF798FA002807D02E
:103AB000A069FFF76CFA002802D0FFF7BDF9F7E71D
:103AC000A069FFF786FA00280DD0A069FFF75AFA1F
:103AD000002805D0E07F002802D1FFF7ADF9F4E718
:103AE000A069FFF759FA01212000FFF735FB0121FA
:103AF0002000FFF71AFB5FF0000A5FF0000B0AAE30
:103B00008A4F33002A004FF48061380000F0A2FB96
:103B100080465FF000094846414680B289B288423B
:103B200008D2484680B2395C2000FFF71AFD19F12F
:103B30000109F0E700212000FFF70EFB0021200023
:103B4000FFF7F3FABDE8F10F5DF80CFB38B50400A0
:103B50000D00774884420ED12800C0B2002804D05E
:103B60004FF48040FFF7C8F903E04FF48040FFF7BF
:103B7000CFF9002048E06F4884420ED12800C0B23F
:103B8000002804D05FF40030FFF7A4F903E05FF4ED
:103B90000030FFF7ABF9002036E0674884420ED1D1
:103BA0002800C0B2002804D05FF48020FFF792F90B
:103BB00003E05FF48020FFF799F9002024E05F48DC
:103BC00084420ED12800C0B2002804D05FF4002047
:103BD000FFF780F903E05FF40020FFF787F900208A
:103BE00012E0574884420ED12800C0B2002804D009
:103BF0005FF48010FFF76EF903E05FF48010FFF7C9
:103C000075F9002000E0012032BD0000ECBF000883
:103C10000CC00008DE48002070B40600039D049C20
:103C2000F17032717371B571F471002070BC70471E
:103C3000F0B58BB00400434D0121280000F0F8F9E5
:103C40006846142100F00EFA09200190032002902A
:103C500000200390012004903B4E00966946280006
:103C600000F06EFA3948009008200190694628005B
:103C700000F066FA2E4F380000F06FFB012138008B
:103C8000FFF764FF05A8182100F0ECF95FF4E130BC
:103C900005900020069000200790002008900C203E
:103CA000099000200A9005A9380000F09AFB38001E
:103CB000FFF75FF9FFF7C4F800220221FFF7EAF8E7
:103CC00001002520FFF7CEF82520FFF7BFF83800C8
:103CD000FFF766F93800FFF747F9E560A660A761CE
:103CE00002202070E06D002804D06420606564200C
:103CF000606303E00020606500206063002060775F
:103D0000552060705A20A07000212000FFF724FA8F
:103D100000212000FFF709FA0D492000FFF7BEFE41
:103D200000200BB0F0BD0000DF480020D43E002092
:103D3000003801400044004000480040004C004072
:103D40000050004000080140020002040400040486
:103D500060C000080100002070470100002070478B
:103D600080B500F09DFB01BD80B500F09DFB02BD5C
:103D700080B500F09DFB01BD80B500F09DFB01BD4D
:103D800010B504002000C0B200F09AFB10BD10B5C1
:103D900004002000C0B200F09AFB10BD10B5040072
:103DA0002000C0B200F09AFB10BD10B50400200046
:103DB000C0B200F09AFB10BD62F30F2262F31F4203
:103DC000401810F0030308D0C91A1FD3DB0748BFFF
:103DD00000F8012D28BF20F8022D130030B414463E
:103DE0001546103928BF20E93C00FAD8490728BFFA
:103DF00020E90C0048BF40F8042D890028BF20F8B6
:103E0000022D48BF00F8012D30BC7047C91818BFFB
:103E100000F8012DCB0728BF00F8012D704770B5C1
:103E200004000D0016003200D2B22900200000F07C
:103E3000CCFB70BD10B50400200000F0DAFD10BD11
:103E400038B504000D002900200000F04DFE32BD01
:103E500010B50400200000F08FFE10BD2DE9F34FD7
:103E600085B0060017009846109CDDF84490129D1E
:103E7000DDF84CA000208DF81000CDF80CA0280033
:103E8000C0B20290CDF80490200080B2009043466A
:103E9000DBB23A00BDF818103000FFF70BF983468B
:103EA0005846C0B2002808D100F0ACF9002804D070
:103EB000002086F83D00002070775846C0B207B059
:103EC000BDE8F08F2DE9FE4306000F0090469946AD
:103ED0000A9D0B9C2000C0B201902800C0B2009047
:103EE0004B46DBB24246D2B23900C9B23000FFF7CE
:103EF00093FEBDE8FE8310B504002000FFF783FDAC
:103F000010BD10B504002000FFF77AFD10BD38B5D4
:103F100004000D002900C9B22000FFF79BF932BD53
:103F200038B504000D002900C9B22000FFF706FBD8
:103F300032BD10B504002000FFF7A0FD10BD10B584
:103F400004002000FFF722FB10BD10B50400200084
:103F5000FFF75AFB10BD38B504000D002900C9B2A7
:103F60002000FFF777FB32BD38B504000D002900B3
:103F700089B22000FFF795FB32BD10B50400200088
:103F8000FFF7D9FB10BD10B504002000FFF73DFC82
:103F900010BD80B501F098F801BD80B501F04FF873
:103FA00001BD80B501F08CF802BD38B504000D00EC
:103FB0002900C9B2200001F08BF831BD80B501F0B5
:103FC000F3FC02BD10B50400200001F0F3FC10BDAD
:103FD00010B50400200001F00AFD10BD10B504006A
:103FE000200001F057FD10BD704780B502F0C1F808
:103FF00001BD10B504002000C0B202F0C8F810BD29
:1040000080B502F0E0F801BD80B502F02DF901BDE8
:1040100080B502F07AF901BD80B502F0BFF902BDAA
:1040200080B502F05FFB01BD80B502F08DFC01BDE3
:1040300038B504000D002900C9B2200003F060FB70
:1040400031BD80B503F065FB01BD8268521C826002
:10405000426832B10268531C036011704168491E06
:1040600041607047002203F059BB0000F0B510EB2F
:10407000116491FAA1F5B5FA85F391FAA1F6B6FAB1
:1040800086F7D4F800C05FF00F0EDBB29B001EFA7B
:1040900003FE3CEA0E0CFFB2BB0012FA03F353EA34
:1040A0000C0CC4F800C0F0BDF0B510EB116491FA2F
:1040B000A1F5B5FA85F391FAA1F6B6FA86F7D4F828
:1040C00000C05FF0030EDBB29B001EFA03FE3CEA69
:1040D0000E0CFFB2BB0012FA03F353EA0C0CC4F847
:1040E00000C0F0BDF0B510EB116491FAA1F5B5FA7E
:1040F00085F391FAA1F6B6FA86F7D4F800C05FF01E
:10410000040EDBB29B001EFA03FE3CEA0E0CFFB26B
:10411000BB0012FA03F353EA0C0CC4F800C0F0BD64
:1041200030B4C3680C00240A94FAA4F4B4FA84F5F9
:1041300033EA112312FA05F52B43C36030BC7047F4
:104140002DE9F04104000D002F683F023F0C97FA63
:10415000A7F0B0FA80F85FFA88F8380030FA08F073
:10416000002832D0380030FA08F0C0072AD5B8F15C
:10417000080F05D240F2011010FA08F0060007E01F
:104180005FF0011140460838814051F080610E0017
:104190006A6831002000FFF769FF2A6931002000BA
:1041A000FFF7BEFF6868012802D06868092809D1B6
:1041B000AA6831002000FFF777FFEA68310020008D
:1041C000FFF790FF18F10108C7E70120BDE8F08173
:1041D00010B50400200003F0BBFA10BD10B50400B8
:1041E000200003F0C5FA10BD10B50400200003F054
:1041F000D7FA10BD80B503F0DEFA02BD80B503F03A
:10420000E3FA01BD80B503F0E3FA02BD38B504005E
:104210000D002900200003F0DFFA32BD38B504009C
:104220000D002900200003F0DFFA32BD70B5040054
:104230000D001600320029002000C0B203F0DCFAA5
:1042400070BD38B504000D002900200003F0DFFA2E
:1042500032BD000008B584B00023039300290EBFCF
:1042600001930190491E0291009301A904AB0748F4
:104270007844183003F0D4FA019909B100220A7089
:10428000002858BF039805B000BD00BFBFFDFFFF69
:10429000C068400B10F001007047026932F44052D0
:1042A0000A4302617047426932F440720A43426134
:1042B0007047F0B46423192404FB01F59600B5FBA4
:1042C000F6F56426B5FBF6F504FB01F69700B6FBA0
:1042D000F7F604FB01F75FEA820CB7FBFCF75FF02F
:1042E000640CB7FBFCF703FB176636013236642714
:1042F000B6FBF7F616F0F00616EB051604FB01F513
:104300009700B5FBF7F504FB01F49700B4FBF7F455
:104310006427B4FBF7F403FB14531B01323364240A
:10432000B3FBF4F313F00F039E19B6B28660F0BC32
:10433000704753490A6802430A60704750490A6847
:1043400082430A6070474F490A6802430A60704717
:104350004C490A6882430A60704738B50400012559
:104360004948844208D14FF48040FFF7ECFF4FF4F6
:104370008040FFF7EDFF31E04448844208D15FF40C
:104380000030FFF7D6FF5FF40030FFF7D7FF25E0DE
:104390003F48844208D15FF48020FFF7CAFF5FF4F2
:1043A0008020FFF7CBFF19E03A48844208D15FF440
:1043B0000020FFF7BEFF5FF40020FFF7BFFF0DE016
:1043C0003548844208D15FF48010FFF7B2FF5FF4F4
:1043D0008010FFF7B3FF01E0002005002800C0B205
:1043E00032BDF8B584B005000E0000270024280077
:1043F000FFF74EFF00283DD1E9682848014070686A
:104400000143F068014330690143E960B168280065
:10441000FFF743FF71692800FFF745FF684604F086
:10442000C6F91948854202D10398040016E01748DE
:10443000854202D10298040010E01548854202D15D
:10444000029804000AE01348854202D10298040051
:1044500004E01148854201D102980400002C09D0E3
:104460003068002806D001200700326821002800AB
:10447000FFF71FFF3800C0B205B0F0BD000000001C
:10448000101002400C10024000380140004400406F
:1044900000480040004C004000500040F3E9FFFF9E
:1044A00080B504F0EFFA01BD80B504F01DFB02BD3C
:1044B00080B504F027FB01BD80B504F04DFB01BDC4
:1044C00010B504002000C0B204F05DFB10BD10B5B3
:1044D00004002000C0B204F066FB10BD10B504005B
:1044E0002000C0B204F071FB10BD10B50400200024
:1044F000C0B204F07CFB10BD0121017001214170AC
:10450000002181700021C1700021017100214171E1
:10451000022181712321C1710D210172412141725A
:104520000D2181724121C17200210173002141736B
:10453000002181730021C1730021017400214174A5
:10454000002181740021C174002101750021417591
:10455000002181750021C17500210176002141767D
:10456000002181760021C1760021C1610021016214
:10457000DFF87C16416281620021C1620021016383
:10458000002141637047010000208863DFF8640662
:10459000C86344F240020A64486448F280008864B8
:1045A000002081F84C00002081F84D000020486573
:1045B0003420A1F84E00002008650020704701005B
:1045C00000207047010000207047F8B504000D007E
:1045D000160000272000FFF78FFF002C08D0DFF81F
:1045E00018060068844203D12000FFF7CCFF11E0D9
:1045F000002C05D0002C03D12000FFF7E0FF09E0DC
:10460000002C05D0002C03D12000FFF7DBFF01E0D8
:10461000012014E03000C0B2002803D0012084F84B
:104620004C0008E0290014F1380004F0FBFA070000
:10463000012084F84C00200000F002F8C0B2F2BD66
:1046400070B504000025211D200000F04EF8211D4A
:10465000200000F04AF806003000C0B2002804D163
:10466000A11D200000F041F806003000C0B270BD6E
:104670002DE9F84304000D0016005FF00009002743
:10468000012114F1380004F0D5FA80464046C0B24A
:10469000002802D0022080461CE0002007003800DD
:1046A0003100C0B2C9B2884214D23800C0B2295C0D
:1046B00014F1380004F0D3FA14F1380004F0C9FA08
:1046C00080464046C0B2002802D0F81C804601E077
:1046D0007F1CE4E714F1380004F0B5FA4046C0B29C
:1046E000BDE8F28303000120704738B504000D00D7
:1046F00094F84C00002805D1022229002000FFF781
:10470000F1FF04E0022229002000FFF7B1FF32BDD3
:104710000022C261704770B504000D00A06A60629B
:104720000020E061DFF8D404854204D3050041F2A3
:104730004460E0610BE045F20820854203D20500A9
:104740000320E06103E029002000FFF7E1FFE562BC
:10475000E06A4FF47A71B0FBF1F02063E06945192B
:10476000DFF89C04854206D30020A0700020207052
:1047700000206070E8E0DFF88C04854207D3002059
:10478000A07002202070002060706D00DCE0DFF877
:104790007804854208D30020A070032020700020F8
:1047A000607003204543CFE0DFF86004854207D303
:1047B0000020A0700420207000206070AD00C3E0D5
:1047C000DFF84C04854208D30020A070052020703B
:1047D0000020607006204543B6E0DFF838048542CB
:1047E00007D30020A0700620207000206070ED002C
:1047F000AAE0DFF82404854208D30020A070072037
:104800002070002060700C2045439DE0DFF80C0410
:10481000854207D30020A070062020700120607020
:104820002D0191E0DFF8F803854208D30020A07045
:1048300007202070012060701820454384E0DFF8D5
:10484000E403854207D30020A070062020700220D8
:1048500060706D0178E0DFF8D003854208D3002056
:10486000A0700720207002206070302045436BE06C
:10487000DFF8B803854207D30020A070062020701F
:1048800003206070AD015FE0DFF8A403854208D328
:104890000020A07007202070032060706020454336
:1048A00052E0DFF89003854207D30020A070042077
:1048B000207005206070ED0146E0DFF87C03854242
:1048C00008D30020A0700520207005206070C02053
:1048D000454339E0DFF8640385420AD30120A07024
:1048E0000620207004206070ED01606A400860625C
:1048F0002AE04BF21C7085420BD30120A0700720E8
:10490000207004206070C0204543606A40086062E7
:104910001AE048F6551085420AD30120A0700620FF
:104920002070052060702D02606A400860620BE014
:104930000120A07007202070052060704FF4C07027
:104940004543606A40086062AD00280004F090F9B9
:104950000600606A04F08CF90100300004F096F95A
:104960006063606B04F010FAE070E07804F080F9A6
:104970000100606B04F01EFADFF8C41204F05AFA6A
:1049800004F0C4FA20620D20207220784001607289
:10499000607A617850EA81006072607A50F00100BC
:1049A000607248202073A078002801D1002000E028
:1049B00010206073617BE078014361734A202074AA
:1049C000206A800C10F03F006074206A400C10F0E8
:1049D000010050F04C002075206A400A6075206A82
:1049E000000A10F0010050F04E002076206A607638
:1049F00070BD2DE9F84F8EB004002000FFF720FEB7
:104A00000028FAD102200D9000200C9014F10A0524
:104A10000C9A0D992800FFF7CFF902200B90002087
:104A20000A9014F10E050A9A0B992800FFF7C4F9B1
:104A3000022009900020089014F11205089A0999A3
:104A40002800FFF7B9F9022007900020069014F122
:104A50001605069A07992800FFF7AEF9022005907F
:104A60000020049014F11A05049A05992800FFF714
:104A7000A3F9022003900020029014F10805029A85
:104A800003992800FFF798F9022001900020009078
:104A900014F10C05009A01992800FFF78DF9022501
:104AA000002614F11007320029003800FFF784F9BE
:104AB00002275FF0000814F1140942463900484605
:104AC000FFF77AF95FF002095FF0000A14F1180BA2
:104AD000524649465846FFF76FF9A06A60620020C7
:104AE000E0620FB0BDE8F08FF8B504000D000026BD
:104AF000E06A854203D029002000FFF70CFE14F184
:104B000008012000FFF7F1FD07003800C0B20028BF
:104B100001D001202EE014F10C012000FFF7E5FD8B
:104B200006003000C0B2002801D0022022E014F1BB
:104B300010012000FFF7D9FD07003800C0B200289F
:104B400001D0032016E014F114012000FFF7CDFD81
:104B500006003000C0B2002801D004200AE014F1A1
:104B600018012000FFF7C1FD0100C9B2002901D0E2
:104B700005210800C0B2F2BDF8B50400002542F6D8
:104B8000E0664FF47A7101FB06F12000FFF7ACFFFD
:104B9000002827D1FDF7B4FBFDF7B6FB07004FF661
:104BA000FF7087421AD00A204643B74201D2F11B58
:104BB00000E0B91B0A2900D1891E0A2905D20C4A36
:104BC000322000FB1121A16208E0491D0A20B1FB3F
:104BD000F0F16422064802FB0101A1622000FFF708
:104BE00008FF01E0022005002800C0B2F2BD00006D
:104BF000001BB700000C01403400002080D54302A8
:104C000081A8120141548900818D5B0021AA4400D2
:104C1000C1C62D001155220061E31600892A11003A
:104C2000B1710B0045950800D9B80500A34A0400EE
:104C30006DDC020052250200376E0100A91201004E
:104C4000FFFF7F4B81B0DFF848160A6802430A6015
:104C5000096801400091009901B07047DFF83016F3
:104C60000A6882430A60704781B0DFF828160A6834
:104C700002430A60096801400091009901B0704741
:104C8000DFF810160A6882430A607047DFF80806EA
:104C9000016831F440610160016851F40061016014
:104CA0007047016851F001010160704701684908CF
:104CB000490001607047016851F080010160704750
:104CC00041627047406A7047026A8A4302627047D5
:104CD000F0B4012901D1002416E0042901D10124F6
:104CE00012E0102901D102240EE0402901D1032451
:104CF0000AE0B1F5807F01D1042405E0B1F5806FB1
:104D000001D1052400E0062410F11805DFF88C35E8
:104D10002600F6B29B5D5D19DFF884652F685FF0B1
:104D2000030C2300DBB2F35C1CFA03FC37EA0C072C
:104D300094465FEA1C4C2300DBB2F35C1CFA03FCD4
:104D40005CEA07072F60F0BC7047F0B4012901D17D
:104D5000002416E0042901D1012412E0102901D118
:104D600002240EE0402901D103240AE0B1F5807F3E
:104D700001D1042405E0B1F5806F01D1052400E0E4
:104D8000062410F11805DFF814352600F6B29B5DF5
:104D90005D19DFF80C652F685FF0F00C2300DBB2C3
:104DA000F35C1CFA03FC37EA0C0794465FEA1C4CE0
:104DB0002300DBB2F35C1CFA03FC5CEA07072F60FC
:104DC000F0BC7047F0B4012901D1002416E0042999
:104DD00001D1012412E0102901D102240EE0402962
:104DE00001D103240AE0B1F5807F01D1042405E05C
:104DF000B1F5806F01D1052400E00624DFF8A4544A
:104E0000066A0A272300DBB2EB5C9F40BE43230007
:104E1000DBB2EB5C12FA03F31E430662F0BC704790
:104E20008368DFF8842413400B4383607047426833
:104E300032F070020A4342607047826832F07002BA
:104E40000A4382607047816831F080018160704759
:104E50007FF0010101617047006910F001007047A7
:104E60007FF04001016170470069800910F0010086
:104E70007047C16831F04001C1607047C16831F4CA
:104E80008041C160704738B58AB005A81421FFF78A
:104E9000E9F868461421FFF7E5F8DFF8104401212E
:104EA000200000F015F9DFF808540121280004F073
:104EB00063F842F220000090FFF7E8FE082001901E
:104EC00069462800FFF73CF90020ADF814000020E7
:104ED00006907FF07F4007900020089005A92000F1
:104EE00004F0C0F92000FFF7E6FE60212000FFF784
:104EF000A4FF5FF4803210212000FFF7E9FE0721B4
:104F00002000FFF78DFF10212000FFF7DDFE0022BB
:104F100010212000FFF719FF002210212000FFF7C9
:104F200051FF2000FFF7A5FF2000FFF7A7FF00219A
:104F30002000FFF77CFF2000FFF785FF0BB030BD9E
:104F40007CB500200090DFF86C43206800780028D2
:104F500018D1002021688860002021684860012065
:104F600021680870DFF844432000FFF779FF200034
:104F7000FFF76EFF00212000FFF7A2FE2000FFF7E1
:104F800090FE5BE02068007801281AD1DFF81C53FE
:104F90002800FFF769FF002850D02800FFF760FFC6
:104FA0002800FFF78FFE21688860022021680870C2
:104FB0000020DFF8041308700020DFF800130870E9
:104FC0003CE020680078022837D1DFF8F0522878DA
:104FD000401C2870B54E3000FFF73EFF002806D079
:104FE0003000FFF735FFB4480178491C01703000EC
:104FF000FFF73AFF002802D03000FFF731FF287892
:105000000A281BDB3000FFF75DFE00903000FFF741
:105010004DFE032021680870009AA74908784FF6D2
:10502000FF7303FB002220688068121A20688260E8
:10503000002008700020287000E0FFE773BDF8B57D
:105040009C4C9F48006800692168C8609D4804F036
:1050500034FA002504F03DFA0600002720680078A5
:1050600003280ED004F035FA0500B54205D25FF0F2
:10507000FF30801B2818070001E0A81B0700652FE0
:10508000ECD32068C06804F018FA00202168C860DA
:10509000652F03D34FF6FF702168886000202168D8
:1050A00008702068806803F0E3FD04F025FA002210
:1050B000854B04F045FA04F067FB21684860F1BDB8
:1050C0007C4800688068704780B5FFF7DCFE01BD52
:1050D00038B504000D007D4884420BD12800C0B2D1
:1050E000002803D00120FFF7ADFD02E00120FFF70B
:1050F000A9FDCCE0B4F1804F0BD12800C0B200284C
:1051000003D00120FFF79EFD02E00120FFF7A6FD7E
:10511000BDE0664884420BD12800C0B2002803D00D
:105120000220FFF78FFD02E00220FFF78BFDAEE0CB
:10513000674884420BD12800C0B2002803D0042065
:10514000FFF780FD02E00420FFF77CFD9FE061484F
:1051500084420BD12800C0B2002803D00820FFF7FA
:1051600071FD02E00820FFF76DFD90E05A4884428F
:105170000BD12800C0B2002803D01020FFF762FD39
:1051800002E01020FFF75EFD81E0544884420BD11D
:105190002800C0B2002803D02020FFF753FD02E012
:1051A0002020FFF74FFD72E04D4884420DD12800CA
:1051B000C0B2002804D04FF40050FFF755FD03E0C3
:1051C0004FF40050FFF75CFD61E0464884420DD18A
:1051D0002800C0B2002804D05FF40020FFF744FD8F
:1051E00003E05FF40020FFF74BFD50E03E488442AF
:1051F0000DD12800C0B2002804D05FF48010FFF762
:1052000033FD03E05FF48010FFF73AFD3FE03748DD
:1052100084420DD12800C0B2002804D05FF40010F1
:10522000FFF722FD03E05FF40010FFF729FD2EE0F9
:105230002F4884420BD12800C0B2002803D0402060
:10524000FFF700FD02E04020FFF708FD1FE02948BE
:1052500084420BD12800C0B2002803D08020FFF781
:10526000F1FC02E08020FFF7F9FC10E022488442C4
:105270000DD12800C0B2002804D04FF48070FFF791
:10528000E1FC03E04FF48070FFF7E8FCFFE731BD7D
:105290001C10024018100240040001401CC100080C
:1052A00024C100082CC10008F8BFFFFF0004004023
:1052B000000C01402C000020DD480020DC480020CC
:1052C00028000020414F00080088C340002C014006
:1052D00000080040000C0040001000400014004096
:1052E00000340140004C0140005001400054014096
:1052F00000180040001C004000200040DFF830078C
:105300000068C0F302207047012210F01F018A409C
:10531000DFF8201703005BB25B0941F823207047D8
:1053200010B4020052B2002A0AD50A01DFF8083789
:10533000040064B214F00F04234403F8042C05E0C5
:105340000A01DFF8F836040064B21A5510BC704741
:1053500070B4030013F00704D4F10700052801D34B
:10536000042001E0D4F10700251D072D01D20025FE
:1053700000E0E51E012616FA00F0401E0140A9409B
:1053800016FA05F56D1E2A401143080070BC7047DF
:10539000F0B45FF44005B5FA85F310F12C0411F474
:1053A0004076DE4014EB860426681F2711F01F03A9
:1053B0009F40BE4312F01F0711F01F039F403E4362
:1053C0002660F0BC70472DE9F0434023B3FA83F523
:1053D00010F10C0411F00076EE4014EB86044FF44B
:1053E00078652E00B6FA86F7B5FA85FCD4F800E0A9
:1053F0005FF0070811F0F87939FA07F918FA09F897
:105400003EEA080E11F0F87737FA0CF712FA07F7B0
:1054100057EA0E0EC4F800E0BDE8F083816851F051
:1054200001018160704781684908490081607047C7
:10543000816851F00401816070478068800810F035
:1054400001007047816851F4A0018160704781B00C
:10545000DFF8EC150A6802430A6009680140009110
:10546000009901B0704781B0DFF8D8150A6802438F
:105470000A60096801400091009901B07047DFF8A7
:10548000C4150A6882430A607047DFF8BC2502EB46
:10549000010313F8013C1B180A4412F8012C1218DE
:1054A000126852F001021A607047DFF89C2502EB87
:1054B000010313F8013C1B180A4412F8012C1218BE
:1054C0001268520852001A60704710B4DFF878353D
:1054D00003EB010414F8014C24180B4413F8013CAD
:1054E0001B185B681B0C1B041343636010BC7047E4
:1054F0000121416070475FF48031416070470221B3
:10550000416070475FF400314160704704214160A1
:1055100070475FF4802141607047DFF82C2502EB73
:10552000010313F8013C1B180A4412F8012C12184D
:10553000126852F002021A607047DFF810150A680C
:1055400032F4404202430A60704718B585B0DFF874
:10555000004501212000FEF76BFD68461421FEF78F
:1055600081FD40F60F700090002001900020049013
:1055700069462000FEF7E4FD002006B010BD38B5F6
:1055800004000D00002C01D1012033E0DFF8C40439
:1055900084420CD12800C0B2002804D04FF400701F
:1055A000FFF761FF03E04FF40070FFF768FFDFF8DB
:1055B000A80484420CD12800C0B2002804D04FF4C3
:1055C0008060FFF750FF03E04FF48060FFF757FF64
:1055D000DFF8880484420CD12800C0B2002804D02F
:1055E0004FF40040FFF73FFF03E04FF40040FFF7A8
:1055F00046FF002032BD38B588B0DFF86404D0E93A
:105600000023CDE9012303A81421FEF72BFDDFF8C9
:10561000540400680090DFF83C44200004F030F9A6
:1056200001212000FFF7ABFF002001904FF48075AF
:10563000029501A9200004F077F95FF4602003903F
:105640005FF48010049000200590022006900795DA
:1056500003A9200004F083F94FF40040FFF76DFF29
:10566000002000906946200004F0E1F80A224FF47F
:1056700000712000FFF78CFE01220A212000FFF7B5
:10568000A2FEDFF8E4532A0040F205212000FFF7D4
:105690007FFE012229002000FFF795FE2000FFF782
:1056A000BDFE200000F003F8002009B030BD10B5A9
:1056B0000400002C10D0A06850F00800A060A06882
:1056C0000007FCD42000FFF7B3FE2000FFF7B5FE73
:1056D0000028FAD1002000E0012010BD10B58AB0EA
:1056E000DFF888430121200004F0C4F90120FFF70E
:1056F000AEFE68462821FEF7B5FC24200890002065
:105700000290DB480068801D01904FF48060079094
:105710008020059000200390D64800904FF48070C0
:105720000690002004904FF4005009906A46012131
:10573000200004F041FA01212000FFF7A6FEFFF748
:10574000DDFD00220121FFF703FE01000B20FFF722
:10575000E7FD0B20FFF7D8FD01212000FFF7DDFE5C
:1057600000200AB010BD10B5C04C24220121200039
:10577000FFF7ABFE01212000FFF787FEB54C2000AC
:10578000FFF74CFE2000FFF792FF002200212000CF
:1057900000F0E0F8002010BD10B5B44C012120004D
:1057A000FFF783FE2000FFF7A3FE2000FFF7AEFE09
:1057B0002000FFF7A4FEA748FFF735FE002010BD2C
:1057C00038B588B0AC48D0E90023CDE9012303A85F
:1057D0001421FEF747FCA948006800909F4C200068
:1057E00004F04EF801212000FFF7C9FE00200190CF
:1057F0004FF48075029501A9200004F095F85FF43C
:10580000602003905FF48010049000200590022037
:105810000690079503A9200004F0A1F84FF400407A
:10582000FFF78BFE002000906946200003F0FFFF89
:10583000934D2A004FF400712000FFF7A9FD0322C9
:1058400029002000FFF7BFFD8E4D2A0040F2052100
:105850002000FFF79DFD032229002000FFF7B3FD84
:105860002000FFF7DBFD2000FFF721FF002009B03B
:1058700030BD10B58AB0844C0521200004F0FAF840
:105880000220FFF7E4FD68462821FEF7EBFB242009
:105890000890002002907D480068801D01904FF420
:1058A0008060079080200590002003907848009049
:1058B0004FF480700690002004904FF4005009903F
:1058C0006A460521200004F077F905212000FFF742
:1058D000DCFDFFF713FD00220121FFF739FD010078
:1058E0003B20FFF71DFD3B20FFF70EFD05212000AB
:1058F000FFF713FE00200AB010BD10B5624C242241
:1059000005212000FFF7E1FD05212000FFF7BDFD87
:10591000524C2000FFF782FD2000FFF7C8FE220056
:105920000021002000F016F8002010BD10B5564CE4
:1059300005212000FFF7B9FD2000FFF7DCFD200066
:10594000FFF7E7FD2000FFF7DDFD4448FFF76BFDA3
:10595000002010BD70B506000D001400002E02D00E
:105960003000FFF76FFD002D02D02800FFF76AFD21
:10597000002C02D02000FFF765FD002070BD80B52F
:10598000FFF7ACFEFFF737FE002002BD80B5FFF742
:1059900070FFFFF715FF002002BD80B5FFF7EFFF96
:1059A000FFF7F4FF002002BD80B5FFF7CEFDFFF743
:1059B000F4FF02BD10B504002648844206D1002041
:1059C0002B4909680870FFF7CEFE0FE02248844299
:1059D00001D100200AE02148844206D100202B4951
:1059E00009680870FFF789FF00E0002010BD10B5BE
:1059F00004001848844208D11D4801680978491CF0
:105A000000680170FFF7C8FE11E01348844201D11D
:105A100000200CE01148844208D11C480168097834
:105A2000491C00680170FFF781FF00E0002010BDF5
:105A30000CED00E000E100E018ED00E000E400E023
:105A40001410024018100240F4C000080410024074
:105A5000001001400024014000280140003C0140AA
:105A6000E4C000083CC100080B0030000000024008
:105A7000000000204C240140ECC0000840C1000898
:105A80000C0060000D0090000004024004000020A3
:105A90004C3C0140F8B592B00400002609A824212E
:105AA000FEF7E0FA68462421FEF7DCFAA71D002580
:105AB0002800C0B212280FDA388809A92A00D2B209
:105AC00021F81200B81C01886A462B00DBB222F8CC
:105AD0001310871C6D1CEBE7122109A804F092F843
