:020000040800F2
:1000000030590020CDDB00083DD500084DD5000853
:1000100055D5000857D5000859D500080000000044
:100020000000000000000000000000005BD5000898
:100030005DD50008000000005FD5000861D500080C
:1000400069D5000861D600084DDC000851DC0008C5
:1000500055DC000845D5000859DC00085DDC0008C7
:1000600061DC000865DC000869DC0008EBD50008ED
:100070006DDC000871DC000875DC000879DC000824
:100080007DDC000881DC000885DC000889DC0008D4
:100090008DDC000891DC000895DC000899DC000884
:1000A0009DDC0008A1DC0008A5DC0008A9DC000834
:1000B00059D60008ADDC0008B1DC0008B5DC00084A
:1000C000B9DC0008BDDC0008C1DC0008C5DC0008A4
:1000D000C9DC000873D50008CDDC0008D1DC0008BD
:1000E000D5DC0008D9DC0008DDDC0008E1DC000814
:1000F000E5DC0008E9DC0008EDDC0008F1DC0008C4
:10010000F5DC0008F9DC0008FDDC000801DD000872
:1001100005DD000809DD00080DDD000811DD00081F
:1001200015DD000819DD00081DDD00080DD60008EA
:10013000BFF34F8FDFF8D4130A6812F4E062DFF8E0
:10014000D00302430A60BFF34F8F00BFFDE7C1F346
:100150000F2202617047C1F30F224261704738B528
:1001600005000C00280002F0ABF9002C03D02100A0
:10017000280002F0C9F9042115F1D40002F0B7F902
:10018000052115F1F40002F0B2F931BD38B50400D3
:100190000D002900200002F099F932BD2DE9F84345
:1001A00004000D0016005FF000093100200002F08D
:1001B0008DF907003900280002F03FFD80464046D7
:1001C000C0B2002810D0280002F029FD3900280014
:1001D00002F033FD80464046C0B2002804D0012022
:1001E00080F31388FFF7A4FF5FFA88F84046BDE864
:1001F000F2832DE9F84304000D00160000275FF09C
:100200000008A178200002F095FDA06DA179405C66
:10021000012812D0C0F07281032875D03ED3052882
:1002200000F0B280C0F08A80072800F0F980C0F0AA
:10023000D180082800F01A8160E10321200002F03B
:1002400082FDA06D6179415C200002F073FDA06D1C
:10025000E179405CA16DE2791144497811EB00210C
:10026000A06DE2791044807810EB0120A16DE27955
:100270001144C97811EB002188464146280002F05C
:10028000D4FC07003900C9B2200002F053FDA06D74
:10029000A179415C200002F04DFD31E1012002F026
:1002A00071FD02F076FD4FF47A71484380460721D4
:1002B000200002F048FDA06D6179415C200002F051
:1002C00039FD3900C9B2200002F034FDA06DA179DA
:1002D000415C200002F02EFD4146090EC9B220000B
:1002E00002F028FD4146090CC9B2200002F022FDAF
:1002F0004146090AC9B2200002F01CFD4146C9B2BC
:10030000200002F017FDFBE08248006802F087FC45
:100310000321200002F017FDA06D6179415C2000EF
:1003200002F008FD3900C9B2200002F003FDA06D03
:10033000A179415C200002F0FDFCE1E0A06DE179D3
:10034000405C002805D042F220017348FFF703FF0C
:1003500004E042F220017048FFF7F9FE032120007B
:1003600002F0F1FCA06D6179415C200002F0E2FC3A
:100370003900C9B2200002F0DDFCA06DA179415C1A
:10038000200002F0D7FCBBE0A06DE179405C0028C2
:1003900005D041F210016048FFF7DDFE04E041F2B4
:1003A00010015D48FFF7D3FE0321200002F0CBFCD3
:1003B000A06D6179415C200002F0BCFC3900C9B23B
:1003C000200002F0B7FCA06DA179415C200002F092
:1003D000B1FC95E0A06DE179405C002805D048F2C1
:1003E00080014D48FFF7B7FE04E048F280014A481B
:1003F000FFF7ADFE0321200002F0A5FCA06D61799E
:10040000415C200002F096FC3900C9B2200002F0E5
:1004100091FCA06DA179415C200002F08BFC6FE0A3
:10042000A06DE179405C002805D044F240013A48D3
:10043000FFF791FE04E044F240013748FFF787FEE2
:100440000321200002F07FFCA06D6179415C200057
:1004500002F070FC3900C9B2200002F06BFCA06D04
:10046000A179415C200002F065FC49E0A06DE179D2
:10047000405C002816D0DFF8A09042F220014846E8
:10048000FFF769FE41F210014846FFF764FE48F2AB
:1004900080014846FFF75FFE44F240014846FFF7FF
:1004A0005AFE15E0DFF8709042F220014846FFF74F
:1004B0004EFE41F210014846FFF749FE48F2800126
:1004C0004846FFF744FE44F240014846FFF73FFE2E
:1004D0000321200002F037FCA06D6179415C20000F
:1004E00002F028FC3900C9B2200002F023FCA06D04
:1004F000A179415C200002F01DFC01E00120070011
:100500003800C0B2BDE8F283000000000CED00E04E
:100510000400FA0538000020000801402DE9F84FDA
:1005200004000D0016001F005FF000085FF00009D6
:10053000A178200002F0FEFBA06DA179405C0128AB
:1005400022D0C0F03D83032800F0868050D30528D8
:1005500000F0EA80C0F0B480072800F04381C0F0CA
:100560001281092800F09C81C0F06B810B2800F0FB
:10057000A782C0F02A820D2800F0E282C0F0C0827B
:100580000E2800F0FD821BE3A06DE179405CA16DB7
:10059000E2791144497811EB0021A06DE279104411
:1005A000807810EB0120A16DE2791144C97811EB3C
:1005B000002189460321200002F0C5FBA06D61796E
:1005C000415C200002F0B6FB0021200002F0B2FBEB
:1005D000A06DA179415C200002F0ACFBC5F8C4908D
:1005E0000423D5F8C4201821380002F09EFAE9E26D
:1005F000A06DE179405CA16DE2791144497811EB7D
:100600000021A06DE2791044807810EB0120A16DEB
:10061000E2791144C97811EB0021894603212000B9
:1006200002F091FBA06D6179415C200002F082FB39
:100630000021200002F07EFBA06DA179415C20002A
:1006400002F078FBC5F8C8900423D5F8C8201C2117
:10065000380002F06AFAB5E2A06DE179405CA16D64
:10066000E2791144497811EB0021A06DE279104440
:10067000807810EB0120A16DE2791144C97811EB6B
:10068000002189460321200002F05DFBA06D617905
:10069000415C200002F04EFB0021200002F04AFBEA
:1006A000A06DA179415C200002F044FBC5F8CC901C
:1006B0000423D5F8CC202021380002F036FA81E25C
:1006C000A06DE179405CA16DE2791144497811EBAC
:1006D0000021A06DE2791044807810EB0120A16D1B
:1006E000E2791144C97811EB0021894603212000E9
:1006F00002F029FBA06D6179415C200002F01AFB39
:100700000021200002F016FBA06DA179415C2000C1
:1007100002F010FBC5F8D0900423D5F8D020242196
:10072000380002F002FA4DE2D5F8C40081460721F4
:10073000200002F008FBA06D6179415C200002F00E
:10074000F9FA0021200002F0F5FAA06DA179415CD0
:10075000200002F0EFFA4946090EC9B2200002F06B
:10076000E9FA4946090CC9B2200002F0E3FA494609
:10077000090AC9B2200002F0DDFA4946C9B22000D8
:1007800002F0D8FA1EE2D5F8C80081460721200001
:1007900002F0D9FAA06D6179415C200002F0CAFA3A
:1007A0000021200002F0C6FAA06DA179415C200072
:1007B00002F0C0FA4946090EC9B2200002F0BAFAA6
:1007C0004946090CC9B2200002F0B4FA4946090AA8
:1007D000C9B2200002F0AEFA4946C9B2200002F0C8
:1007E000A9FAEFE1D5F8CC0081460721200002F0FC
:1007F000AAFAA06D6179415C200002F09BFA002109
:10080000200002F097FAA06DA179415C200002F06F
:1008100091FA4946090EC9B2200002F08BFA494606
:10082000090CC9B2200002F085FA4946090AC9B28A
:10083000200002F07FFA4946C9B2200002F07AFA9D
:10084000C0E1D5F8D00081460721200002F07BFAF4
:10085000A06D6179415C200002F06CFA002120005B
:1008600002F068FAA06DA179415C200002F062FA02
:100870004946090EC9B2200002F05CFA4946090C4B
:10088000C9B2200002F056FA4946090AC9B220004E
:1008900002F050FA4946C9B2200002F04BFA91E149
:1008A0000321200002F04FFAA06D6179415C200025
:1008B00002F040FA0021200002F03CFAA06DA1797C
:1008C000415C200002F036FAA06DE179405CA16D38
:1008D000E2791144497811EB0021A06DE2791044CE
:1008E000807810EB0120A16DE2791144C97811EBF9
:1008F000002100910098C5F8C4000423D5F8C42055
:100900001821380002F011F9A06DE179084400794E
:10091000A16DE2791144497911EB0021A06DE279D2
:100920001044807910EB0120A16DE279114491F817
:1009300007A01AEB002AC5F8C8A00423D5F8C820E0
:100940001C21380002F0F1F8A06DE1790844007A2A
:10095000A16DE2791144497A11EB0021A06DE27991
:100960001044807A10EB0120A16DE279114491F8D6
:100970000BB01BEB002BC5F8CCB00423D5F8CC2072
:100980002021380002F0D1F8A06DE1790844007B05
:10099000A16DE2791144497B11EB0021A06DE27950
:1009A0001044807B10EB0120A16DE2791144C97BDA
:1009B00011EB00218946C5F8D0900423D5F8D0204A
:1009C0002421380002F0B1F8FCE0D5F8C400009012
:1009D0001321200002F0B7F9A06D6179415C20007D
:1009E00002F0A8F90021200002F0A4F9A06DA1797D
:1009F000415C200002F09EF90099090EC9B2200066
:100A000002F098F90099090CC9B2200002F092F99D
:100A10000099090AC9B2200002F08CF90099C9B204
:100A2000200002F087F9D5F8C8A05146090EC9B2D6
:100A3000200002F07FF95146090CC9B2200002F0F3
:100A400079F95146090AC9B2200002F073F95146FA
:100A5000C9B2200002F06EF9D5F8CCB05946090EA3
:100A6000C9B2200002F066F95946090CC9B220004B
:100A700002F060F95946090AC9B2200002F05AF999
:100A80005946C9B2200002F055F9D5F8D000814688
:100A90004946090EC9B2200002F04CF94946090C3A
:100AA000C9B2200002F046F94946090AC9B220003D
:100AB00002F040F94946C9B2200002F03BF981E05A
:100AC000D5F8C4102800FFF761FB0100300002F0E8
:100AD000ACF880460321200002F035F9A06D617961
:100AE000415C200002F026F94146C9B2200002F024
:100AF00021F9A06DA179415C200002F01BF961E0B1
:100B0000D5F8C8102800FFF741FB0100300002F0C3
:100B10008CF880460321200002F015F9A06D617960
:100B2000415C200002F006F94146C9B2200002F003
:100B300001F9A06DA179415C200002F0FBF841E0D1
:100B4000D5F8CC102800FFF721FB0100300002F09F
:100B50006CF880460321200002F0F5F8A06D617961
:100B6000415C200002F0E6F84146C9B2200002F0E4
:100B7000E1F8A06DA179415C200002F0DBF821E0F2
:100B8000D5F8D0102800FFF701FB0100300002F07B
:100B90004CF880460321200002F0D5F8A06D617961
:100BA000415C200002F0C6F84146C9B2200002F0C4
:100BB000C1F8A06DA179415C200002F0BBF801E012
:100BC000012080464046C0B2BDE8F28F38B504002F
:100BD0000D002900C9B2200001F080FC32BD2DE9D2
:100BE000F84306005FF00008002400250421B01D32
:100BF00002F0E6F800273800C0B204282FDA3800E7
:100C0000C0B206EB4000C088002140F6E4485FF027
:100C10000009A8FB002308FB013309FB003342F263
:100C200010785FF00009A8FB020108FB031109FB23
:100C30000211B6F8BE20002302F026F9B6F8C02053
:100C4000002302F021F904000D002000000B401CDD
:100C50003900C9B206EB4101C8817F1CCBE70020F7
:100C6000BDE8F2832DE9F04104000D0016001F00DD
:100C70005FF00008A06DA179405C01280BD0C0F0A6
:100C80002882032800F0E18055D3052800F018825F
:100C9000C0F056811DE2A178200002F04BF80B2134
:100CA000200002F050F8A06D6179415C200002F054
:100CB00041F80021200002F03DF8A06DA179415CCF
:100CC000200002F037F8D5F8E410090EC9B2200070
:100CD00002F030F8D5F8E410090CC9B2200002F097
:100CE00029F8D5F8E410090AC9B2200002F022F868
:100CF000D5F8E410C9B2200002F01CF8B5F8E810ED
:100D000089B2090AC9B2200002F014F8B5F8E81057
:100D1000C9B2200002F00EF8B5F8EA1089B2090A4B
:100D2000C9B2200002F006F8B5F8EA10C9B22000F6
:100D300002F000F8CFE1A178200001F0FBFF0321D1
:100D4000200002F000F8A06D6179415C200001F004
:100D5000F1FF0021200001F0EDFFA06DA179415CC1
:100D6000200001F0E7FFA06DE179405CC5F8E400E8
:100D7000D5F8E400A16DE2791144497811EB002126
:100D8000C5F8E410D5F8E400A16DE2791144897842
:100D900011EB0021C5F8E410D5F8E400A16DE2796B
:100DA0001144C97811EB0021C5F8E4100423D5F8EB
:100DB000E4203021380001F0B8FEA06DE17908444C
:100DC0000079A5F8E800B5F8E800A16DE2791144D2
:100DD000497911EB0021A5F8E8100223B5F8E820C5
:100DE0003421380001F0A1FEA06DE179084480793A
:100DF000A5F8EA00B5F8EA00A16DE2791144C979D5
:100E000011EB0021A5F8EA10B5F8EA00C92802DBC9
:100E1000C820A5F8EA000223B5F8EA2036213800F8
:100E200001F083FEB5F8E800C5F8E000D5F8E01061
:100E3000B5F8EA004143C5F8E010D5F8E010D5F860
:100E4000E4004118C5F8E01045E1A178200001F068
:100E500071FF1121200001F076FFA06D6179415CE6
:100E6000200001F067FF0021200001F063FFA06D6A
:100E7000A179415C200001F05DFFB5F8D61089B280
:100E8000090AC9B2200001F055FFB5F8D610C9B261
:100E9000200001F04FFFB5F8D81089B2090AC9B295
:100EA000200001F047FFB5F8D810C9B2200001F0CA
:100EB00041FFB5F8EC1089B2090AC9B2200001F06F
:100EC00039FFB5F8EC10C9B2200001F033FFB5F8D6
:100ED000EE1089B2090AC9B2200001F02BFFB5F863
:100EE000EE10C9B2200001F025FFB5F8F01089B26C
:100EF000090AC9B2200001F01DFFB5F8F010C9B20F
:100F0000200001F017FFB5F8DA1089B2090AC9B25A
:100F1000200001F00FFFB5F8DA10C9B2200001F08F
:100F200009FFB5F8DC1089B2090AC9B2200001F046
:100F300001FFB5F8DC10C9B2200001F0FBFECAE0E9
:100F4000A178200001F0F6FE0321200001F0FBFE55
:100F5000A06D6179415C200001F0ECFE00212000D1
:100F600001F0E8FEA06DA179415C200001F0E2FEF5
:100F7000A06DE179405CA5F8D600B5F8D600A16D6A
:100F8000E2791144497811EB0021A5F8D61002232B
:100F9000B5F8D6202821380001F0C7FDA06DE17911
:100FA00008448078A5F8D800B5F8D800A16DE2799A
:100FB0001144C97811EB0021A5F8D8100223B5F827
:100FC000D8202A21380001F0B0FDA06DE179084455
:100FD0000079A5F8EC00B5F8EC00A16DE2791144B8
:100FE000497911EB0021A5F8EC10B5F8EC001528B3
:100FF00002DB1420A5F8EC000223B5F8EC203A211E
:10100000380001F092FDA06DE17908448079A5F8DF
:10101000EE00B5F8EE00A16DE2791144C97911EB4B
:101020000021A5F8EE100223B5F8EE203C2138008F
:1010300001F07BFDA06DE1790844007AA5F8F0008D
:10104000B5F8F000A16DE2791144497A11EB002165
:10105000A5F8F0100223B5F8F0203E21380001F089
:1010600064FDA06DE1790844807AA5F8DA00B5F84E
:10107000DA00A16DE2791144C97A11EB0021A5F8DB
:10108000DA100223B5F8DA202C21380001F04DFDEA
:10109000A06DE1790844007BA5F8DC00B5F8DC0020
:1010A000A16DE2791144497B11EB0021A5F8DC1018
:1010B0000223B5F8DC202E21380001F036FD0AE0CD
:1010C000330015F1D4022900200000F045FA8046D3
:1010D00001E0012080464046C0B2BDE8F0812DE924
:1010E000F04104000D0016001F005FF00008A06D25
:1010F000A179405C01280BD0C0F02882032800F0C1
:10110000E18055D3052800F01882C0F056811DE219
:10111000A178200001F00EFE0B21200001F013FE4B
:10112000A06D6179415C200001F004FE00212000E7
:1011300001F000FEA06DA179415C200001F0FAFDF4
:10114000D5F80411090EC9B2200001F0F3FDD5F85D
:101150000411090CC9B2200001F0ECFDD5F804110E
:10116000090AC9B2200001F0E5FDD5F80411C9B2A1
:10117000200001F0DFFDB5F8081189B2090AC9B2F3
:10118000200001F0D7FDB5F80811C9B2200001F028
:10119000D1FDB5F80A1189B2090AC9B2200001F0DF
:1011A000C9FDB5F80A11C9B2200001F0C3FDCFE1B5
:1011B000A178200001F0BEFD0321200001F0C3FD55
:1011C000A06D6179415C200001F0B4FD0021200098
:1011D00001F0B0FDA06DA179415C200001F0AAFDF5
:1011E000A06DE179405CC5F80401D5F80401A16D5A
:1011F000E2791144497811EB0021C5F80411D5F8C2
:101200000401A16DE2791144897811EB0021C5F840
:101210000411D5F80401A16DE2791144C97811EBEC
:101220000021C5F804110423D5F804214821380011
:1012300001F07BFCA06DE17908440079A5F8080174
:10124000B5F80801A16DE2791144497911EB00214B
:10125000A5F808110223B5F808214C21380001F047
:1012600064FCA06DE17908448079A5F80A01B5F81D
:101270000A01A16DE2791144C97911EB0021A5F8A9
:101280000A11B5F80A01C92802DBC820A5F80A012D
:101290000223B5F80A214E21380001F046FCB5F8CA
:1012A0000801C5F80001D5F80011B5F80A0141435D
:1012B000C5F80011D5F80011D5F804014118C5F89A
:1012C000001145E1A178200001F034FD112120003A
:1012D00001F039FDA06D6179415C200001F02AFD2B
:1012E0000021200001F026FDA06DA179415C2000C5
:1012F00001F020FDB5F8F61089B2090AC9B2200044
:1013000001F018FDB5F8F610C9B2200001F012FD89
:10131000B5F8F81089B2090AC9B2200001F00AFD37
:10132000B5F8F810C9B2200001F004FDB5F80C11B1
:1013300089B2090AC9B2200001F0FCFCB5F80C1111
:10134000C9B2200001F0F6FCB5F80E1189B2090A05
:10135000C9B2200001F0EEFCB5F80E11C9B22000B0
:1013600001F0E8FCB5F8101189B2090AC9B22000F1
:1013700001F0E0FCB5F81011C9B2200001F0DAFC70
:10138000B5F8FA1089B2090AC9B2200001F0D2FCFE
:10139000B5F8FA10C9B2200001F0CCFCB5F8FC1089
:1013A00089B2090AC9B2200001F0C4FCB5F8FC10EA
:1013B000C9B2200001F0BEFCCAE0A178200001F013
:1013C000B9FC0321200001F0BEFCA06D6179415CF5
:1013D000200001F0AFFC0021200001F0ABFCA06D6B
:1013E000A179415C200001F0A5FCA06DE179405C91
:1013F000A5F8F600B5F8F600A16DE2791144497838
:1014000011EB0021A5F8F6100223B5F8F6204021D3
:10141000380001F08AFBA06DE17908448078A5F8D6
:10142000F800B5F8F800A16DE2791144C97811EB24
:101430000021A5F8F8100223B5F8F8204221380061
:1014400001F073FBA06DE17908440079A5F80C0167
:10145000B5F80C01A16DE2791144497911EB002135
:10146000A5F80C11B5F80C01152802DB1420A5F81D
:101470000C010223B5F80C215221380001F055FB74
:10148000A06DE17908448079A5F80E01B5F80E0148
:10149000A16DE2791144C97911EB0021A5F80E1173
:1014A0000223B5F80E215421380001F03EFBA06D57
:1014B000E1790844007AA5F81001B5F81001A16D92
:1014C000E2791144497A11EB0021A5F810110223A9
:1014D000B5F810215621380001F027FBA06DE17905
:1014E0000844807AA5F8FA00B5F8FA00A16DE2790F
:1014F0001144C97A11EB0021A5F8FA100223B5F8BE
:10150000FA204421380001F010FBA06DE179084475
:10151000007BA5F8FC00B5F8FC00A16DE279114450
:10152000497B11EB0021A5F8FC100223B5F8FC2043
:101530004621380001F0F9FA0AE0330015F1F4020F
:101540002900200000F008F8804601E001208046D4
:101550004046C0B2BDE8F0812DE9F94F8BB00D00D7
:10156000160000275FF000085FF000095FF0000A36
:10157000042100220DF1140B584601F09DFD0821B5
:1015800000220DF11C0B584601F096FD04210022AB
:101590000DF1080B584601F08FFD042100220DF1DA
:1015A000040B584601F088FD082100220DF1240BA0
:1015B000584601F081FD042100220DF1100B584620
:1015C00001F07AFD306903900020069001F0BAFD29
:1015D00001F0D2FD0020ADF80000BDF800000428A5
:1015E00021DA0020BDF8001005EB4101A1F8B6009A
:1015F000002005A9BDF800208854002007A9BDF8E7
:10160000002021F81200002002A9BDF80020885413
:10161000002001A9BDF800208854BDF80000401C3E
:10162000ADF80000D9E70B9881780B9801F082FBA8
:10163000F08AC0000C30010089B20B9801F083FBE6
:1016400031780B9801F076FB00210B9801F072FBCA
:1016500005210B9801F06EFB306980B24FF4FA61FE
:1016600090FBF1F080B2C000001DADF80000BDF8A5
:101670000010C9B20B9801F05DFB0020ADF800002E
:1016800042F22001DFF89809FEF765FD41F21001F2
:10169000DFF88C09FEF75FFD48F28001DFF8800972
:1016A000FEF759FD44F24001DFF87409FEF753FDDF
:1016B000DFF870A9DFF870195046FEF74CFDDFF82F
:1016C0006C195046FEF747FDDFF864195046FEF7E7
:1016D00042FD40F60801DFF85C09FEF73CFD44F2EC
:1016E00040015046FEF737FD48F280015046FEF7B4
:1016F00032FDDFF844195046FEF72DFDDFF8901D4E
:101700005046FEF728FD5FF0000B5846F18A80B284
:10171000884280F01082DFF810195046FEF71BFD5A
:10172000DFF808195046FEF712FDDFF8041950469D
:10173000FEF711FD40F60801DFF8F808FEF707FD97
:1017400044F240015046FEF706FD48F28001504643
:10175000FEF7FDFCDFF8E0185046FEF7FCFCDFF872
:10176000301D5046FEF7F3FC0399280001F033FFCB
:10177000069006990C9801F058FA642002F0AEF831
:101780000399B08A41180391DFF8A0185046FEF77C
:10179000E2FCDFF894185046FEF7D9FC40F6080149
:1017A000DFF89008FEF7D7FCDFF884185046FEF704
:1017B000CEFC48F280015046FEF7CDFC44F24001D9
:1017C0005046FEF7C4FCDFF8C81C5046FEF7C3FCC9
:1017D000DFF864185046FEF7BAFC052002F084F8E2
:1017E000584680B2032802DA012002F07DF8280072
:1017F000FFF7F5F9002007003800C0B2042880F296
:101800009581584680B2002817D13800C0B205EB48
:101810004000C089B188884208D37088C830390038
:10182000C9B205EB4101C989884206DA01203900B5
:10183000C9B205EB4101A1F8B6003800C0B205EB12
:101840004000B0F8B60000281DD1584680B2F18A99
:10185000491E884217D13800C0B205EB4000C0894C
:101860003189884207D3F0883900C9B205EB4101BC
:10187000C989884207D21BF101003900C9B205EBC2
:101880004101A1F8B6003800C0B205EB4000B0F845
:10189000B600002840F0348105A93800C0B2085CC9
:1018A000002809D13800C0B205EB4000C08907AA62
:1018B0003B00DBB222F813003800C0B2085C401CC9
:1018C0003A00D2B2885409A83A00D2B230F81220B5
:1018D0003B00DBB205EB4303DB899A4207D00022D1
:1018E00004ABBC465FFA8CFC03F80C2016E004AA9B
:1018F0003B00DBB2D35C5B1CBC465FFA8CFC02F89D
:101900000C303B00DBB2D25C042A07DB1BF1010286
:101910003B00DBB205EB4303A3F8B6203A00D2B29A
:1019200005EB4202D2893B00DBB220F81320584677
:10193000328B80B2904210D23900C9B22820414384
:1019400005EB0100594689B200EB41003900C9B2EC
:1019500005EB4101C989C182D2E028203A00D2B208
:1019600042432A4416321400002290464246D2B224
:10197000338B5B1E9A4205DA62882280A41C18F120
:101980000108F3E73A00D2B205EB4202D289228085
:10199000012291463A00D2B242432A44D28A3B0005
:1019A000DBB205EB4303DB899A420DD23A00D2B297
:1019B00005EB4202D2893B00DBB200FB03F0284476
:1019C000C08A121A914618E03A00D2B205EB4202E0
:1019D000D2893B00DBB243432B44DB8A9A420CD2D0
:1019E0003A00D2B200FB02F02844C28A3800C0B2EA
:1019F00005EB4000C089121A91464846B28B80B26E
:101A0000904215D202A83A00D2B2825C521C3B002E
:101A1000DBB2C2543A00D2B2805C04282DDB1BF149
:101A200001003A00D2B205EB4202A2F8B60024E06F
:101A3000708B4A4692B2904215D201A83A00D2B2B7
:101A4000825C521C3B00DBB2C2543A00D2B2805CD2
:101A5000042812DB1BF101003A00D2B205EB42026E
:101A6000A2F8B60009E0002002AA3B00DBB2D05485
:101A7000002001AA3B00DBB2D0543800C0B2085CA1
:101A800014283DDB00203A00D2B2885407A9380060
:101A9000C0B231F810003A00D2B205EB4202D2894E
:101AA00090420BD23800C0B205EB4000C0893A002A
:101AB000D2B231F81290B0EB09090AE03800C0B296
:101AC00031F810903800C0B205EB4000C089B9EB86
:101AD0000009484680B203280ADB3800C0B205EB93
:101AE0004000C0893A00D2B231F81210884207D2C1
:101AF0001BF101003900C9B205EB4101A1F8B600A4
:101B00003800C0B205EB4000C18989B2090AC9B2E8
:101B10000B9801F00FF93800C0B205EB4000C18905
:101B2000C9B20B9801F006F97F1C65E601F024FBB1
:101B30001BF1010BE9E500208DF800009DF8000085
:101B400004281BDA9DF8000005EB4000B0F8B61041
:101B500089B2090AC9B20B9801F0ECF89DF80000AF
:101B600005EB4000B0F8B610C9B20B9801F0E2F8EE
:101B70009DF80000401C8DF80000DFE7DFF8A0743E
:101B800042F220013800FEF7E2FA41F2100138007B
:101B9000FEF7DDFA48F280013800FEF7D8FA44F289
:101BA00040013800FEF7D3FADFF87C145046FEF708
:101BB000D2FADFF878145046FEF7C9FADFF870144D
:101BC0005046FEF7C8FA40F60801DFF86804FEF751
:101BD000BEFA44F240015046FEF7BDFA48F28001D9
:101BE0005046FEF7B4FADFF850145046FEF7B3FA49
:101BF000DFF89C185046FEF7AAFA0C9801F00FF88F
:101C000001F09CFA00200DB0BDE8F08FF8B504009B
:101C10000D0016000027A06DA179405C012811D0AD
:101C2000C0F08681032851D029D3052800F0988080
:101C300073D3072800F0F280C0F0C180082800F0BC
:101C4000268175E1A178200001F074F804212000BC
:101C500001F079F8A06D6179415C200001F06AF82B
:101C60000021200001F066F8A06DA179415C200000
:101C700001F060F82978200001F05CF85AE1A178C1
:101C8000200001F057F80521200001F05CF8A06D5C
:101C90006179415C200001F04DF80021200001F045
:101CA00049F8A06DA179415C200001F043F8B5F836
:101CB000BE1089B2090AC9B2200001F03BF8B5F89C
:101CC000BE10C9B2200001F035F833E1A178200040
:101CD00001F030F80521200001F035F8A06D6179A0
:101CE000415C200001F026F80021200001F022F8DC
:101CF000A06DA179415C200001F01CF8B5F8C0107E
:101D000089B2090AC9B2200001F014F8B5F8C01070
:101D1000C9B2200001F00EF80CE1A178200001F01A
:101D200009F80321200001F00EF8A06D6179415CF3
:101D3000200000F0FFFF0021200000F0FBFFA06D5D
:101D4000A179415C200000F0F5FFA06DE179405CD5
:101D5000287001232A780821300000F0E6FEE9E02F
:101D6000A178200000F0E6FF0321200000F0EBFF47
:101D7000A06D6179415C200000F0DCFF00212000B3
:101D800000F0D8FFA06DA179415C200000F0D2FFE7
:101D9000A06DE179405CA5F8BE00B5F8BE00A16D6C
:101DA000E2791144497811EB0021A5F8BE10022315
:101DB000B5F8BE200921300000F0B7FEBAE0A178E6
:101DC000200000F0B7FF0321200000F0BCFFA06D51
:101DD0006179415C200000F0ADFF0021200000F09F
:101DE000A9FFA06DA179415C200000F0A3FFA06DC8
:101DF000E179405CA5F8C000B5F8BE00A16DE279BC
:101E00001144497811EB0021A5F8C0100223B5F860
:101E1000C0200B21300000F088FE8BE0A17820006C
:101E200000F088FF0821200000F08DFFA06D61798F
:101E3000415C200000F07EFF0021200000F07AFFCE
:101E4000A06DA179415C200000F074FF297820008A
:101E500000F070FFB5F8BE1089B2090AC9B22000BF
:101E600000F068FFB5F8BE10C9B2200000F062FFB4
:101E7000B5F8C01089B2090AC9B2200000F05AFFB3
:101E8000B5F8C010C9B2200000F054FF52E0A178AC
:101E9000200000F04FFF0321200000F054FFA06D50
:101EA0006179415C200000F045FF0021200000F036
:101EB00041FFA06DA179415C200000F03BFFA06DC7
:101EC000E179405C287001232A780821300000F075
:101ED0002CFEA06DE17908444078A5F8BE00B5F865
:101EE000BE00A16DE2791144897811EB0021A5F8BB
:101EF000BE100223B5F8BE200921300000F015FE07
:101F0000A06DE1790844C078A5F8C000B5F8C0001C
:101F1000A16DE2791144097911EB0021A5F8C010F7
:101F20000223B5F8C0200B21300000F0FEFD01E0D7
:101F3000012007003800C0B2F2BD2DE9F0410400D5
:101F40000D0016001F005FF00008A06D6179405C75
:101F5000002808D002280ED006D3042819D012D3A6
:101F600005281ED025E026E03A0031002000FEF7CB
:101F700040F980461FE03B00320029002000FEF7B8
:101F8000CDFA804617E03A0029002000FFF73EFE18
:101F900011E03B00320029002000FEF763FE80467E
:101FA00009E03B00320029002000FFF798F8804646
:101FB00001E0012080464046C0B2BDE8F081F8B59E
:101FC00004000D0016001F00200000F091FE012803
:101FD00020D1200000F0C6FE002810D1200000F023
:101FE000C7FE00280BD13B00320029002000FFF77C
:101FF000A4FF00280AD1200000F0AEFE06E02278FF
:10200000521EDFF89014200002F0A8FA200000F021
:1020100069FE02E0200000F071FEF2BD0000000049
:10202000000801400010014020002004400040044E
:1020300080008004000C01400100010480B500F024
:102040005FFA02BDF8B5040002F0FAFB0425002691
:1020500014F1B60732002900380001F02DF80020F5
:10206000F2BD80B502F0F0FB002002BD38B50400DF
:10207000002000252800C0B204283FDA2800C0B2A2
:10208000002805D0022817D00CD303281ED027E043
:102090002800C0B204EB4000B0F8B600C0B202F0B5
:1020A000D7FB29E02800C0B204EB4000B0F8B6002E
:1020B000C0B202F0D4FB1FE02800C0B204EB400025
:1020C000B0F8B600C0B202F0D1FB15E02800C0B2F3
:1020D00004EB4000B0F8B600C0B202F0CEFB0BE05B
:1020E000012002F0B5FB012002F0B9FB012002F053
:1020F000BDFB012002F0C1FB6D1CBBE7002032BD1F
:102100002DE9F14F0C0015001E00FFF797FF0700A7
:102110003800C0B2FF2801D10220B6E13800C0B2B9
:102120000F2847D1DFF8708342F220014046FEF7C6
:102130000EF841F210014046FEF709F848F280011E
:102140004046FEF704F844F240014046FDF7FFFF29
:10215000280000F064FDDFF84483DFF844B35946FB
:102160004046FDF7F4FF40F2022949464046FDF79C
:10217000EEFFDFF830A340F204415046FDF7E7FFE1
:1021800059465046FDF7E3FFDFF804B35946404691
:10219000FDF7DDFF40F201114046FDF7D8FF49464B
:1021A0005046FDF7D4FF59465046FDF7D0FF00F0EA
:1021B000C5FF62E13000C0B2002801D1032064E114
:1021C00000F0C0FFDFF8D492DFF8D48241464846E1
:1021D000FDF7BDFF40F2022A51464846FDF7B7FF22
:1021E000DFF8C0B240F204415846FDF7B0FF414667
:1021F0005846FDF7ACFFDFF8988241464846FDF7A8
:10220000A6FF40F201114846FDF7A1FF514658468E
:10221000FDF79DFF41465846FDF799FF3100C9B2D1
:102220002000FEF7D3FC2000FFF70CFF3800C0B2FF
:1022300001280BD0C0F00481032841D023D3052806
:1022400078D05AD3062800F0B880F9E0D4F8C4203A
:1022500029002000FDF7A2FFDFF83C8242F22001B6
:102260004046FDF778FF41F210014046FDF773FF4D
:1022700048F280014046FDF76EFF44F240014046BF
:10228000FDF769FFF4E0D4F8C82029002000FDF72D
:1022900085FFDFF8048242F220014046FDF75BFF34
:1022A00041F210014046FDF756FF48F280014046DA
:1022B000FDF751FF44F240014046FDF74CFFD7E0E7
:1022C000D4F8CC2029002000FDF768FFDFF8C88192
:1022D00042F220014046FDF73EFF41F21001404628
:1022E000FDF739FF48F280014046FDF734FF44F224
:1022F00040014046FDF72FFFBAE0D4F8D020290076
:102300002000FDF74BFFDFF8908142F220014046AC
:10231000FDF721FF41F210014046FDF71CFF48F296
:1023200080014046FDF717FF44F240014046FDF7AB
:1023300012FF9DE02B0014F1D40221000098FFF75A
:102340000BF9DFF854B142F220015846FDF7FFFEC9
:1023500041F210015846FDF7FAFE48F2800949465D
:102360005846FDF7F4FE44F2400A51465846FDF740
:10237000EEFEDFF834B14D495846FDF7ECFE4C490E
:102380005846FDF7E8FE4B495846FDF7E4FE40F697
:1023900008014948FDF7DFFE51465846FDF7DBFED0
:1023A00049465846FDF7D7FE44495846FDF7D3FE47
:1023B00041465846FDF7CFFE5AE02B0014F1F402D7
:1023C00021000098FFF7C8F8DFF8CCB042F22001F6
:1023D0005846FDF7BCFE41F210015846FDF7B7FE26
:1023E00048F2800949465846FDF7B1FE44F2400ADA
:1023F00051465846FDF7ABFEDFF8ACB02B495846C6
:10240000FDF7A9FE2A495846FDF7A5FE2949584679
:10241000FDF7A1FE40F608012748FDF79CFE514656
:102420005846FDF798FE49465846FDF794FE234965
:102430005846FDF790FE41465846FDF78CFE17E0E2
:10244000DFF8548042F220014046FDF780FE41F261
:1024500010014046FDF77BFE48F280014046FDF743
:1024600076FE44F240014046FDF771FEFF20070072
:102470002000FFF7FBFDFFF7F4FD3800C0B2FF2896
:1024800001D0002007003800C0B2BDE8F28F000084
:1024900002000204D4DA00080008014000180140DC
:1024A0000400040400140140001001402000200436
:1024B0004000400480008004000C01400100010441
:1024C00010B50400200001F07CF810BD38B5040000
:1024D0000D002900200001F07EF832BD38B504005F
:1024E0000D002900C9B2200001F0D6F832BD38B580
:1024F00004000D002900C9B2200001F0E9F832BD46
:1025000080B501F09DF902BD2DE9F24F88B00400BD
:102510000025102100226E46300000F0CDFD102174
:10252000002204AE300000F0C7FDDFF8D8660523B6
:102530006A460821306802F0B5F9052304AA58213B
:10254000306802F0AFF9052204A9684602F025FAC6
:10255000002813D005236A46A821306802F0A2F9AA
:1025600005236A460821306802F08EF905236A4681
:102570005821306802F088F9012005009DF800001C
:10258000FF2817D09DF80000207068464178A4F815
:10259000BE10B4F8BE10827812EB0122A4F8BE205F
:1025A000C178A4F8C010B4F8C010007910EB012075
:1025B000A4F8C0009DF80000002801D1012005000A
:1025C00010275FF00008E94642463900484600F00F
:1025D00073FD5FF010095FF0000A0DF1100B524619
:1025E0004946584600F068FD10236A4618213068B5
:1025F00002F058F9102304AA6821306802F052F959
:10260000102204A9684602F0C8F9002813D010234C
:102610006A46B821306802F045F910236A4618214D
:10262000306802F031F910236A461821306802F050
:102630002BF9022005009DF80000FF2861D09DF8CD
:102640000000C4F8C4006846D4F8C410427812EB05
:102650000122C4F8C420D4F8C410827812EB0122FD
:10266000C4F8C420D4F8C410C27812EB0122C4F814
:10267000C4200179C4F8C810D4F8C810427912EB0C
:102680000122C4F8C820D4F8C810827912EB0122C4
:10269000C4F8C820D4F8C810C27912EB0122C4F8DB
:1026A000C820017AC4F8CC10D4F8CC10427A12EBCE
:1026B0000122C4F8CC20D4F8CC10827A12EB01228B
:1026C000C4F8CC20D4F8CC10C27A12EB0122C4F8A2
:1026D000CC20017BC4F8D010D4F8D010427B12EB90
:1026E0000122C4F8D020D4F8D010827B12EB012252
:1026F000C4F8D020D4F8D010C07B10EB0120C4F86F
:10270000D00010275FF00008E946424639004846ED
:1027100000F0D2FC5FF010095FF0000A0DF1100B21
:1027200052464946584600F0C7FC10236A46282105
:10273000306802F0B7F8102304AA7821306802F05C
:10274000B1F8102204A9684602F027F9002813D036
:1027500010236A46C821306802F0A4F810236A46A4
:102760002821306802F090F810236A4678213068FA
:1027700002F08AF8032005009DF80000FF2867D0CA
:102780009DF80000A4F8D6006846B4F8D610427848
:1027900012EB0122A4F8D6208178A4F8D810B4F85E
:1027A000D810C27812EB0122A4F8D8200179A4F83D
:1027B000DA10B4F8DA10427912EB0122A4F8DA2028
:1027C0008179A4F8DC10B4F8DC10C27912EB012294
:1027D000A4F8DC20017AC4F8E410D4F8E410427ABA
:1027E00012EB0122C4F8E420D4F8E410827A12EB50
:1027F0000122C4F8E420D4F8E410C27A12EB0122DA
:10280000C4F8E420017BA4F8E810B4F8E810427B97
:1028100012EB0122A4F8E820817BA4F8EA10B4F8B6
:10282000EA10C07B10EB0120A4F8EA00B4F8EA003B
:10283000C4F8E000D4F8E010B4F8E8004143C4F86C
:10284000E010D4F8E010D4F8E4004118C4F8E01027
:1028500010275FF00008E94642463900484600F07C
:102860002BFC5FF010095FF0000A0DF1100B5246CF
:102870004946584600F020FC08236A463821306853
:1028800002F010F8082304AA8821306802F00AF840
:10289000082204A9684602F080F8002813D0082313
:1028A0006A46D821306801F0FDFF08236A463821C6
:1028B000306801F0E9FF08236A468821306801F09A
:1028C000E3FF042005009DF80000FF281ED06846A5
:1028D0008178A4F8EC10B4F8EC10C27812EB012265
:1028E000A4F8EC200179A4F8EE10B4F8EE104279C7
:1028F00012EB0122A4F8EE208179A4F8F010B4F8CC
:10290000F010C07910EB0120A4F8F00010275FF060
:102910000008E94642463900484600F0CDFB5FF02A
:1029200010095FF0000A0DF1100B52464946584657
:1029300000F0C2FB10236A464021306801F0B2FF6C
:10294000102304AA9021306801F0ACFF102204A9E2
:10295000684602F022F8002813D010236A46E021CE
:10296000306801F09FFF10236A464021306801F073
:102970008BFF10236A469021306801F085FF052007
:1029800005009DF80000FF2867D09DF80000A4F81E
:10299000F6006846B4F8F610427812EB0122A4F86B
:1029A000F6208178A4F8F810B4F8F810C27812EB89
:1029B0000122A4F8F8200179A4F8FA10B4F8FA106A
:1029C000427912EB0122A4F8FA208179A4F8FC10D4
:1029D000B4F8FC10C27912EB0122A4F8FC20017AB1
:1029E000C4F80411D4F80411427A12EB0122C4F89D
:1029F0000421D4F80411827A12EB0122C4F80421D4
:102A0000D4F80411C27A12EB0122C4F80421017B2C
:102A1000A4F80811B4F80811427B12EB0122A4F8C3
:102A20000821817BA4F80A11B4F80A11C07B10EBCD
:102A30000120A4F80A01B4F80A01C4F80001D4F88E
:102A40000011B4F808014143C4F80011D4F8001192
:102A5000D4F804014118C4F8001110275FF00008F1
:102A6000E94642463900484600F026FB5FF010096F
:102A70005FF0000A0DF1100B52464946584600F02F
:102A80001BFB08236A465021306801F00BFF082326
:102A900004AAA021306801F005FF082204A96846B5
:102AA00001F07BFF002813D008236A46F02130682C
:102AB00001F0F8FE08236A465021306801F0E4FE78
:102AC00008236A46A021306801F0DEFE06200500DA
:102AD0009DF80000FF281ED068468178A4F80C11EC
:102AE000B4F80C11C27812EB0122A4F80C21017980
:102AF000A4F80E11B4F80E11427912EB0122A4F8D9
:102B00000E218179A4F81011B4F81011C07910EBDE
:102B10000120A4F810012800C0B2002802D0200033
:102B200000F095FC09B0BDE8F08F2DE9FC470400EA
:102B30000D0016001F005FF0000804210022E94686
:102B4000484600F0B9FA3000000E8DF800006846E3
:102B50003100090C41703100090A8170C6703800DB
:102B6000C0B2002805D03800C0B2052801DA002C18
:102B700001D1012043E0DFF88C903B00DBB29BB237
:102B800068463900C9B249420844021D290089B289
:102B9000D9F8000001F078FE82465046C0B2002805
:102BA00001D01AF1020A3B00DBB29BB26846390041
:102BB000C9B249420844021D15F1500189B2D9F841
:102BC000000001F061FE80464046C0B2002801D0FE
:102BD00018F103083B00DBB29BB268463900C9B26A
:102BE00049420844021D15F1A00189B2D9F800003C
:102BF00001F04AFE0100C9B2002900D0001DC0B298
:102C0000BDE8F6870800002070B504000D0016002E
:102C10003200D2B22900200001F0D8FE70BD10B5FC
:102C20000400200001F0DDFE10BD38B504000D00E9
:102C30002900200001F0DBFE32BD38B504000D0094
:102C40002900200001F0DBFE32BD10B50400200099
:102C500001F0DDFE10BD30B4002513E050F8042B68
:102C6000D30744BFA9F101039A18091F042942F8A8
:102C7000045BFAD213468C0744BF15809B1CC9071E
:102C800048BF1D7050F8041B0029E7D130BC7047C5
:102C90002DE9F84384B004000D0016001F005FF01A
:102CA00000080F9803909DF8380002900D9801904D
:102CB000BDF8300000903B00DBB23200290089B241
:102CC000200001F0AAFE814605200190042000901A
:102CD000032303220021200001F0CDFEC0B205B085
:102CE000BDE8F08310B50400200001F0D9FE10BD4E
:102CF00010B50400200001F0D9FE10BD10B504008D
:102D00000121200001F0D8FE10BD38B504000D00EF
:102D10002900C9B2200001F0D8FE32BD10B5040070
:102D2000200001F0E1FE10BD10B50400200001F00C
:102D3000E1FE10BD38B504000D002900C9B2200025
:102D400001F0DEFE32BD38B504000D00290089B265
:102D5000200001F0DEFE32BD10B50400200001F0BD
:102D6000E1FE10BD10B50400200001F0E1FE10BD31
:102D700010B50400200001F0B1FE10BD80B501F0D7
:102D8000DDFE01BD10B504002000C0B201F0DAFE86
:102D900010BD80B501F0DDFE02BD38B504000D00A8
:102DA0002900C9B2200001F0D8FE31BD80B501F084
:102DB000DDFE02BD10B50400200001F0E1FE10BDF3
:102DC0002DE9F04704000D0000272B4801F0D2FE4A
:102DD0002800C0B2032802DB284801F0CBFE284EB1
:102DE000306800780028FAD02800C0B2032804DB3D
:102DF0002448006800780028FAD0306801F0C6FE48
:102E00002800C0B2032803DB1E48006801F0BEFEA4
:102E10005FF0000840462900C0B2C9B2884228D2FB
:102E20004046C0B2002805D002280BD006D30328A4
:102E30000DD011E030684088208017E0306880882D
:102E4000608013E00F4800684088A0800EE00D48C5
:102E500000688088E08009E02F00FFB25FF0000981
:102E6000A2464A463900504600F026F918F10108FA
:102E7000D0E70020BDE8F08700240140003C01407D
:102E80000000002004000020BBBBE1B1B2F5803F90
:102E900080F07E80022A1ED98C46B1FBF2F102FB43
:102EA00011C31B0443EA1043B3FBF2FC02FB1C33C7
:102EB00080B240EA0343B3FBF2F002FB103240EA77
:102EC0000C4000237047022A05D98446B0FBF2F07B
:102ED00002FB10C270474AB105D100F00102490857
:102EE0005FEA3000704700220023704701F054BEB3
:102EF0000B000200002100207047904271EB030C90
:102F0000F6D3B3F5803F2FD2F0B5B3FA83F7B1FA19
:102F100081F4A7F10F0E3D1B5340CEF1200602FABB
:102F20000EF2F3415340B5F10F0746D80F3C2C4445
:102F30004140C4F12006A040F1414140B1FBF3F60D
:102F400003FB1611A2FB0645001BA94102D2761E07
:102F50008018594180EA010221FA0EF362FA0EF25A
:102F600000215A403046F0BD30B4B1FBF3FC03FB06
:102F70001C11A2FB0C45001BA94103D2ACF1010CB2
:102F80008018594130BC02460B466046002170470C
:102F9000B2F1807F65D3F0B5B2FA82F7B1FA81F46D
:102FA000C7F10F063D1B22FA06F307F1110EF2419D
:102FB00020355A40B5F10F07B8D94140C4F1200679
:102FC000A040F1414140B1FBF3FC03FB1C11A2FB0B
:102FD0000C45001BA94103D2BCF1010C80185941DA
:102FE0000F2F12D30F3FC90341EA5041B1FBF3F653
:102FF00003FB1611A2FB0645D4EBC030A94102D257
:10300000761E8018594146EACC3C07B34140C7F1CF
:103010002006B840F1414140B1FBF3F603FB161125
:10302000A2FB0645001BA94102D2761E8018594119
:1030300080EA010221FA0EF3C7F1200462FA0EF2CF
:103040000CFA07F05A402CFA04F13043F0BD80EA44
:10305000010221FA0EF3002162FA0EF260465A4094
:10306000F0BD8C46B1FBF2F102FB11C31B0243EA37
:103070001063B3FBF2FC02FB1C331B024CEA002082
:1030800043EA1063B3FBF2FC02FB1C331B024CEA65
:10309000002043EA1063B3FBF2FC02FB1C331B026B
:1030A0004CEA002043EA1063B3FBF2FC02FB1C3243
:1030B0004CEA00200023704762F30F2262F31F42A4
:1030C000401810F0030308D0C91A1FD3DB0748BF0C
:1030D00000F8012D28BF20F8022D130030B414464B
:1030E0001546103928BF20E93C00FAD8490728BF07
:1030F00020E90C0048BF40F8042D890028BF20F8C3
:10310000022D48BF00F8012D30BC7047C91818BF08
:1031100000F8012DCB0728BF00F8012D704780B5BE
:1031200001F03BFD01BD10B504002000C0B201F06C
:1031300038FD10BD80B501F03BFD01BD80B501F04B
:103140003BFD01BD80B501F03BFD01BD80B501F047
:103150003BFD02BD80B501F03BFD01BD10B5040093
:103160000F20FFF7E0FFFFF7E5FFFFF7E7FF10BDD8
:1031700080B501F031FD01BD80B501F031FD02BD2A
:10318000806810EA112080B2C1F30F21884201D17A
:10319000012000E00020C0B27047C1F30F2202619D
:1031A000704730B585B0DFF870460121200001F08E
:1031B0001BFD0121200001F017FD0121200001F07D
:1031C00013FD0121200001F00FFD142100226D46A6
:1031D0002800FFF771FF01200190012002900020DC
:1031E00003900120049042F22005009569462000DA
:1031F00001F080FD29002000FFF7CFFF41F210050C
:1032000000956946200001F075FD29002000FFF7B8
:10321000C4FF48F2800500956946200001F06AFD70
:1032200029002000FFF7B9FF44F2400500956946E8
:10323000200001F05FFD29002000FFF7AEFF05B080
:1032400030BD2DE9F04F85B0DFF8D0B501215846EB
:1032500001F0CAFC0121584601F0C6FC0121584684
:1032600001F0C2FC0121584601F0BEFC0121584684
:1032700001F0BAFC0121584601F0B6FC0121584684
:1032800001F0B2FC0121584601F0AEFCDFF8904598
:103290000121200001F0A8FC0121200001F0A4FC84
:1032A0000121200001F0A0FC0121200001F09CFC84
:1032B0000121200001F098FC0121200001F094FC84
:1032C0000121200001F090FC0121200001F08CFC84
:1032D000142100226D462800FFF7EEFE0120019028
:1032E000012002900420039001200490DFF83405AF
:1032F00000906946584601F0FDFCDFF82815584655
:10330000FFF74BFFDFF8205500956946584601F05E
:10331000F1FC29005846FFF740FFDFF810650096E2
:103320006946584601F0E6FC31005846FFF735FF84
:10333000DFF8FC7400976946584601F0DBFC390061
:103340005846FFF72AFF44F24008CDF8008069464E
:10335000584601F0CFFC41465846FFF71EFF42F2A7
:103360002009CDF800906946584601F0C3FC494653
:103370005846FFF712FF41F2100ACDF800A0694647
:10338000584601F0B7FC51465846FFF706FF40F695
:10339000080000906946584601F0ACFC40F6080170
:1033A0005846FFF7FAFE48F2800BCDF800B06946A8
:1033B000200001F09FFC59462000FFF7EEFECDF8FB
:1033C00000806946200001F095FC41462000FFF78F
:1033D000E4FECDF800906946200001F08BFC4946E0
:1033E0002000FFF7DAFECDF800A06946200001F0CA
:1033F00081FC51462000FFF7D0FEDFF82804009042
:103400006946200001F076FCDFF818142000FFF771
:10341000C4FE00956946200001F06CFC29002000E4
:10342000FFF7BBFE00966946200001F063FC310007
:103430002000FFF7B2FE00976946200001F05AFC19
:1034400039002000FFF7A9FE05B0BDE8F08F2DE997
:10345000F84304000220207004250026671C320077
:1034600029003800FFF728FE6420A4F8BE0064207D
:10347000A4F8C0004FF44840C4F8C4004AF68010D5
:10348000C4F8C80047F60C30C4F8CC0045F60A2052
:10349000C4F8D00004275FF0000814F1B6094246D2
:1034A00039004846FFF708FE4FF4E170A4F8D60053
:1034B000FA20A4F8D8004FF44871A4F8DA104FF4B9
:1034C000FA70A4F8DC0045F20820C4F8E400C82033
:1034D000A4F8E8003520A4F8EA00B4F8EA00C4F83B
:1034E000E000D4F8E020B4F8E8004243C4F8E0205B
:1034F000D4F8E020D4F8E4008218C4F8E020B4F84E
:10350000EA00C92802DBC820A4F8EA004FF4616091
:10351000A4F8F2000620A4F8EC001420A4F8EE00B1
:103520000220A4F8F000B4F8EC00152802DB142007
:10353000A4F8EC00A4F8F6104FF41670A4F8F80004
:103540004FF4AF60A4F8FA0040F24C40A4F8FC003D
:103550004AF2F870C4F80401C820A4F80801162043
:10356000A4F80A01B4F80A01C4F80001D4F8001163
:10357000B4F808014143C4F80011D4F80011D4F89C
:1035800004014118C4F80011B4F80A01C92802DB8B
:10359000C820A4F80A0140F6C410A4F812010620BD
:1035A000A4F80C011E20A4F80E010220A4F81001BA
:1035B000B4F80C01152802DB1420A4F80C01BDE8B6
:1035C000F18310B504002000FFF741FFFFF7E9FD8C
:1035D000FFF737FE10BD2DE9F84305000C0000266B
:1035E0000027287801280AD051D3032819D018D3EE
:1035F00005283AD027D3072813D036D347E0DFF881
:1036000034825FF0000922000023A2FB080102FBC4
:10361000091103FB081141F632120023FFF734FCB5
:1036200038E0DFF814825FF0000922000023A2FBDB
:10363000080102FB091103FB081149F26E62002325
:10364000FFF722FC26E0DFF8F4815FF0000922009A
:103650000023A2FB080102FB091103FB08114FF430
:1036600048620023FFF710FC14E0DFF8D0815FF020
:10367000000922000023A2FB080102FB091103FB41
:1036800008114FF4C8520023FFF7FEFB02E044F696
:1036900020600021BDE8F28310B402000020002366
:1036A0001800C0B2042810DAC80705D501201C0094
:1036B000E4B21444607004E000201C00E4B214443E
:1036C0006070C9B249085B1CEAE7002010BC704773
:1036D000020011700020704738B500244F4D514949
:1036E0002800FFF74DFD002801D154F001044E4998
:1036F0002800FFF745FD002801D154F002044B4992
:103700002800FFF73DFD002801D154F0040448498A
:103710002800FFF735FD002801D154F008042000EF
:10372000C0B232BD38B500243C4D44F240012800FF
:10373000FFF726FD002801D154F0010442F22001D8
:103740002800FFF71DFD002801D154F0020441F2CA
:1037500010012800FFF714FD002801D154F00404E3
:1037600040F608012800FFF70BFD002801D154F0B6
:1037700008042000C0B232BD38B50024284D48F2FC
:1037800080012800FFF7FCFC002801D154F001045F
:1037900044F240012800FFF7F3FC002801D154F067
:1037A000020442F220012800FFF7EAFC002801D1C0
:1037B00054F0040441F210012800FFF7E1FC002856
:1037C00001D154F008042000C0B232BD38B5002445
:1037D000134D14492800FFF7D3FC002801D154F001
:1037E000010411492800FFF7CBFC002801D154F057
:1037F00002040E492800FFF7C3FC002801D154F051
:1038000004040B492800FFF7BBFC002801D154F049
:1038100008042000C0B232BD000801400018014079
:103820000014014080008004400040042000200477
:1038300010001004EA4C0F00001BB70040420F00BC
:1038400070B5FFF749FF0400FFF76CFF0500254343
:10385000FFF792FF06002E43FFF7B8FF0100314348
:1038600011F00F010800C0B2012816D033D303288D
:1038700017D014D3052818D015D3072819D016D37C
:1038800009281AD017D30B281BD018D30D281CD009
:1038900019D30F281DD01AD31DE001201CE00220EF
:1038A0001AE0032018E0042016E0052014E00620AA
:1038B00012E0072010E008200EE009200CE00A20AA
:1038C0000AE00B2008E00C2006E00D2004E00E20AA
:1038D00002E00F2000E0FF20C0B270BD10B5040070
:1038E000200001F055FA10BD10B50400200001F0D1
:1038F00049FA10BD10B50400200001F04FFA10BDC8
:10390000DFF8DC060068C0F302207047012210F0E7
:103910001F018A40DFF8CC1603005BB25B0941F857
:103920002320704710B4020052B2002A0AD50A01BF
:10393000DFF8B436040064B214F00F04234403F833
:10394000042C05E00A01DFF8A436040064B21A551D
:1039500010BC704770B4030013F00704D4F10700E3
:10396000052801D3042001E0D4F10700251D072D0F
:1039700001D2002500E0E51E012616FA00F0401EE7
:103980000140A94016FA05F56D1E2A4011430800B2
:1039900070BC704781B0DFF858160A6802430A60AD
:1039A000096801400091009901B07047DFF84016A6
:1039B0000A6882430A60704781B0DFF838160A68E7
:1039C00002430A60096801400091009901B0704704
:1039D000DFF820160A6882430A607047F0B510EBE2
:1039E000116491FAA1F5B5FA85F391FAA1F6B6FA48
:1039F00086F7D4F800C05FF00F0EDBB29B001EFA12
:103A000003FE3CEA0E0CFFB2BB0012FA03F353EACA
:103A10000C0CC4F800C0F0BDC1F30F220261704766
:103A2000C1F30F2242617047C16851F40051C16077
:103A30007047016931F490410161416931F02A0117
:103A4000416170470068800910F00100704700680C
:103A5000C00910F0010070477FF04001016070471D
:103A6000C16851F02001C1607047C16851F0400148
:103A7000C1607047C16851F08001C1607047C16882
:103A800031F04001C1607047C16831F08001C16010
:103A90007047C068800910F001007047C068C00915
:103AA00010F0010070470A00D2B242607047010076
:103AB0000020087000204870002088700020C87026
:103AC0000020087100204871002088710020C87112
:103AD000002088600020C860002008610020486144
:103AE00000208861002081F83C00002081F83D0022
:103AF000002081F83F00002081F840000020A1F85C
:103B000042000020A1F844000020A1F84600002057
:103B1000A1F84800002081F83E00002081F84A000A
:103B20000020C864002008650020486500208865E2
:103B300000200877002048770020C877002081F80F
:103B4000200000204884002088840020C8840020B1
:103B5000088501208877002081F82A000020C862AB
:103B60000020086300204863002088630020C865A7
:103B7000002070472DE9F84F04000F009046994649
:103B80000A9DDDF82CA00C9EDDF834B02000FFF774
:103B90008EFF84F83D90A4F84870C4F8588066778A
:103BA0002585C4F838A0C4F85CB0002C08D0DFF834
:103BB00048040068844203D1200000F099FD11E020
:103BC000002C05D0002C03D1200000F02BFE09E0D2
:103BD000002C05D0002C03D1200000F026FE01E0CF
:103BE000022000E00020BDE8F28F38B504000D008F
:103BF000E06800280ED02800C0B2012805D10922B3
:103C0000A168E068FFF7EAFE04E00822A168E06826
:103C1000FFF7E4FE002032BD38B504000D006069F6
:103C200000280CD02800C0B2012804D121696069A5
:103C3000FFF7F6FE03E021696069FFF7EDFE002063
:103C400032BD70B504000D000026E06D002802D0E2
:103C5000E06D804706002800C0B2002803D0E6646B
:103C6000E06C206502E0E662E06A2063002070BD3F
:103C7000F8B504000D0016000027E06D002803D001
:103C8000E06D8047801C07003000C0B200281FD0C4
:103C90002765E06C216D884209D2216DE06C091A1C
:103CA0008D4235D2012084F84A00012031E0206D98
:103CB000E16C88422CD2E16C5FF0FF30411A206D3C
:103CC00041188D4224D2012084F84A00012020E0CE
:103CD0002763E06A216B884209D2216BE06A091AE6
:103CE0008D4215D2012084F82A00012011E0206BBA
:103CF000E16A88420CD2E16A5FF0FF30411A206B22
:103D000041188D4204D2012084F82A00012000E0ED
:103D10000020F2BD70B504000D0000262800C0B2DE
:103D200000281FD0E06C002842D0606D00283FD0F2
:103D3000E06C002801D100203CE00122616D2000F0
:103D4000FFF796FF06003000C0B2002830D022787E
:103D5000521EDFF87819200000F000FC200000F06F
:103D6000B2FB25E0E06A002822D0606B00281FD05B
:103D7000E06A002801D100201CE00022616B2000D5
:103D8000FFF776FF06003000C0B200280DD0E06AD1
:103D900000280AD02278521EDFF83419200000F0E3
:103DA000DDFB200000F0ADFB02E0002084F82A00DB
:103DB0003000C0B270BD38B504000D00DFF8141932
:103DC0000D7094F83F00002805D002283DD01CD388
:103DD000032866D066E0B4F84400002814D1607867
:103DE0000A78904210D10878A16D0870012084F8FB
:103DF0003F000120A4F8460001212000FFF721FF29
:103E00000121200000F04EFB4CE00878002814D07F
:103E10000878B4F84820D2B290420ED20878A26D49
:103E200050700878A4F84200B4F84600401CA4F88A
:103E30004600022084F83F0002E0002084F83F00A2
:103E400001212000FFF7FDFE2CE0A06DB4F8442016
:103E5000104409788170B4F84400401CA4F8440070
:103E6000B4F84600401CA4F84600B4F84400B4F886
:103E7000481080B2884202D30020A4F844000121F7
:103E80002000FFF7DEFEB4F84400B4F8421080B220
:103E9000884205D3032084F83F00012084F83E00C7
:103EA00000E0FFE7002032BD38B504000D00DFF868
:103EB00048190D7094F83F00002807D0022837D029
:103EC0001ED3042800F089805BD387E0B4F8440057
:103ED000002814D160780A78904210D10878A16D3A
:103EE0000870012084F83F000120A4F84600012159
:103EF0002000FFF7A6FE0121200000F0D3FA6DE0BC
:103F00000878A26D50700878A4F84200B4F8420016
:103F10000002A4F84200022084F83F00B4F84600F2
:103F2000401CA4F8460001212000FFF78AFE55E05E
:103F30000878A26D9070B4F8422008788218A4F82E
:103F40004220B4F84600401CA4F84600B4F84200F1
:103F500000280ED0B4F84200B4F8481080B288426D
:103F600007D2B4F84200A4F84600032084F83F00CA
:103F700002E0002084F83F0001212000FFF761FEED
:103F80002CE0A06DB4F8442010440978C170B4F856
:103F90004400401CA4F84400B4F84600401CA4F8B7
:103FA0004600B4F84400B4F8481080B2884202D306
:103FB0000020A4F8440001212000FFF742FEB4F8DD
:103FC0004400B4F8421080B2884205D3042084F83B
:103FD0003F00012084F83E0000E0FFE7002032BDF2
:103FE0000CED00E000E100E018ED00E000E400E08E
:103FF0001C100240181002403400002038B50400A4
:104000000D00B4F84800FF2805DA2900C9B22000E5
:10401000FFF7D1FE04E02900C9B22000FFF744FFFA
:1040200032BD38B504000D002900C9B2A069FFF700
:104030003AFDA069FFF706FD002802D1FFF79CF8C2
:10404000F7E7A069FFF708FD002032BD10B50400B6
:10405000608C00282CD0A08C618C80B2884223D048
:10406000A06BA18C415CA069FFF71DFDA08C401CDA
:10407000A084A08C218D80B2884201D30020A0842E
:10408000A08C618C80B2884218D3E08C002815D0B7
:10409000A08CE18C80B2884210D3A069FFF7F4FCB9
:1040A000A069FFF7E2FC09E0A069FFF7EDFC05E07D
:1040B000A069FFF7E9FC200000F023FA00212000AE
:1040C000FFF7BFFD002010BD10B504006069002897
:1040D00009D0E07F002806D10D21A069FFF7E3FC9D
:1040E0000120E07714E06069002809D0E07F012812
:1040F00006D10A21A069FFF7D6FC0220E07707E08D
:104100000020E077A069FFF7BAFC200000F0F9F981
:10411000002010BD38B504000D00A06B00281ED093
:10412000608C218D80B2884201D300206084A06B16
:10413000618C4554608C401C6084A069FFF7AEFC24
:1041400000280AD101212000FFF766FD012120008F
:10415000FFF74BFDA069FFF78DFC002000E0012078
:1041600032BD70B504000D000126A06B00283FD0C1
:10417000607F012802D0607F022801D16D1C08E019
:10418000607F032801D1AD1C03E0607F042800D1CB
:104190002D1D60792179401A002800D06D1C94F8FB
:1041A0002000012800D1AD1C208DFB280EDB29004A
:1041B00089B2090AC9B22000FFF7ACFF2900C9B2D1
:1041C0002000FFF7A7FF0600ED1C06E02900C9B29A
:1041D0002000FFF79FFF0600AD1C60792179401A8F
:1041E000002804D0E1782000FFF794FF0600E58462
:1041F0003000C0B270BD38B50400607F002856D0D2
:1042000000F0D6FD002852D10025607F01280AD198
:10421000618CA06B00F0EBFD05002900C9B2200005
:10422000FFF778FF41E0607F02280BD1628CA16B21
:10423000072000F0D1FD05002900C9B22000FFF7DA
:1042400069FF32E0607F032810D1618CA06B00F021
:10425000BBFD05002900090AC9B22000FFF75AFF7B
:104260002900C9B22000FFF755FF1EE0607F042837
:104270001BD1618CA06B00F09FFD05002900090E89
:10428000C9B22000FFF746FF2900090CC9B220007F
:10429000FFF740FF2900090AC9B22000FFF73AFFE3
:1042A0002900C9B22000FFF735FF00200CE094F888
:1042B0002000012807D10D212000FFF72BFF0A2144
:1042C0002000FFF727FF012032BDF8B504000025CC
:1042D0000026B4F8427094F83D00002800F0E08019
:1042E00000F066FD002840F0DB8094F83D000128D6
:1042F00023D17F1EB4F84800FA2809DAA06D477070
:10430000A06D390089B2084480780600BF1C0DE01A
:10431000380080B2000AA16D4870A06D8770A06D52
:10432000390089B20844C0780600FF1C390089B200
:10433000A06D00F05CFD0500AEE094F83D000228A1
:1043400024D17F1EB4F84800FA2809DAA06D47701E
:10435000A06D390089B2084480780600BF1C0DE0CA
:10436000380080B2000AA16D4870A06D8770A06D02
:10437000390089B20844C0780600FF1C3A0092B2A6
:10438000A16D072000F028FD050085E094F83D00B0
:10439000032831D1BF1EB4F84800FA2810DAA06D06
:1043A0004770A06D390089B208444078A16D3A0089
:1043B00092B21144897811EB00210E00BF1C14E069
:1043C000380080B2000AA16D4870A06D8770A06DA2
:1043D000390089B208448078A16D3A0092B2114444
:1043E000C97811EB00210E00FF1C390089B2A06DC5
:1043F00000F0EAFC05004FE094F83D0004284BD1A2
:104400003F1FB4F84800FA281EDAA06D4770A06D6F
:10441000390089B2084410F8010CA16D3A0092B23B
:10442000895C11EB0021A06D3A0092B210444078F3
:1044300010EB0120A16D3A0092B21144897811EB82
:1044400000210E00BF1C21E0380080B2000AA16DDF
:104450004870A06D8770A06D390089B2405CA16D75
:104460003A0092B21144497811EB0021A06D3A0054
:1044700092B21044807810EB0120A16D3A0092B204
:104480001144C97811EB00210E00FF1C390089B2DC
:10449000A06D00F091FC0500B54201D0012000E0C4
:1044A0000020F2BD02000800C0B2002803D00020A6
:1044B00082F84A0002E0002082F82A0000207047BB
:1044C00090F83E00704710B5040000212000FFF76F
:1044D000A3FB002084F83F000020A4F84200002045
:1044E000A4F844000020A4F84600002084F83E0010
:1044F0000020E06400202065002084F84A000020AD
:1045000010BD10B504000120A077002060840020B9
:10451000A0840020E0840020E062002020630020CE
:1045200084F82A000020E07700212000FFF774FBC8
:1045300000212000FFF759FB002010BD0200507938
:104540001179401A002807D0906D1179405CD1781C
:10455000884201D0012000E0002070470CB42DE912
:10456000F84F04000D00A069FFF798FA002807D063
:10457000A069FFF76CFA002802D0FEF7FDFDF7E70F
:10458000A069FFF786FA00280DD0A069FFF75AFA54
:10459000002805D0E07F002802D1FEF7EDFDF4E70A
:1045A000A069FFF759FA01212000FFF735FB01212F
:1045B0002000FFF71AFB5FF0000A5FF0000B0AAE65
:1045C0008E4F33002A004FF48061380000F024FC45
:1045D00080465FF000094846414680B289B2884271
:1045E00008D2484680B2395C2000FFF71AFD19F165
:1045F0000109F0E700212000FFF70EFB0021200059
:10460000FFF7F3FABDE8F10F5DF80CFB38B50400D5
:104610000D007B4884420ED12800C0B2002804D08F
:104620004FF48040FFF7C8F903E04FF48040FFF7F4
:10463000CFF9002048E0734884420ED12800C0B270
:10464000002804D05FF40030FFF7A4F903E05FF422
:104650000030FFF7ABF9002036E06B4884420ED102
:104660002800C0B2002804D05FF48020FFF792F940
:1046700003E05FF48020FFF799F9002024E063480D
:1046800084420ED12800C0B2002804D05FF400207C
:10469000FFF780F903E05FF40020FFF787F90020BF
:1046A00012E05B4884420ED12800C0B2002804D03A
:1046B0005FF48010FFF76EF903E05FF48010FFF7FE
:1046C00075F9002000E0012032BD0000F4DA000896
:1046D00014DB00082A49002070B40600039D049CE6
:1046E000F17032717371B571F471002070BC704754
:1046F0002DE9F8418BB00400464D0121280000F05F
:1047000073FA142100226E463000FEF7D5FC092012
:1047100001900320029000200390012004903E4E5F
:1047200000966946280000F0E5FA3C480090082011
:1047300001906946280000F0DDFA314F380000F0A2
:10474000EEFB01213800FFF761FF182100220DF177
:1047500014084046FEF7B0FC5FF4E13005900020FD
:10476000069000200790002008900C20099000205F
:104770000A9005A9380000F016FC3800FFF759F937
:10478000FFF7BEF800220221FFF7E4F80100252020
:10479000FFF7C8F82520FFF7B9F83800FFF760F9F0
:1047A0003800FFF741F9E560A660A761022020709C
:1047B000E06D002804D0642060656420606303E03D
:1047C00000206065002060630020607755206070E5
:1047D0005A20A07000212000FFF71EFA00212000BF
:1047E000FFF703FA0E492000FFF7B8FE00200CB0D7
:1047F000BDE8F081000000002B490020D83E0020D9
:10480000003801400044004000480040004C004097
:1048100000500040000801400200020404000404AB
:1048200068DB00080100002070470100002070478D
:1048300080B500F017FC01BD80B500F017FC02BD8B
:1048400080B500F017FC01BD80B500F017FC01BD7C
:1048500010B504002000C0B200F014FC10BD10B56B
:1048600004002000C0B200F014FC10BD10B504001C
:104870002000C0B200F014FC10BD10B504002000F0
:10488000C0B200F014FC10BDF8B504000D00160015
:104890001F003B009BB23200290089B2200000F0CB
:1048A0000DFCF2BDF8B504000D0016001F003B0022
:1048B0009BB23200290089B2200000F00DFCF2BD4D
:1048C000F0B40300002000264C1E0025280027001D
:1048D00080B2BFB2B8422ED2002006003700BFB26D
:1048E000A4461FFA8CFC280080B2BCEB000C674584
:1048F0001FDA300080B233F810003700BFB203EB8C
:1049000047077F88B84212D2300080B203EB4000E4
:1049100040880200300080B233F810003700BFB288
:1049200003EB47077880300080B223F81020761C14
:10493000D4E76D1CCAE70020F0BC70472DE9F843AE
:1049400081460E001700002400250020B84640468E
:10495000310080B289B288420ED2404680B239F826
:10496000100000F0C7FB22002B0000F0D1FB040078
:104970000D0018F10108EAE7B6B2BFB2F61B30002D
:1049800000F084FC02000B002000290000F090FCE5
:1049900000F0B2FD80B2BDE8F28330B40300002025
:1049A00000242000150080B2ADB2A8420BD2200036
:1049B00080B2185C2500ADB24D5DA84201D0012047
:1049C00002E0641CEDE7002030BC704770B50400C5
:1049D0000D0016003200D2B22900200000F013FEB4
:1049E00070BD10B50400200001F021F810BD38B5ED
:1049F00004000D002900200001F094F832BD38B504
:104A000004000D002900200001F0FDF832BD10B5B2
:104A10000400200001F006F910BD2DE9F84384B030
:104A200004000D0016001F005FF000080F980390AF
:104A30009DF8380002900D980190BDF8300000906C
:104A40003B00DBB23200290089B22000FFF792F868
:104A500081464846C0B2002808D100F0A9F90028D4
:104A600004D0002084F83D00002060774846C0B2A2
:104A700005B0BDE8F083FEB504000D0016001F0070
:104A80009DF8240001909DF8200000903B00DBB2CF
:104A90003200D2B22900C9B22000FFF71DFEFEBDD0
:104AA00010B504002000FFF70EFD10BD10B5040086
:104AB0002000FFF705FD10BD38B504000D002900EA
:104AC000C9B22000FFF726F932BD38B504000D0049
:104AD0002900C9B22000FFF791FA32BD10B50400D9
:104AE0002000FFF72BFD10BD10B504002000FFF7DC
:104AF000ADFA10BD10B504002000FFF7E5FA10BDB7
:104B000038B504000D002900C9B22000FFF702FBF0
:104B100032BD38B504000D00290089B22000FFF72E
:104B200020FB32BD10B504002000FFF764FB10BD70
:104B300010B504002000FFF7C8FB10BD80B501F0E0
:104B4000D2FB01BD10B504002000C0B201F03CFB57
:104B500010BD80B501F0BCFB02BD38B504000D00EE
:104B60002900C9B2200001F0C2FB31BD80B502F0BE
:104B70003FF802BD10B50400200002F03FF810BD60
:104B800010B50400200002F068F810BD10B5040054
:104B9000200002F0ADF810BD704780B502F02DFC8A
:104BA00001BD10B504002000C0B202F034FC10BDFD
:104BB00080B502F04CFC01BD80B502F099FC01BD4E
:104BC00080B502F0E4FC01BD80B502F029FD02BD14
:104BD00080B502F0C9FE01BD80B502F0FBFF01BD4A
:104BE00080B503F0D8FE02BD38B504000D002900E1
:104BF000C9B2200003F0D8FE31BD80B503F0DDFE60
:104C000001BDB1F5807F02D34FF0FF3070470170D6
:104C1000012070470078401E8041C043C00F70479C
:104C2000F0B510EB116491FAA1F5B5FA85F391FA9C
:104C3000A1F6B6FA86F7D4F800C05FF00F0EDBB22B
:104C40009B001EFA03FE3CEA0E0CFFB2BB0012FAF8
:104C500003F353EA0C0CC4F800C0F0BDF0B510EB40
:104C6000116491FAA1F5B5FA85F391FAA1F6B6FAB5
:104C700086F7D4F800C05FF0030EDBB29B001EFA8B
:104C800003FE3CEA0E0CFFB2BB0012FA03F353EA38
:104C90000C0CC4F800C0F0BDF0B510EB116491FA33
:104CA000A1F5B5FA85F391FAA1F6B6FA86F7D4F82C
:104CB00000C05FF0040EDBB29B001EFA03FE3CEA6C
:104CC0000E0CFFB2BB0012FA03F353EA0C0CC4F84B
:104CD00000C0F0BD30B4C3680C00240A94FAA4F4F8
:104CE000B4FA84F533EA112312FA05F52B43C360B5
:104CF00030BC70472DE9F04104000D002F683F02E1
:104D00003F0C97FAA7F0B0FA80F85FFA88F83800FD
:104D100030FA08F0002832D0380030FA08F0C00726
:104D20002AD5B8F1080F05D240F2011010FA08F0A8
:104D3000060007E05FF0011140460838814051F05D
:104D400080610E006A6831002000FFF769FF2A6960
:104D500031002000FFF7BEFF6868012802D06868B4
:104D6000092809D1AA6831002000FFF777FFEA6817
:104D700031002000FFF790FF18F10108C7E701207C
:104D8000BDE8F08110B50400200003F01BFE10BD4B
:104D900010B50400200003F025FE10BD10B504007E
:104DA000200003F037FE10BD80B503F038FE01BDD2
:104DB00080B503F038FE02BD38B504000D002900AF
:104DC000200003F034FE32BD38B504000D00290088
:104DD000200003F034FE32BD70B504000D00160053
:104DE000320029002000C0B203F031FE70BD38B59A
:104DF00004000D002900200003F034FE32BD82685B
:104E0000521C8260426832B10268531C0360117008
:104E10004168491E4160704708B584B00023039380
:104E200000290EBF01930190491E0291009301A930
:104E300004AB07487844183003F01CFE019909B10F
:104E400000220A70002858BF039805B000BD00BFBB
:104E5000AFFFFFFFC068400B10F001007047026910
:104E600032F440520A4302617047426932F44072A0
:104E70000A4342617047F0B46423192404FB01F52E
:104E80009600B5FBF6F56426B5FBF6F504FB01F6D6
:104E90009700B6FBF7F604FB01F75FEA820CB7FB5D
:104EA000FCF75FF0640CB7FBFCF703FB17663601F9
:104EB00032366427B6FBF7F616F0F00616EB051649
:104EC00004FB01F59700B5FBF7F504FB01F497002F
:104ED000B4FBF7F46427B4FBF7F403FB14531B0192
:104EE00032336424B3FBF4F313F00F039E19B6B20C
:104EF0008660F0BC704753490A6802430A607047F5
:104F000050490A6882430A6070474F490A68024361
:104F10000A6070474C490A6882430A60704738B596
:104F2000040001254948844208D14FF48040FFF72E
:104F3000ECFF4FF48040FFF7EDFF31E0444884423E
:104F400008D15FF40030FFF7D6FF5FF40030FFF7C1
:104F5000D7FF25E03F48844208D15FF48020FFF767
:104F6000CAFF5FF48020FFF7CBFF19E03A48844284
:104F700008D15FF40020FFF7BEFF5FF40020FFF7C9
:104F8000BFFF0DE03548844208D15FF48010FFF781
:104F9000B2FF5FF48010FFF7B3FF01E000200500CF
:104FA0002800C0B232BDF8B584B005000E0000275D
:104FB00000242800FFF74EFF00283DD1E96828486B
:104FC000014070680143F068014330690143E960C2
:104FD000B1682800FFF743FF71692800FFF745FF1C
:104FE000684604F0CEFD1948854202D103980400BA
:104FF00016E01748854202D10298040010E01548D7
:10500000854202D1029804000AE01348854202D189
:105010000298040004E01148854201D1029804007E
:10502000002C09D03068002806D001200700326823
:1050300021002800FFF71FFF3800C0B205B0F0BD07
:1050400000000000101002400C1002400038014027
:105050000044004000480040004C00400050004028
:10506000F3E9FFFF80B504F0FDFE01BD80B504F05B
:105070002BFF02BD80B504F035FF01BD80B504F003
:105080005BFF01BD10B504002000C0B204F06BFF4F
:1050900010BD10B504002000C0B204F074FF10BDB4
:1050A00010B504002000C0B204F07FFF10BD10B5A1
:1050B00004002000C0B204F08AFF10BDF8B504005F
:1050C0000D0016001F003B009BB23200290089B280
:1050D000200005F0E4F9F2BDF8B504000D0016005B
:1050E0001F003B009BB23200290089B2200005F06E
:1050F00026FBF2BD014648B1B0FA80F18840C91CD8
:10510000C1F58461090501EBD021400570472E00EF
:1051100070B44FF0004591EA030F45F133836B40C3
:10512000841A71EB030604D26E40001BB1411219C0
:1051300073414FF4001C1CEB410F34BF7CEB430662
:1051400083E00C0DA4EB1356362E00F37C80012E69
:1051500045EAC32341DC43EA525312BFD202920212
:105160005B08240545EAC12141EA5051D2EBC02039
:10517000994125D407D1B0FA80F610FA06F162D031
:105180000020203608E0B1FA81F6B140C6F12002D5
:1051900020FA02F21143B0404FEAF474B4EB4654E3
:1051A00034F001064FEA74040AD8D6F50016760DDD
:1051B00004F00044F04061FA06F25040F1404840EB
:1051C000C00A40EA415021F0004128BF5FEA500583
:1051D00050F1000044EBD12135E0DB0A45EAC12162
:1051E000C90AB6F120050EDD42EA0242120CC5F1F1
:1051F000200603FA06F6EB4042EA06056D429841A6
:1052000061F100010DE062FA06F5F240554063FAE3
:1052100006FC82EA0C02F3405A406D42904161EB79
:10522000030111F4801F05D1641E620502D06D00D8
:105230004041494121F48011430875F1004350F188
:10524000000041EB045170BC70471CEB410F15D2BC
:1052500023F0004352EA43060BD04FEA4C0CBCEB60
:10526000410F04D80C0D661E342EB7DDEBE7801A13
:10527000994150EA410608BF0021E4E708BF1CEB52
:10528000430F28BF6FF00001DDE74300C11768B18D
:105290004840401AB0FA80F29040D21CC907C2F5CB
:1052A000846241EA025202EBD021400570470000BF
:1052B000F0B540F2FF7581EA030C0CF0004C15EAE2
:1052C00011541DBF15EA1357AC42AF42E5E0BC4193
:1052D000C1F31301C3F31303801A994143F48013FC
:1052E00004D2641E4000494180185941C90241EA74
:1052F0005051B1FBF3F603FB1611A2FB0675D7EB79
:10530000C020A94102D2761E80185941C90241EA43
:105310005051B1FBF3FE03FB1E11A2FB0E75D7EB40
:10532000C020A94103D2AEF1010E80185941890273
:1053300041EA9051760546EA8E2EB1FBF3F603FB67
:105340001611A2FB0675D7EB8020A94102D2761E6A
:1053500080185941C90241EA50514EEA060EB1FB8C
:10536000F3F603FB1611A2FB0675D7EBC020A9418B
:1053700002D2761E80185941C90241EA5051B1FB50
:10538000F3F703FB1711A2FB0735D3EBC020A941AC
:1053900067F100070CBF004247F0010766F3D5270D
:1053A0004FEA1E31B80814F5806412DDBD0775F1AF
:1053B000004250EB0E5051EB045111F5801F5CBFC1
:1053C00041EA0C01F0BD4CF07F6141F0E04100206A
:1053D000F0BDBD076D0840EA0E5041F48011D4F1D4
:1053E0000104B4F120060ADAC4F120060200E0400C
:1053F00001FA06F3E1401843B24015430EE0342CA5
:1054000013DCC6F1200445EA40056D0820FA06F2D7
:10541000154321FA06F0A1400D43002175F1004229
:1054200050F1000051EB0C01F0BD00205FEA0C01CF
:10543000F0BDCFB992185B41B3FA83F704BFB2FA5B
:1054400082F6BF190B3FB7F120062FBF02FA06F311
:10545000BB40C7F1200622FA06F638BF3343BA40F4
:105460001CB1E419641E33E77F4231F00041B1FA08
:1054700081F404BFB0FA80F6A4190B3CB4F1200605
:105480002FBF00FA06F1A140C4F1200620FA06F66B
:1054900038BF3143A0403C1B1AE7AC421ABF05EAB3
:1054A0001357AF4212E050EA41061CBF52EA4306CE
:1054B000BFE750EA4107304661461CBF41EA05514B
:1054C000F0BD52EA430C08BFC143F0BD00204FF4C9
:1054D000001616EB410F98BF16EB430F08BF16EBF3
:1054E000410F24BFC14305E016EB430F0CBF6146DB
:1054F0004CEA0551F0BD0000C1F30A5340F2FE3200
:105500009B1A14DDD3F120034FEAE17208DDC902D2
:1055100041EA505141F00040D84080185040704757
:1055200003F2E13010B1D24382F000407047002016
:10553000704700000121017001214170002181703C
:105540000021C1700021017100214171022181718E
:105550002321C1710D210172412141720D218172FE
:105560004121C17200210173002141730021817327
:105570000021C17300210174002141740021817454
:105580000021C17400210175002141750021817540
:105590000021C1750021017600214176002181762C
:1055A0000021C1760021C16100210162DFF8E4160B
:1055B000416281620021C1620021016300214163D7
:1055C0007047010000208863DFF8CC06C86344F20E
:1055D00040020A64486448F280008864002081F830
:1055E0004C00002081F84D00002048653420A1F8CF
:1055F0004E00002008650020704701000020704721
:10560000010000207047F8B504000D0016000027C7
:105610002000FFF78FFF002C08D0DFF8800600681D
:10562000844203D12000FFF7CCFF11E0002C05D00D
:10563000002C03D12000FFF7E0FF09E0002C05D08B
:10564000002C03D12000FFF7DBFF01E0012014E074
:105650003000C0B2002803D0012084F84C0008E0DC
:10566000290014F1380005F0F6F80700012084F84D
:105670004C00200000F002F8C0B2F2BD70B504008A
:105680000025211D200000F04EF8211D200000F013
:105690004AF806003000C0B2002804D1A11D200045
:1056A00000F041F806003000C0B270BD2DE9F843AB
:1056B00004000D0016005FF000090027012114F11D
:1056C000380005F0D0F880464046C0B2002802D02D
:1056D000022080461CE00020070038003100C0B2E4
:1056E000C9B2884214D23800C0B2295C14F1380023
:1056F00005F0D7F814F1380005F0C4F880464046AC
:10570000C0B2002802D0F81C804601E07F1CE4E70C
:1057100014F1380005F0B0F84046C0B2BDE8F2839D
:1057200003000120704738B504000D0094F84C00C8
:10573000002805D1022229002000FFF7F1FF04E034
:10574000022229002000FFF7B1FF32BD0022C26112
:10575000704770B504000D00A06A60620020E0612F
:10576000DFF83C05854204D3050041F24460E06166
:105770000BE045F20820854203D205000320E061DA
:1057800003E029002000FFF7E1FFE562E06A4FF443
:105790007A71B0FBF1F02063E0694519DFF8040588
:1057A000854206D30020A070002020700020607089
:1057B000E8E0DFF8F404854207D30020A07002205F
:1057C0002070002060706D00DCE0DFF8E0048542AE
:1057D00008D30020A07003202070002060700320F8
:1057E0004543CFE0DFF8C804854207D30020A0700E
:1057F0000420207000206070AD00C3E0DFF8B40426
:10580000854208D30020A070052020700020607021
:1058100006204543B6E0DFF8A004854207D3002008
:10582000A0700620207000206070ED00AAE0DFF874
:105830008C04854208D30020A0700720207000202F
:1058400060700C2045439DE0DFF87404854207D367
:105850000020A07006202070012060702D0191E0D2
:10586000DFF86004854208D30020A0700720207074
:10587000012060701820454384E0DFF84C04854225
:1058800007D30020A07006202070022060706D01F8
:1058900078E0DFF83804854208D30020A0700720A4
:1058A000207002206070302045436BE0DFF8200458
:1058B000854207D30020A07006202070032060706E
:1058C000AD015FE0DFF80C04854208D30020A07032
:1058D00007202070032060706020454352E0DFF80D
:1058E000F803854207D30020A07004202070052013
:1058F0006070ED0146E0DFF8E403854208D3002044
:10590000A0700520207005206070C020454339E05C
:10591000DFF8CC0385420AD30120A0700620207056
:1059200004206070ED01606A400860622AE04BF27A
:105930001C7085420BD30120A0700720207004202A
:105940006070C0204543606A400860621AE048F613
:10595000551085420AD30120A07006202070052032
:1059600060702D02606A400860620BE00120A07048
:1059700007202070052060704FF4C0704543606AB6
:1059800040086062AD00280004F09AFF0600606ADB
:1059900004F096FF0100300004F0A0FF6063606B2C
:1059A00005F01AF8E070E07804F08AFF0100606BFF
:1059B00005F028F8DFF82C1305F064F805F0CEF8B0
:1059C00020620D202072207840016072607A617838
:1059D00050EA81006072607A50F0010060724820E5
:1059E0002073A078002801D1002000E0102060730F
:1059F000617BE078014361734A202074206A800C47
:105A000010F03F006074206A400C10F0010050F06C
:105A10004C002075206A400A6075206A000A10F068
:105A2000010050F04E002076206A607670BD2DE9AE
:105A3000F84F8EB004002000FFF720FE0028FAD1B6
:105A400002200D9000200C9014F10A050C9A0D997B
:105A50002800FDF731FB02200B9000200A9014F182
:105A60000E050A9A0B992800FDF726FB02200990E3
:105A70000020089014F11205089A09992800FDF7F2
:105A80001BFB022007900020069014F11605069AD1
:105A900007992800FDF710FB0220059000200490D4
:105AA00014F11A05049A05992800FDF705FB022058
:105AB00003900020029014F10805029A039928002F
:105AC000FDF7FAFA022001900020009014F10C0575
:105AD000009A01992800FDF7EFFA0225002614F13B
