:020000040800F2
:10000000205D002069D4000865CE000875CE000888
:100010007DCE00087FCE000881CE000800000000E1
:1000200000000000000000000000000083CE000877
:1000300085CE00080000000087CE000889CE0008A9
:1000400091CE000889CF000809D500080DD5000819
:1000500011D500086DCE000815D5000819D5000887
:100060001DD5000821D5000825D5000813CF0008AC
:1000700029D500082DD5000831D5000835D5000850
:1000800039D500083DD5000841D5000845D5000800
:1000900049D500084DD5000851D5000855D50008B0
:1000A00059D500085DD5000861D5000865D5000860
:1000B00081CF000869D500086DD5000871D500080A
:1000C00075D5000879D500087DD5000881D50008D0
:1000D00085D500089BCE000889D500088DD500087D
:1000E00091D5000895D5000899D500089DD5000840
:1000F000A1D50008A5D50008A9D50008ADD50008F0
:10010000B1D50008B5D50008B9D50008BDD500089F
:10011000C1D50008C5D50008C9D50008CDD500084F
:10012000D1D50008D5D50008D9D5000835CF0008AD
:10013000BFF34F8FDFF8CC130A6812F4E062DFF8E8
:10014000C80302430A60BFF34F8F00BFFDE7C1F34E
:100150000F2202617047C1F30F224261704738B528
:1001600004000D00200002F067F9042114F1D4000E
:1001700002F079F9052114F1F40002F074F931BDAF
:1001800038B504000D002900200002F05BF932BDF3
:100190002DE9F84304000D0016005FF0000931005E
:1001A000200002F04FF907003900280002F081F921
:1001B00080464046C0B2002810D0280002F06BF9FB
:1001C0003900280002F075F980464046C0B2002888
:1001D00004D0012080F31388FFF7AAFF5FFA88F8A4
:1001E0004046BDE8F2832DE9F84304000D001600F7
:1001F00000275FF00008A178200002F0FFF9A06D51
:10020000A179405C012812D0C0F07481032877D016
:100210003ED3052800F0B480C0F08C80072800F0A1
:10022000FB80C0F0D380082800F01C8162E103212C
:10023000200002F0ECF9A06D6179415C200002F031
:10024000DDF9A06DE179405CA16DE2791144497856
:1002500011EB0021A06DE2791044807810EB0120B1
:10026000A16DE2791144C97811EB0021884641461D
:10027000280002F016F907003900C9B2200002F088
:10028000BDF9A06DA179415C200002F0B7F933E11E
:1002900002F0DCF902F0DEF90A21B0FBF1F14FF4D3
:1002A0007A70414388460721200002F0B0F9A06D22
:1002B0006179415C200002F0A1F93900C9B2200047
:1002C00002F09CF9A06DA179415C200002F096F942
:1002D0004146090EC9B2200002F090F94146090CCE
:1002E000C9B2200002F08AF94146090AC9B22000C9
:1002F00002F084F94146C9B2200002F07FF9FBE028
:100300008248006802F0C7F80321200002F07FF95C
:10031000A06D6179415C200002F070F93900C9B22A
:10032000200002F06BF9A06DA179415C200002F081
:1003300065F9E1E0A06DE179405C002805D042F26A
:1003400020017348FFF707FF04E042F220017048E4
:10035000FFF7FDFE0321200002F059F9A06D61793D
:10036000415C200002F04AF93900C9B2200002F0D5
:1003700045F9A06DA179415C200002F03FF9BBE096
:10038000A06DE179405C002805D041F21001604881
:10039000FFF7E1FE04E041F210015D48FFF7D7FEF0
:1003A0000321200002F033F9A06D6179415C200047
:1003B00002F024F93900C9B2200002F01FF9A06D43
:1003C000A179415C200002F019F995E0A06DE17976
:1003D000405C002805D048F280014D48FFF7BBFE85
:1003E00004E048F280014A48FFF7B1FE03212000F3
:1003F00002F00DF9A06D6179415C200002F0FEF879
:100400003900C9B2200002F0F9F8A06DA179415C71
:10041000200002F0F3F86FE0A06DE179405C002865
:1004200005D044F240013A48FFF795FE04E044F25B
:1004300040013748FFF78BFE0321200002F0E7F868
:10044000A06D6179415C200002F0D8F83900C9B292
:10045000200002F0D3F8A06DA179415C200002F0E9
:10046000CDF849E0A06DE179405C002816D0DFF8B6
:10047000A09042F220014846FFF76DFE41F21001C4
:100480004846FFF768FE48F280014846FFF763FEE2
:1004900044F240014846FFF75EFE15E0DFF8709039
:1004A00042F220014846FFF752FE41F21001484651
:1004B000FFF74DFE48F280014846FFF748FE44F240
:1004C00040014846FFF743FE0321200002F09FF859
:1004D000A06D6179415C200002F090F83900C9B24A
:1004E000200002F08BF8A06DA179415C200002F0A1
:1004F00085F801E0012007003800C0B2BDE8F283B2
:10050000000000000CED00E00400FA0538000020B7
:10051000000801402DE9F84F04000D0016001F00EF
:100520005FF000085FF00009A178200002F066F893
:10053000A06DA179405C012822D0C0F03D83032842
:1005400000F0868050D3052800F0EA80C0F0B48027
:10055000072800F04381C0F01281092800F09C8137
:10056000C0F06B810B2800F0A782C0F02A820D2812
:1005700000F0E282C0F0C0820E2800F0FD821BE392
:10058000A06DE179405CA16DE2791144497811EBED
:100590000021A06DE2791044807810EB0120A16D5C
:1005A000E2791144C97811EB00218946032120002A
:1005B00002F02DF8A06D6179415C200002F01EF878
:1005C0000021200002F01AF8A06DA179415C200002
:1005D00002F014F8C5F8C4900423D5F8C4201821FB
:1005E000380002F061F8E9E2A06DE179405CA16DAC
:1005F000E2791144497811EB0021A06DE2791044B1
:10060000807810EB0120A16DE2791144C97811EBDB
:10061000002189460321200001F0F9FFA06D6179D6
:10062000415C200001F0EAFF0021200001F0E6FF1C
:10063000A06DA179415C200001F0E0FFC5F8C890F1
:100640000423D5F8C8201C21380002F02DF8B5E2AB
:10065000A06DE179405CA16DE2791144497811EB1C
:100660000021A06DE2791044807810EB0120A16D8B
:10067000E2791144C97811EB002189460321200059
:1006800001F0C5FFA06D6179415C200001F0B6FF6B
:100690000021200001F0B2FFA06DA179415C200093
:1006A00001F0ACFFC5F8CC900423D5F8CC20202174
:1006B000380001F0F9FF81E2A06DE179405CA16DA5
:1006C000E2791144497811EB0021A06DE2791044E0
:1006D000807810EB0120A16DE2791144C97811EB0B
:1006E000002189460321200001F091FFA06D61796E
:1006F000415C200001F082FF0021200001F07EFF1C
:10070000A06DA179415C200001F078FFC5F8D09080
:100710000423D5F8D0202421380001F0C5FF4DE294
:10072000D5F8C40081460721200001F070FFA06DBC
:100730006179415C200001F061FF0021200001F09F
:100740005DFFA06DA179415C200001F057FF494693
:10075000090EC9B2200001F051FF4946090CC9B287
:10076000200001F04BFF4946090AC9B2200001F000
:1007700045FF4946C9B2200001F040FF1EE2D5F80E
:10078000C80081460721200001F041FFA06D61797A
:10079000415C200001F032FF0021200001F02EFF1B
:1007A000A06DA179415C200001F028FF4946090EA7
:1007B000C9B2200001F022FF4946090CC9B220004D
:1007C00001F01CFF4946090AC9B2200001F016FFDA
:1007D0004946C9B2200001F011FFEFE1D5F8CC0085
:1007E00081460721200001F012FFA06D6179415C74
:1007F000200001F003FF0021200001F0FFFEA06DAA
:10080000A179415C200001F0F9FE4946090EC9B208
:10081000200001F0F3FE4946090CC9B2200001F0A6
:10082000EDFE4946090AC9B2200001F0E7FE49463B
:10083000C9B2200001F0E2FEC0E1D5F8D000814647
:100840000721200001F0E3FEA06D6179415C2000EA
:1008500001F0D4FE0021200001F0D0FEA06DA179AE
:10086000415C200001F0CAFE4946090EC9B22000D1
:1008700001F0C4FE4946090CC9B2200001F0BEFED9
:100880004946090AC9B2200001F0B8FE4946C9B27A
:10089000200001F0B3FE91E10321200001F0B7FE3A
:1008A000A06D6179415C200001F0A8FE00212000CC
:1008B00001F0A4FEA06DA179415C200001F09EFE34
:1008C000A06DE179405CA16DE2791144497811EBAA
:1008D0000021A06DE2791044807810EB0120A16D19
:1008E000E2791144C97811EB002100910098C5F814
:1008F000C4000423D5F8C4201821380001F0D4FE28
:10090000A06DE17908440079A16DE279114449793B
:1009100011EB0021A06DE2791044807910EB0120E9
:10092000A16DE279114491F807A01AEB002AC5F8ED
:10093000C8A00423D5F8C8201C21380001F0B4FE5B
:10094000A06DE1790844007AA16DE2791144497AF9
:1009500011EB0021A06DE2791044807A10EB0120A8
:10096000A16DE279114491F80BB01BEB002BC5F897
:10097000CCB00423D5F8CC202021380001F094FE1F
:10098000A06DE1790844007BA16DE2791144497BB7
:1009900011EB0021A06DE2791044807B10EB012067
:1009A000A16DE2791144C97B11EB00218946C5F89C
:1009B000D0900423D5F8D0202421380001F074FE13
:1009C000FCE0D5F8C40000901321200001F01FFEC8
:1009D000A06D6179415C200001F010FE0021200033
:1009E00001F00CFEA06DA179415C200001F006FE33
:1009F0000099090EC9B2200001F000FE0099090C0F
:100A0000C9B2200001F0FAFD0099090AC9B220001C
:100A100001F0F4FD0099C9B2200001F0EFFDD5F816
:100A2000C8A05146090EC9B2200001F0E7FD5146A9
:100A3000090CC9B2200001F0E1FD5146090AC9B212
:100A4000200001F0DBFD5146C9B2200001F0D6FDC7
:100A5000D5F8CCB05946090EC9B2200001F0CEFD40
:100A60005946090CC9B2200001F0C8FD5946090ACF
:100A7000C9B2200001F0C2FD5946C9B2200001F000
:100A8000BDFDD5F8D00081464946090EC9B2200007
:100A900001F0B4FD4946090CC9B2200001F0AEFDD9
:100AA0004946090AC9B2200001F0A8FD4946C9B269
:100AB000200001F0A3FD81E0D5F8C4102800FFF765
:100AC0005FFB0100300001F0ECFC804603212000B8
:100AD00001F09DFDA06D6179415C200001F08EFD6B
:100AE0004146C9B2200001F089FDA06DA179415CA9
:100AF000200001F083FD61E0D5F8C8102800FFF761
:100B00003FFB0100300001F0CCFC804603212000B7
:100B100001F07DFDA06D6179415C200001F06EFD6A
:100B20004146C9B2200001F069FDA06DA179415C88
:100B3000200001F063FD41E0D5F8CC102800FFF75C
:100B40001FFB0100300001F0ACFC804603212000B7
:100B500001F05DFDA06D6179415C200001F04EFD6A
:100B60004146C9B2200001F049FDA06DA179415C68
:100B7000200001F043FD21E0D5F8D0102800FFF758
:100B8000FFFA0100300001F08CFC804603212000B8
:100B900001F03DFDA06D6179415C200001F02EFD6A
:100BA0004146C9B2200001F029FDA06DA179415C48
:100BB000200001F023FD01E0012080464046C0B244
:100BC000BDE8F28F38B504000D002900C9B220003D
:100BD00001F040FC32BD2DE9F84306005FF000084B
:100BE000002400250421B01D01F0D6FD00273800A7
:100BF000C0B204282FDA3800C0B206EB4000C0882B
:100C0000002140F6E4485FF00009A8FB002308FB40
:100C1000013309FB003342F210785FF00009A8FBB2
:100C2000020108FB031109FB0211B6F8BE200023E4
:100C300001F016FEB6F8C020002301F011FE0400FA
:100C40000D002000000B401C3900C9B206EB410129
:100C5000C8817F1CCBE70020BDE8F2832DE9F0417D
:100C600004000D0016001F005FF00008A06DA179C0
:100C7000405C01280BD0C0F02882032800F0E180FE
:100C800055D3052800F01882C0F056811DE2A178E6
:100C9000200001F0B3FC0B21200001F0B8FCA06D96
:100CA0006179415C200001F0A9FC0021200001F0E5
:100CB000A5FCA06DA179415C200001F09FFCD5F856
:100CC000E410090EC9B2200001F098FCD5F8E41038
:100CD000090CC9B2200001F091FCD5F8E410090A12
:100CE000C9B2200001F08AFCD5F8E410C9B2200096
:100CF00001F084FCB5F8E81089B2090AC9B22000F5
:100D000001F07CFCB5F8E810C9B2200001F076FCD7
:100D1000B5F8EA1089B2090AC9B2200001F06EFCE8
:100D2000B5F8EA10C9B2200001F068FCCFE1A17863
:100D3000200001F063FC0321200001F068FCA06D9D
:100D40006179415C200001F059FC0021200001F094
:100D500055FCA06DA179415C200001F04FFCA06D15
:100D6000E179405CC5F8E400D5F8E400A16DE279D2
:100D70001144497811EB0021C5F8E410D5F8E400DE
:100D8000A16DE2791144897811EB0021C5F8E410D6
:100D9000D5F8E400A16DE2791144C97811EB002186
:100DA000C5F8E4100423D5F8E4203021380001F020
:100DB0007BFCA06DE17908440079A5F8E800B5F85E
:100DC000E800A16DE2791144497911EB0021A5F801
:100DD000E8100223B5F8E8203421380001F064FC63
:100DE000A06DE17908448079A5F8EA00B5F8EA0039
:100DF000A16DE2791144C97911EB0021A5F8EA103F
:100E0000B5F8EA00C92802DBC820A5F8EA000223E9
:100E1000B5F8EA203621380001F046FCB5F8E800C4
:100E2000C5F8E000D5F8E010B5F8EA004143C5F890
:100E3000E010D5F8E010D5F8E4004118C5F8E0104E
:100E400045E1A178200001F0D9FB1121200001F03B
:100E5000DEFBA06D6179415C200001F0CFFB002139
:100E6000200001F0CBFBA06DA179415C200001F0D6
:100E7000C5FBB5F8D61089B2090AC9B2200001F045
:100E8000BDFBB5F8D610C9B2200001F0B7FBB5F82C
:100E9000D81089B2090AC9B2200001F0AFFBB5F839
:100EA000D810C9B2200001F0A9FBB5F8EC1089B246
:100EB000090AC9B2200001F0A1FBB5F8EC10C9B2D3
:100EC000200001F09BFBB5F8EE1089B2090AC9B207
:100ED000200001F093FBB5F8EE10C9B2200001F03C
:100EE0008DFBB5F8F01089B2090AC9B2200001F0F3
:100EF00085FBB5F8F010C9B2200001F07FFBB5F812
:100F0000DA1089B2090AC9B2200001F077FBB5F8FE
:100F1000DA10C9B2200001F071FBB5F8DC1089B21B
:100F2000090AC9B2200001F069FBB5F8DC10C9B2AA
:100F3000200001F063FBCAE0A178200001F05EFB15
:100F40000321200001F063FBA06D6179415C20006A
:100F500001F054FB0021200001F050FBA06DA179AD
:100F6000415C200001F04AFBA06DE179405CA5F8EE
:100F7000D600B5F8D600A16DE2791144497811EB9D
:100F80000021A5F8D6100223B5F8D6202821380074
:100F900001F08AFBA06DE17908448078A5F8D800BB
:100FA000B5F8D800A16DE2791144C97811EB0021A0
:100FB000A5F8D8100223B5F8D8202A21380001F06E
:100FC00073FBA06DE17908440079A5F8EC00B5F851
:100FD000EC00A16DE2791144497911EB0021A5F8EB
:100FE000EC10B5F8EC00152802DB1420A5F8EC0095
:100FF0000223B5F8EC203A21380001F055FBA06D32
:10100000E17908448079A5F8EE00B5F8EE00A16D0D
:10101000E2791144C97911EB0021A5F8EE10022301
:10102000B5F8EE203C21380001F03EFBA06DE179DF
:101030000844007AA5F8F000B5F8F000A16DE27957
:101040001144497A11EB0021A5F8F0100223B5F8FC
:10105000F0203E21380001F027FBA06DE179084423
:10106000807AA5F8DA00B5F8DA00A16DE2791144CA
:10107000C97A11EB0021A5F8DA100223B5F8DA20BD
:101080002C21380001F010FBA06DE1790844007BB1
:10109000A5F8DC00B5F8DC00A16DE2791144497BCC
:1010A00011EB0021A5F8DC100223B5F8DC202E217D
:1010B000380001F0F9FA0AE0330015F1D4022900F2
:1010C000200000F045FA804601E0012080464046BD
:1010D000C0B2BDE8F0812DE9F04104000D0016001A
:1010E0001F005FF00008A06DA179405C01280BD0C3
:1010F000C0F02882032800F0E18055D3052800F0D5
:101100001882C0F056811DE2A178200001F076FA25
:101110000B21200001F07BFAA06D6179415C200079
:1011200001F06CFA0021200001F068FAA06DA179AD
:10113000415C200001F062FAD5F80411090EC9B231
:10114000200001F05BFAD5F80411090CC9B22000A7
:1011500001F054FAD5F80411090AC9B2200001F0CF
:101160004DFAD5F80411C9B2200001F047FAB5F8DC
:10117000081189B2090AC9B2200001F03FFAB5F896
:101180000811C9B2200001F039FAB5F80A1189B284
:10119000090AC9B2200001F031FAB5F80A11C9B242
:1011A000200001F02BFACFE1A178200001F026FA0F
:1011B0000321200001F02BFAA06D6179415C200031
:1011C00001F01CFA0021200001F018FAA06DA179AD
:1011D000415C200001F012FAA06DE179405CC5F895
:1011E0000401D5F80401A16DE2791144497811EBAD
:1011F0000021C5F80411D5F80401A16DE27911446C
:10120000897811EB0021C5F80411D5F80401A16D0E
:10121000E2791144C97811EB0021C5F804110423C7
:10122000D5F804214821380001F03EFAA06DE1799B
:1012300008440079A5F80801B5F80801A16DE27924
:101240001144497911EB0021A5F808110223B5F8E2
:1012500008214C21380001F027FAA06DE1790844FB
:101260008079A5F80A01B5F80A01A16DE279114467
:10127000C97911EB0021A5F80A11B5F80A01C928AE
:1012800002DBC820A5F80A010223B5F80A214E2185
:10129000380001F009FAB5F80801C5F80001D5F8E1
:1012A0000011B5F80A014143C5F80011D5F8001145
:1012B000D5F804014118C5F8001145E1A1782000D6
:1012C00001F09CF91121200001F0A1F9A06D6179D4
:1012D000415C200001F092F90021200001F08EF91C
:1012E000A06DA179415C200001F088F9B5F8F610F5
:1012F00089B2090AC9B2200001F080F9B5F8F610E8
:10130000C9B2200001F07AF9B5F8F81089B2090ADB
:10131000C9B2200001F072F9B5F8F810C9B2200086
:1013200001F06CF9B5F80C1189B2090AC9B22000B4
:1013300001F064F9B5F80C11C9B2200001F05EF9B2
:10134000B5F80E1189B2090AC9B2200001F056F9A8
:10135000B5F80E11C9B2200001F050F9B5F810111E
:1013600089B2090AC9B2200001F048F9B5F8101194
:10137000C9B2200001F042F9B5F8FA1089B2090AA1
:10138000C9B2200001F03AF9B5F8FA10C9B220004C
:1013900001F034F9B5F8FC1089B2090AC9B220008D
:1013A00001F02CF9B5F8FC10C9B2200001F026F9C3
:1013B000CAE0A178200001F021F90321200001F00A
:1013C00026F9A06D6179415C200001F017F9002138
:1013D000200001F013F9A06DA179415C200001F01B
:1013E0000DF9A06DE179405CA5F8F600B5F8F600BE
:1013F000A16DE2791144497811EB0021A5F8F610AE
:101400000223B5F8F6204021380001F04DF9A06D17
:10141000E17908448078A5F8F800B5F8F800A16DE6
:10142000E2791144C97811EB0021A5F8F8100223E4
:10143000B5F8F8204221380001F036F9A06DE179C5
:1014400008440079A5F80C01B5F80C01A16DE2790A
:101450001144497911EB0021A5F80C11B5F80C01E4
:10146000152802DB1420A5F80C010223B5F80C2185
:101470005221380001F018F9A06DE1790844807913
:10148000A5F80E01B5F80E01A16DE2791144C979F4
:1014900011EB0021A5F80E110223B5F80E215421FD
:1014A000380001F001F9A06DE1790844007AA5F84F
:1014B0001001B5F81001A16DE2791144497A11EBE0
:1014C0000021A5F810110223B5F81021562138008B
:1014D00001F0EAF8A06DE1790844807AA5F8FA00F5
:1014E000B5F8FA00A16DE2791144C97A11EB002137
:1014F000A5F8FA100223B5F8FA204421380001F0CB
:10150000D3F8A06DE1790844007BA5F8FC00B5F89C
:10151000FC00A16DE2791144497B11EB0021A5F893
:10152000FC100223B5F8FC204621380001F0BCF87D
:101530000AE0330015F1F4022900200000F008F859
:10154000804601E0012080464046C0B2BDE8F081FF
:101550002DE9F94F8BB00D00160000275FF0000851
:101560000020ADF800005FF0000905A8002101602F
:1015700007A800210022C0E9001202A80021016092
:1015800001A80021016009A800210022C0E9001281
:1015900004A800210160306903900020069001F04A
:1015A0008AFA5FF0000B584680B204281EDA002049
:1015B000594689B205EB4101A1F8B600002005A902
:1015C0005A4692B28854002007A95A4692B221F88E
:1015D0001200002002A95A4692B28854002001A9A4
:1015E0005A4692B288541BF1010BDCE70B988178C4
:1015F0000B9801F003F8F08AC0000C30010089B2AA
:101600000B9801F004F831780B9800F0F7FF0021F7
:101610000B9800F0F3FF05210B9800F0EFFF306905
:1016200080B24FF4FA6190FBF1F080B2C000001D6F
:10163000ADF80200BDF80210C9B20B9800F0DEFF51
:101640000020ADF8020042F22001DFF85009FEF759
:1016500082FD41F21001DFF84409FEF77CFD48F2FB
:101660008001DFF83809FEF776FD44F24001DFF82B
:101670002C09FEF770FDDFF82899DFF82819484695
:10168000FEF769FDDFF820194846FEF764FDDFF834
:101690001C194846FEF75FFD40F60801DFF8100907
:1016A000FEF759FD44F240014846FEF754FD48F26A
:1016B00080014846FEF74FFDDFF8F8184846FEF770
:1016C0004AFDDFF8441D4846FEF745FD5FF0000A7D
:1016D0005046F18A80B2884280F0EF81DFF8C4186A
:1016E0004846FEF738FDDFF8C0184846FEF72FFDE4
:1016F000DFF8B8184846FEF72EFD40F60801DFF87F
:10170000B008FEF724FD44F240014846FEF723FDF1
:1017100048F280014846FEF71AFDDFF8981848465F
:10172000FEF719FDDFF8E0BC59464846FEF70FFD0D
:101730000399280001F010FC069006990C9800F01F
:10174000B0FE0399B08A41180391DFF85C1848464F
:10175000FEF701FDDFF84C184846FEF7F8FC40F6AE
:101760000801DFF84C08FEF7F6FCDFF840184846A1
:10177000FEF7EDFC48F280014846FEF7ECFC44F22F
:1017800040014846FEF7E3FC59464846FEF7E3FCB5
:10179000DFF820184846FEF7DAFC052001F066FD68
:1017A000504680B2032802DA012001F05FFD2800D4
:1017B000FFF711FA002007003800C0B2042880F2B9
:1017C0007781504680B2002817D13800C0B205EBAF
:1017D0004000C089B188884208D37088C830390079
:1017E000C9B205EB4101C989884206DA01203900F6
:1017F000C9B205EB4101A1F8B6003800C0B205EB53
:101800004000B0F8B60000281DD1504680B2F18AE1
:10181000491E884217D13800C0B205EB4000C0898C
:101820003189884207D3F0883900C9B205EB4101FC
:10183000C989884207D21AF101003900C9B205EB03
:101840004101A1F8B6003800C0B205EB4000B0F885
:10185000B600002840F0168105A93800C0B2085C27
:10186000002809D13800C0B205EB4000C08907AAA2
:101870003B00DBB222F813003800C0B2085C401C09
:101880003A00D2B2885409A83A00D2B230F81220F5
:101890003B00DBB205EB4303DB899A4207D0002211
:1018A00004ABBC465FFA8CFC03F80C2016E004AADB
:1018B0003B00DBB2D35C5B1CBC465FFA8CFC02F8DD
:1018C0000C303B00DBB2D25C042A07DB1AF10102C8
:1018D0003B00DBB205EB4303A3F8B6203A00D2B2DB
:1018E00005EB4202D2893B00DBB220F813205046C0
:1018F000328B80B2904210D23900C9B228204143C5
:1019000005EB0100514689B200EB41003900C9B234
:1019100005EB4101C989C182B4E028203A00D2B266
:1019200042432A4416321400002290464246D2B264
:10193000338B5B1E9A4205DA62882280A41C18F160
:101940000108F3E73A00D2B205EB4202D2892280C5
:101950000122ADF800203A00D2B242432A44D28A92
:101960003B00DBB205EB4303DB899A420ED23A001F
:10197000D2B205EB4202D2893B00DBB200FB03F09E
:101980002844C08A121AADF8002019E03A00D2B2F9
:1019900005EB4202D2893B00DBB243432B44DB8A96
:1019A0009A420DD23A00D2B200FB02F02844C28A19
:1019B0003800C0B205EB4000C089121AADF8002013
:1019C000BDF80000B28B904215D202A83A00D2B204
:1019D000825C521C3B00DBB2C2543A00D2B2805C43
:1019E00004282DDB1AF101003A00D2B205EB4202C5
:1019F000A2F8B60024E0708BBDF80020904215D20A
:101A000001A83A00D2B2825C521C3B00DBB2C25445
:101A10003A00D2B2805C042812DB1AF101003A00CD
:101A2000D2B205EB4202A2F8B60009E0002002AAF9
:101A30003B00DBB2D054002001AA3B00DBB2D05403
:101A40003800C0B2085C14281CDB00203A00D2B277
:101A500088543800C0B205EB4000C18907A83A009D
:101A6000D2B230F81200091AADF80010BDF800002B
:101A7000052807DA1AF101003900C9B205EB410166
:101A8000A1F8B6003800C0B205EB4000C18989B2A8
:101A9000090AC9B20B9800F0B1FD3800C0B205EBDD
:101AA0004000C189C9B20B9800F0A8FD7F1C83E6F5
:101AB00001F0ECFB1AF1010A0AE65FF0000B584650
:101AC000C0B2042818DA5846C0B205EB4000B0F89E
:101AD000B61089B2090AC9B20B9800F08FFD5846BA
:101AE000C0B205EB4000B0F8B610C9B20B9800F0D8
:101AF00085FD1BF1010BE2E7DFF8A07442F2200143
:101B00003800FEF724FB41F210013800FEF71FFBFE
:101B100048F280013800FEF71AFB44F24001380019
:101B2000FEF715FBDFF87C144846FEF714FBDFF8E0
:101B300078144846FEF70BFBDFF870144846FEF7B2
:101B40000AFB40F60801DFF86804FEF700FB44F2E8
:101B500040014846FEF7FFFA48F280014846FEF78A
:101B6000F6FADFF850144846FEF7F5FADFF8981851
:101B70004846FEF7ECFA0C9800F08DFC00F097FF59
:101B800000200DB0BDE8F08FF8B504000D00160080
:101B90000027A06DA179405C012811D0C0F086819A
:101BA000032851D029D3052800F0988073D3072843
:101BB00000F0F280C0F0C180082800F0268175E1B5
:101BC000A178200000F01AFD0421200000F01FFD84
:101BD000A06D6179415C200000F010FD0021200023
:101BE00000F00CFDA06DA179415C200000F006FD25
:101BF0002978200000F002FD5AE1A178200000F0D1
:101C0000FDFC0521200000F002FDA06D6179415C22
:101C1000200000F0F3FC0021200000F0EFFCA06D9C
:101C2000A179415C200000F0E9FCB5F8BE1089B252
:101C3000090AC9B2200000F0E1FCB5F8BE10C9B233
:101C4000200000F0DBFC33E1A178200000F0D6FC9E
:101C50000521200000F0DBFCA06D6179415C2000D3
:101C600000F0CCFC0021200000F0C8FCA06DA179A0
:101C7000415C200000F0C2FCB5F8C01089B2090A2E
:101C8000C9B2200000F0BAFCB5F8C010C9B22000FB
:101C900000F0B4FC0CE1A178200000F0AFFC0321BF
:101CA000200000F0B4FCA06D6179415C200000F0E0
:101CB000A5FC0021200000F0A1FCA06DA179415CF1
:101CC000200000F09BFCA06DE179405C28700123AE
:101CD0002A780821300000F0E7FCE9E0A178200034
:101CE00000F08CFC0321200000F091FCA06D6179D4
:101CF000415C200000F082FC0021200000F07EFC0E
:101D0000A06DA179415C200000F078FCA06DE17924
:101D1000405CA5F8BE00B5F8BE00A16DE2791144A3
:101D2000497811EB0021A5F8BE100223B5F8BE20BA
:101D30000921300000F0B8FCBAE0A178200000F0E2
:101D40005DFC0321200000F062FCA06D6179415C24
:101D5000200000F053FC0021200000F04FFCA06D9B
:101D6000A179415C200000F049FCA06DE179405C64
:101D7000A5F8C000B5F8BE00A16DE279114449781C
:101D800011EB0021A5F8C0100223B5F8C0200B21EB
:101D9000300000F089FC8BE0A178200000F02EFCE0
:101DA0000821200000F033FCA06D6179415C200027
:101DB00000F024FC0021200000F020FCA06DA1799F
:101DC000415C200000F01AFC2978200000F016FC8D
:101DD000B5F8BE1089B2090AC9B2200000F00EFCA5
:101DE000B5F8BE10C9B2200000F008FCB5F8C0106C
:101DF00089B2090AC9B2200000F000FCB5F8C01091
:101E0000C9B2200000F0FAFB52E0A178200000F0F7
:101E1000F5FB0321200000F0FAFBA06D6179415C25
:101E2000200000F0EBFB0021200000F0E7FBA06D9C
:101E3000A179415C200000F0E1FBA06DE179405CFC
:101E4000287001232A780821300000F02DFCA06DB5
:101E5000E17908444078A5F8BE00B5F8BE00A16D50
:101E6000E2791144897811EB0021A5F8BE10022314
:101E7000B5F8BE200921300000F016FCA06DE17914
:101E80000844C078A5F8C000B5F8C000A16DE2799B
:101E90001144097911EB0021A5F8C0100223B5F80F
:101EA000C0200B21300000F0FFFB01E00120070003
:101EB0003800C0B2F2BD2DE9F04104000D0016005B
:101EC0001F005FF00008A06D6179405C002808D019
:101ED00002280ED006D3042819D012D305281ED00C
:101EE00025E026E03A0031002000FEF77CF980462C
:101EF0001FE03B00320029002000FEF70BFB80466C
:101F000017E03A0029002000FFF73EFE11E03B00F9
:101F1000320029002000FEF7A1FE804609E03B00C8
:101F2000320029002000FFF7D6F8804601E00120AA
:101F300080464046C0B2BDE8F081F8B504000D000F
:101F400016001F00200000F037FB012820D12000E0
:101F500000F06CFB002810D1200000F06DFB002881
:101F60000BD13B00320029002000FFF7A4FF00281E
:101F70000AD1200000F054FB06E02278521EDFF860
:101F80008C14200001F0B4FF200000F00FFB02E0F1
:101F9000200000F017FBF2BD000000000008014027
:101FA0000010014020002004400040048000800414
:101FB000000C01400100010480B500F05DFA02BD93
:101FC000F8B5040002F0FEF80425002614F1B60767
:101FD00032002900380002F019F90020F2BD80B566
:101FE00002F0F4F8002002BD38B5040000200025FE
:101FF0002800C0B204283FDA2800C0B2002805D06B
:10200000022817D00CD303281ED027E02800C0B226
:1020100004EB4000B0F8B600C0B202F0DBF829E0F3
:102020002800C0B204EB4000B0F8B600C0B202F025
:10203000D8F81FE02800C0B204EB4000B0F8B600AA
:10204000C0B202F0D5F815E02800C0B204EB4000A1
:10205000B0F8B600C0B202F0D2F80BE0012002F0F6
:10206000B9F8012002F0BDF8012002F0C1F801200A
:1020700002F0C5F86D1CBBE7002032BD2DE9F14F21
:102080000C0015001E00FFF797FF07003800C0B2D4
:10209000FF2801D10220B4E13800C0B20F2847D197
:1020A000DFF86C8342F220014046FEF750F841F21F
:1020B00010014046FEF74BF848F280014046FEF71B
:1020C00046F844F240014046FEF741F8280000F08F
:1020D000E2F9DFF84083DFF840B359464046FEF7A7
:1020E00036F840F2022949464046FEF730F8DFF85C
:1020F0002CA340F204415046FEF729F859465046B9
:10210000FEF725F8DFF800B359464046FEF71FF802
:1021100040F201114046FEF71AF849465046FEF7D4
:1021200016F859465046FEF712F800F0C0FC60E180
:102130003000C0B2002801D1032062E1DFF8D49260
:10214000DFF8D48241464846FEF701F840F2022A01
:1021500051464846FDF7FBFFDFF8C0B240F20441AC
:102160005846FDF7F4FF41465846FDF7F0FFDFF80B
:10217000988241464846FDF7EAFF40F20111484681
:10218000FDF7E5FF51465846FDF7E1FF4146584649
:10219000FDF7DDFF3100C9B22000FEF713FD20007E
:1021A000FFF70EFF3800C0B201280BD0C0F0048149
:1021B000032841D023D3052878D05AD3062800F02D
:1021C000B880F9E0D4F8C42029002000FDF7E0FF32
:1021D000DFF83C8242F220014046FDF7BCFF41F2AD
:1021E00010014046FDF7B7FF48F280014046FDF779
:1021F000B2FF44F240014046FDF7ADFFF4E0D4F8F1
:10220000C82029002000FDF7C3FFDFF8048242F256
:1022100020014046FDF79FFF41F210014046FDF7C7
:102220009AFF48F280014046FDF795FF44F24001D5
:102230004046FDF790FFD7E0D4F8CC2029002000DD
:10224000FDF7A6FFDFF8C88142F220014046FDF706
:1022500082FF41F210014046FDF77DFF48F2800108
:102260004046FDF778FF44F240014046FDF773FF1A
:10227000BAE0D4F8D02029002000FDF789FFDFF86C
:10228000908142F220014046FDF765FF41F21001C6
:102290004046FDF760FF48F280014046FDF75BFFD6
:1022A00044F240014046FDF756FF9DE02B0014F13B
:1022B000D40221000098FFF74BF9DFF854B142F245
:1022C00020015846FDF743FF41F210015846FDF743
:1022D0003EFF48F2800949465846FDF738FF44F270
:1022E000400A51465846FDF732FFDFF834B14D49F8
:1022F0005846FDF730FF4C495846FDF72CFF4B4937
:102300005846FDF728FF40F608014948FDF723FF2E
:1023100051465846FDF71FFF49465846FDF71BFF3B
:1023200044495846FDF717FF41465846FDF713FF4D
:102330005AE02B0014F1F40221000098FFF708F98D
:10234000DFF8CCB042F220015846FDF700FF41F221
:1023500010015846FDF7FBFE48F2800949465846F1
:10236000FDF7F5FE44F2400A51465846FDF7EFFEF0
:10237000DFF8ACB02B495846FDF7EDFE2A49584628
:10238000FDF7E9FE29495846FDF7E5FE40F608014C
:102390002748FDF7E0FE51465846FDF7DCFE49466A
:1023A0005846FDF7D8FE23495846FDF7D4FE41466E
:1023B0005846FDF7D0FE17E0DFF8548042F22001C6
:1023C0004046FDF7C4FE41F210014046FDF7BFFE56
:1023D00048F280014046FDF7BAFE44F24001404613
:1023E000FDF7B5FEFF2007002000FFF7FDFDFFF71A
:1023F000F6FD3800C0B2FF2801D0002007003800E9
:10240000C0B2BDE8F28F00000200020484D30008CD
:1024100000080140001801400400040400140140B9
:10242000001001402000200440004004800080048F
:10243000000C01400100010410B50400200000F070
:1024400081FD10BD38B504000D002900200000F00A
:1024500083FD32BD38B504000D002900C9B220004B
:1024600000F0DBFD32BD38B504000D002900C9B213
:10247000200000F0EEFD32BD80B500F0A3FE02BDED
:1024800070B504000D0016003200D2B22900200001
:1024900001F0EFFE70BD10B50400200001F0F4FE65
:1024A00010BD38B504000D002900200001F0F2FE37
:1024B00032BD38B504000D002900200001F0F2FE05
:1024C00032BD10B50400200001F0F4FE10BDF0B4E0
:1024D0000246106895681318506803EB5004C00753
:1024E0001DD54D441BE013F8017B05F8017B491E07
:1024F000F9D1A0B1B60813F8011B06F00306032EAC
:1025000008BF13F8016B01EB06214942801C2944E6
:1025100005D011F8016B05F8016B401EF9D1A342FB
:102520000ED013F8016B16F0030104BF13F8011B62
:10253000C91C30090F28DAD113F8010B0F30D6E788
:10254000F0BC02F10C0070472DE9F04F85B0060099
:102550000F00904699460E9CDDF83CA0109DDDF8DA
:1025600044B000208DF81000CDF80CB02800C0B2A7
:102570000290CDF804A0200080B200904B46DBB260
:102580004246390089B2300001F09AFE8DF8100001
:102590000520019004200090032303220021300035
:1025A00001F0C2FEC0B205B0BDE8F08F10B5040066
:1025B000200001F0D2FE10BD10B50400200001F093
:1025C000D2FE10BD10B504000121200001F0D1FEA3
:1025D00010BD38B504000D002900C9B2200001F07B
:1025E000D1FE32BD10B50400200001F0DAFE10BDAE
:1025F00010B50400200001F0DAFE10BD38B504006B
:102600000D002900C9B2200001F0D7FE32BD38B557
:1026100004000D00290089B2200001F0D7FE32BD70
:1026200010B50400200001F0DAFE10BD10B5040062
:10263000200001F0DAFE10BD10B50400200001F00A
:10264000AAFE10BD80B501F0D6FE01BD80B501F037
:10265000D6FE01BD80B501F0D6FE02BD38B504003E
:102660000D002900C9B2200001F0D1FE31BD30B407
:10267000002513E050F8042BD30744BFA9F1010350
:102680009A18091F042942F8045BFAD213468C07F2
:1026900044BF15809B1CC90748BF1D7050F8041B20
:1026A0000029E7D130BC70472DE9FC4704000D003C
:1026B00016001F005FF0000868460021016030002E
:1026C000000E8DF8000068463100090C41703100A1
:1026D000090A8170C6703800C0B2002805D03800E1
:1026E000C0B2052801DA002C01D1012043E0DFF857
:1026F00090903B00DBB29BB268463900C9B24942B8
:102700000844021D290089B2D9F8000001F095FEA5
:1027100082465046C0B2002801D01AF1020A3B009E
:10272000DBB29BB268463900C9B249420844021D77
:1027300015F1500189B2D9F8000001F07EFE804603
:102740004046C0B2002801D018F103083B00DBB2BC
:102750009BB268463900C9B249420844021D15F1CE
:10276000A00189B2D9F8000001F067FE0100C9B2EA
:10277000002900D0001DC0B2BDE8F68700000000AF
:102780000800002080B501F066FE02BD10B504000F
:10279000200001F06AFE10BD2DE9F04704000D0095
:1027A00000272B4801F05BFE2800C0B2032802DBA3
:1027B000284801F054FE284E306800780028FAD0EE
:1027C0002800C0B2032804DB2448006800780028F1
:1027D000FAD0306801F04FFE2800C0B2032803DBB6
:1027E0001E48006801F047FE5FF0000840462900DF
:1027F000C0B2C9B2884228D24046C0B2002805D033
:1028000002280BD006D303280DD011E03068408891
:10281000208017E030688088608013E00F480068EF
:102820004088A0800EE00D4800688088E08009E0C4
:102830002F00FFB25FF00009A2464A463900504619
:1028400001F0E4FC18F10108D0E70020BDE8F087B2
:1028500000240140003C0140000000200400002052
:10286000BBBBE1B1B2F5803F80F07E80022A1ED969
:102870008C46B1FBF2F102FB11C31B0443EA104387
:10288000B3FBF2FC02FB1C3380B240EA0343B3FB10
:10289000F2F002FB103240EA0C4000237047022A9B
:1028A00005D98446B0FBF2F002FB10C270474AB172
:1028B00005D100F0010249085FEA300070470022AC
:1028C0000023704701F0EABD0B0002000021002048
:1028D0007047904271EB030CF6D3B3F5803F2FD2D3
:1028E000F0B5B3FA83F7B1FA81F4A7F10F0E3D1BEF
:1028F0005340CEF1200602FA0EF2F3415340B5F1F7
:102900000F0746D80F3C2C444140C4F12006A0409C
:10291000F1414140B1FBF3F603FB1611A2FB064562
:10292000001BA94102D2761E8018594180EA01029B
:1029300021FA0EF362FA0EF200215A403046F0BD41
:1029400030B4B1FBF3FC03FB1C11A2FB0C45001BD4
:10295000A94103D2ACF1010C8018594130BC0246A8
:102960000B46604600217047B2F1807F65D3F0B519
:10297000B2FA82F7B1FA81F4C7F10F063D1B22FAD1
:1029800006F307F1110EF24120355A40B5F10F0759
:10299000B8D94140C4F12006A040F1414140B1FB0B
:1029A000F3FC03FB1C11A2FB0C45001BA94103D245
:1029B000BCF1010C801859410F2F12D30F3FC903EE
:1029C00041EA5041B1FBF3F603FB1611A2FB0645A9
:1029D000D4EBC030A94102D2761E8018594146EA94
:1029E000CC3C07B34140C7F12006B840F14141401B
:1029F000B1FBF3F603FB1611A2FB0645001BA94130
:102A000002D2761E8018594180EA010221FA0EF3A3
:102A1000C7F1200462FA0EF20CFA07F05A402CFAC1
:102A200004F13043F0BD80EA010221FA0EF30021E7
:102A300062FA0EF260465A40F0BD8C46B1FBF2F1EC
:102A400002FB11C31B0243EA1063B3FBF2FC02FB5F
:102A50001C331B024CEA002043EA1063B3FBF2FC78
:102A600002FB1C331B024CEA002043EA1063B3FB59
:102A7000F2FC02FB1C331B024CEA002043EA106309
:102A8000B3FBF2FC02FB1C324CEA0020002370472F
:102A900080B501F004FD01BD10B504002000C0B2F6
:102AA00001F001FD10BD80B501F004FD01BD80B550
:102AB00001F004FD01BD80B501F004FD01BD80B54C
:102AC00001F004FD02BD80B501F004FD01BD10B5AB
:102AD00004000F20FFF7E0FFFFF7E5FFFFF7E7FF38
:102AE00010BD80B501F0FAFC01BDB1F5807F02D3C5
:102AF0004FF0FF3070470170012070470078401E92
:102B00008041C043C00F7047806810EA112080B236
:102B1000C1F30F21884201D1012000E00020C0B2A2
:102B20007047C1F30F220261704730B585B0DFF8FE
:102B30006C460121200001F0D5FC0121200001F0AC
:102B4000D1FC0121200001F0CDFC0121200001F089
:102B5000C9FC6846142101F0D3FC0120019001203A
:102B60000290002003900120049042F2200500957D
:102B70006946200001F032FD29002000FFF7D1FF57
:102B800041F2100500956946200001F027FD29005B
:102B90002000FFF7C6FF48F2800500956946200037
:102BA00001F01CFD29002000FFF7BBFF44F24005A7
:102BB00000956946200001F011FD29002000FFF773
:102BC000B0FF05B030BD2DE9F04F85B0DFF8D0453E
:102BD0000121200001F086FC0121200001F082FC8F
:102BE0000121200001F07EFC0121200001F07AFC8F
:102BF0000121200001F076FC0121200001F072FC8F
:102C00000121200001F06EFC0121200001F06AFC8E
:102C1000DFF890550121280001F064FC0121280013
:102C200001F060FC0121280001F05CFC012128007A
:102C300001F058FC0121280001F054FC012128007A
:102C400001F050FC0121280001F04CFC012128007A
:102C500001F048FC6846142101F052FC012001906B
:102C6000012002900420039001200490DFF8380531
:102C700000906946200001F0B1FCDFF82C1520001F
:102C8000FFF74FFFDFF8246500966946200001F04A
:102C9000A5FC31002000FFF744FFDFF81475009712
:102CA0006946200001F09AFC39002000FFF739FF47
:102CB000DFF80085CDF800806946200001F08EFC29
:102CC00041462000FFF72DFF44F24009CDF8009067
:102CD0006946200001F082FC49462000FFF721FFF1
:102CE00042F2200ACDF800A06946200001F076FCEF
:102CF00051462000FFF715FF41F2100BCDF800B050
:102D00006946200001F06AFC59462000FFF709FFE0
:102D100040F6080000906946200001F05FFC40F694
:102D200008012000FFF7FDFE48F280040094694688
:102D3000280001F053FC21002800FFF7F2FECDF837
:102D400000906946280001F049FC49462800FFF739
:102D5000E8FECDF800A06946280001F03FFC51468E
:102D60002800FFF7DEFECDF800B06946280001F02C
:102D700035FC59462800FFF7D4FEDFF82C040090FC
:102D80006946280001F02AFCDFF81C142800FFF730
:102D9000C8FE00966946280001F020FC310028009A
:102DA000FFF7BFFE00976946280001F017FC3900C5
:102DB0002800FFF7B6FECDF800806946280001F034
:102DC0000DFC41462800FFF7ACFE05B0BDE8F08FD2
:102DD0002DE9F84304000220207004250026671C1A
:102DE00032002900380001F011FA6420A4F8BE0076
:102DF0006420A4F8C0004FF44840C4F8C4004AF668
:102E00008010C4F8C80047F60C30C4F8CC004FF46A
:102E1000B440C4F8D00004275FF0000814F1B609EC
:102E200042463900484601F0F1F94FF4E170A4F848
:102E3000D600FA20A4F8D8004FF44871A4F8DA10AC
:102E40004FF4FA70A4F8DC0045F20820C4F8E4005E
:102E5000C820A4F8E8003520A4F8EA00B4F8EA0095
:102E6000C4F8E000D4F8E020B4F8E8004243C4F825
:102E7000E020D4F8E020D4F8E4008218C4F8E02080
:102E8000B4F8EA00C92802DBC820A4F8EA004FF42D
:102E90006160A4F8F2000620A4F8EC001420A4F865
:102EA000EE000220A4F8F000B4F8EC00152802DBD4
:102EB0001420A4F8EC00A4F8F6104FF41670A4F84F
:102EC000F8004FF4AF60A4F8FA0040F24C40A4F8C8
:102ED000FC004AF2F870C4F80401C820A4F8080104
:102EE0001620A4F80A01B4F80A01C4F80001D4F8C5
:102EF0000011B4F808014143C4F80011D4F80011DE
:102F0000D4F804014118C4F80011B4F80A01C92822
:102F100002DBC820A4F80A0140F6C410A4F812018C
:102F20000620A4F80C011E20A4F80E010220A4F82B
:102F30001001B4F80C01152802DB1420A4F80C01D0
:102F4000BDE8F18310B504002000FFF741FFFFF753
:102F5000ECFDFFF738FE10BD2DE9F84305000C002D
:102F600000260027287801280AD051D3032819D039
:102F700018D305283AD027D3072813D036D347E0F3
:102F8000DFF834825FF0000922000023A2FB080171
:102F900002FB091103FB081141F632120023FFF76F
:102FA0005FFC38E0DFF814825FF0000922000023A4
:102FB000A2FB080102FB091103FB081149F26E6232
:102FC0000023FFF74DFC26E0DFF8F4815FF00009F5
:102FD00022000023A2FB080102FB091103FB0811D8
:102FE0004FF448620023FFF73BFC14E0DFF8D08188
:102FF0005FF0000922000023A2FB080102FB091177
:1030000003FB08114FF4C8520023FFF729FC02E02C
:1030100044F620600021BDE8F28310B402000020D5
:1030200000231800C0B2042810DAC80705D5012013
:103030001C00E4B21444607004E000201C00E4B200
:1030400014446070C9B249085B1CEAE7002010BC58
:103050007047020011700020704738B50024504DB1
:1030600051492800FFF750FD002801D154F0010418
:103070004E492800FFF748FD002801D154F0020412
:103080004B492800FFF740FD002801D154F004040B
:1030900048492800FFF738FD002801D154F0080402
:1030A0002000C0B232BD38B500243D4D44F240018D
:1030B0002800FFF729FD002801D154F0010442F255
:1030C00020012800FFF720FD002801D154F0020460
:1030D00041F210012800FFF717FD002801D154F03C
:1030E000040440F608012800FFF70EFD002801D176
:1030F00054F008042000C0B232BD38B50024294D78
:1031000048F280012800FFF7FFFC002801D154F0AD
:10311000010444F240012800FFF7F6FC002801D129
:1031200054F0020442F220012800FFF7EDFC0028D1
:1031300001D154F0040441F210012800FFF7E4FC2F
:10314000002801D154F008042000C0B232BD38B5C7
:103150000024144D14492800FFF7D6FC002801D1A3
:1031600054F0010411492800FFF7CEFC002801D1DA
:1031700054F002040E492800FFF7C6FC002801D1D4
:1031800054F004040B492800FFF7BEFC002801D1CD
:1031900054F008042000C0B232BD00000008014015
:1031A00000180140001401408000800440004004E9
:1031B0002000200410001004EA4C0F00001BB70090
:1031C00040420F0070B5FFF748FF0400FFF76BFFA8
:1031D00005002543FFF791FF06002E43FFF7B7FFD9
:1031E0000100314311F00F010800C0B2012816D0D0
:1031F00033D3032817D014D3052818D015D30728A4
:1032000019D016D309281AD017D30B281BD018D3DE
:103210000D281CD019D30F281DD01AD31DE0012072
:103220001CE002201AE0032018E0042016E005202C
:1032300014E0062012E0072010E008200EE009202C
:103240000CE00A200AE00B2008E00C2006E00D202C
:1032500004E00E2002E00F2000E0FF20C0B270BDAD
:1032600010B50400200001F007FA10BD10B50400ED
:10327000200001F0FBF910BD10B50400200001F0A2
:1032800001FA10BD80B501F003FA02BD80B501F06E
:1032900003FA02BDDFF8DC060068C0F302207047C5
:1032A000012210F01F018A40DFF8CC1603005BB248
:1032B0005B0941F82320704710B4020052B2002A83
:1032C0000AD50A01DFF8B436040064B214F00F0422
:1032D000234403F8042C05E00A01DFF8A4360400B7
:1032E00064B21A5510BC704770B4030013F00704A1
:1032F000D4F10700052801D3042001E0D4F1070030
:10330000251D072D01D2002500E0E51E012616FA35
:1033100000F0401E0140A94016FA05F56D1E2A4036
:103320001143080070BC704781B0DFF858160A6876
:1033300002430A60096801400091009901B070479A
:10334000DFF840160A6882430A60704781B0DFF8F0
:1033500038160A6802430A60096801400091009922
:1033600001B07047DFF820160A6882430A60704790
:10337000F0B510EB116491FAA1F5B5FA85F391FA65
:10338000A1F6B6FA86F7D4F800C05FF00F0EDBB2F4
:103390009B001EFA03FE3CEA0E0CFFB2BB0012FAC1
:1033A00003F353EA0C0CC4F800C0F0BDC1F30F22C4
:1033B00002617047C1F30F2242617047C16851F446
:1033C0000051C1607047016931F490410161416968
:1033D00031F02A01416170470068800910F0010056
:1033E00070470068C00910F0010070477FF040018D
:1033F00001607047C16851F02001C1607047C16829
:1034000051F04001C1607047C16851F08001C16056
:103410007047C16831F04001C1607047C16831F048
:103420008001C1607047C068800910F001007047DA
:10343000C068C00910F0010070470A00D2B24260B3
:10344000704701000020087000204870002088703C
:103450000020C87000200871002048710020887189
:103460000020C871002088600020C860002008612A
:103470000020486100208861002081F83C00002085
:1034800081F83D00002081F83F00002081F84000D5
:103490000020A1F842000020A1F844000020A1F87B
:1034A00046000020A1F84800002081F83E000020DE
:1034B00081F84A000020C8640020086500204865A3
:1034C0000020886500200877002048770020C87712
:1034D000002081F8200000204884002088840020FB
:1034E000C8840020088501208877002081F82A0000
:1034F0000020C86200200863002048630020886321
:103500000020C865002070472DE9F84F04000F0027
:10351000904699460A9DDDF82CA00C9EDDF834B04B
:103520002000FFF78EFF84F83D90A4F84870C4F89F
:10353000588066772585C4F838A0C4F85CB0002CA4
:1035400008D0DFF848040068844203D1200000F06E
:1035500099FD11E0002C05D0002C03D1200000F0D3
:1035600023FE09E0002C05D0002C03D1200000F040
:103570001EFE01E0022000E00020BDE8F28F38B519
:1035800004000D00E06800280ED02800C0B2012819
:1035900005D10922A168E068FFF7EAFE04E00822ED
:1035A000A168E068FFF7E4FE002032BD38B50400F2
:1035B0000D00606900280CD02800C0B2012804D199
:1035C00021696069FFF7F6FE03E021696069FFF792
:1035D000EDFE002032BD70B504000D000026E06D48
:1035E000002802D0E06D804706002800C0B2002805
:1035F00003D0E664E06C206502E0E662E06A2063E6
:10360000002070BDF8B504000D0016000027E06D25
:10361000002803D0E06D8047801C07003000C0B256
:1036200000281FD02765E06C216D884209D2216DEA
:10363000E06C091A8D4235D2012084F84A0001203D
:1036400031E0206DE16C88422CD2E16C5FF0FF30FC
:10365000411A206D41188D4224D2012084F84A007D
:10366000012020E02763E06A216B884209D2216BA8
:10367000E06A091A8D4215D2012084F82A0001203F
:1036800011E0206BE16A88420CD2E16A5FF0FF3002
:10369000411A206B41188D4204D2012084F82A007F
:1036A000012000E00020F2BD70B504000D000026EE
:1036B0002800C0B200281FD0E06C002842D0606D06
:1036C00000283FD0E06C002801D100203CE001221E
:1036D000616D2000FFF796FF06003000C0B20028A1
:1036E00030D02278521EDFF87819200000F000FC5C
:1036F000200000F0B2FB25E0E06A002822D0606BD9
:1037000000281FD0E06A002801D100201CE0002220
:10371000616B2000FFF776FF06003000C0B2002882
:103720000DD0E06A00280AD02278521EDFF8341942
:10373000200000F0DDFB200000F0ADFB02E00020E7
:1037400084F82A003000C0B270BD38B504000D0006
:10375000DFF814190D7094F83F00002805D00228F6
:103760003DD01CD3032866D066E0B4F8440000289E
:1037700014D160780A78904210D10878A16D087051
:10378000012084F83F000120A4F846000121200018
:10379000FFF721FF0121200000F04EFB4CE00878EC
:1037A000002814D00878B4F84820D2B290420ED243
:1037B0000878A26D50700878A4F84200B4F846006A
:1037C000401CA4F84600022084F83F0002E00020DC
:1037D00084F83F0001212000FFF7FDFE2CE0A06DE2
:1037E000B4F84420104409788170B4F84400401CB7
:1037F000A4F84400B4F84600401CA4F84600B4F80D
:103800004400B4F8481080B2884202D30020A4F8E3
:10381000440001212000FFF7DEFEB4F84400B4F8B4
:10382000421080B2884205D3032084F83F00012073
:1038300084F83E0000E0FFE7002032BD38B5040008
:103840000D00DFF838190D7094F83F00002807D0FC
:10385000022837D01ED3042800F089805BD387E08C
:10386000B4F84400002814D160780A78904210D14E
:103870000878A16D0870012084F83F000120A4F8A9
:10388000460001212000FFF7A6FE0121200000F0E4
:10389000D3FA6DE00878A26D50700878A4F8420061
:1038A000B4F842000002A4F84200022084F83F006D
:1038B000B4F84600401CA4F8460001212000FFF7A0
:1038C0008AFE55E00878A26D9070B4F8422008781E
:1038D0008218A4F84220B4F84600401CA4F8460020
:1038E000B4F8420000280ED0B4F84200B4F84810F2
:1038F00080B2884207D2B4F84200A4F84600032000
:1039000084F83F0002E0002084F83F0001212000FD
:10391000FFF761FE2CE0A06DB4F844201044097854
:10392000C170B4F84400401CA4F84400B4F8460048
:10393000401CA4F84600B4F84400B4F8481080B223
:10394000884202D30020A4F8440001212000FFF7A0
:1039500042FEB4F84400B4F8421080B2884205D365
:10396000042084F83F00012084F83E0000E0FFE7D7
:10397000002032BD0CED00E000E100E018ED00E0B9
:1039800000E400E01C100240181002403400002047
:1039900038B504000D00B4F84800FF2805DA290006
:1039A000C9B22000FFF7D1FE04E02900C9B220000F
:1039B000FFF744FF32BD38B504000D002900C9B23D
:1039C000A069FFF73AFDA069FFF706FD002802D1C4
:1039D000FFF75CFCF7E7A069FFF708FD002032BDA8
:1039E00010B50400608C00282CD0A08C618C80B2B3
:1039F000884223D0A06BA18C415CA069FFF71DFD1C
:103A0000A08C401CA084A08C218D80B2884201D360
:103A10000020A084A08C618C80B2884218D3E08CF6
:103A2000002815D0A08CE18C80B2884210D3A06908
:103A3000FFF7F4FCA069FFF7E2FC09E0A069FFF7DB
:103A4000EDFC05E0A069FFF7E9FC200000F023FA97
:103A500000212000FFF7BFFD002010BD10B50400BD
:103A60006069002809D0E07F002806D10D21A069F7
:103A7000FFF7E3FC0120E07714E06069002809D03B
:103A8000E07F012806D10A21A069FFF7D6FC0220B9
:103A9000E07707E00020E077A069FFF7BAFC20009C
:103AA00000F0F9F9002010BD38B504000D00A06B3E
:103AB00000281ED0608C218D80B2884201D3002066
:103AC0006084A06B618C4554608C401C6084A0694C
:103AD000FFF7AEFC00280AD101212000FFF766FDA8
:103AE00001212000FFF74BFDA069FFF78DFC0020AE
:103AF00000E0012032BD70B504000D000126A06B6E
:103B000000283FD0607F012802D0607F022801D1C9
:103B10006D1C08E0607F032801D1AD1C03E0607FCD
:103B2000042800D12D1D60792179401A002800D089
:103B30006D1C94F82000012800D1AD1C208DFB28BD
:103B40000EDB290089B2090AC9B22000FFF7ACFFD9
:103B50002900C9B22000FFF7A7FF0600ED1C06E010
:103B60002900C9B22000FFF79FFF0600AD1C607955
:103B70002179401A002804D0E1782000FFF794FF53
:103B80000600E5843000C0B270BD38B50400607F27
:103B9000002856D000F088FD002852D10025607F13
:103BA00001280AD1618CA06B00F09DFD0500290061
:103BB000C9B22000FFF778FF41E0607F02280BD1F7
:103BC000628CA16B072000F083FD05002900C9B2BB
:103BD0002000FFF769FF32E0607F032810D1618C7D
:103BE000A06B00F06DFD05002900090AC9B2200094
:103BF000FFF75AFF2900C9B22000FFF755FF1EE06A
:103C0000607F04281BD1618CA06B00F051FD050082
:103C10002900090EC9B22000FFF746FF2900090C50
:103C2000C9B22000FFF740FF2900090AC9B22000ED
:103C3000FFF73AFF2900C9B22000FFF735FF002047
:103C40000CE094F82000012807D10D212000FFF797
:103C50002BFF0A212000FFF727FF012032BDF8B516
:103C6000040000250026B4F8427094F83D000028B6
:103C700000F0E08000F018FD002840F0DB8094F8B0
:103C80003D00012823D17F1EB4F84800FA2809DA44
:103C9000A06D4770A06D390089B208448078060095
:103CA000BF1C0DE0380080B2000AA16D4870A06D05
:103CB0008770A06D390089B20844C0780600FF1CE7
:103CC000390089B2A06D00F00EFD0500AEE094F859
:103CD0003D00022824D17F1EB4F84800FA2809DAF2
:103CE000A06D4770A06D390089B208448078060045
:103CF000BF1C0DE0380080B2000AA16D4870A06DB5
:103D00008770A06D390089B20844C0780600FF1C96
:103D10003A0092B2A16D072000F0DAFC050085E0C0
:103D200094F83D00032831D1BF1EB4F84800FA28AA
:103D300010DAA06D4770A06D390089B20844407850
:103D4000A16D3A0092B21144897811EB00210E0066
:103D5000BF1C14E0380080B2000AA16D4870A06D4D
:103D60008770A06D390089B208448078A16D3A004F
:103D700092B21144C97811EB00210E00FF1C3900EA
:103D800089B2A06D00F09CFC05004FE094F83D0066
:103D900004284BD13F1FB4F84800FA281EDAA06D62
:103DA0004770A06D390089B2084410F8010CA16D6C
:103DB0003A0092B2895C11EB0021A06D3A0092B2F8
:103DC0001044407810EB0120A16D3A0092B21144EA
:103DD000897811EB00210E00BF1C21E0380080B271
:103DE000000AA16D4870A06D8770A06D390089B27E
:103DF000405CA16D3A0092B21144497811EB002168
:103E0000A06D3A0092B21044807810EB0120A16DB1
:103E10003A0092B21144C97811EB00210E00FF1C48
:103E2000390089B2A06D00F043FC0500B54201D015
:103E3000012000E00020F2BD02000800C0B200280E
:103E400003D0002082F84A0002E0002082F82A0015
:103E50000020704790F83E00704710B50400002124
:103E60002000FFF7A3FB002084F83F000020A4F807
:103E700042000020A4F844000020A4F846000020DE
:103E800084F83E000020E06400202065002084F8D3
:103E90004A00002010BD10B504000120A0770020CA
:103EA00060840020A0840020E0840020E0620020E4
:103EB0002063002084F82A000020E0770021200001
:103EC000FFF774FB00212000FFF759FB002010BD15
:103ED000020050791179401A002807D0906D1179AD
:103EE000405CD178884201D0012000E0002070477A
:103EF0000CB42DE9F84F04000D00A069FFF798FA03
:103F0000002807D0A069FFF76CFA002802D0FFF75D
:103F1000BDF9F7E7A069FFF786FA00280DD0A06980
:103F2000FFF75AFA002805D0E07F002802D1FFF7FA
:103F3000ADF9F4E7A069FFF759FA01212000FFF776
:103F400035FB01212000FFF71AFB5FF0000A5FF04C
:103F5000000B0AAE8A4F33002A004FF4806138000C
:103F600000F0CAFB80465FF000094846414680B237
:103F700089B2884208D2484680B2395C2000FFF7F7
:103F80001AFD19F10109F0E700212000FFF70EFBEF
:103F900000212000FFF7F3FABDE8F10F5DF80CFBFC
:103FA00038B504000D00774884420ED12800C0B215
:103FB000002804D04FF48040FFF7C8F903E04FF425
:103FC0008040FFF7CFF9002048E06F4884420ED1CF
:103FD0002800C0B2002804D05FF40030FFF7A4F935
:103FE00003E05FF40030FFF7ABF9002036E06748EC
:103FF00084420ED12800C0B2002804D05FF4802093
:10400000FFF792F903E05FF48020FFF799F90020B1
:1040100024E05F4884420ED12800C0B2002804D0BA
:104020005FF40020FFF780F903E05FF40020FFF762
:1040300087F9002012E0574884420ED12800C0B210
:10404000002804D05FF48010FFF76EF903E05FF4FE
:104050008010FFF775F9002000E0012032BD00005C
:10406000A4D30008C4D300081A4D002070B4060081
:10407000039D049CF17032717371B571F47100206D
:1040800070BC7047F0B58BB00400434D012128008F
:1040900000F028FA6846142100F032FA0920019055
:1040A0000320029000200390012004903B4E0096D4
:1040B0006946280000F092FA3948009008200190E3
:1040C0006946280000F08AFA2E4F380000F097FB6E
:1040D00001213800FFF764FF05A8182100F010FA4D
:1040E0005FF4E1300590002006900020079000204A
:1040F00008900C20099000200A9005A9380000F0D3
:10410000C2FB3800FFF75FF9FFF7C4F80022022175
:10411000FFF7EAF801002520FFF7CEF82520FFF78A
:10412000BFF83800FFF766F93800FFF747F9E56098
:10413000A660A76102202070E06D002804D06420F2
:1041400060656420606303E00020606500206063B8
:1041500000206077552060705A20A0700021200058
:10416000FFF724FA00212000FFF709FA0D4920008B
:10417000FFF7BEFE00200BB0F0BD00001B4D00207D
:10418000D842002000380140004400400048004070
:10419000004C0040005000400008014002000204B2
:1041A0000400040418D40008010000207047010036
:1041B0000020704780B500F0C5FB01BD80B500F060
:1041C000C5FB02BD80B500F0C5FB01BD80B500F0A8
:1041D000C5FB01BD10B504002000C0B200F0C2FB59
:1041E00010BD10B504002000C0B200F0C2FB10BD2D
:1041F00010B504002000C0B200F0C2FB10BD10B525
:1042000004002000C0B200F0C2FB10BD62F30F2218
:1042100062F31F42401810F0030308D0C91A1FD3DD
:10422000DB0748BF00F8012D28BF20F8022D13003E
:1042300030B414461546103928BF20E93C00FAD89E
:10424000490728BF20E90C0048BF40F8042D890029
:1042500028BF20F8022D48BF00F8012D30BC704760
:10426000C91818BF00F8012DCB0728BF00F8012D91
:10427000704770B504000D0016003200D2B229005C
:10428000200000F0F4FB70BD10B50400200000F029
:1042900002FE10BD38B504000D002900200000F01A
:1042A00075FE32BD38B504000D002900200000F075
:1042B000DFFE32BD10B50400200000F0E8FE10BDA6
:1042C0002DE9F34F85B0060017009846109CDDF8E5
:1042D0004490129DDDF84CA000208DF81000CDF820
:1042E0000CA02800C0B20290CDF80490200080B24B
:1042F00000904346DBB23A00BDF818103000FFF7DB
:1043000003F983465846C0B2002808D100F0CCF922
:10431000002804D0002086F83D0000207077584621
:10432000C0B207B0BDE8F08F2DE9FE4306000F00D4
:10433000904699460A9D0B9C2000C0B2019028002F
:10434000C0B200904B46DBB24246D2B23900C9B28D
:104350003000FFF78BFEBDE8FE8310B5040020009F
:10436000FFF77BFD10BD10B504002000FFF772FDC4
:1043700010BD38B504000D002900C9B22000FFF7B8
:1043800093F932BD38B504000D002900C9B22000F0
:10439000FFF7FEFA32BD10B504002000FFF798FDCC
:1043A00010BD10B504002000FFF71AFB10BD10B5BA
:1043B00004002000FFF752FB10BD38B504000D00CB
:1043C0002900C9B22000FFF76FFB32BD38B50400E9
:1043D0000D00290089B22000FFF78DFB32BD10B51A
:1043E00004002000FFF7D1FB10BD10B50400200031
:1043F000FFF735FC10BD80B501F0F2F801BD80B5C6
:1044000001F0A9F801BD80B501F0E6F802BD38B5AC
:1044100004000D002900C9B2200001F0E5F831BD0B
:10442000F8B504000D0016001F003B00DBB232009F
:104430002900200001F0EEF9F2BDF8B504000D00EE
:1044400016001F003B009BB23200290089B22000F9
:1044500001F0EDF9F2BD80B501F050FD02BD10B5DF
:104460000400200001F050FD10BD10B50400200034
:1044700001F079FD10BD10B50400200001F0C6FD6B
:1044800010BD8268521C8260426832B10268531CBF
:10449000036011704168491E41607047704780B5E4
:1044A00002F028F901BD10B504002000C0B202F0EE
:1044B0002FF910BD80B502F047F901BD80B502F0BB
:1044C00094F901BD80B502F0E0F901BD80B502F0BC
:1044D00025FA02BD80B502F0C3FB01BD80B502F034
:1044E000F5FC01BD38B504000D002900C9B220005B
:1044F00003F0C8FB31BD80B503F0CDFB01BD00006A
:10450000002203F0CDBB0000F0B510EB116491FA6E
:10451000A1F5B5FA85F391FAA1F6B6FA86F7D4F8C3
:1045200000C05FF00F0EDBB29B001EFA03FE3CEAF8
:104530000E0CFFB2BB0012FA03F353EA0C0CC4F8E2
:1045400000C0F0BDF0B510EB116491FAA1F5B5FA19
:1045500085F391FAA1F6B6FA86F7D4F800C05FF0B9
:10456000030EDBB29B001EFA03FE3CEA0E0CFFB208
:10457000BB0012FA03F353EA0C0CC4F800C0F0BD00
:10458000F0B510EB116491FAA1F5B5FA85F391FA43
:10459000A1F6B6FA86F7D4F800C05FF0040EDBB2DD
:1045A0009B001EFA03FE3CEA0E0CFFB2BB0012FA9F
:1045B00003F353EA0C0CC4F800C0F0BD30B4C36878
:1045C0000C00240A94FAA4F4B4FA84F533EA112313
:1045D00012FA05F52B43C36030BC70472DE9F0415A
:1045E00004000D002F683F023F0C97FAA7F0B0FAC5
:1045F00080F85FFA88F8380030FA08F0002832D0E6
:10460000380030FA08F0C0072AD5B8F1080F05D2F3
:1046100040F2011010FA08F0060007E05FF0011107
:1046200040460838814051F080610E006A683100D0
:104630002000FFF769FF2A6931002000FFF7BEFF65
:104640006868012802D06868092809D1AA68310081
:104650002000FFF777FFEA6831002000FFF790FFA6
:1046600018F10108C7E70120BDE8F08110B504008A
:10467000200003F02FFB10BD10B50400200003F054
:1046800039FB10BD10B50400200003F04BFB10BD3A
:1046900080B503F06DFB02BD80B503F088FB02BD61
:1046A00080B503F08DFB01BD80B503F08DFB02BD2D
:1046B00038B504000D002900200003F089FB32BD4D
:1046C00038B504000D002900200003F089FB32BD3D
:1046D00070B504000D001600320029002000C0B2A1
:1046E00003F086FB70BD38B504000D0029002000E2
:1046F00003F089FB32BD000008B584B000230393AA
:1047000000290EBF01930190491E0291009301A957
:1047100004AB07487844183003F07EFB019909B1D7
:1047200000220A70002858BF039805B000BD00BFE2
:1047300053FDFFFFC068400B10F001007047026995
:1047400032F440520A4302617047426932F44072C7
:104750000A4342617047F0B46423192404FB01F555
:104760009600B5FBF6F56426B5FBF6F504FB01F6FD
:104770009700B6FBF7F604FB01F75FEA820CB7FB84
:10478000FCF75FF0640CB7FBFCF703FB1766360120
:1047900032366427B6FBF7F616F0F00616EB051670
:1047A00004FB01F59700B5FBF7F504FB01F4970056
:1047B000B4FBF7F46427B4FBF7F403FB14531B01B9
:1047C00032336424B3FBF4F313F00F039E19B6B233
:1047D0008660F0BC704753490A6802430A6070471C
:1047E00050490A6882430A6070474F490A68024389
:1047F0000A6070474C490A6882430A60704738B5BE
:10480000040001254948844208D14FF48040FFF755
:10481000ECFF4FF48040FFF7EDFF31E04448844265
:1048200008D15FF40030FFF7D6FF5FF40030FFF7E8
:10483000D7FF25E03F48844208D15FF48020FFF78E
:10484000CAFF5FF48020FFF7CBFF19E03A488442AB
:1048500008D15FF40020FFF7BEFF5FF40020FFF7F0
:10486000BFFF0DE03548844208D15FF48010FFF7A8
:10487000B2FF5FF48010FFF7B3FF01E000200500F6
:104880002800C0B232BDF8B584B005000E00002784
:1048900000242800FFF74EFF00283DD1E968284892
:1048A000014070680143F068014330690143E960E9
:1048B000B1682800FFF743FF71692800FFF745FF43
:1048C000684604F070FA1948854202D10398040042
:1048D00016E01748854202D10298040010E01548FE
:1048E000854202D1029804000AE01348854202D1B1
:1048F0000298040004E01148854201D102980400A6
:10490000002C09D03068002806D00120070032684A
:1049100021002800FFF71FFF3800C0B205B0F0BD2E
:1049200000000000101002400C100240003801404E
:104930000044004000480040004C0040005000404F
:10494000F3E9FFFF80B504F099FB01BD80B504F0E9
:10495000C7FB02BD80B504F0D1FB01BD80B504F0FA
:10496000F7FB01BD10B504002000C0B204F007FC45
:1049700010BD10B504002000C0B204F010FC10BD42
:1049800010B504002000C0B204F01BFC10BD10B52F
:1049900004002000C0B204F026FC10BD012101700B
:1049A00001214170002181700021C170002101713D
:1049B00000214171022181712321C1710D210172F8
:1049C000412141720D2181724121C1720021017387
:1049D00000214173002181730021C1730021017402
:1049E00000214174002181740021C17400210175EE
:1049F00000214175002181750021C17500210176DA
:104A000000214176002181760021C1760021C1611B
:104A100000210162DFF8F016416281620021C1626B
:104A20000021016300214163704701000020886379
:104A3000DFF8D806C86344F240020A64486448F2CA
:104A400080008864002081F84C00002081F84D002F
:104A5000002048653420A1F84E00002008650020A1
:104A60007047010000207047010000207047F8B532
:104A700004000D00160000272000FFF78FFF002C18
:104A800008D0DFF88C060068844203D12000FFF7CD
:104A9000CCFF11E0002C05D0002C03D12000FFF743
:104AA000E0FF09E0002C05D0002C03D12000FFF727
:104AB000DBFF01E0012014E03000C0B2002803D089
:104AC000012084F84C0008E0290014F1380004F0BB
:104AD000A8FB0700012084F84C00200000F002F839
:104AE000C0B2F2BD70B504000025211D200000F009
:104AF0004EF8211D200000F04AF806003000C0B238
:104B0000002804D1A11D200000F041F8060030006B
:104B1000C0B270BD2DE9F84304000D0016005FF02F
:104B200000090027012114F1380004F082FB8046BF
:104B30004046C0B2002802D0022080461CE000207F
:104B4000070038003100C0B2C9B2884214D2380020
:104B5000C0B2295C14F1380004F089FB14F138006C
:104B600004F076FB80464046C0B2002802D0F81C14
:104B7000804601E07F1CE4E714F1380004F062FB9A
:104B80004046C0B2BDE8F28303000120704738B54B
:104B900004000D0094F84C00002805D102222900E1
:104BA0002000FFF7F1FF04E0022229002000FFF7B8
:104BB000B1FF32BD0022C261704770B504000D0024
:104BC000A06A60620020E061DFF84805854204D3F6
:104BD000050041F24460E0610BE045F208208542A7
:104BE00003D205000320E06103E029002000FFF765
:104BF000E1FFE562E06A4FF47A71B0FBF1F0206307
:104C0000E0694519DFF81005854206D30020A07041
:104C10000020207000206070E8E0DFF80005854289
:104C200007D30020A07002202070002060706D006B
:104C3000DCE0DFF8EC04854208D30020A0700320FC
:104C400020700020607003204543CFE0DFF8D404DB
:104C5000854207D30020A0700420207000206070DF
:104C6000AD00C3E0DFF8C004854208D30020A07087
:104C7000052020700020607006204543B6E0DFF874
:104C8000AC04854207D30020A070062020700020CD
:104C90006070ED00AAE0DFF89804854208D3002098
:104CA000A07007202070002060700C2045439DE01C
:104CB000DFF88004854207D30020A0700620207012
:104CC000012060702D0191E0DFF86C04854208D36B
:104CD0000020A0700720207001206070182045433C
:104CE00084E0DFF85804854207D30020A070062036
:104CF0002070022060706D0178E0DFF84404854286
:104D000008D30020A070072020700220607030209F
:104D100045436BE0DFF82C04854207D30020A070E8
:104D20000620207003206070AD015FE0DFF81804FA
:104D3000854208D30020A0700720207003206070F7
:104D40006020454352E0DFF80404854207D3002089
:104D5000A0700420207005206070ED0146E0DFF8AF
:104D6000F003854208D30020A070052020700520A4
:104D70006070C020454339E0DFF8D80385420AD38C
:104D80000120A0700620207004206070ED01606A90
:104D9000400860622AE04BF21C7085420BD3012070
:104DA000A0700720207004206070C0204543606A16
:104DB000400860621AE048F6551085420AD3012087
:104DC000A07006202070052060702D02606A4008E7
:104DD00060620BE00120A070072020700520607049
:104DE0004FF4C0704543606A40086062AD0028001F
:104DF00004F04CFA0600606A04F048FA0100300042
:104E000004F052FA6063606B04F0CCFAE070E07872
:104E100004F03CFA0100606B04F0DAFADFF83813B2
:104E200004F016FB04F080FB20620D202072207835
:104E300040016072607A617850EA81006072607A45
:104E400050F00100607248202073A078002801D142
:104E5000002000E010206073617BE0780143617303
:104E60004A202074206A800C10F03F006074206A91
:104E7000400C10F0010050F04C002075206A400AF0
:104E80006075206A000A10F0010050F04E00207694
:104E9000206A607670BD2DE9F84F8EB004002000C6
:104EA000FFF720FE0028FAD102200D9000200C9080
:104EB00014F10A050C9A0D992800FFF7A7F90220B2
:104EC0000B9000200A9014F10E050A9A0B99280005
:104ED000FFF79CF9022009900020089014F11205B8
:104EE000089A09992800FFF791F9022007900020FD
:104EF000069014F11605069A07992800FFF786F91F
:104F0000022005900020049014F11A05049A0599D6
:104F10002800FFF77BF9022003900020029014F193
:104F20000805029A03992800FFF770F90220019002
:104F30000020009014F10C05009A01992800FFF759
:104F400065F90225002614F1100732002900380007
:104F5000FFF75CF902275FF0000814F114094246DC
:104F600039004846FFF752F95FF002095FF0000A86
:104F700014F1180B524649465846FFF747F9A06A04
:104F800060620020E0620FB0BDE8F08FF8B5040069
:104F90000D000026E06A854203D029002000FFF7BB
:104FA0000CFE14F108012000FFF7F1FD07003800A6
:104FB000C0B2002801D001202EE014F10C01200025
:104FC000FFF7E5FD06003000C0B2002801D0022046
:104FD00022E014F110012000FFF7D9FD070038008E
:104FE000C0B2002801D0032016E014F11401200003
:104FF000FFF7CDFD06003000C0B2002801D004202C
:105000000AE014F118012000FFF7C1FD0100C9B248
:10501000002901D005210800C0B2F2BD10B504007E
:10502000FDF714FBFDF716FB0A21B0FBF1F1206B35
:1050300088420ED2206BB1F10A02904201D30020C7
:1050400015E047F60150814201D300200FE0012016
:105050000DE011F10A00226B904201D3002006E01E
:1050600047F60150814201D3002000E0022010BD2C
:1050700038B504000D0029002000FFF787FF002845
:1050800003D12000FFF7CAFF00E0012032BDF8B5D0
:105090000400002542F6E0664FF47A7101FB06F148
:1050A0002000FFF773FF002828D1FDF7CFFAFDF7A6
:1050B000D1FA07000A3F4FF6FF7087421AD00A2044
:1050C0004643B74201D2F11B00E0B91B0A2900D1C7
:1050D000891E0A2905D20C4A322000FB1121A16247
:1050E00008E0491D0A20B1FBF0F16422064802FBEA
:1050F0000101A1622000FFF7CEFE01E002200500C1
:105100002800C0B2F2BD0000001BB700000C014037
:105110003800002080D5430281A812014154890043
:10512000818D5B0021AA4400C1C62D0011552200CB
:1051300061E31600892A1100B1710B004595080042
:10514000D9B80500A34A04006DDC02005225020014
:10515000376E0100A9120100FFFF7F4B81B0DFF81D
:1051600048160A6802430A600968014000910099E4
:1051700001B07047DFF830160A6882430A60704752
:1051800081B0DFF828160A6802430A600968014006
:105190000091009901B07047DFF810160A68824349
:1051A0000A607047DFF80806016831F44061016069
:1051B000016851F4006101607047016851F001011C
:1051C0000160704701684908490001607047016843
:1051D00051F080010160704741627047406A70473A
:1051E000026A8A4302627047F0B4012901D10024A7
:1051F00016E0042901D1012412E0102901D1022472
:105200000EE0402901D103240AE0B1F5807F01D1ED
:10521000042405E0B1F5806F01D1052400E00624E7
:1052200010F11805DFF88C352600F6B29B5D5D198C
:10523000DFF884652F685FF0030C2300DBB2F35CBA
:105240001CFA03FC37EA0C0794465FEA1C4C230067
:10525000DBB2F35C1CFA03FC5CEA07072F60F0BCCE
:105260007047F0B4012901D1002416E0042901D1CE
:10527000012412E0102901D102240EE0402901D1BD
:1052800003240AE0B1F5807F01D1042405E0B1F5E3
:10529000806F01D1052400E0062410F11805DFF825
:1052A00014352600F6B29B5D5D19DFF80C652F689A
:1052B0005FF0F00C2300DBB2F35C1CFA03FC37EA6E
:1052C0000C0794465FEA1C4C2300DBB2F35C1CFA2B
:1052D00003FC5CEA07072F60F0BC7047F0B40129BB
:1052E00001D1002416E0042901D1012412E0102983
:1052F00001D102240EE0402901D103240AE0B1F5D6
:10530000807F01D1042405E0B1F5806F01D105242F
:1053100000E00624DFF8A454066A0A272300DBB263
:10532000EB5C9F40BE432300DBB2EB5C12FA03F35D
:105330001E430662F0BC70478368DFF88424134084
:105340000B4383607047426832F070020A43426048
:105350007047826832F070020A4382607047816849
:1053600031F08001816070477FF001010161704779
:10537000006910F0010070477FF040010161704743
:105380000069800910F001007047C16831F04001E8
:10539000C1607047C16831F48041C160704738B561
:1053A0008AB005A81421FFF7ABF868461421FFF76F
:1053B000A7F8DFF810440121200000F015F9DFF80C
:1053C00008540121280004F0E5F842F22000009082
:1053D000FFF7E8FE0820019069462800FFF7FEF875
:1053E0000020ADF81400002006907FF07F40079069
:1053F0000020089005A9200004F042FA2000FFF7E1
:10540000E6FE60212000FFF7A4FF5FF48032102148
:105410002000FFF7E9FE07212000FFF78DFF102194
:105420002000FFF7DDFE002210212000FFF719FF0A
:10543000002210212000FFF751FF2000FFF7A5FFF9
:105440002000FFF7A7FF00212000FFF77CFF2000CE
:10545000FFF785FF0BB030BD7CB500200090DFF872
:105460006C4320680078002818D1002021688860EB
:10547000002021684860012021680870DFF844435B
:105480002000FFF779FF2000FFF76EFF00212000CA
:10549000FFF7A2FE2000FFF790FE5BE02068007897
:1054A00001281AD1DFF81C532800FFF769FF0028F4
:1054B00050D02800FFF792FE216888602800FFF78F
:1054C0005BFF0220216808700020DFF804130870D9
:1054D0000020DFF8001308703CE020680078022804
:1054E00037D1DFF8F0522878401C2870B54E3000D4
:1054F000FFF73EFF002806D03000FFF735FFB44825
:105500000178491C01703000FFF73AFF002802D0F3
:105510003000FFF731FF28780A281BDB3000FFF747
:105520005DFE00903000FFF74DFE032021680870FB
:10553000009AA74908784FF6FF7303FB0022206802
:105540008068121A2068826000200870002028708D
:1055500000E0FFE773BDF8B59C4C9F480068006908
:105560002168C8609D4804F0B6FA002504F0BFFA2F
:10557000060000272068007803280ED004F0B7FA50
:105580000500B54205D25FF0FF30801B28180700E8
:1055900001E0A81B0700652FECD32068C06804F069
:1055A0009AFA00202168C860652F03D34FF6FF7078
:1055B000216888600020216808702068806803F0F6
:1055C00065FE04F0A7FA0022854B04F0C7FA04F048
:1055D000E9FB21684860F1BD7C480068806870473D
:1055E00080B5FFF7DCFE01BD38B504000D007D4835
:1055F00084420BD12800C0B2002803D00120FFF75D
:10560000ADFD02E00120FFF7A9FDCCE0B4F1804F31
:105610000BD12800C0B2002803D00120FFF79EFD67
:1056200002E00120FFF7A6FDBDE0664884420BD1F1
:105630002800C0B2002803D00220FFF78FFD02E04F
:105640000220FFF78BFDAEE0674884420BD12800B3
:10565000C0B2002803D00420FFF780FD02E0042040
:10566000FFF77CFD9FE0614884420BD12800C0B267
:10567000002803D00820FFF771FD02E00820FFF7A3
:105680006DFD90E05A4884420BD12800C0B200283A
:1056900003D01020FFF762FD02E01020FFF75EFD4F
:1056A00081E0544884420BD12800C0B2002803D0C6
:1056B0002020FFF753FD02E02020FFF74FFD72E0AE
:1056C0004D4884420DD12800C0B2002804D04FF4C8
:1056D0000050FFF755FD03E04FF40050FFF75CFD6D
:1056E00061E0464884420DD12800C0B2002804D0B1
:1056F0005FF40020FFF744FD03E05FF40020FFF7B4
:105700004BFD50E03E4884420DD12800C0B2002835
:1057100004D05FF48010FFF733FD03E05FF48010E6
:10572000FFF73AFD3FE0374884420DD12800C0B270
:10573000002804D05FF40010FFF722FD03E05FF4BF
:105740000010FFF729FD2EE02F4884420BD12800DE
:10575000C0B2002803D04020FFF700FD02E0402047
:10576000FFF708FD1FE0294884420BD12800C0B292
:10577000002803D08020FFF7F1FC02E08020FFF733
:10578000F9FC10E0224884420DD12800C0B2002864
:1057900004D04FF48070FFF7E1FC03E04FF4807019
:1057A000FFF7E8FCFFE731BD1C1002401810024073
:1057B00004000140D4D40008DCD40008E4D400087C
:1057C000F8BFFFFF00040040000C01403000002043
:1057D000194D0020184D00202C00002059540008BD
:1057E0000088C340002C014000080040000C00402D
:1057F000001000400014004000340140004C014003
:10580000005001400054014000180040001C0040BE
:1058100000200040F8B504000D0016001F003B00FA
:10582000DBB232002900200004F0F8FAF2BDF8B52E
:1058300004000D0016001F003B009BB2320029003F
:1058400089B2200004F029FEF2BD0000DFF85807FD
:105850000068C0F302207047012210F01F018A4047
:10586000DFF8481703005BB25B0941F8232070475B
:1058700010B4020052B2002A0AD50A01DFF830370C
:10588000040064B214F00F04234403F8042C05E070
:105890000A01DFF82037040064B21A5510BC7047C3
:1058A00070B4030013F00704D4F10700052801D3F6
:1058B000042001E0D4F10700251D072D01D20025A9
:1058C00000E0E51E012616FA00F0401E0140A94046
:1058D00016FA05F56D1E2A401143080070BC70478A
:1058E000F0B45FF44005B5FA85F310F12C0411F41F
:1058F0004076DE4014EB860426681F2711F01F0354
:105900009F40BE4312F01F0711F01F039F403E430C
:105910002660F0BC70472DE9F0434023B3FA83F5CD
:1059200010F10C0411F00076EE4014EB86044FF4F5
:1059300078652E00B6FA86F7B5FA85FCD4F800E053
:105940005FF0070811F0F87939FA07F918FA09F841
:105950003EEA080E11F0F87737FA0CF712FA07F75B
:1059600057EA0E0EC4F800E0BDE8F083816851F0FC
:105970000101816070478168490849008160704772
:10598000816851F00401816070478068800810F0E0
:1059900001007047816851F4A0018160704781B0B7
:1059A000DFF814160A6802430A6009680140009192
:1059B000009901B0704781B0DFF800160A68024311
:1059C0000A60096801400091009901B07047DFF852
:1059D000EC150A6882430A607047DFF8E42502EBA1
:1059E000010313F8013C1B180A4412F8012C121889
:1059F000126852F001021A607047DFF8C42502EB0A
:105A0000010313F8013C1B180A4412F8012C121868
:105A10001268520852001A60704710B4DFF8A035BF
:105A200003EB010414F8014C24180B4413F8013C57
:105A30001B185B681B0C1B041343636010BC70478E
:105A40000121416070475FF480314160704702215D
:105A5000416070475FF4003141607047042141604C
:105A600070475FF4802141607047DFF8542502EBF6
:105A7000010313F8013C1B180A4412F8012C1218F8
:105A8000126852F002021A607047DFF838150A688F
:105A900032F4404202430A60704718B585B0DFF81F
:105AA000284501212000FEF71DFD68461421FEF760
:105AB00027FD40F60F700090002001900020049018
:105AC00069462000FEF78AFD002006B010BD38B5FB
:105AD00004000D00002C01D1012033E0DFF8EC04BC
