:020000040800F2
:1000000018590020E9C50008E5BF0008F5BF000841
:10001000FDBF0008FFBF000801C00008000000008D
:1000200000000000000000000000000003C0000805
:1000300005C000080000000007C0000809C0000853
:1000400011C0000809C1000885C6000889C600085B
:100050008DC60008EDBF000891C6000895C60008CF
:1000600099C600089DC60008A1C6000893C00008F4
:10007000A5C60008A9C60008ADC60008B1C600089C
:10008000B5C60008B9C60008BDC60008C1C600084C
:10009000C5C60008C9C60008CDC60008D1C60008FC
:1000A000D5C60008D9C60008DDC60008E1C60008AC
:1000B00001C10008E5C60008E9C60008EDC6000851
:1000C000F1C60008F5C60008F9C60008FDC600081C
:1000D00001C700081BC0000805C7000809C70008C1
:1000E0000DC7000811C7000815C7000819C7000888
:1000F0001DC7000821C7000825C7000829C7000838
:100100002DC7000831C7000835C7000839C70008E7
:100110003DC7000841C7000845C7000849C7000897
:100120004DC7000851C7000855C70008B5C00008F2
:10013000BFF34F8FDFF8C0130A6812F4E062DFF8F4
:10014000BC0302430A60BFF34F8F00BFFDE7C1F35A
:100150000F2202617047C1F30F224261704710B550
:100160000400200002F050F8042114F1D40002F041
:1001700062F8052114F1F40002F05DF810BD38B505
:1001800004000D002900200002F044F832BD2DE9E2
:10019000F84304000D0016005FF000093100200054
:1001A00002F038F807003900280002F06AF88046AB
:1001B0004046C0B2002810D0280002F054F83900A0
:1001C000280002F05EF880464046C0B2002804D005
:1001D000012080F31388FFF7ABFF5FFA88F84046F1
:1001E000BDE8F2832DE9F04104000D000026002750
:1001F000A178200002F0EAF8A06DA179405C012806
:1002000012D0C0F07181032874D03ED3052800F0CD
:10021000B180C0F08980072800F0F880C0F0D0805D
:10022000082800F019815FE10321200002F0D7F8CF
:10023000A06D6179415C200002F0C8F8A06DE17901
:10024000405CA16DE2791144497811EB0021A06D69
:10025000E2791044807810EB0120A16DE27911441D
:10026000C97811EB00210F003900280002F001F8D5
:1002700006003100C9B2200002F0A8F8A06DA179F3
:10028000415C200002F0A2F830E102F0C7F802F071
:10029000C9F84FF47A71484307000721200002F0A3
:1002A0009EF8A06D6179415C200002F08FF831006A
:1002B000C9B2200002F08AF8A06DA179415C20004B
:1002C00002F084F83900090EC9B2200002F07EF86D
:1002D0003900090CC9B2200002F078F83900090A87
:1002E000C9B2200002F072F83900C9B2200002F051
:1002F0006DF8FBE08248006801F0B5FF03212000A3
:1003000002F06DF8A06D6179415C200002F05EF8AA
:100310003100C9B2200002F059F8A06DA179415C0A
:10032000200002F053F8E1E0A06DE179405C002884
:1003300005D042F220017348FFF70DFF04E042F2BE
:1003400020017048FFF703FF0321200002F047F867
:10035000A06D6179415C200002F038F83100C9B22B
:10036000200002F033F8A06DA179415C200002F07A
:100370002DF8BBE0A06DE179405C002805D041F28A
:1003800010016048FFF7E7FE04E041F210015D480C
:10039000FFF7DDFE0321200002F021F8A06D617956
:1003A000415C200002F012F83100C9B2200002F0D6
:1003B0000DF8A06DA179415C200002F007F895E0EE
:1003C000A06DE179405C002805D048F280014D48DD
:1003D000FFF7C1FE04E048F280014A48FFF7B7FE8C
:1003E0000321200001F0FBFFA06D6179415C20003A
:1003F00001F0ECFF3100C9B2200001F0E7FFA06D71
:10040000A179415C200001F0E1FF6FE0A06DE1798E
:10041000405C002805D044F240013A48FFF79BFEBB
:1004200004E044F240013748FFF791FE0321200029
:1004300001F0D5FFA06D6179415C200001F0C6FF9D
:100440003100C9B2200001F0C1FFA06DA179415C6B
:10045000200001F0BBFF49E0A06DE179405C00287D
:1004600016D0DFF8A08042F220014046FFF773FE6D
:1004700041F210014046FFF76EFE48F2800140460F
:10048000FFF769FE44F240014046FFF764FE15E0C5
:10049000DFF8708042F220014046FFF758FE41F23B
:1004A00010014046FFF753FE48F280014046FFF737
:1004B0004EFE44F240014046FFF749FE0321200072
:1004C00001F08DFFA06D6179415C200001F07EFF9D
:1004D0003100C9B2200001F079FFA06DA179415C23
:1004E000200001F073FF01E0012006003000C0B2DF
:1004F000BDE8F081000000000CED00E00400FA050A
:1005000038000020000801402DE9F84F04000D00DC
:10051000160000275FF00008A178200001F056FFC8
:10052000A06DA179405C012821D0C0F0028303288E
:1005300077D049D3052800F0CE80C0F09F800728EF
:1005400000F02781C0F0F680092800F08081C0F01B
:100550004F810B2800F06D82C0F0F1810D2800F072
:10056000A882C0F086820E2800F0C382E1E2A06D6E
:10057000E179405CA16DE2791144497811EB0021E9
:10058000A06DE2791044807810EB0120A16DE27932
:100590001144C97811EB002188460321200001F0A5
:1005A0001EFFA06D6179415C200001F00FFF00216A
:1005B000200001F00BFFA06DA179415C200001F04B
:1005C00005FFC5F8C480B6E2A06DE179405CA16D7D
:1005D000E2791144497811EB0021A06DE2791044D1
:1005E000807810EB0120A16DE2791144C97811EBFC
:1005F000002188460321200001F0F1FEA06D617901
:10060000415C200001F0E2FE0021200001F0DEFE4E
:10061000A06DA179415C200001F0D8FEC5F8C8802A
:1006200089E2A06DE179405CA16DE27911444978DD
:1006300011EB0021A06DE2791044807810EB0120CD
:10064000A16DE2791144C97811EB0021884603219C
:10065000200001F0C4FEA06D6179415C200001F032
:10066000B5FE0021200001F0B1FEA06DA179415C32
:10067000200001F0ABFEC5F8CC805CE2A06DE17912
:10068000405CA16DE2791144497811EB0021A06D25
:10069000E2791044807810EB0120A16DE2791144D9
:1006A000C97811EB002188460321200001F097FE54
:1006B000A06D6179415C200001F088FE00212000DE
:1006C00001F084FEA06DA179415C200001F07EFE66
:1006D000C5F8D0802FE2D5F8C4008046072120005D
:1006E00001F07DFEA06D6179415C200001F06EFE9D
:1006F0000021200001F06AFEA06DA179415C20007C
:1007000001F064FE4146090EC9B2200001F05EFE10
:100710004146090CC9B2200001F058FE4146090AC1
:10072000C9B2200001F052FE4146C9B2200001F0DA
:100730004DFE00E2D5F8C80080460721200001F0F8
:100740004EFEA06D6179415C200001F03FFE00216A
:10075000200001F03BFEA06DA179415C200001F07A
:1007600035FE4146090EC9B2200001F02FFE414678
:10077000090CC9B2200001F029FE4146090AC9B29C
:10078000200001F023FE4146C9B2200001F01EFE08
:10079000D1E1D5F8CC0080460721200001F01FFEF2
:1007A000A06D6179415C200001F010FE0021200065
:1007B00001F00CFEA06DA179415C200001F006FE65
:1007C0004146090EC9B2200001F000FE4146090C65
:1007D000C9B2200001F0FAFD4146090AC9B2200061
:1007E00001F0F4FD4146C9B2200001F0EFFDA2E1A5
:1007F000D5F8D00080460721200001F0F0FDA06D63
:100800006179415C200001F0E1FD0021200001F050
:10081000DDFDA06DA179415C200001F0D7FD4146CE
:10082000090EC9B2200001F0D1FD4146090CC9B240
:10083000200001F0CBFD4146090AC9B2200001F0B9
:10084000C5FD4146C9B2200001F0C0FD73E1A06DB5
:10085000E179405CA16DE2791144497811EB002106
:10086000A06DE2791044807810EB0120A16DE2794F
:10087000114491F8039019EB0029C5F8C490A06DBC
:10088000E17908440079A16DE2791144497911EBCD
:100890000021A06DE2791044807910EB0120A16D58
:1008A000E279114491F807A01AEB002AC5F8C8A014
:1008B000A06DE1790844007AA16DE2791144497A8A
:1008C00011EB0021A06DE2791044807A10EB012039
:1008D000A16DE279114491F80BB01BEB002BC5F828
:1008E000CCB0A06DE1790844007BA16DE2791144A0
:1008F000497B11EB0021A06DE2791044807B10EB65
:100900000120A16DE2791144C97B11EB00218846D9
:10091000C5F8D0800321200001F061FDA06D617950
:10092000415C200001F052FD0021200001F04EFD4D
:10093000A06DA179415C200001F048FDFBE0D5F8F5
:10094000C4901321200001F04AFDA06D6179415C43
:10095000200001F03BFD0021200001F037FDA06DDB
:10096000A179415C200001F031FD4946090EC9B270
:10097000200001F02BFD4946090CC9B2200001F00E
:1009800025FD4946090AC9B2200001F01FFD49466C
:10099000C9B2200001F01AFDD5F8C8A05146090ED1
:1009A000C9B2200001F012FD5146090CC9B2200065
:1009B00001F00CFD5146090AC9B2200001F006FD04
:1009C0005146C9B2200001F001FDD5F8CCB059461E
:1009D000090EC9B2200001F0F9FC5946090CC9B250
:1009E000200001F0F3FC5946090AC9B2200001F0C9
:1009F000EDFC5946C9B2200001F0E8FCD5F8D00062
:100A000080464146090EC9B2200001F0DFFC414694
:100A1000090CC9B2200001F0D9FC4146090AC9B24B
:100A2000200001F0D3FC4146C9B2200001F0CEFC09
:100A300081E0D5F8C4102800FFF7A1FB01003000C9
:100A400001F017FC07000321200001F0C8FCA06D95
:100A50006179415C200001F0B9FC3900C9B2200085
:100A600001F0B4FCA06DA179415C200001F0AEFC66
:100A700061E0D5F8C8102800FFF781FB01003000C5
:100A800001F0F7FB07000321200001F0A8FCA06D96
:100A90006179415C200001F099FC3900C9B2200065
:100AA00001F094FCA06DA179415C200001F08EFC66
:100AB00041E0D5F8CC102800FFF761FB01003000C1
:100AC00001F0D7FB07000321200001F088FCA06D96
:100AD0006179415C200001F079FC3900C9B2200045
:100AE00001F074FCA06DA179415C200001F06EFC66
:100AF00021E0D5F8D0102800FFF741FB01003000BD
:100B000001F0B7FB07000321200001F068FCA06D95
:100B10006179415C200001F059FC3900C9B2200024
:100B200001F054FCA06DA179415C200001F04EFC65
:100B300001E0012007003800C0B2BDE8F28F38B5EF
:100B400004000D002900C9B2200001F06BFB32BD8A
:100B50002DE9F84306005FF0000800240025042179
:100B6000B01D01F093FC00273800C0B204282FDA32
:100B70003800C0B206EB4000C088002140F6E448CF
:100B80005FF00009A8FB002308FB013309FB0033D9
:100B900042F210785FF00009A8FB020108FB031184
:100BA00009FB0211B6F8BE20002301F0D3FCB6F811
:100BB000C020002301F0CEFC04000D002000000B3B
:100BC000401C3900C9B206EB4101C8817F1CCBE74C
:100BD0000020BDE8F283F8B504000D0016000027E0
:100BE000A06DA179405C01280BD0C0F0E281032800
:100BF00000F0CC8055D3052800F0D281C0F04181AF
:100C0000D7E1A178200001F0E1FB0B21200001F0E9
:100C1000E6FBA06D6179415C200001F0D7FB00216B
:100C2000200001F0D3FBA06DA179415C200001F010
:100C3000CDFBD5F8E410090EC9B2200001F0C6FBC7
:100C4000D5F8E410090CC9B2200001F0BFFBD5F8BB
:100C5000E410090AC9B2200001F0B8FBD5F8E4108D
:100C6000C9B2200001F0B2FBB5F8E81089B2090A58
:100C7000C9B2200001F0AAFBB5F8E810C9B2200003
:100C800001F0A4FBB5F8EA1089B2090AC9B2200044
:100C900001F09CFBB5F8EA10C9B2200001F096FB08
:100CA00089E1A06DE179405CC5F8E400D5F8E40085
:100CB000A16DE2791144497811EB0021C5F8E410E7
:100CC000D5F8E400A16DE2791144897811EB002197
:100CD000C5F8E410D5F8E400A16DE2791144C978B3
:100CE00011EB0021C5F8E410A06DE179084400790A
:100CF000A5F8E800B5F8E800A16DE279114449795A
:100D000011EB0021A5F8E810A06DE1790844807985
:100D1000A5F8EA00B5F8EA00A16DE2791144C979B5
:100D200011EB0021A5F8EA10B5F8EA00C92802DBAA
:100D3000C820A5F8EA00B5F8E800C5F8E000D5F845
:100D4000E010B5F8EA004143C5F8E010D5F8E0102E
:100D5000D5F8E4004118C5F8E010A178200001F0B2
:100D600035FB0321200001F03AFBA06D6179415C65
:100D7000200001F02BFB0021200001F027FBA06DDB
:100D8000A179415C200001F021FB14E1A178200051
:100D900001F01CFB1121200001F021FBA06D617905
:100DA000415C200001F012FB0021200001F00EFB4D
:100DB000A06DA179415C200001F008FBB5F8D610C8
:100DC00089B2090AC9B2200001F000FBB5F8D610BB
:100DD000C9B2200001F0FAFAB5F8D81089B2090AB0
:100DE000C9B2200001F0F2FAB5F8D810C9B220005B
:100DF00001F0ECFAB5F8EC1089B2090AC9B220008A
:100E000001F0E4FAB5F8EC10C9B2200001F0DEFA06
:100E1000B5F8EE1089B2090AC9B2200001F0D6FA7D
:100E2000B5F8EE10C9B2200001F0D0FAB5F8F01014
:100E300089B2090AC9B2200001F0C8FAB5F8F01069
:100E4000C9B2200001F0C2FAB5F8DA1089B2090A75
:100E5000C9B2200001F0BAFAB5F8DA10C9B2200020
:100E600001F0B4FAB5F8DC1089B2090AC9B2200061
:100E700001F0ACFAB5F8DC10C9B2200001F0A6FA16
:100E800099E0A06DE179405CA5F8D600B5F8D600F0
:100E9000A16DE2791144497811EB0021A5F8D61033
:100EA000A06DE17908448078A5F8D800B5F8D8009D
:100EB000A16DE2791144C97811EB0021A5F8D81091
:100EC000A06DE17908440079A5F8EC00B5F8EC00D4
:100ED000A16DE2791144497911EB0021A5F8EC10DC
:100EE000B5F8EC00152802DB1420A5F8EC00A06D85
:100EF000E17908448079A5F8EE00B5F8EE00A16D1F
:100F0000E2791144C97911EB0021A5F8EE10A06D2A
:100F1000E1790844007AA5F8F000B5F8F000A16D79
:100F2000E2791144497A11EB0021A5F8F010A06D87
:100F3000E1790844807AA5F8DA00B5F8DA00A16D05
:100F4000E2791144C97A11EB0021A5F8DA10A06DFD
:100F5000E1790844007BA5F8DC00B5F8DC00A16D60
:100F6000E2791144497B11EB0021A5F8DC10A1784E
:100F7000200001F02BFA0321200001F030FAA06DCF
:100F80006179415C200001F021FA0021200001F08C
:100F90001DFAA06DA179415C200001F017FA0AE06A
:100FA000330015F1D4022900200000F0FAF90700FF
:100FB00001E0012007003800C0B2F2BDF8B504001E
:100FC0000D0016000027A06DA179405C01280BD010
:100FD000C0F0E281032800F0CC8055D3052800F052
:100FE000D281C0F04181D7E1A178200001F0EEF973
:100FF0000B21200001F0F3F9A06D6179415C200024
:1010000001F0E4F90021200001F0E0F9A06DA179E0
:10101000415C200001F0DAF9D5F80411090EC9B2DB
:10102000200001F0D3F9D5F80411090CC9B2200051
:1010300001F0CCF9D5F80411090AC9B2200001F079
:10104000C5F9D5F80411C9B2200001F0BFF9B5F80F
:10105000081189B2090AC9B2200001F0B7F9B5F840
:101060000811C9B2200001F0B1F9B5F80A1189B22E
:10107000090AC9B2200001F0A9F9B5F80A11C9B2EC
:10108000200001F0A3F989E1A06DE179405CC5F889
:101090000401D5F80401A16DE2791144497811EBFE
:1010A0000021C5F80411D5F80401A16DE2791144BD
:1010B000897811EB0021C5F80411D5F80401A16D60
:1010C000E2791144C97811EB0021C5F80411A06D33
:1010D000E17908440079A5F80801B5F80801A16D87
:1010E000E2791144497911EB0021A5F80811A06DAE
:1010F000E17908448079A5F80A01B5F80A01A16DE3
:10110000E2791144C97911EB0021A5F80A11B5F86B
:101110000A01C92802DBC820A5F80A01B5F80801B0
:10112000C5F80001D5F80011B5F80A014143C5F82A
:101130000011D5F80011D5F804014118C5F80011C7
:10114000A178200001F042F90321200001F047F9C5
:10115000A06D6179415C200001F038F90021200088
:1011600001F034F9A06DA179415C200001F02EF965
:1011700014E1A178200001F029F91121200001F0EB
:101180002EF9A06D6179415C200001F01FF900216A
:10119000200001F01BF9A06DA179415C200001F055
:1011A00015F9B5F8F61089B2090AC9B2200001F0A4
:1011B0000DF9B5F8F610C9B2200001F007F9B5F83D
:1011C000F81089B2090AC9B2200001F0FFF8B5F899
:1011D000F810C9B2200001F0F9F8B5F80C1189B285
:1011E000090AC9B2200001F0F1F8B5F80C11C9B232
:1011F000200001F0EBF8B5F80E1189B2090AC9B266
:10120000200001F0E3F8B5F80E11C9B2200001F09A
:10121000DDF8B5F8101189B2090AC9B2200001F051
:10122000D5F8B5F81011C9B2200001F0CFF8B5F823
:10123000FA1089B2090AC9B2200001F0C7F8B5F85E
:10124000FA10C9B2200001F0C1F8B5F8FC1089B25B
:10125000090AC9B2200001F0B9F8B5F8FC10C9B20A
:10126000200001F0B3F899E0A06DE179405CA5F8A9
:10127000F600B5F8F600A16DE2791144497811EB5A
:101280000021A5F8F610A06DE17908448078A5F852
:10129000F800B5F8F800A16DE2791144C97811EBB6
:1012A0000021A5F8F810A06DE17908440079A5F8AF
:1012B0000C01B5F80C01A16DE2791144497911EBEB
:1012C0000021A5F80C11B5F80C01152802DB14203B
:1012D000A5F80C01A06DE17908448079A5F80E010C
:1012E000B5F80E01A16DE2791144C97911EB002125
:1012F000A5F80E11A06DE1790844007AA5F8100157
:10130000B5F81001A16DE2791144497A11EB002181
:10131000A5F81011A06DE1790844807AA5F8FA00CB
:10132000B5F8FA00A16DE2791144C97A11EB0021F8
:10133000A5F8FA10A06DE1790844007BA5F8FC003F
:10134000B5F8FC00A16DE2791144497B11EB002155
:10135000A5F8FC10A178200001F038F80321200046
:1013600001F03DF8A06D6179415C200001F02EF89C
:101370000021200001F02AF8A06DA179415C200035
:1013800001F024F80AE0330015F1F40229002000EE
:1013900000F007F8070001E0012007003800C0B2A4
:1013A000F2BD2DE9F94F8BB00D00160000275FF05C
:1013B00000080020ADF800005FF0000905A800213A
:1013C000016007A800210022C0E9001202A8002144
:1013D000016001A80021016009A800210022C0E9E4
:1013E000001204A8002101603069039000200690DB
:1013F00001F0DBF95FF0000B584680B204281EDADA
:101400000020594689B205EB4101A1F8B600002041
:1014100005A95A4692B28854002007A95A4692B2AA
:1014200021F81200002002A95A4692B288540020E6
:1014300001A95A4692B288541BF1010BDCE70B98C4
:1014400081780B9800F0C2FFF08AC0000C300100D8
:1014500089B20B9800F0C3FF31780B9800F0B6FF0B
:1014600000210B9800F0B2FF05210B9800F0AEFFB1
:10147000306980B24FF4FA6190FBF1F080B2C000A5
:10148000001DADF80200BDF80210C9B20B9800F0C3
:101490009DFF0020ADF8020042F22001DFF8E408D1
:1014A000FEF759FE41F21001DFF8D808FEF753FEAF
:1014B00048F28001DFF8CC08FEF74DFE44F240010F
:1014C000DFF8C008FEF747FEDFF80C9DDFF80C1DC3
:1014D0004846FEF740FEDFF8081D4846FEF73BFE93
:1014E000DFF8001D4846FEF736FE40F60801DFF83B
:1014F000F80CFEF730FE44F240014846FEF72BFEA2
:1015000048F280014846FEF726FEDFF8E01C484618
:10151000FEF721FEDFF8D81C4846FEF71CFE5FF000
:10152000000A5046F18A80B2884280F0EF81DFF8ED
:10153000AC1C4846FEF70FFEDFF8A41C4846FEF739
:1015400006FEDFF8A01C4846FEF705FE40F608013F
:10155000DFF8940CFEF7FBFD44F240014846FEF72D
:10156000FAFD48F280014846FEF7F1FDDFF87C1CE9
:101570004846FEF7F0FDDFF878BC59464846FEF7CE
:10158000E6FD0399280001F061FB069006990C988E
:1015900000F06FFE0399B08A41180391DFF8401CF8
:1015A0004846FEF7D8FDDFF8341C4846FEF7CFFD6D
:1015B00040F60801DFF8300CFEF7CDFDDFF8241C03
:1015C0004846FEF7C4FD48F280014846FEF7C3FDD9
:1015D00044F240014846FEF7BAFD59464846FEF738
:1015E000BAFDDFF8081C4846FEF7B1FD052001F002
:1015F000B7FC504680B2032802DA012001F0B0FCAB
:101600002800FFF7A5FA002007003800C0B2042820
:1016100080F27781504680B2002817D13800C0B2DE
:1016200005EB4000C089B188884208D37088C83073
:101630003900C9B205EB4101C989884206DA0120A7
:101640003900C9B205EB4101A1F8B6003800C0B2BB
:1016500005EB4000B0F8B60000281DD1504680B21E
:10166000F18A491E884217D13800C0B205EB40000C
:10167000C0893189884207D3F0883900C9B205EBA7
:101680004101C989884207D21AF101003900C9B263
:1016900005EB4101A1F8B6003800C0B205EB4000EF
:1016A000B0F8B600002840F0168105A93800C0B295
:1016B000085C002809D13800C0B205EB4000C089A1
:1016C00007AA3B00DBB222F813003800C0B2085C66
:1016D000401C3A00D2B2885409A83A00D2B230F87D
:1016E00012203B00DBB205EB4303DB899A4207D0B3
:1016F000002204ABBC465FFA8CFC03F80C2016E019
:1017000004AA3B00DBB2D35C5B1CBC465FFA8CFCDA
:1017100002F80C303B00DBB2D25C042A07DB1AF182
:1017200001023B00DBB205EB4303A3F8B6203A000D
:10173000D2B205EB4202D2893B00DBB220F8132083
:101740005046328B80B2904210D23900C9B2282064
:10175000414305EB0100514689B200EB41003900DD
:10176000C9B205EB4101C989C182B4E028203A0021
:10177000D2B242432A441632140000229046424616
:10178000D2B2338B5B1E9A4205DA62882280A41C97
:1017900018F10108F3E73A00D2B205EB4202D28910
:1017A00022800122ADF800203A00D2B242432A44FE
:1017B000D28A3B00DBB205EB4303DB899A420ED2AF
:1017C0003A00D2B205EB4202D2893B00DBB200FB09
:1017D00003F02844C08A121AADF8002019E03A003C
:1017E000D2B205EB4202D2893B00DBB243432B4429
:1017F000DB8A9A420DD23A00D2B200FB02F02844B2
:10180000C28A3800C0B205EB4000C089121AADF898
:101810000020BDF80000B28B904215D202A83A0019
:10182000D2B2825C521C3B00DBB2C2543A00D2B24C
:10183000805C04282DDB1AF101003A00D2B205EBDE
:101840004202A2F8B60024E0708BBDF8002090425E
:1018500015D201A83A00D2B2825C521C3B00DBB226
:10186000C2543A00D2B2805C042812DB1AF10100A3
:101870003A00D2B205EB4202A2F8B60009E000201D
:1018800002AA3B00DBB2D054002001AA3B00DBB22D
:10189000D0543800C0B2085C14281CDB00203A0089
:1018A000D2B288543800C0B205EB4000C18907A805
:1018B0003A00D2B230F81200091AADF80010BDF8A3
:1018C0000000052807DA1AF101003900C9B205EB5A
:1018D0004101A1F8B6003800C0B205EB4000C18953
:1018E00089B2090AC9B20B9800F070FD3800C0B285
:1018F00005EB4000C189C9B20B9800F067FD7F1C61
:1019000083E601F039FB1AF1010A0AE65FF0000BE9
:101910005846C0B2042818DA5846C0B205EB400059
:10192000B0F8B61089B2090AC9B20B9800F04EFDA2
:101930005846C0B205EB4000B0F8B610C9B20B98DB
:1019400000F044FD1BF1010BE2E7DFF8387442F2CE
:1019500020013800FEF7FBFB41F210013800FEF7D2
:10196000F6FB48F280013800FEF7F1FB44F240013B
:101970003800FEF7ECFBDFF864184846FEF7EBFB97
:10198000DFF85C184846FEF7E2FBDFF858184846D7
:10199000FEF7E1FB40F60801DFF84C08FEF7D7FB45
:1019A00044F240014846FEF7D6FB48F28001484623
:1019B000FEF7CDFBDFF834184846FEF7CCFBDFF826
:1019C00030184846FEF7C3FB0C9800F04CFC00F0C2
:1019D000E8FE00200DB0BDE8F08F70B504000D00EA
:1019E0000026A06DA179405C012811D0C0F05E8175
:1019F000032851D029D3052800F0928073D30728FB
:101A000000F0DE80C0F0B480082800F012814DE1C3
:101A1000A178200000F0DAFC0421200000F0DFFCB7
:101A2000A06D6179415C200000F0D0FC0021200015
:101A300000F0CCFCA06DA179415C200000F0C6FC58
:101A40002978200000F0C2FC32E1A178200000F0EB
:101A5000BDFC0521200000F0C2FCA06D6179415C55
:101A6000200000F0B3FC0021200000F0AFFCA06DCE
:101A7000A179415C200000F0A9FCB5F8BE1089B244
:101A8000090AC9B2200000F0A1FCB5F8BE10C9B225
:101A9000200000F09BFC0BE1A178200000F096FCF8
:101AA0000521200000F09BFCA06D6179415C2000C5
:101AB00000F08CFC0021200000F088FCA06DA179D2
:101AC000415C200000F082FCB5F8C01089B2090A20
:101AD000C9B2200000F07AFCB5F8C010C9B22000ED
:101AE00000F074FCE4E0A06DE179405C2870A1781E
:101AF000200000F06BFC0321200000F070FCA06DC2
:101B00006179415C200000F061FC0021200000F0C0
:101B10005DFCA06DA179415C200000F057FCC7E09E
:101B2000A06DE179405CA5F8BE00B5F8BE00A16DDE
:101B3000E2791144497811EB0021A5F8BE10A17893
:101B4000200000F043FC0321200000F048FCA06DC1
:101B50006179415C200000F039FC0021200000F098
:101B600035FCA06DA179415C200000F02FFC9FE0C6
:101B7000A06DE179405CA5F8C000B5F8BE00A16D8C
:101B8000E2791144497811EB0021A5F8C010A17841
:101B9000200000F01BFC0321200000F020FCA06DC1
:101BA0006179415C200000F011FC0021200000F070
:101BB0000DFCA06DA179415C200000F007FC77E0EE
:101BC000A178200000F002FC0821200000F007FCB2
:101BD000A06D6179415C200000F0F8FB002120003D
:101BE00000F0F4FBA06DA179415C200000F0EEFB59
:101BF0002978200000F0EAFBB5F8BE1089B2090A86
:101C0000C9B2200000F0E2FBB5F8BE10C9B2200056
:101C100000F0DCFBB5F8C01089B2090AC9B2200097
:101C200000F0D4FBB5F8C010C9B2200000F0CEFB24
:101C30003EE0A06DE179405C2870A06DE179084438
:101C40004078A5F8BE00B5F8BE00A16DE279114458
:101C5000897811EB0021A5F8BE10A06DE179084448
:101C6000C078A5F8C000B5F8C000A16DE2791144B4
:101C7000097911EB0021A5F8C010A178200000F02F
:101C8000A5FB0321200000F0AAFBA06D6179415C57
:101C9000200000F09BFB0021200000F097FBA06DCE
:101CA000A179415C200000F091FB01E001200600D9
:101CB0003000C0B270BDF8B504000D00160000275A
:101CC000A06D6179405C002808D002280DD006D3B1
:101CD000042816D010D305281AD020E021E03100C6
:101CE0002000FEF77FFA07001BE0320029002000E9
:101CF000FEF70AFC070014E029002000FFF76DFE44
:101D00000FE0320029002000FEF765FF070008E021
:101D1000320029002000FFF751F9070001E00120FF
:101D200007003800C0B2F2BD70B504000D00160007
:101D3000200000F029FB01281FD1200000F05EFBED
:101D400000280FD1200000F05FFB00280AD13200EC
:101D500029002000FFF7AFFF00280AD1200000F083
:101D600047FB06E02278521EDFF88814200001F0BD
:101D700035FF200000F002FB02E0200000F00AFB2B
:101D800070BD00000008014080B500F05DFA02BDA2
:101D9000F8B5040002F08CF80425002614F1B6070B
:101DA00032002900380002F0A7F80020F2BD80B50B
:101DB00002F082F8002002BD38B5040000200025A2
:101DC0002800C0B204283FDA2800C0B2002805D09D
:101DD000022817D00CD303281ED027E02800C0B259
:101DE00004EB4000B0F8B600C0B202F069F829E098
:101DF0002800C0B204EB4000B0F8B600C0B202F058
:101E000066F81FE02800C0B204EB4000B0F8B6004E
:101E1000C0B202F063F815E02800C0B204EB400045
:101E2000B0F8B600C0B202F060F80BE0012002F09A
:101E300047F8012002F04BF8012002F04FF8012092
:101E400002F053F86D1CBBE7002032BD2DE9F14FC5
:101E50000C0015001E00FFF797FF07003800C0B206
:101E6000FF2801D10220B4E13800C0B20F2847D1C9
:101E7000DFF8848342F220014046FEF768F941F220
:101E800010014046FEF763F948F280014046FEF734
:101E90005EF944F240014046FEF759F9280000F08F
:101EA000E2F9DFF85883DFF858B359464046FEF7A9
:101EB0004EF940F2022949464046FEF748F9DFF85C
:101EC00044A340F204415046FEF741F959465046BA
:101ED000FEF73DF9DFF818B359464046FEF737F9EB
:101EE00040F201114046FEF732F949465046FEF7EE
:101EF0002EF959465046FEF72AF900F052FC60E1EF
:101F00003000C0B2002801D1032062E1DFF8EC927A
:101F1000DFF8EC8241464846FEF719F940F2022A02
:101F200051464846FEF713F9DFF8D8B240F20441B3
:101F30005846FEF70CF941465846FEF708F9DFF817
:101F4000B08241464846FEF702F940F20111484688
:101F5000FEF7FDF851465846FEF7F9F84146584657
:101F6000FEF7F5F83100C9B22000FEF7E8FD2000C9
:101F7000FFF70EFF3800C0B201280BD0C0F004817B
:101F8000032841D023D3052878D05AD3062800F05F
:101F9000B880F9E0D4F8C42029002000FEF7F7F853
:101FA000DFF8548242F220014046FEF7D4F841F2B5
:101FB00010014046FEF7CFF848F280014046FEF798
:101FC000CAF844F240014046FEF7C5F8F4E0D4F800
:101FD000C82029002000FEF7DAF8DFF81C8242F260
:101FE00020014046FEF7B7F841F210014046FEF7E7
:101FF000B2F848F280014046FEF7ADF844F24001E5
:102000004046FEF7A8F8D7E0D4F8CC2029002000FD
:10201000FEF7BDF8DFF8E08142F220014046FEF70E
:102020009AF841F210014046FEF795F848F2800117
:102030004046FEF790F844F240014046FEF78BF828
:10204000BAE0D4F8D02029002000FEF7A0F8DFF88D
:10205000A88142F220014046FEF77DF841F21001CE
:102060004046FEF778F848F280014046FEF773F8E4
:1020700044F240014046FEF76EF89DE02B0014F15B
:10208000D40221000098FFF78CF9DFF86CB142F21E
:1020900020015846FEF75BF841F210015846FEF762
:1020A00056F848F2800949465846FEF750F844F27F
:1020B000400A51465846FEF74AF8DFF81CB1474936
:1020C0005846FEF748F846495846FEF744F8454951
:1020D0005846FEF740F840F608014348FEF73BF843
:1020E00051465846FEF737F849465846FEF733F84A
:1020F0003E495846FEF72FF841465846FEF72BF862
:102100005AE02B0014F1F40221000098FFF749F97E
:10211000DFF8E4B042F220015846FEF718F841F229
:1021200010015846FEF713F848F280094946584610
:10213000FEF70DF844F2400A51465846FEF707F8FC
:10214000DFF894B025495846FEF705F8244958466B
:10215000FEF701F823495846FDF7FDFF40F6080158
:102160002148FDF7F8FF51465846FDF7F4FF494670
:102170005846FDF7F0FF1D495846FDF7ECFF414674
:102180005846FDF7E8FF17E0DFF86C8042F22001C7
:102190004046FDF7DCFF41F210014046FDF7D7FF56
:1021A00048F280014046FDF7D2FF44F2400140462C
:1021B000FDF7CDFFFF2007002000FFF7FDFDFFF733
:1021C000F6FD3800C0B2FF2801D00020070038001B
:1021D000C0B2BDE8F28F00000010014020002004D2
:1021E0004000400480008004000C01400100010414
:1021F0000200020404C50008000801400018014064
:10220000040004040014014010B50400200000F094
:1022100013FD10BD38B504000D002900200000F0AA
:1022200015FD32BD38B504000D002900C9B22000EB
:1022300000F06DFD32BD38B504000D002900C9B2B3
:10224000200000F080FD32BD80B500F035FE02BDFB
:1022500070B504000D0016003200D2B22900200033
:1022600001F07DFE70BD10B50400200001F082FE7B
:1022700010BD38B504000D002900200001F080FEDB
:1022800032BD38B504000D002900200001F080FEA9
:1022900032BD10B50400200001F082FE10BDF0B484
:1022A0000246106895681318506803EB5004C00785
:1022B0001DD54D441BE013F8017B05F8017B491E39
:1022C000F9D1A0B1B60813F8011B06F00306032EDE
:1022D00008BF13F8016B01EB06214942801C294419
:1022E00005D011F8016B05F8016B401EF9D1A3422E
:1022F0000ED013F8016B16F0030104BF13F8011B95
:10230000C91C30090F28DAD113F8010B0F30D6E7BA
:10231000F0BC02F10C0070472DE9F04F85B00600CB
:102320000F00904699460E9CDDF83CA0109DDDF80C
:1023300044B000208DF81000CDF80CB02800C0B2D9
:102340000290CDF804A0200080B200904B46DBB292
:102350004246390089B2300001F028FE8DF81000A5
:102360000520019004200090032303220021300067
:1023700001F050FEC0B205B0BDE8F08F10B504000A
:10238000200001F060FE10BD10B50400200001F037
:1023900060FE10BD10B504000121200001F05FFEB9
:1023A00010BD38B504000D002900C9B2200001F0AD
:1023B0005FFE32BD10B50400200001F068FE10BDC4
:1023C00010B50400200001F068FE10BD38B504000F
:1023D0000D002900C9B2200001F065FE32BD38B5FC
:1023E00004000D00290089B2200001F065FE32BD15
:1023F00010B50400200001F068FE10BD10B5040007
:10240000200001F068FE10BD10B50400200001F0AE
:1024100038FE10BD80B501F064FE01BD80B501F04D
:1024200064FE01BD80B501F064FE02BD38B5040054
:102430000D002900C9B2200001F05FFE31BD30B4AB
:10244000002513E050F8042BD30744BFA9F1010382
:102450009A18091F042942F8045BFAD213468C0724
:1024600044BF15809B1CC90748BF1D7050F8041B52
:102470000029E7D130BC704780B501F047FE02BDAE
:1024800010B50400200001F04BFE10BD2DE9F0470F
:1024900004000D0000272B4801F03CFE2800C0B2CC
:1024A000032802DB284801F035FE284E306800780A
:1024B0000028FAD02800C0B2032804DB24480068B2
:1024C00000780028FAD0306801F030FE2800C0B251
:1024D000032803DB1E48006801F028FE5FF00008B7
:1024E00040462900C0B2C9B2884228D24046C0B294
:1024F000002805D002280BD006D303280DD011E008
:1025000030684088208017E030688088608013E061
:102510000F4800684088A0800EE00D480068808861
:10252000E08009E02F00FFB25FF00009A2464A46B2
:102530003900504601F0E0FC18F10108D0E7002016
:10254000BDE8F08700240140003C0140000000206D
:1025500004000020BBBBE1B1B2F5803F80F07E807B
:10256000022A1ED98C46B1FBF2F102FB11C31B04F7
:1025700043EA1043B3FBF2FC02FB1C3380B240EA97
:102580000343B3FBF2F002FB103240EA0C4000239D
:102590007047022A05D98446B0FBF2F002FB10C254
:1025A00070474AB105D100F0010249085FEA3000E6
:1025B000704700220023704701F0BEBD0B000200EF
:1025C000002100207047904271EB030CF6D3B3F565
:1025D000803F2FD2F0B5B3FA83F7B1FA81F4A7F1B7
:1025E0000F0E3D1B5340CEF1200602FA0EF2F341CE
:1025F0005340B5F10F0746D80F3C2C444140C4F17D
:102600002006A040F1414140B1FBF3F603FB161157
:10261000A2FB0645001BA94102D2761E8018594133
:1026200080EA010221FA0EF362FA0EF200215A400A
:102630003046F0BD30B4B1FBF3FC03FB1C11A2FB30
:102640000C45001BA94103D2ACF1010C8018594183
:1026500030BC02460B46604600217047B2F1807FD5
:1026600065D3F0B5B2FA82F7B1FA81F4C7F10F067B
:102670003D1B22FA06F307F1110EF24120355A40B4
:10268000B5F10F07B8D94140C4F12006A040F1418F
:102690004140B1FBF3FC03FB1C11A2FB0C45001BEA
:1026A000A94103D2BCF1010C801859410F2F12D35C
:1026B0000F3FC90341EA5041B1FBF3F603FB16118A
:1026C000A2FB0645D4EBC030A94102D2761E801889
:1026D000594146EACC3C07B34140C7F12006B84017
:1026E000F1414140B1FBF3F603FB1611A2FB064595
:1026F000001BA94102D2761E8018594180EA0102CE
:1027000021FA0EF3C7F1200462FA0EF20CFA07F078
:102710005A402CFA04F13043F0BD80EA010221FA5C
:102720000EF3002162FA0EF260465A40F0BD8C466C
:10273000B1FBF2F102FB11C31B0243EA1063B3FBCE
:10274000F2FC02FB1C331B024CEA002043EA10633C
:10275000B3FBF2FC02FB1C331B024CEA002043EAF1
:102760001063B3FBF2FC02FB1C331B024CEA00209B
:1027700043EA1063B3FBF2FC02FB1C324CEA00207C
:102780000023704780B501F0D8FC01BD10B50400EE
:102790002000C0B201F0D5FC10BD80B501F0D8FC1E
:1027A00001BD80B501F0D8FC01BD80B501F0D8FCB9
:1027B00001BD80B501F0D8FC02BD80B501F0D8FCA8
:1027C00001BD10B504000F20FFF7E0FFFFF7E5FFA4
:1027D000FFF7E7FF10BD80B501F0CEFC01BDB1F5FC
:1027E000807F02D34FF0FF307047017001207047A7
:1027F0000078401E8041C043C00F7047806810EAD7
:10280000112080B2C1F30F21884201D1012000E0E4
:102810000020C0B27047C1F30F220261704730B58B
:1028200085B0DFF86C460121200001F0A9FC0121F0
:10283000200001F0A5FC0121200001F0A1FC0121F4
:10284000200001F09DFC6846142101F0B3FC01203A
:10285000019001200290002003900120049042F298
:10286000200500956946200001F012FD2900200096
:10287000FFF7D1FF41F2100500956946200001F0F5
:1028800007FD29002000FFF7C6FF48F280050095EC
:102890006946200001F0FCFC29002000FFF7BBFF87
:1028A00044F2400500956946200001F0F1FC290042
:1028B0002000FFF7B0FF05B030BD2DE9F04F85B027
:1028C000DFF8D0450121200001F05AFC0121200051
:1028D00001F056FC0121200001F052FC01212000F2
:1028E00001F04EFC0121200001F04AFC01212000F2
:1028F00001F046FC0121200001F042FC01212000F2
:1029000001F03EFCDFF890550121280001F038FC71
:102910000121280001F034FC0121280001F030FCE5
:102920000121280001F02CFC0121280001F028FCE5
:102930000121280001F024FC0121280001F020FCE5
:102940000121280001F01CFC6846142101F032FC32
:1029500001200190012002900420039001200490A6
:10296000DFF8380500906946200001F091FCDFF89F
:102970002C152000FFF74FFFDFF82465009669460D
:10298000200001F085FC31002000FFF744FFDFF854
:10299000147500976946200001F07AFC3900200088
:1029A000FFF739FFDFF80085CDF800806946200089
:1029B00001F06EFC41462000FFF72DFF44F2400974
:1029C000CDF800906946200001F062FC49462000E5
:1029D000FFF721FF42F2200ACDF800A0694620004F
:1029E00001F056FC51462000FFF715FF41F2100B95
:1029F000CDF800B06946200001F04AFC594620009D
:102A0000FFF709FF40F6080000906946200001F03A
:102A10003FFC40F608012000FFF7FDFE48F280046D
:102A200000946946280001F033FC21002800FFF7DC
:102A3000F2FECDF800906946280001F029FC4946D5
:102A40002800FFF7E8FECDF800A06946280001F055
:102A50001FFC51462800FFF7DEFECDF800B06946A6
:102A6000280001F015FC59462800FFF7D4FEDFF8D6
:102A70002C0400906946280001F00AFCDFF81C14C1
:102A80002800FFF7C8FE00966946280001F000FC08
:102A900031002800FFF7BFFE00976946280001F0CB
:102AA000F7FB39002800FFF7B6FECDF80080694635
:102AB000280001F0EDFB41462800FFF7ACFE05B011
:102AC000BDE8F08F2DE9F8430400022020700425B2
:102AD0000026671C32002900380001F00DFA64203E
:102AE000A4F8BE006420A4F8C0004FF44840C4F825
:102AF000C4004AF68010C4F8C80047F60C30C4F889
:102B0000CC004FF4B440C4F8D00004275FF00008B4
:102B100014F1B60942463900484601F0EDF94FF488
:102B2000E170A4F8D600FA20A4F8D8004FF4487158
:102B3000A4F8DA104FF4FA70A4F8DC0045F208208B
:102B4000C4F8E400C820A4F8E8003520A4F8EA009E
:102B5000B4F8EA00C4F8E000D4F8E020B4F8E800E3
:102B60004243C4F8E020D4F8E020D4F8E40082180E
:102B7000C4F8E020B4F8EA00C92802DBC820A4F8B1
:102B8000EA004FF46160A4F8F2000620A4F8EC001B
:102B90001420A4F8EE000220A4F8F000B4F8EC0031
:102BA000152802DB1420A4F8EC00A4F8F6104FF46A
:102BB0001670A4F8F8004FF4AF60A4F8FA0040F2E1
:102BC0004C40A4F8FC004AF2F870C4F80401C82094
:102BD000A4F808011620A4F80A01B4F80A01C4F800
:102BE0000001D4F80011B4F808014143C4F8001101
:102BF000D4F80011D4F804014118C4F80011B4F855
:102C00000A01C92802DBC820A4F80A0140F6C41052
:102C1000A4F812010620A4F80C011E20A4F80E014D
:102C20000220A4F81001B4F80C01152802DB1420CE
:102C3000A4F80C01BDE8F18310B504002000FFF7F3
:102C400041FFFFF7ECFDFFF738FE10BD2DE9F8431B
:102C500005000C0000260027287801280AD051D34F
:102C6000032819D018D305283AD027D3072813D022
:102C700036D347E0DFF834825FF0000922000023FA
:102C8000A2FB080102FB091103FB081141F63212F5
:102C90000023FFF75FFC38E0DFF814825FF00009E3
:102CA00022000023A2FB080102FB091103FB08110B
:102CB00049F26E620023FFF74DFC26E0DFF8F48155
:102CC0005FF0000922000023A2FB080102FB0911AA
:102CD00003FB08114FF448620023FFF73BFC14E0AC
:102CE000DFF8D0815FF0000922000023A2FB080179
:102CF00002FB091103FB08114FF4C8520023FFF730
:102D000029FC02E044F620600021BDE8F28310B403
:102D10000200002000231800C0B2042810DAC807FF
:102D200005D501201C00E4B21444607004E00020CA
:102D30001C00E4B214446070C9B249085B1CEAE7A5
:102D4000002010BC7047020011700020704738B599
:102D50000024504D51492800FFF750FD002801D1B3
:102D600054F001044E492800FFF748FD002801D126
:102D700054F002044B492800FFF740FD002801D120
:102D800054F0040448492800FFF738FD002801D119
:102D900054F008042000C0B232BD38B500243D4DC7
:102DA00044F240012800FFF729FD002801D154F02A
:102DB000010442F220012800FFF720FD002801D184
:102DC00054F0020441F210012800FFF717FD00281B
:102DD00001D154F0040440F608012800FFF70EFD6D
:102DE000002801D154F008042000C0B232BD38B52B
:102DF0000024294D48F280012800FFF7FFFC00283D
:102E000001D154F0010444F240012800FFF7F6FC20
:102E1000002801D154F0020442F220012800FFF7FB
:102E2000EDFC002801D154F0040441F21001280007
:102E3000FFF7E4FC002801D154F008042000C0B2E0
:102E400032BD38B50024144D14492800FFF7D6FCD4
:102E5000002801D154F0010411492800FFF7CEFCED
:102E6000002801D154F002040E492800FFF7C6FCE7
:102E7000002801D154F004040B492800FFF7BEFCE0
:102E8000002801D154F008042000C0B232BD000077
:102E90000008014000180140001401408000800437
:102EA000400040042000200410001004EA4C0F00F1
:102EB000001BB70040420F0070B5FFF748FF040049
:102EC000FFF76BFF05002543FFF791FF06002E4338
:102ED000FFF7B7FF0100314311F00F010800C0B246
:102EE000012816D033D3032817D014D3052818D0BF
:102EF00015D3072819D016D309281AD017D30B28B1
:102F00001BD018D30D281CD019D30F281DD01AD3CD
:102F10001DE001201CE002201AE0032018E004203C
:102F200016E0052014E0062012E0072010E008203B
:102F30000EE009200CE00A200AE00B2008E00C203B
:102F400006E00D2004E00E2002E00F2000E0FF204C
:102F5000C0B270BD10B50400200001F0E7F910BD4B
:102F600010B50400200001F0DBF910BD10B504001D
:102F7000200001F0E1F910BD80B501F0E3F902BDD8
:102F8000DFF8DC060068C0F302207047012210F071
:102F90001F018A40DFF8CC1603005BB25B0941F8E1
:102FA0002320704710B4020052B2002A0AD50A0149
:102FB000DFF8B436040064B214F00F04234403F8BD
:102FC000042C05E00A01DFF8A436040064B21A55A7
:102FD00010BC704770B4030013F00704D4F107006D
:102FE000052801D3042001E0D4F10700251D072D99
:102FF00001D2002500E0E51E012616FA00F0401E71
:103000000140A94016FA05F56D1E2A40114308003B
:1030100070BC704781B0DFF858160A6802430A6036
:10302000096801400091009901B07047DFF840162F
:103030000A6882430A60704781B0DFF838160A6870
:1030400002430A60096801400091009901B070478D
:10305000DFF820160A6882430A607047F0B510EB6B
:10306000116491FAA1F5B5FA85F391FAA1F6B6FAD1
:1030700086F7D4F800C05FF00F0EDBB29B001EFA9B
:1030800003FE3CEA0E0CFFB2BB0012FA03F353EA54
:103090000C0CC4F800C0F0BDC1F30F2202617047F0
:1030A000C1F30F2242617047C16851F40051C16001
:1030B0007047016931F490410161416931F02A01A1
:1030C000416170470068800910F001007047006896
:1030D000C00910F0010070477FF0400101607047A7
:1030E000C16851F02001C1607047C16851F04001D2
:1030F000C1607047C16851F08001C1607047C1680C
:1031000031F04001C1607047C16831F08001C16099
:103110007047C068800910F001007047C068C0099E
:1031200010F0010070470A00D2B2426070470100FF
:103130000020087000204870002088700020C870AF
:103140000020087100204871002088710020C8719B
:10315000002088600020C8600020086100204861CD
:1031600000208861002081F83C00002081F83D00AB
:10317000002081F83F00002081F840000020A1F8E5
:1031800042000020A1F844000020A1F846000020E1
:10319000A1F84800002081F83E00002081F84A0094
:1031A0000020C8640020086500204865002088656C
:1031B00000200877002048770020C877002081F899
:1031C000200000204884002088840020C88400203B
:1031D000088501208877002081F82A000020C86235
:1031E0000020086300204863002088630020C86531
:1031F000002070472DE9F84F04000F0090469946D3
:103200000A9DDDF82CA00C9EDDF834B02000FFF7FD
:103210008EFF84F83D90A4F84870C4F85880667713
:103220002585C4F838A0C4F85CB0002C08D0DFF8BD
:1032300048040068844203D1200000F099FD11E0A9
:10324000002C05D0002C03D1200000F023FE09E063
:10325000002C05D0002C03D1200000F01EFE01E060
:10326000022000E00020BDE8F28F38B504000D0018
:10327000E06800280ED02800C0B2012805D109223C
:10328000A168E068FFF7EAFE04E00822A168E068B0
:10329000FFF7E4FE002032BD38B504000D00606980
:1032A00000280CD02800C0B2012804D1216960692F
:1032B000FFF7F6FE03E021696069FFF7EDFE0020ED
:1032C00032BD70B504000D000026E06D002802D06C
:1032D000E06D804706002800C0B2002803D0E664F5
:1032E000E06C206502E0E662E06A2063002070BDC9
:1032F000F8B504000D0016000027E06D002803D08B
:10330000E06D8047801C07003000C0B200281FD04D
:103310002765E06C216D884209D2216DE06C091AA5
:103320008D4235D2012084F84A00012031E0206D21
:10333000E16C88422CD2E16C5FF0FF30411A206DC5
:1033400041188D4224D2012084F84A00012020E057
:103350002763E06A216B884209D2216BE06A091A6F
:103360008D4215D2012084F82A00012011E0206B43
:10337000E16A88420CD2E16A5FF0FF30411A206BAB
:1033800041188D4204D2012084F82A00012000E077
:103390000020F2BD70B504000D0000262800C0B268
:1033A00000281FD0E06C002842D0606D00283FD07C
:1033B000E06C002801D100203CE00122616D20007A
:1033C000FFF796FF06003000C0B2002830D0227808
:1033D000521EDFF87819200000F000FC200000F0F9
:1033E000B2FB25E0E06A002822D0606B00281FD0E5
:1033F000E06A002801D100201CE00022616B20005F
:10340000FFF776FF06003000C0B200280DD0E06A5A
:1034100000280AD02278521EDFF83419200000F06C
:10342000DDFB200000F0ADFB02E0002084F82A0064
:103430003000C0B270BD38B504000D00DFF81419BB
:103440000D7094F83F00002805D002283DD01CD311
:10345000032866D066E0B4F84400002814D16078F0
:103460000A78904210D10878A16D0870012084F884
:103470003F000120A4F8460001212000FFF721FFB2
:103480000121200000F04EFB4CE00878002814D009
:103490000878B4F84820D2B290420ED20878A26DD3
:1034A00050700878A4F84200B4F84600401CA4F814
:1034B0004600022084F83F0002E0002084F83F002C
:1034C00001212000FFF7FDFE2CE0A06DB4F84420A0
:1034D000104409788170B4F84400401CA4F84400FA
:1034E000B4F84600401CA4F84600B4F84400B4F810
:1034F000481080B2884202D30020A4F84400012181
:103500002000FFF7DEFEB4F84400B4F8421080B2A9
:10351000884205D3032084F83F00012084F83E0050
:1035200000E0FFE7002032BD38B504000D00DFF8F1
:1035300038190D7094F83F00002807D0022837D0C2
:103540001ED3042800F089805BD387E0B4F84400E0
:10355000002814D160780A78904210D10878A16DC3
:103560000870012084F83F000120A4F846000121E2
:103570002000FFF7A6FE0121200000F0D3FA6DE045
:103580000878A26D50700878A4F84200B4F84200A0
:103590000002A4F84200022084F83F00B4F846007C
:1035A000401CA4F8460001212000FFF78AFE55E0E8
:1035B0000878A26D9070B4F8422008788218A4F8B8
:1035C0004220B4F84600401CA4F84600B4F842007B
:1035D00000280ED0B4F84200B4F8481080B28842F7
:1035E00007D2B4F84200A4F84600032084F83F0054
:1035F00002E0002084F83F0001212000FFF761FE77
:103600002CE0A06DB4F8442010440978C170B4F8DF
:103610004400401CA4F84400B4F84600401CA4F840
:103620004600B4F84400B4F8481080B2884202D38F
:103630000020A4F8440001212000FFF742FEB4F866
:103640004400B4F8421080B2884205D3042084F8C4
:103650003F00012084F83E0000E0FFE7002032BD7B
:103660000CED00E000E100E018ED00E000E400E017
:103670001C100240181002403400002038B504002D
:103680000D00B4F84800FF2805DA2900C9B220006F
:10369000FFF7D1FE04E02900C9B22000FFF744FF84
:1036A00032BD38B504000D002900C9B2A069FFF78A
:1036B0003AFDA069FFF706FD002802D1FFF75CFC88
:1036C000F7E7A069FFF708FD002032BD10B5040040
:1036D000608C00282CD0A08C618C80B2884223D0D2
:1036E000A06BA18C415CA069FFF71DFDA08C401C64
:1036F000A084A08C218D80B2884201D30020A084B8
:10370000A08C618C80B2884218D3E08C002815D040
:10371000A08CE18C80B2884210D3A069FFF7F4FC42
:10372000A069FFF7E2FC09E0A069FFF7EDFC05E006
:10373000A069FFF7E9FC200000F023FA0021200037
:10374000FFF7BFFD002010BD10B504006069002820
:1037500009D0E07F002806D10D21A069FFF7E3FC26
:103760000120E07714E06069002809D0E07F01289B
:1037700006D10A21A069FFF7D6FC0220E07707E016
:103780000020E077A069FFF7BAFC200000F0F9F90B
:10379000002010BD38B504000D00A06B00281ED01D
:1037A000608C218D80B2884201D300206084A06BA0
:1037B000618C4554608C401C6084A069FFF7AEFCAE
:1037C00000280AD101212000FFF766FD0121200019
:1037D000FFF74BFDA069FFF78DFC002000E0012002
:1037E00032BD70B504000D000126A06B00283FD04B
:1037F000607F012802D0607F022801D16D1C08E0A3
:10380000607F032801D1AD1C03E0607F042800D154
:103810002D1D60792179401A002800D06D1C94F884
:103820002000012800D1AD1C208DFB280EDB2900D3
:1038300089B2090AC9B22000FFF7ACFF2900C9B25A
:103840002000FFF7A7FF0600ED1C06E02900C9B223
:103850002000FFF79FFF0600AD1C60792179401A18
:10386000002804D0E1782000FFF794FF0600E584EB
:103870003000C0B270BD38B50400607F002856D05B
:1038800000F068FD002852D10025607F01280AD190
:10389000618CA06B00F07DFD05002900C9B22000FD
:1038A000FFF778FF41E0607F02280BD1628CA16BAB
:1038B000072000F063FD05002900C9B22000FFF7D2
:1038C00069FF32E0607F032810D1618CA06B00F0AB
:1038D0004DFD05002900090AC9B22000FFF75AFF73
:1038E0002900C9B22000FFF755FF1EE0607F0428C1
:1038F0001BD1618CA06B00F031FD05002900090E81
:10390000C9B22000FFF746FF2900090CC9B2200008
:10391000FFF740FF2900090AC9B22000FFF73AFF6C
:103920002900C9B22000FFF735FF00200CE094F811
:103930002000012807D10D212000FFF72BFF0A21CD
:103940002000FFF727FF012032BDF8B50400002555
:103950000026B4F8427094F83D00002800F0E080A2
:1039600000F0F8FC002840F0DB8094F83D000128CE
:1039700023D17F1EB4F84800FA2809DAA06D4770F9
:10398000A06D390089B2084480780600BF1C0DE0A4
:10399000380080B2000AA16D4870A06D8770A06DDC
:1039A000390089B20844C0780600FF1C390089B28A
:1039B000A06D00F0EEFC0500AEE094F83D0002289A
:1039C00024D17F1EB4F84800FA2809DAA06D4770A8
:1039D000A06D390089B2084480780600BF1C0DE054
:1039E000380080B2000AA16D4870A06D8770A06D8C
:1039F000390089B20844C0780600FF1C3A0092B230
:103A0000A16D072000F0BAFC050085E094F83D00A8
:103A1000032831D1BF1EB4F84800FA2810DAA06D8F
:103A20004770A06D390089B208444078A16D3A0012
:103A300092B21144897811EB00210E00BF1C14E0F2
:103A4000380080B2000AA16D4870A06D8770A06D2B
:103A5000390089B208448078A16D3A0092B21144CD
:103A6000C97811EB00210E00FF1C390089B2A06D4E
:103A700000F07CFC05004FE094F83D0004284BD199
:103A80003F1FB4F84800FA281EDAA06D4770A06DF9
:103A9000390089B2084410F8010CA16D3A0092B2C5
:103AA000895C11EB0021A06D3A0092B2104440787D
:103AB00010EB0120A16D3A0092B21144897811EB0C
:103AC00000210E00BF1C21E0380080B2000AA16D69
:103AD0004870A06D8770A06D390089B2405CA16DFF
:103AE0003A0092B21144497811EB0021A06D3A00DE
:103AF00092B21044807810EB0120A16D3A0092B28E
:103B00001144C97811EB00210E00FF1C390089B265
:103B1000A06D00F023FC0500B54201D0012000E0BB
:103B20000020F2BD02000800C0B2002803D000202F
:103B300082F84A0002E0002082F82A000020704744
:103B400090F83E00704710B5040000212000FFF7F8
:103B5000A3FB002084F83F000020A4F842000020CE
:103B6000A4F844000020A4F84600002084F83E0099
:103B70000020E06400202065002084F84A00002036
:103B800010BD10B504000120A07700206084002043
:103B9000A0840020E0840020E06200202063002058
:103BA00084F82A000020E07700212000FFF774FB52
:103BB00000212000FFF759FB002010BD02005079C2
:103BC0001179401A002807D0906D1179405CD178A6
:103BD000884201D0012000E0002070470CB42DE99C
:103BE000F84F04000D00A069FFF798FA002807D0ED
:103BF000A069FFF76CFA002802D0FFF7BDF9F7E7DC
:103C0000A069FFF786FA00280DD0A069FFF75AFADD
:103C1000002805D0E07F002802D1FFF7ADF9F4E7D6
:103C2000A069FFF759FA01212000FFF735FB0121B8
:103C30002000FFF71AFB5FF0000A5FF0000B0AAEEE
:103C40008A4F33002A004FF48061380000F0AAFB4D
:103C500080465FF000094846414680B289B28842FA
:103C600008D2484680B2395C2000FFF71AFD19F1EE
:103C70000109F0E700212000FFF70EFB00212000E2
:103C8000FFF7F3FABDE8F10F5DF80CFB38B504005F
:103C90000D00774884420ED12800C0B2002804D01D
:103CA0004FF48040FFF7C8F903E04FF48040FFF77E
:103CB000CFF9002048E06F4884420ED12800C0B2FE
:103CC000002804D05FF40030FFF7A4F903E05FF4AC
:103CD0000030FFF7ABF9002036E0674884420ED190
:103CE0002800C0B2002804D05FF48020FFF792F9CA
:103CF00003E05FF48020FFF799F9002024E05F489B
:103D000084420ED12800C0B2002804D05FF4002005
:103D1000FFF780F903E05FF40020FFF787F9002048
:103D200012E0574884420ED12800C0B2002804D0C7
:103D30005FF48010FFF76EF903E05FF48010FFF787
:103D400075F9002000E0012032BD000024C5000804
:103D500044C500081649002070B40600039D049C69
:103D6000F17032717371B571F471002070BC7047DD
:103D7000F0B58BB00400434D0121280000F000FA9B
:103D80006846142100F016FA0920019003200290E1
:103D900000200390012004903B4E009669462800C5
:103DA00000F076FA39480090082001906946280012
:103DB00000F06EFA2E4F380000F077FB012138003A
:103DC000FFF764FF05A8182100F0F4F95FF4E13073
:103DD00005900020069000200790002008900C20FD
:103DE000099000200A9005A9380000F0A2FB3800D5
:103DF000FFF75FF9FFF7C4F800220221FFF7EAF8A6
:103E000001002520FFF7CEF82520FFF7BFF8380086
:103E1000FFF766F93800FFF747F9E560A660A7618C
:103E200002202070E06D002804D0642060656420CA
:103E3000606303E00020606500206063002060771D
:103E4000552060705A20A07000212000FFF724FA4E
:103E500000212000FFF709FA0D492000FFF7BEFE00
:103E600000200BB0F0BD000017490020D83E002014
:103E7000003801400044004000480040004C004031
:103E80000050004000080140020002040400040445
:103E900098C500080100002070470100002070470D
:103EA00080B500F0A5FB01BD80B500F0A5FB02BD0B
:103EB00080B500F0A5FB01BD80B500F0A5FB01BDFC
:103EC00010B504002000C0B200F0A2FB10BD10B578
:103ED00004002000C0B200F0A2FB10BD10B5040029
:103EE0002000C0B200F0A2FB10BD10B504002000FD
:103EF000C0B200F0A2FB10BD62F30F2262F31F42BA
:103F0000401810F0030308D0C91A1FD3DB0748BFBD
:103F100000F8012D28BF20F8022D130030B41446FC
:103F20001546103928BF20E93C00FAD8490728BFB8
:103F300020E90C0048BF40F8042D890028BF20F874
:103F4000022D48BF00F8012D30BC7047C91818BFBA
:103F500000F8012DCB0728BF00F8012D704770B580
:103F600004000D0016003200D2B22900200000F03B
:103F7000D4FB70BD10B50400200000F0E2FD10BDC0
:103F800038B504000D002900200000F055FE32BDB8
:103F900038B504000D002900200000F0BFFE32BD3E
:103FA00010B50400200000F0C8FE10BD2DE9F34F4D
:103FB00085B0060017009846109CDDF84490129DCD
:103FC000DDF84CA000208DF81000CDF80CA02800E2
:103FD000C0B20290CDF80490200080B20090434619
:103FE000DBB23A00BDF818103000FFF703F9834642
:103FF0005846C0B2002808D100F0ACF9002804D01F
:10400000002086F83D00002070775846C0B207B007
:10401000BDE8F08F2DE9FE4306000F00904699465B
:104020000A9D0B9C2000C0B201902800C0B20090F5
:104030004B46DBB24246D2B23900C9B23000FFF77C
:104040008BFEBDE8FE8310B504002000FFF77BFD6A
:1040500010BD10B504002000FFF772FD10BD38B58B
:1040600004000D002900C9B22000FFF793F932BD0A
:1040700038B504000D002900C9B22000FFF7FEFA90
:1040800032BD10B504002000FFF798FD10BD10B53B
:1040900004002000FFF71AFB10BD10B5040020003B
:1040A000FFF752FB10BD38B504000D002900C9B25E
:1040B0002000FFF76FFB32BD38B504000D0029006A
:1040C00089B22000FFF78DFB32BD10B5040020003F
:1040D000FFF7D1FB10BD10B504002000FFF735FC41
:1040E00010BD80B501F0D2F801BD80B501F089F8AE
:1040F00001BD80B501F0C6F802BD38B504000D0061
:104100002900C9B2200001F0C5F831BD80B501F029
:104110002FFD02BD10B50400200001F02FFD10BDE1
:1041200010B50400200001F058FD10BD10B50400CA
:10413000200001F0A5FD10BD704780B502F014F914
:1041400001BD10B504002000C0B202F01BF910BD83
:1041500080B502F033F901BD80B502F080F901BDF0
:1041600080B502F0CCF901BD80B502F011FA02BDB4
:1041700080B502F0AFFB01BD80B502F0E1FC01BDEE
:1041800038B504000D002900C9B2200003F0B4FBCB
:1041900031BD80B503F0B9FB01BD8268521C82605D
:1041A000426832B10268531C036011704168491EB5
:1041B00041607047002203F0ADBB0000F0B510EB8A
:1041C000116491FAA1F5B5FA85F391FAA1F6B6FA60
:1041D00086F7D4F800C05FF00F0EDBB29B001EFA2A
:1041E00003FE3CEA0E0CFFB2BB0012FA03F353EAE3
:1041F0000C0CC4F800C0F0BDF0B510EB116491FADE
:10420000A1F5B5FA85F391FAA1F6B6FA86F7D4F8D6
:1042100000C05FF0030EDBB29B001EFA03FE3CEA17
:104220000E0CFFB2BB0012FA03F353EA0C0CC4F8F5
:1042300000C0F0BDF0B510EB116491FAA1F5B5FA2C
:1042400085F391FAA1F6B6FA86F7D4F800C05FF0CC
:10425000040EDBB29B001EFA03FE3CEA0E0CFFB21A
:10426000BB0012FA03F353EA0C0CC4F800C0F0BD13
:1042700030B4C3680C00240A94FAA4F4B4FA84F5A8
:1042800033EA112312FA05F52B43C36030BC7047A3
:104290002DE9F04104000D002F683F023F0C97FA12
:1042A000A7F0B0FA80F85FFA88F8380030FA08F022
:1042B000002832D0380030FA08F0C0072AD5B8F10B
:1042C000080F05D240F2011010FA08F0060007E0CE
:1042D0005FF0011140460838814051F080610E00C6
:1042E0006A6831002000FFF769FF2A693100200069
:1042F000FFF7BEFF6868012802D06868092809D165
:10430000AA6831002000FFF777FFEA68310020003B
:10431000FFF790FF18F10108C7E70120BDE8F08121
:1043200010B50400200003F00FFB10BD10B5040011
:10433000200003F019FB10BD10B50400200003F0AD
:104340002BFB10BD80B503F032FB02BD80B503F03E
:1043500037FB01BD80B503F037FB02BD38B5040063
:104360000D002900200003F033FB32BD38B50400F6
:104370000D002900200003F033FB32BD70B50400AE
:104380000D001600320029002000C0B203F030FBFF
:1043900070BD38B504000D002900200003F033FB88
:1043A00032BD000008B584B00023039300290EBF7E
:1043B00001930190491E0291009301A904AB0748A3
:1043C0007844183003F028FB019909B100220A70E3
:1043D000002858BF039805B000BD00BFBFFDFFFF18
:1043E000C068400B10F001007047026932F440527F
:1043F0000A4302617047426932F440720A434261E3
:104400007047F0B46423192404FB01F59600B5FB52
:10441000F6F56426B5FBF6F504FB01F69700B6FB4E
:10442000F7F604FB01F75FEA820CB7FBFCF75FF0DD
:10443000640CB7FBFCF703FB1766360132366427C2
:10444000B6FBF7F616F0F00616EB051604FB01F5C1
:104450009700B5FBF7F504FB01F49700B4FBF7F404
:104460006427B4FBF7F403FB14531B0132336424B9
:10447000B3FBF4F313F00F039E19B6B28660F0BCE1
:10448000704753490A6802430A60704750490A68F6
:1044900082430A6070474F490A6802430A607047C6
:1044A0004C490A6882430A60704738B50400012508
:1044B0004948844208D14FF48040FFF7ECFF4FF4A5
:1044C0008040FFF7EDFF31E04448844208D15FF4BB
:1044D0000030FFF7D6FF5FF40030FFF7D7FF25E08D
:1044E0003F48844208D15FF48020FFF7CAFF5FF4A1
:1044F0008020FFF7CBFF19E03A48844208D15FF4EF
:104500000020FFF7BEFF5FF40020FFF7BFFF0DE0C4
:104510003548844208D15FF48010FFF7B2FF5FF4A2
:104520008010FFF7B3FF01E0002005002800C0B2B3
:1045300032BDF8B584B005000E0000270024280025
:10454000FFF74EFF00283DD1E96828480140706818
:104550000143F068014330690143E960B168280014
:10456000FFF743FF71692800FFF745FF684604F035
:104570001AFA1948854202D10398040016E0174838
:10458000854202D10298040010E01548854202D10C
:10459000029804000AE01348854202D10298040000
:1045A00004E01148854201D102980400002C09D092
:1045B0003068002806D0012007003268210028005A
:1045C000FFF71FFF3800C0B205B0F0BD00000000CB
:1045D000101002400C10024000380140004400401E
:1045E00000480040004C004000500040F3E9FFFF4D
:1045F00080B504F043FB01BD80B504F071FB02BD42
:1046000080B504F07BFB01BD80B504F0A1FB01BDCA
:1046100010B504002000C0B204F0B1FB10BD10B50D
:1046200004002000C0B204F0BAFB10BD10B50400B5
:104630002000C0B204F0C5FB10BD10B5040020007E
:10464000C0B204F0D0FB10BD012101700121417006
:10465000002181700021C170002101710021417190
:10466000022181712321C1710D2101724121417209
:104670000D2181724121C17200210173002141731A
:10468000002181730021C173002101740021417454
:10469000002181740021C174002101750021417540
:1046A000002181750021C17500210176002141762C
:1046B000002181760021C1760021C16100210162C3
:1046C000DFF8F016416281620021C16200210163BE
:1046D000002141637047010000208863DFF8D8069D
:1046E000C86344F240020A64486448F28000886467
:1046F000002081F84C00002081F84D000020486522
:104700003420A1F84E000020086500207047010009
:1047100000207047010000207047F8B504000D002C
:10472000160000272000FFF78FFF002C08D0DFF8CD
:104730008C060068844203D12000FFF7CCFF11E013
:10474000002C05D0002C03D12000FFF7E0FF09E08A
:10475000002C05D0002C03D12000FFF7DBFF01E087
:10476000012014E03000C0B2002803D0012084F8FA
:104770004C0008E0290014F1380004F052FB070057
:10478000012084F84C00200000F002F8C0B2F2BD15
:1047900070B504000025211D200000F04EF8211DF9
:1047A000200000F04AF806003000C0B2002804D112
:1047B000A11D200000F041F806003000C0B270BD1D
:1047C0002DE9F84304000D0016005FF000090027F2
:1047D000012114F1380004F02CFB80464046C0B2A1
:1047E000002802D0022080461CE00020070038008C
:1047F0003100C0B2C9B2884214D23800C0B2295CBC
:1048000014F1380004F02AFB14F1380004F020FB06
:1048100080464046C0B2002802D0F81C804601E025
:104820007F1CE4E714F1380004F00CFB4046C0B2F2
:10483000BDE8F28303000120704738B504000D0085
:1048400094F84C00002805D1022229002000FFF72F
:10485000F1FF04E0022229002000FFF7B1FF32BD82
:104860000022C261704770B504000D00A06A60624A
:104870000020E061DFF84805854204D3050041F2DD
:104880004460E0610BE045F20820854203D2050058
:104890000320E06103E029002000FFF7E1FFE5626B
:1048A000E06A4FF47A71B0FBF1F02063E0694519DA
:1048B000DFF81005854206D30020A070002020708C
:1048C00000206070E8E0DFF80005854207D3002093
:1048D000A07002202070002060706D00DCE0DFF826
:1048E000EC04854208D30020A07003202070002033
:1048F000607003204543CFE0DFF8D404854207D33E
:104900000020A0700420207000206070AD00C3E083
:10491000DFF8C004854208D30020A0700520207075
:104920000020607006204543B6E0DFF8AC04854205
:1049300007D30020A0700620207000206070ED00DA
:10494000AAE0DFF89804854208D30020A070072071
:104950002070002060700C2045439DE0DFF880044B
:10496000854207D30020A0700620207001206070CF
:104970002D0191E0DFF86C04854208D30020A0707F
:1049800007202070012060701820454384E0DFF884
:104990005804854207D30020A07006202070022012
:1049A00060706D0178E0DFF84404854208D3002090
:1049B000A0700720207002206070302045436BE01B
:1049C000DFF82C04854207D30020A0700620207059
:1049D00003206070AD015FE0DFF81804854208D362
:1049E0000020A070072020700320607060204543E5
:1049F00052E0DFF80404854207D30020A0700420B1
:104A0000207005206070ED0146E0DFF8F00385427C
:104A100008D30020A0700520207005206070C02001
:104A2000454339E0DFF8D80385420AD30120A0705E
:104A30000620207004206070ED01606A400860620A
:104A40002AE04BF21C7085420BD30120A070072096
:104A5000207004206070C0204543606A4008606296
:104A60001AE048F6551085420AD30120A0700620AE
:104A70002070052060702D02606A400860620BE0C3
:104A80000120A07007202070052060704FF4C070D6
:104A90004543606A40086062AD00280004F0E8F910
:104AA0000600606A04F0E4F90100300004F0EEF959
:104AB0006063606B04F068FAE070E07804F0D8F9A5
:104AC0000100606B04F076FADFF8381304F0B2FAF4
:104AD00004F01CFB20620D202072207840016072DF
:104AE000607A617850EA81006072607A50F001006B
:104AF000607248202073A078002801D1002000E0D7
:104B000010206073617BE078014361734A20207458
:104B1000206A800C10F03F006074206A400C10F096
:104B2000010050F04C002075206A400A6075206A30
:104B3000000A10F0010050F04E002076206A6076E6
:104B400070BD2DE9F84F8EB004002000FFF720FE65
:104B50000028FAD102200D9000200C9014F10A05D3
:104B60000C9A0D992800FFF7C7F902200B9000203E
:104B70000A9014F10E050A9A0B992800FFF7BCF968
:104B8000022009900020089014F11205089A099952
:104B90002800FFF7B1F9022007900020069014F1D9
:104BA0001605069A07992800FFF7A6F90220059036
:104BB0000020049014F11A05049A05992800FFF7C3
:104BC0009BF9022003900020029014F10805029A3C
:104BD00003992800FFF790F902200190002000902F
:104BE00014F10C05009A01992800FFF785F90225B8
:104BF000002614F11007320029003800FFF77CF975
:104C000002275FF0000814F11409424639004846B3
:104C1000FFF772F95FF002095FF0000A14F1180B58
:104C2000524649465846FFF767F9A06A606200207D
:104C3000E0620FB0BDE8F08FF8B504000D0000266B
:104C4000E06A854203D029002000FFF70CFE14F132
:104C500008012000FFF7F1FD07003800C0B200286E
:104C600001D001202EE014F10C012000FFF7E5FD3A
:104C700006003000C0B2002801D0022022E014F16A
:104C800010012000FFF7D9FD07003800C0B200284E
:104C900001D0032016E014F114012000FFF7CDFD30
:104CA00006003000C0B2002801D004200AE014F150
:104CB00018012000FFF7C1FD0100C9B2002901D091
:104CC00005210800C0B2F2BD10B50400FDF7A6FB37
:104CD000FDF7A8FB0A21B0FBF1F1206B88420ED250
:104CE000206BB1F10A02904201D3002015E047F693
:104CF0000150814201D300200FE001200DE011F1AD
:104D00000A00226B904201D3002006E047F60150D2
:104D1000814201D3002000E0022010BD38B504001C
:104D20000D0029002000FFF787FF002803D1200095
:104D3000FFF7CAFF00E0012032BDF8B504000025EE
:104D400042F6E0664FF47A7101FB06F12000FFF7AE
:104D500073FF002828D1FDF761FBFDF763FB070017
:104D60000F3F4FF6FF7087421AD00A204643B742E2
:104D700001D2F11B00E0B91B0A2900D1891E0A29C2
:104D800005D20C4A322000FB1121A16208E0491D26
:104D90000A20B1FBF0F16422064802FB0101A16286
:104DA0002000FFF7CEFE01E0022005002800C0B27F
:104DB000F2BD0000001BB700000C014038000020CD
:104DC00080D5430281A8120141548900818D5B0086
:104DD00021AA4400C1C62D001155220061E316002E
:104DE000892A1100B1710B0045950800D9B805005A
:104DF000A34A04006DDC020052250200376E010058
:104E0000A9120100FFFF7F4B81B0DFF848160A6846
:104E100002430A60096801400091009901B070479F
:104E2000DFF830160A6882430A60704781B0DFF805
:104E300028160A6802430A60096801400091009937
:104E400001B07047DFF810160A6882430A607047A5
:104E5000DFF80806016831F440610160016851F42F
:104E6000006101607047016851F001010160704705
:104E700001684908490001607047016851F08001EC
:104E80000160704741627047406A7047026A8A4316
:104E900002627047F0B4012901D1002416E0042910
:104EA00001D1012412E0102901D102240EE0402991
:104EB00001D103240AE0B1F5807F01D1042405E08B
:104EC000B1F5806F01D1052400E0062410F118052A
:104ED000DFF88C352600F6B29B5D5D19DFF884653E
:104EE0002F685FF0030C2300DBB2F35C1CFA03FCB9
:104EF00037EA0C0794465FEA1C4C2300DBB2F35CF4
:104F00001CFA03FC5CEA07072F60F0BC7047F0B4A2
:104F1000012901D1002416E0042901D1012412E065
:104F2000102901D102240EE0402901D103240AE016
:104F3000B1F5807F01D1042405E0B1F5806F01D186
:104F4000052400E0062410F11805DFF814352600CA
:104F5000F6B29B5D5D19DFF80C652F685FF0F00C11
:104F60002300DBB2F35C1CFA03FC37EA0C0794461F
:104F70005FEA1C4C2300DBB2F35C1CFA03FC5CEA26
:104F800007072F60F0BC7047F0B4012901D100245D
:104F900016E0042901D1012412E0102901D10224D4
:104FA0000EE0402901D103240AE0B1F5807F01D150
:104FB000042405E0B1F5806F01D1052400E006244A
:104FC000DFF8A454066A0A272300DBB2EB5C9F409B
:104FD000BE432300DBB2EB5C12FA03F31E4306620E
:104FE000F0BC70478368DFF8842413400B43836070
:104FF0007047426832F070020A434260704782682C
:1050000032F070020A4382607047816831F080019B
:10501000816070477FF0010101617047006910F005
:10502000010070477FF0400101617047006980090D
:1050300010F001007047C16831F04001C160704755
:10504000C16831F48041C160704738B58AB005A8A5
:105050001421FFF7AFF868461421FFF7ABF8DFF82B
:1050600010440121200000F015F9DFF80854012157
:10507000280004F081F842F220000090FFF7E8FEDB
:105080000820019069462800FFF702F90020ADF8DA
:105090001400002006907FF07F40079000200890C9
:1050A00005A9200004F0DEF92000FFF7E6FE6021EC
:1050B0002000FFF7A4FF5FF4803210212000FFF7EB
:1050C000E9FE07212000FFF78DFF10212000FFF7E8
:1050D000DDFE002210212000FFF719FF0022102121
:1050E0002000FFF751FF2000FFF7A5FF2000FFF78A
:1050F000A7FF00212000FFF77CFF2000FFF785FFBE
:105100000BB030BD7CB500200090DFF86C43206808
:105110000078002818D100202168886000202168CC
:105120004860012021680870DFF844432000FFF741
:1051300079FF2000FFF76EFF00212000FFF7A2FE9D
:105140002000FFF790FE5BE02068007801281AD16C
:10515000DFF81C532800FFF769FF002850D0280013
:10516000FFF792FE216888602800FFF75BFF0220AE
:10517000216808700020DFF8041308700020DFF8B1
:10518000001308703CE020680078022837D1DFF86F
:10519000F0522878401C2870B54E3000FFF73EFFD3
:1051A000002806D03000FFF735FFB4480178491CCD
:1051B00001703000FFF73AFF002802D03000FFF7FF
:1051C00031FF28780A281BDB3000FFF75DFE0090D6
:1051D0003000FFF74DFE032021680870009AA749B0
:1051E00008784FF6FF7303FB002220688068121ACC
:1051F00020688260002008700020287000E0FFE72F
:1052000073BDF8B59C4C9F48006800692168C86070
:105210009D4804F052FA002504F05BFA06000027CE
:105220002068007803280ED004F053FA0500B54238
:1052300005D25FF0FF30801B2818070001E0A81B93
:105240000700652FECD32068C06804F036FA002010
:105250002168C860652F03D34FF6FF70216888600E
:105260000020216808702068806803F001FE04F0C7
:1052700043FA0022854B04F063FA04F085FB2168B1
:105280004860F1BD7C4800688068704780B5FFF7D2
:10529000DCFE01BD38B504000D007D4884420BD111
:1052A0002800C0B2002803D00120FFF7ADFD02E0C6
:1052B0000120FFF7A9FDCCE0B4F1804F0BD128000D
:1052C000C0B2002803D00120FFF79EFD02E00120BC
:1052D000FFF7A6FDBDE0664884420BD12800C0B2AE
:1052E000002803D00220FFF78FFD02E00220FFF725
:1052F0008BFDAEE0674884420BD12800C0B2002885
:1053000003D00420FFF780FD02E00420FFF77CFDBE
:105310009FE0614884420BD12800C0B2002803D02E
:105320000820FFF771FD02E00820FFF76DFD90E017
:105330005A4884420BD12800C0B2002803D0102064
:10534000FFF762FD02E01020FFF75EFD81E05448A8
:1053500084420BD12800C0B2002803D02020FFF7E0
:1053600053FD02E02020FFF74FFD72E04D488442DC
:105370000DD12800C0B2002804D04FF40050FFF730
:1053800055FD03E04FF40050FFF75CFD61E0464837
:1053900084420DD12800C0B2002804D05FF4002060
:1053A000FFF744FD03E05FF40020FFF74BFD50E002
:1053B0003E4884420DD12800C0B2002804D05FF4DA
:1053C0008010FFF733FD03E05FF48010FFF73AFD34
:1053D0003FE0374884420DD12800C0B2002804D0F5
:1053E0005FF40010FFF722FD03E05FF40010FFF709
:1053F00029FD2EE02F4884420BD12800C0B200289E
:1054000003D04020FFF700FD02E04020FFF708FD39
:105410001FE0294884420BD12800C0B2002803D0E5
:105420008020FFF7F1FC02E08020FFF7F9FC10E09C
:10543000224884420DD12800C0B2002804D04FF485
:105440008070FFF7E1FC03E04FF48070FFF7E8FCA9
:10545000FFE731BD1C10024018100240040001405B
:1054600054C600085CC6000864C60008F8BFFFFF09
:1054700000040040000C01403000002015490020CD
:10548000144900202C000020055100080088C3406A
:10549000002C014000080040000C004000100040BB
:1054A0000014004000340140004C01400050014015
:1054B0000054014000180040001C00400020004043
:1054C000DFF858070068C0F302207047012210F08F
:1054D0001F018A40DFF8481703005BB25B0941F8FF
:1054E0002320704710B4020052B2002A0AD50A01E4
:1054F000DFF83037040064B214F00F04234403F8DB
:10550000042C05E00A01DFF82037040064B21A55C4
:1055100010BC704770B4030013F00704D4F1070007
:10552000052801D3042001E0D4F10700251D072D33
:1055300001D2002500E0E51E012616FA00F0401E0B
:105540000140A94016FA05F56D1E2A4011430800D6
:1055500070BC7047F0B45FF44005B5FA85F310F104
:105560002C0411F44076DE4014EB860426681F27D5
:1055700011F01F039F40BE4312F01F0711F01F03DD
:105580009F403E432660F0BC70472DE9F043402326
:10559000B3FA83F510F10C0411F00076EE4014EB31
:1055A00086044FF478652E00B6FA86F7B5FA85FCC6
:1055B000D4F800E05FF0070811F0F87939FA07F93C
:1055C00018FA09F83EEA080E11F0F87737FA0CF7E6
:1055D00012FA07F757EA0E0EC4F800E0BDE8F083B0
:1055E000816851F001018160704781684908490074
:1055F00081607047816851F0040181607047806864
:10560000800810F001007047816851F4A0018160AA
:10561000704781B0DFF814160A6802430A6009680F
:1056200001400091009901B0704781B0DFF8001689
:105630000A6802430A60096801400091009901B0BC
:105640007047DFF8EC150A6882430A607047DFF89C
:10565000E42502EB010313F8013C1B180A4412F87D
:10566000012C1218126852F001021A607047DFF81C
:10567000C42502EB010313F8013C1B180A4412F87D
:10568000012C12181268520852001A60704710B4A8
:10569000DFF8A03503EB010414F8014C24180B4487
:1056A00013F8013C1B185B681B0C1B04134363605D
:1056B00010BC70470121416070475FF48031416048
:1056C00070470221416070475FF4003141607047CC
:1056D0000421416070475FF4802141607047DFF82A
:1056E000542502EB010313F8013C1B180A4412F87D
:1056F000012C1218126852F002021A607047DFF88B
:1057000038150A6832F4404202430A60704718B5FF
:1057100085B0DFF8284501212000FEF731FD6846FD
:105720001421FEF747FD40F60F7000900020019015
:105730000020049069462000FEF7AAFD002006B074
:1057400010BD38B504000D00002C01D1012033E05C
:10575000DFF8EC0484420CD12800C0B2002804D049
:105760004FF40070FFF761FF03E04FF40070FFF7A4
:1057700068FFDFF8D00484420CD12800C0B20028B2
:1057800004D04FF48060FFF750FF03E04FF48060D7
:10579000FFF757FFDFF8B00484420CD12800C0B2F5
:1057A000002804D04FF40040FFF73FFF03E04FF420
:1057B0000040FFF746FF002032BD38B588B0DFF863
:1057C0008C04D0E90023CDE9012303A81421FEF7BE
:1057D000F1FCDFF87C0400680090DFF864442000EE
:1057E00004F04EF901212000FFF7ABFF00200190EB
:1057F0004FF48075029501A9200004F095F95FF43B
:10580000602003905FF48010049000200590022037
:105810000690079503A9200004F0A1F94FF4004079
:10582000FFF76DFF002000906946200004F0FFF8AC
:105830000A224FF400712000FFF78CFE01220A219A
:105840002000FFF7A2FEDFF80C542A0040F20521E9
:105850002000FFF77FFE012229002000FFF795FEC0
:105860002000FFF7BDFE200000F003F8002009B083
:1058700030BD10B50400002C10D0A06850F0080016
:10588000A060A0680007FCD42000FFF7B3FE200052
:10589000FFF7B5FE0028FAD1002000E0012010BD7E
:1058A00010B58AB0DFF8B0430121200004F0E2F91E
:1058B0000120FFF7AEFE68462821FEF77BFC24207E
:1058C000089000200290DFF894030068801D01908A
:1058D0004FF4806007908020059000200390DFF84F
:1058E000800300904FF480700690002004904FF4E5
:1058F000005009906A460121200004F05DFA012160
:105900002000FFF7A4FEFFF7DBFD00220121FFF7D7
:1059100001FE01000B20FFF7E5FD0B20FFF7D6FD90
:1059200001212000FFF7DBFE00200AB010BD10B5FA
:10593000C94C242201212000FFF7A9FE01212000EB
:10594000FFF785FEBE4C2000FFF74AFE2000FFF760
:1059500090FF00220021200000F0E0F8002010BDA0
:1059600010B5BD4C01212000FFF781FE2000FFF79C
:10597000A1FE2000FFF7ACFE2000FFF7A2FEB0481A
:10598000FFF733FE002010BD38B588B0B548D0E928
:105990000023CDE9012303A81421FEF70BFCB24834
:1059A00000680090A84C200004F06AF80121200053
:1059B000FFF7C7FE002001904FF48075029501A902
:1059C000200004F0B1F85FF4602003905FF48010D1
:1059D00004900020059002200690079503A920005E
:1059E00004F0BDF84FF40040FFF789FE002000905E
:1059F0006946200004F01BF89C4D2A004FF400710A
:105A00002000FFF7A7FD032229002000FFF7BDFDBE
:105A1000974D2A0040F205212000FFF79BFD03224D
:105A200029002000FFF7B1FD2000FFF7D9FD20007D
:105A3000FFF71FFF002009B030BD10B58AB08D4CB4
:105A40000521200004F016F90220FFF7E2FD684668
:105A50002821FEF7AFFB2420089000200290864802
:105A60000068801D01904FF48060079080200590B1
:105A700000200390814800904FF480700690002031
:105A800004904FF4005009906A460521200004F06C
:105A900093F905212000FFF7DAFDFFF711FD002241
:105AA0000121FFF737FD01003B20FFF71BFD3B20E5
:105AB000FFF70CFD05212000FFF711FE00200AB0C2
:105AC00010BD10B56B4C242205212000FFF7DFFD2F
:105AD00005212000FFF7BBFD5B4C2000FFF780FD98
