:020000040800F2
:10000000A058002045010008618D000869520008D1
:10001000758A000805230008B50A010800000000E1
:1000200000000000000000000000000065DD000886
:100030004928000800000000F99300086DE5000859
:1000400031170108D99300085F0100085F0100081B
:100050005F010008599600085F0100085F01000871
:100060005F0100085F0100085F010008CD2700085C
:100070005F0100085F0100085F0100085F010008E0
:100080005F0100085F0100085F0100085F010008D0
:100090005F0100085F0100085F0100085F010008C0
:1000A0005F0100085F0100085F0100085F010008B0
:1000B000B5E900085F0100085F0100085F01000862
:1000C0005F0100085F0100085F0100085F01000890
:1000D0005F01000865F000085F0100085F0100088B
:1000E0005F0100085F0100085F0100085F01000870
:1000F0005F0100085F0100085F0100085F01000860
:100100005F0100085F0100085F0100085F0100084F
:100110005F0100085F0100085F0100085F0100083F
:100120005F0100085F0100085F010008092800085E
:10013000DFF80CD000F032FC004800475D170108E2
:10014000A05800200648804706480047FEE7FEE723
:10015000FEE7FEE7FEE7FEE7FEE7FEE7FEE7FEE777
:1001600055E90008310100082DE9F05F054600203F
:1001700092469B4688460646814640241BE0284618
:1001800041464746224600F0B0FA53465A46C01A46
:10019000914110D311461846224600F097FA2D1AC5
:1001A00067EB01084F4622460120002100F08EFA3D
:1001B00017EB00094E41201EA4F10104DFDC484684
:1001C00031462A464346BDE8F09FD2B201E000F82E
:1001D000012B491EFBD270470022F6E710B51346EB
:1001E0000A4604461946FFF7F0FF204610BDF0B45A
:1001F00080EA0102D40F4200B2EB410F02D2024664
:10020000084611464A0042D0C30DDDB2C1F3C752C1
:10021000AD1A202D35DAC1F3160141F4000204B104
:100220005242C5F1200602FA06F12A411044B3EB0E
:10023000D05F23D0C4B1012DA0EBC35009DCF0BCCA
:100240004FF0004202EAC352DBB200F5000000F0BA
:1002500077BA400000F1807000EBC350A0F18070CD
:1002600040EAD170490009E0490841EAC071A0EBB9
:10027000C35000F50000400800EBC350F0BC00F094
:1002800056BA6142012202EB4101001BF6E7F0BCC5
:10029000704781F00041AAE780F00040A7E780EABC
:1002A000010210B502F00043400022D04A001FD0E6
:1002B000010E01EB1261C0F35600C2F3560240F486
:1002C000000042F40002A0FB022000047F39140465
:1002D00000D0401C50EA124001D44000491EC2B276
:1002E0000C0604EBD010401C4008802A02D003E02A
:1002F000002010BD20F00100002900DA0020184382
:1003000010BD30B480EA010202F0004530F0004236
:1003100021F0004013D090B1C30DD40DC2F31601EB
:10032000C0F31600E41A41F4000140F400027D34E9
:10033000914201D3641C00E04900002C02DA30BC79
:10034000002070474FF400000023914201D3891A26
:10035000034340084FEA4101F7D151B1914202D124
:100360004FF0004105E002D24FF0010101E06FF0D3
:10037000010103EBC450284430BC00F0D8B92DE98A
:10038000FE4F804681EA0300C00F0C46009021F02A
:10039000004123F00045B8EB0200A94105D24046D8
:1003A000214690461C460B46024623F0004010436F
:1003B00047D0270DC7F30A00C3F30A510290401A31
:1003C000019040286BDAC3F3130040F4801B0098BF
:1003D000924620B10023D2EB030A63EB0B0B01988A
:1003E0005946C0F14002504600F070F906460D46ED
:1003F00050465946019A00F088F910EB0800614117
:10040000002487EA115284EAE7731A4340D0009A25
:1004100062B3019A012A4FEA075215DC001B61EB17
:1004200002014FF0004202EA0752CDE90042001CEF
:1004300041F5801132462B4600F0BFF903B0BDE80C
:10044000F08F40462146F9E7001B61EB0201001CDA
:1004500041F5801300185B412018A2F5001747EB07
:10046000030140EAD570B6196D4111E06D084FEAFD
:10047000360645EAC0754FEA0752001B61EB0201E0
:10048000001C41F5801149084FEA30000019514124
:1004900032462B4603B0BDE8F04F00F07FB900981C
:1004A000012240000023D0EB020263EBE0730098CE
:1004B00021464FEAE074B8EB000061EB0401E9E784
:1004C00083F000435BE781F0004158E72DE9F04DF0
:1004D00081EA030404F0004B21F0004514464FF07C
:1004E000000A23F0004150EA050220D054EA01023C
:1004F0001DD0C5F30A570246C5F31303C1F3130019
:10050000C1F30A5640F4801543F48013A7EB0608A4
:10051000101BD64608F2FD3873EB050002D308F134
:10052000010801E092185B41B8F1000F03DA0020E6
:100530000146BDE8F08D00204FF480110646844648
:100540000EE0171B73EB050705D3121B63EB0503C6
:1005500006434CEA010C49084FEA300092185B410F
:1005600050EA0107EDD152EA030012D082EA0400FA
:1005700083EA0501084305D0101BAB4106D20122D6
:10058000002306E000224FF0004302E06FF001027A
:1005900053101AEB06004CEB085110EB0A0041EB2C
:1005A0000B01BDE8F04D00F0F9B8C10F80EAE07032
:1005B0000844CA079623002100F0C2B896230022FF
:1005C000114600F0BDB80EB5C10F80EAE0700844D6
:1005D000CA07002140F233438DE80E000A460B465D
:1005E00000F0EBF803B000BD20F00040C10DC0F3F7
:1005F000160040F400007F2901DA00207047962998
:1006000003DCC1F19601C8407047963988407047B5
:10061000C1F30A5210B5C1F3130140F2FF3341F4A4
:1006200080119A4201DA002010BD40F233439A4211
:10063000A2F2334203DC524200F057F810BD904062
:1006400010BD00F0004230F000400AD0C10D01F5AD
:100650006071C0F3160042EA0151C208400711431D
:10066000704700200146704701F0004330B421F08C
:10067000004150EA010206D00A0DA2F56072C1F3F2
:100680001301002A02DC30BC00207047440F44EA0A
:10069000C104C100E01830BC00EBC25000F047B804
:1006A00030B50B46014600202022012409E021FA42
:1006B00002F59D4205D303FA02F5491B04FA02F53F
:1006C0002844151EA2F10102F1DC30BD202A04DB12
:1006D000203A00FA02F1002070479140C2F1200355
:1006E00020FA03F3194390407047202A04DB203A94
:1006F00021FA02F00021704721FA02F3D040C2F142
:1007000020029140084319467047202A06DBCB1788
:10071000203A41FA02F043EAE07306E041FA02F3BC
:10072000D040C2F120029140084319467047002989
:10073000A8BF7047401C490008BF20F00100704767
:1007400010B4B0FA80FC00FA0CF050EA010404BFC7
:1007500010BC704749B1CCF1200421FA04F411FA1D
:100760000CF118BF012121430843A3EB0C01CB1D61
:100770004FEA00614FEA102042BF002010BC7047D2
:1007800000EBC35010440029A4BF10BC7047401CAC
:10079000490008BF20F0010010BC704710B5141EBE
:1007A00073F1000408DA401C41F1000192185B412A
:1007B0001A4301D120F0010010BD2DE9F04D924601
:1007C0009B4611B1B1FA81F202E0B0FA80F2203218
:1007D0009046FFF77BFF04460F4640EA0A0041EAD5
:1007E0000B0153465A46084313D0114653EA010001
:1007F00019D0C8F140025046FFF777FF05460E4674
:10080000504659464246FFF761FF084305D0012094
:1008100004E020463946BDE8F08D0020054346EA55
:10082000E0762C4337430A986305E40AA0EB0800FE
:100830000022FD0A44EA47540A3002D5002001464E
:10084000E9E7010510196941DDE908450019694129
:10085000BDE8F04DA2E72DE9FE4F81EA030404F064
:10086000004421F0004100944FF0000B23F00043BE
:1008700050EA01045ED052EA03045BD0C3F30A5489
:10088000C1F30A552C44A4F2F3340194A0FB0254A2
:10089000C1F3130141F48011C3F3130343F4801334
:1008A00001FB024400FB034E840A970A44EA815488
:1008B00047EA8357A4FB076802958D0A05FB078565
:1008C0004FEA932C04FB0C542705029D4FEA06586F
:1008D00047EA1637B5EB08056EEB070C870E920E4C
:1008E00047EA811742EA8312A7FB0201B6EB0B012C
:1008F00064EB00042B0D43EA0C335E1844EB1C50F0
:10090000DA465146E7FB0201C5F313044FEA0B3305
:1009100043EA14534FEA0432019C43EA0603A4F16C
:100920000C040294009CCDE900B4FFF746FF03B02D
:10093000BDE8F08F00200146F9E7C1F30A52C1F388
:10094000130140F2FF3341F480119A4202DA002091
:100950000146704740F233439A42A2F2334202DC2E
:100960005242FFF7C2BEFFF7B1BE000030B5041E11
:1009700071F1000404DB4FF00044404264EB0101DC
:10098000141E73F1000405DB1C464FF00043524275
:1009900063EB0403994208BF904230BD064C074DFB
:1009A00006E0E06840F0010394E80700984710343F
:1009B000AC42F6D3FFF7C0FB3026010850260108F1
:1009C00080B582B0014601900198009100F00EFBC5
:1009D00002B080BD80B582B00146019001980091BF
:1009E00000F050FB02B080BD80B500F08FFB80BDF1
:1009F00080B582B0014601900198009100F014FC8E
:100A000002B080BD80B582B001460190019800918E
:100A1000FFF7E0FF02B080BD80B5FFF7E5FF80BDC6
:100A200080B58AB00A46034609908DF8231000204D
:100A30008DF8220042F20040C4F2010007920693B2
:100A4000FFF7BEFF9DF823100329059008DBFFE7A1
:100A500043F60040C4F20100FFF7B2FF0490FFE745
:100A6000FFE740F21C00C2F2000000680078002896
:100A700001D1FFE7F5E79DF8230003280CDBFFE732
:100A8000FFE740F22400C2F200000068007800286E
:100A900001D1FFE7F5E7FFE740F21C00C2F20000DA
:100AA0000068FFF7A5FF9DF823E0BEF1030F039058
:100AB00009DBFFE740F22400C2F200000068FFF704
:100AC00097FF0290FFE700208DF82200FFE79DF8D6
:100AD00022009DF8231088423CDAFFE79DF82200AF
:100AE00001460328019128D80199DFE801F0020BA3
:100AF000141D40F21C00C2F20000006840880999F1
:100B0000088020E040F21C00C2F2000000688088EB
:100B10000999488017E040F22400C2F20000006802
:100B20004088099988800EE040F22400C2F200005B
:100B3000006880880999C88005E009989DF823100D
:100B4000FFF74AFBFFE7FFE79DF8220001308DF831
:100B50002200BCE700200AB080BD000080B582B052
:100B600000F00AF8019000F09FF84FF0000E00909E
:100B7000704602B080BD000080B592B00020C4F283
:100B8000020001210790069105F0FCFF06990590EF
:100B9000084605F087FD08A828210490FFF71CFBF4
:100BA0002420109000200A9040F21C01C2F20001A3
:100BB0000968063109914FF480610F9180210D91F0
:100BC0000B9042F24C41C4F2010108914FF4807144
:100BD0000E910C904FF40051119107990390084623
:100BE0000699049A06F05AF9079902900846069960
:100BF00006F024F908F034FA0699039A08F0F0F8A0
:100C00000B2101900846019A0091114608F0B6FAAE
:100C1000009808F0A9F80798069906F027F90398B4
:100C200012B080BD80B586B00020C4F20200012160
:100C300024220590049106F0B5F90598049906F070
:100C4000FDF842F20040C4F20100039005F0CAFB37
:100C5000039800F079FB0021039A0290104601915D
:100C6000019A00F049FB01990090084606B080BD4A
:100C700080B582B00020C4F202000121019006F08C
:100C8000C5F8019805F0E2FE019805F02FFF0198E4
:100C900005F040FF42F20040C4F2010005F096FB6F
:100CA000002002B080BD000080B594B000201390F9
:100CB0001290119010900F900E900D900C9042F2A7
:100CC0000041C4F201010B9008460A9105F002FBB5
:100CD0000121DDF828E009907046089100F020FA23
:100CE0000B9912914FF4807ECDF84CE012A90A9A2C
:100CF00007901046CDF818E005F092FB4FF4602104
:100D00000D914FF480110E910B990F9102221092C8
:100D1000069A11920DA9DDF828E00590704605F0BD
:100D2000BDFB4FF400410490084606F0F7FD0B9818
:100D30000C900CA90A9805F07DFA4FF400710A2274
:100D4000DDF828E003907046029205F007FC0A984F
:100D50000299089A05F052FC40F205210B20C0F2DE
:100D600030000A9A01901046019A05F0F7FB0A98A4
:100D70000199089A05F042FC0A9805F033FB0A989D
:100D800000F0E2FA0B990090084614B080BD000014
:100D900080B582B000F00AF8019000F0A1F84FF0A1
:100DA000000E0090704602B080BD000080B592B089
:100DB00040F20040C4F2020005210790069105F0C0
:100DC000E1FE02210590084605F06CFC08A82821E8
:100DD0000490FFF701FA2420109000200A9040F2BE
:100DE0002401C2F200010968063109914FF48061C3
:100DF0000F9180210D910B9043F64C41C4F20101FB
:100E000008914FF480710E910C904FF400511191A4
:100E10000799039008460699049A06F03FF8079947
:100E200002900846069906F009F808F019F9012120
:100E3000039A07F0D5FF3B2101900846019A0091E3
:100E4000114608F09BF9009807F08EFF0798069965
:100E500006F00CF8039812B080BD000080B586B093
:100E600040F20040C4F202000521242205900491C2
:100E700006F098F80598049905F0E0FF43F6004065
:100E8000C4F20100039005F0ADFA039800F05CFA9B
:100E90000021029008460191039A00F02DFA019971
:100EA0000090084606B080BD80B582B040F2004098
:100EB000C4F202000521019005F0A8FF019805F099
:100EC000F7FD019805F01CFE019805F02DFE43F694
:100ED0000040C4F2010005F079FA002002B080BDA4
:100EE00080B594B0002013901290119010900F9044
:100EF0000E900D900C9043F60041C4F201010B904E
:100F000008460A9105F0E6F90121DDF828E009908C
:100F1000704600F005F90B9912914FF4807ECDF8E0
:100F20004CE012A90A9A08901046CDF81CE005F092
:100F300077FA4FF460210D914FF480110E910B99C7
:100F40000F9102221092079A11920DA9DDF828E064
:100F50000690704605F0A2FA4FF40041059008464D
:100F600006F0DCFC0B980C900CA90A9805F062F9CD
:100F70004FF400710C22C0F26002DDF828E004900A
:100F80007046039205F0EAFA03200A990290084697
:100F90000399029A05F032FB40F205210D20C0F2C0
:100FA00090000A9A01901046019A05F0D7FA0A9823
:100FB0000199029A05F022FB0A9805F013FA0A98A3
:100FC00000F0C2F90B990090084614B080BD0000F3
:100FD00080B582B0FFF7C2FD0190FFF7D9FE4FF058
:100FE000000E0090704602B080BD000080B584B055
:100FF00001460290029842F20042C4F2010290427D
:10100000019111D1FFE740F21C00C2F2000001681B
:1010100000220A70006806302421FFF7DDF8FFF790
:1010200001FE8DF80F0028E0029842F60001C4F29C
:101030000101884204D1FFE700208DF80F001CE079
:10104000029843F60041C4F20101884211D1FFE742
:1010500040F22400C2F20000016800220A70006819
:1010600006302421FFF7B8F8FFF7F8FE8DF80F00DF
:1010700003E000208DF80F00FFE79DF80F0004B09B
:1010800080BD000080B584B001460290029842F213
:101090000042C4F20102904201910DD1FFE740F2FB
:1010A0001C00C2F200000068017801310170FFF7F6
:1010B000DFFD8DF80F0024E0029842F60001C4F233
:1010C0000101884204D1FFE700208DF80F0018E0ED
:1010D000029843F60041C4F2010188420DD1FFE7B6
:1010E00040F22400C2F20000006801780131017072
:1010F000FFF7DAFE8DF80F0003E000208DF80F00F7
:10110000FFE79DF80F0004B080BD000080B582B0FD
:1011100000F068F80190FFF75BFF02B080BD0000AF
:1011200080B586B00A46034604908DF80F100498E7
:1011300000280292019304D1FFE701208DF81700E7
:101140004BE0049842F20041C4F20101884210D100
:10115000FFE79DF80F00002805D0FFE74FF400706F
:1011600005F08CFB04E04FF4007005F047FBFFE74F
:10117000FFE7049842F60001C4F20101884210D151
:10118000FFE79DF80F00002805D0FFE74FF48060CF
:1011900005F074FB04E04FF4806005F02FFBFFE7DF
:1011A000FFE7049843F60041C4F20101884210D1E0
:1011B000FFE79DF80F00002805D0FFE74FF400403F
:1011C00005F05CFB04E04FF4004005F017FBFFE77F
:1011D000FFE700208DF81700FFE79DF8170006B025
:1011E00080BD000080B588B041F20000C4F201006B
:1011F0000121029003F0FAFE00200790069005906E
:101200000490039040F60F7103910490079003A996
:10121000DDF808E00190704605F090FF019900901C
:10122000084608B080BD000080B5A0B001461F9000
:1012300000208DF87B000DF1560224230A90104601
:10124000099119460893FEF7C7FF0DF1320008997E
:10125000FEF7C2FF1F9806300B900A988DF87B00AE
:10126000FFE79DF87B0011281DDCFFE70B98008845
:101270009DF87B100DF1560222F811000B980230F8
:101280000B900B9800889DF87B100DF1320222F82C
:1012900011000B9802300B90FFE79DF87B000130A6
:1012A0008DF87B00DDE70DF15600122107900691C5
:1012B00003F0BAFD0DF1320105900846DDF818E0A3
:1012C0000491714603F0B0FD10214FF0020E079A11
:1012D0000390104602917246CDF804E001F0EAF95D
:1012E0001F99488004980299019A01F0E3F91F9927
:1012F0008880002020B080BD80B586B013468C4623
:101300008646059004910392059800280293CDF833
:1013100004C0CDF800E004D0FFE7059805F062F9BD
:10132000FFE70498002804D0FFE7049805F05AF975
:10133000FFE70398002804D0FFE7039805F052F96F
:10134000FFE7002006B080BD80B584B00146029062
:101350000298002801911CD0FFE70298816841F0B3
:1013600008018160FFE7029880680007002801D526
:10137000FFE7F8E7029805F089F9FFE7029805F022
:1013800079F8002801D0FFE7F8E700208DF80F007A
:1013900003E001208DF80F00FFE79DF80F0004B077
:1013A00080BD0000B0B588B09C4696460C46054608
:1013B0000790069105928DF8133007980699059AC3
:1013C0009DF81330CDF80CC0CDF808E001940095DD
:1013D00000F0C2F908B0B0BDB0B588B09C469646E2
:1013E0000C4605460790ADF81A100592ADF812307C
:1013F0000798BDF81A10059ABDF81230CDF80CC048
:10140000CDF808E00194009500F022FA08B0B0BDD4
:10141000B0B588B09C4696460C4605460790ADF898
:101420001A100592ADF812300798BDF81A10059AF7
:10143000BDF81230CDF80CC0CDF808E0019400954D
:1014400000F038FA08B0B0BDB0B588B09C469646FA
:101450000C4605460790069105928DF813300798C3
:101460000699059A9DF81330CDF80CC0CDF808E028
:1014700001940095FFF796FF08B0B0BDB0B588B0F5
:101480009C4696460C4605460790ADF81A10059204
:10149000ADF812300798BDF81A10059ABDF8123051
:1014A000CDF80CC0CDF808E001940095FFF794FF4B
:1014B00008B0B0BDB0B588B09C4696460C4605460F
:1014C0000790ADF81A100592ADF812300798BDF8E4
:1014D0001A10059ABDF81230CDF80CC0CDF808E00E
:1014E00001940095FFF794FF08B0B0BDB0B588B087
:1014F0009C4696460C4605460790ADF81A10059294
:10150000ADF812300120CDF80CC0CDF808E0019400
:10151000009508B0B0BD0000B0B588B09C469646B6
:101520000C4605460790ADF81A100592ADF812303A
:101530000120CDF80CC0CDF808E00194009508B06A
:10154000B0BD000080B588B001460790079803221F
:101550000270079841F20002C4F20102426007984B
:1015600041F210028260079840680028019106D07D
:10157000FFE707984068012103F038FDFFE70020EE
:10158000069005900490039002900121039104912C
:101590000590069107988068029007984068002897
:1015A0000ED0FFE70798406802A905F0C7FD07992C
:1015B000D1F804E089680090704605F0DDFEFFE791
:1015C00007980021C160079840F60042C4F201026A
:1015D0000261079844F240034361079882610798CB
:1015E00048F28002C261079880F82010079880F8BE
:1015F0002110079881620798A022428407984162CF
:10160000079800F013F808B080BD000082B00146D2
:1016100001900020009102B07047000082B00146A6
:1016200001900020009102B07047000083B0014695
:101630000190019800780028009107D1FFE70198F8
:10164000102141800198082141707CE001980078C8
:10165000012807D1FFE70198202141800198082146
:1016600041706FE001980078022807D1FFE70198E8
:101670002021418001981021417062E0019800789A
:10168000032807D1FFE701984021418001981021EC
:10169000417055E001980078042807D1FFE70198D0
:1016A0008021418001981021417048E00198007824
:1016B000052807D1FFE7019880214180019820216A
:1016C00041703BE001980078062808D1FFE70198B7
:1016D0004FF4807141800198202141702DE00198E4
:1016E0000078072808D1FFE701984FF48071418006
:1016F0000198402141701FE001980078082808D126
:10170000FFE701984FF4007141800198402141703A
:1017100011E001980078092808D1FFE701984FF4FB
:101720000071418001988021417003E001208DF813
:101730000B000CE0FFE7FFE7FFE7FFE7FFE7FFE74E
:10174000FFE7FFE7FFE700208DF80B00FFE79DF8BC
:101750000B0003B070470000B0B58CB09C469646B5
:101760000C4605460A90099108928DF81F3000201A
:101770008DF81E000A980028CDF818C0CDF814E0A6
:10178000049403950ED0FFE70A9840F22001C2F2BC
:1017900000010968884205D1FFE70A98FFF7D2FEE9
:1017A00002901FE00A98002809D0FFE70A98002855
:1017B00005D1FFE70A98FFF729FF019011E00A9889
:1017C000002809D0FFE70A98002805D1FFE70A980A
:1017D000FFF724FF009003E001208DF82F0032E096
:1017E000FFE7FFE79DF81F0000280CD0FFE70A98ED
:1017F0000C3003F0B5FD8DF81E000A984FF0010E75
:1018000080F820E00BE00A980C30099903F0B0FD55
:101810008DF81E000A98002180F82010FFE7089834
:10182000002804D0FFE708980A99C86206E00A98E1
:1018300044F6B151C0F60001C162FFE79DF81E00F9
:101840008DF82F00FFE79DF82F000CB0B0BD000011
:10185000B0B58AB09C4696460C4605460890ADF851
:101860001E100692ADF81630089890F82000002857
:10187000CDF810C0CDF80CE0029401950BD1FFE734
:101880000898BDF81E10069ABDF8163000F044F80E
:101890008DF827000AE00898BDF81E10069ABDF8DA
:1018A0001630FFF723FE8DF82700FFE79DF827008D
:1018B0000AB0B0BDB0B58AB09C4696460C46054607
:1018C0000890ADF81E100692ADF81630089890F802
:1018D00020000028CDF810C0CDF80CE0029401954E
:1018E0000BD1FFE70898BDF81E10069ABDF8163018
:1018F00000F0B6F98DF827000AE00898BDF81E1030
:10190000069ABDF81630FFF707FE8DF82700FFE7AF
:101910009DF827000AB0B0BDB0B58EB09C46964683
:101920000C4605460D90ADF832100B92ADF82A30FA
:1019300000208DF829000D99498CADF82610ADF8DE
:1019400024000D9800780528CDF820C0CDF81CE0C3
:101950000694059528DBFFE70D980C30012103F074
:1019600029FD8DF829009DF82900002804D0FFE703
:1019700002208DF829008BE00D980C309DF8331073
:1019800003F042FD0D990C310490084603F0FEFC73
:101990008DF829009DF82900002804D0FFE70320D6
:1019A0008DF8290074E019E0BDF83200C0F3022080
:1019B0000D994A8C02EB400048840D980C300121AF
:1019C00003F0F8FC8DF829009DF82900002804D0C8
:1019D000FFE702208DF829005AE0FFE70D980C3050
:1019E0009DF8321003F010FD0D990C31039008465C
:1019F00003F0CCFC8DF829009DF82900002804D0C4
:101A0000FFE703208DF8290042E00D980C300021FB
:101A100003F0D0FC8DF829009DF82900002804D09F
:101A2000FFE704208DF8290032E00020ADF8240003
:101A3000FFE7BDF82400BDF82A10884224DAFFE74A
:101A40000D980C3003F0ACFCDDF82CE0BDF8241050
:101A50000EF80100BDF82400BDF82A1001398842B3
:101A600004D1FFE701208DF82900FFE70D980C3025
:101A70009DF8291003F0B8FC0290FFE7BDF82400A0
:101A80000130ADF82400D4E700208DF82900FFE7ED
:101A90000D980C3003F09EFCBDF826E00D99A1F8DE
:101AA00022E09DF82910019008460EB0B0BD00005C
:101AB000B0B58EB09C4696460C4605460D90ADF8E6
:101AC00032100B92ADF82A30BDF82A000D994978F2
:101AD0008842CDF820C0CDF81CE00694059505DDC0
:101AE000FFE70D984078ADF82A00FFE700208DF859
:101AF00029000D99498CADF82610ADF824000D98F9
:101B00000078052828DBFFE70D980C30012103F051
:101B100051FC8DF829009DF82900002804D0FFE72A
:101B200002208DF829008BE00D980C309DF83310C1
:101B300003F06AFC0D990C310490084603F026FC72
:101B40008DF829009DF82900002804D0FFE7032024
:101B50008DF8290074E019E0BDF83200C0F30220CE
:101B60000D994A8C02EB400048840D980C300121FD
:101B700003F020FC8DF829009DF82900002804D0EE
:101B8000FFE702208DF829005AE0FFE70D980C309E
:101B90009DF8321003F038FC0D990C310390084683
:101BA00003F0F4FB8DF829009DF82900002804D0EB
:101BB000FFE703208DF8290042E00D980C3000214A
:101BC00003F0F8FB8DF829009DF82900002804D0C7
:101BD000FFE704208DF8290032E00020ADF8240052
:101BE000FFE7BDF82400BDF82A10884224DAFFE799
:101BF0000D980C3003F0D4FBDDF82CE0BDF8241078
:101C00000EF80100BDF82400BDF82A100139884201
:101C100004D1FFE701208DF82900FFE70D980C3073
:101C20009DF8291003F0E0FB0290FFE7BDF82400C7
:101C30000130ADF82400D4E700208DF82900FFE73B
:101C40000D980C3003F0C6FBBDF826E00D99A1F805
:101C500022E09DF82910019008460EB0B0BD0000AA
:101C6000B0B590B09C4696460C4605460E90ADF831
:101C700036100C92ADF82E300020ADF82C00ADF8E7
:101C80002A00BDF836100E9A5278B1FBF2F1ADF889
:101C90002810BDF836100E9A5278B1FBF2F303FB10
:101CA0001211ADF826100E994978BDF82620891A30
:101CB000ADF82410ADF822008DF82100BDF82E00FB
:101CC0000028CDF818C0CDF814E00494039504D092
:101CD000FFE70C98002804D1FFE706208DF83F00AD
:101CE00051E1BDF82E0002282DDCFFE70020ADF801
:101CF0002200FFE7BDF82200BDF82E10884221DA4D
:101D0000FFE70E98BDF836100C9A127800F040F9F3
:101D10008DF82100BDF836000130ADF836000C9882
:101D200001300C909DF82100002804D0FFE7072027
:101D30008DF83F0027E1FFE7BDF822000130ADF844
:101D40002200D7E71AE10E98407806F0AFFE079020
:101D50000798002804D1FFE708208DF8210009E149
:101D6000BDF824000E994978884260D0FFE70E98AC
:101D7000BDF8281042785143079B89B202921A4657
:101D8000029BFFF795FE8DF821009DF821000028A9
:101D900004D0FFE709208DF82100EBE00020ADF82A
:101DA0002200FFE7BDF82200BDF82410884223DAA4
:101DB000FFE70C9800780799BDF82220BDF826307F
:101DC0001A448854BDF836000130ADF836000C983E
:101DD00001300C90BDF82E000138ADF82E00BDF892
:101DE0002E00002801D1FFE706E0FFE7BDF8220042
:101DF0000130ADF82200D5E70020ADF826000E989E
:101E0000BDF8281042785143079B89B201921A46C7
:101E1000019B00F089F98DF821009DF82100002830
:101E200004D0FFE70A208DF82100A3E0FFE7BDF80A
:101E30002E000E994978B0FBF1F0ADF82C00BDF8FA
:101E40002E000E994978B0FBF1F202FB1100ADF8BB
:101E50002A00BDF82C00002838D0FFE70020ADF89C
:101E60002200FFE7BDF82200BDF82C1088422CDAD2
:101E7000FFE70E98BDF836100C9A437800F054F93D
:101E80008DF821000E984078BDF836100844ADF862
:101E900036000E9840780C9908440C900E984078C3
:101EA000BDF82E10081AADF82E009DF8210000286C
:101EB00004D0FFE70B208DF821005BE0FFE7BDF8C1
:101EC00022000130ADF82200CCE7FFE7BDF82A0080
:101ED00000284ED0FFE70E98BDF83610079A4378D9
:101EE000FFF7E6FD8DF821009DF82100002804D0C1
:101EF000FFE70C208DF821003CE00020ADF8220027
:101F0000FFE7BDF82200BDF8241088421EDAFFE783
:101F10000C9800780799BDF82220BDF826301A44A5
:101F200088540C9801300C90BDF82E000138ADF8A3
:101F30002E00BDF82E00002801D1FFE706E0FFE7E4
:101F4000BDF822000130ADF82200DAE70E98BDF8A6
:101F50003610079A437800F0E7F88DF821009DF8D5
:101F60002100002804D0FFE70D208DF8210001E0BA
:101F7000FFE7FFE7079806F07FFDFFE79DF82100E8
:101F80008DF83F00FFE79DF83F0010B0B0BD0000A6
:101F900080B58EB013468C4686460D90ADF8321053
:101FA0008DF8312000208DF830000D98408CADF870
:101FB0002E000D98406800280A93CDF824C0CDF873
:101FC00020E009D0FFE70D98416880680790084637
:101FD000079905F061F9FFE70D980078052828DBDF
:101FE000FFE70D980C30012103F0E4F98DF8300083
:101FF0009DF83000002804D0FFE702208DF8300063
:1020000060E00D980C309DF8331003F0FDF90D9948
:102010000C310690084603F0B9F98DF830009DF8B0
:102020003000002804D0FFE703208DF8300049E09D
:1020300019E0BDF83200C0F302200D994A8C02EB82
:10204000400048840D980C30012103F0B3F98DF85D
:1020500030009DF83000002804D0FFE702208DF802
:1020600030002FE0FFE70D980C309DF8321003F0A0
:10207000CBF90D990C310590084603F087F98DF8DE
:1020800030009DF83000002804D0FFE703208DF8D1
:10209000300017E00D980C309DF8311003F0B4F9C2
:1020A0000D990C310490084603F070F98DF830005A
:1020B0009DF83000002804D0FFE704208DF83000A0
:1020C00000E0FFE70D980C3003F084F9DDF834E010
:1020D000DEF804E0BEF1000F039009D0FFE70D9891
:1020E0004168806802900846029905F045F9FFE7CB
:1020F000BDF82E000D9948849DF8300000280ED1BF
:10210000FFE70D98C06A002808D0FFE70D98C06A65
:1021100005210190084601998847FFE7FFE79DF8F0
:1021200030000EB080BD0000B0B590B09C46964621
:102130000C4605460F90ADF83A100D92ADF83230CE
:10214000BDF832000F9949788842CDF828C0CDF803
:1021500024E00894079505DDFFE70F984078ADF877
:102160003200FFE700208DF831000F99498CADF85F
:102170002E10ADF82C000F984068002809D0FFE71A
:102180000F984168806806900846069905F084F823
:10219000FFE70F980078052828DBFFE70F980C3041
:1021A000012103F007F98DF831009DF83100002876
:1021B00004D0FFE702208DF8310074E00F980C3056
:1021C0009DF83B1003F020F90F990C31059008465B
:1021D00003F0DCF88DF831009DF83100002804D0C0
:1021E000FFE703208DF831005DE019E0BDF83A000B
:1021F000C0F302200F994A8C02EB400048840F98EC
:102200000C30012103F0D6F88DF831009DF8310033
:10221000002804D0FFE702208DF8310043E0FFE7FB
:102220000F980C309DF83A1003F0EEF80F990C312E
:102230000490084603F0AAF88DF831009DF83100AB
:10224000002804D0FFE703208DF831002BE00020A8
:10225000ADF82C00FFE7BDF82C00BDF83210884225
:1022600020DAFFE70F980C300D99BDF82C20895C1F
:1022700003F0CAF80F990C310390084603F086F872
:102280008DF831009DF83100002804D0FFE70420CC
:102290008DF8310007E0FFE7BDF82C000130ADF804
:1022A0002C00D8E7FFE70F980C3003F093F8BDF847
:1022B0002EE00F99A1F822E09DF83110002902903C
:1022C0000ED1FFE70F98C06A002808D0FFE70F98EB
:1022D000C06A05210190084601998847FFE7FFE79A
:1022E0000F984068002809D0FFE70F984168806880
:1022F00000900846009905F03FF8FFE79DF831008F
:1023000010B0B0BDFFE7FEE780B584B00A460346D3
:1023100003900291039802990192009300F084F8CF
:1023200004B080BD80B584B00A4603460390029194
:10233000039802990192009300F0A6F804B080BDC2
:1023400080B586B013468C4686468DF817000491FA
:1023500003929DF817000499039A0293CDF804C0E4
:10236000CDF800E000F0D4F806B080BD80B584B0B0
:102370000A46034603900291039802990192009342
:1023800000F010F904B080BD80B500F047F980BDC1
:1023900080B500F049F980BD80B584B00A46034697
:1023A000039002910398029901920093FFF7ACFF0A
:1023B00004B080BD80B584B00A4603460390029104
:1023C0000398029901920093FFF7ACFF04B080BD1F
:1023D00080B586B013468C4686468DF8170004916A
:1023E00003929DF817000499039A0293CDF804C054
:1023F000CDF800E0FFF7A4FF06B080BD80B584B043
:102400000A460346039002910398029901920093B1
:10241000FFF7ACFF04B080BD80B5FFF7B5FF80BD0E
:1024200080B5FFF7B5FF80BD86B00A46034605902C
:1024300004910020ADF80C00029001920093FFE798
:102440000298049988421BD2FFE79DF80D00059978
:10245000029A895C48408DF80F00BDF80C009DF889
:102460000F1042F27E12C0F6010232F8111081EA1A
:102470000020ADF80C00FFE7029801300290DFE782
:10248000BDF80C0006B0704780B584B00A4603461C
:1024900003900291039802990192009300F002F8D0
:1024A00004B080BD80B588B00A4603460790069107
:1024B00000200590049003920293019000F020F810
:1024C00001980590FFE705980699884210D2FFE72A
:1024D00007980599405C0490049943F20000C4F207
:1024E000020004F075FAFFE7059801300590EAE76D
:1024F00043F20000C4F2020004F076FA08B080BD96
:1025000080B543F20000C4F2020004F07FFA80BDFF
:1025100080B589B013468C4686468DF82300079116
:10252000069200208DF8160004900393CDF808C0A1
:10253000CDF804E0FFE70498069988422DD2FFE722
:102540009DF816000799049A895C48408DF8170099
:102550009DF8230001460728009104D0FFE700986A
:1025600031280AD013E09DF8170042F27E31C0F600
:102570000101085C8DF816000AE09DF8170042F290
:102580007E41C0F60101085C8DF8160000E0FFE70F
:10259000FFE7049801300490CDE79DF8160009B0DC
:1025A00080BD000086B00A460346059004910020D5
:1025B00003908DF80B00039001920093FFE70398BE
:1025C000049988420DD2FFE705980399405C9DF875
:1025D0000B1008448DF80B00FFE7039801300390BF
:1025E000EDE79DF80B00C0F580708DF80B009DF8AD
:1025F0000B0006B07047000080B582B043F20000C7
:10260000C4F2020004F0C6F940F2040EC2F2000E59
:1026100001218EF80010019002B080BD40F204004C
:10262000C2F200000078704780B5FFF7E5FF402058
:1026300004F04CF840F20400C2F200004FF0000E2B
:1026400080F800E080BD000080B500F00DF880BD8E
:1026500080B500F017F880BD80B5FFF7F5FF80BDAD
:1026600080B5FFF7F5FF80BD80B505F0EFF80028D5
:1026700007D0FFE705F0D8F805F07CF805F05CF826
:10268000FFE780BD80B582B005F0E8F800280FD0E4
:10269000FFE705F065F805F059F84FF0010ECDF8A9
:1026A00004E0DDF804E08EF3138806F051FEFFE746
:1026B00002B080BD80B58EB013468C4686460D9024
:1026C000ADF83210ADF8302000200B900A90ADF834
:1026D0002600BDF83000ADF826000893CDF81CC0E8
:1026E000CDF818E0FFE7BDF82600BDF832108842AB
:1026F0001BDAFFE70D98BDF8261030F81100FDF742
:1027000062FFDDF828E00B9A0590704604911146AF
:10271000059A049BFDF733FE0B910A90FFE7BDF885
:1027200026000130ADF82600DDE70A980B99BDF8C8
:102730003220BDF83030D21A039010460291FDF7D6
:1027400042FF039A01901046029B00911946019A9C
:10275000009BFDF7BBFEFDF75BFF0EB080BD0000E8
:1027600080B587B013468C46864605900491ADF837
:102770000E200020ADF80C000293CDF804C0CDF877
:1027800000E0FFE7BDF80C00BDF80E10884214DA37
:10279000FFE70598BDF80C10405C049A515C884234
:1027A00004D0FFE701208DF81B000AE0FFE7BDF829
:1027B0000C000130ADF80C00E4E700208DF81B00A0
:1027C000FFE79DF81B0007B080BD000080B582B018
:1027D0000020C4F2020004F095FB002811D0FFE7AE
:1027E0000020C4F20200012104F0A0FB002808D060
:1027F000FFE742F20040C4F20100FEF703F9019046
:10280000FFE702B080BD000080B582B040F200401A
:10281000C4F2020004F080FB002812D0FFE740F26F
:102820000040C4F20200052104F080FB002808D01B
:10283000FFE743F60040C4F20100FEF7E3F8019021
:10284000FFE702B080BD00007047000080B582B095
:1028500001468DF807009DF80700009100F056F83A
:1028600002B080BD80B500F0ADF980BD80B500F04C
:1028700029FE80BD80B500F0A9FE80BD80B500F0C6
:102880006DFF80BD80B502F07BF980BD80B502F0A0
:10289000D1F980BD80B502F0F1F980BD80B582B07C
:1028A00001468DF807009DF807000091FFF7CEFF65
:1028B00002B080BD80B5FFF7D5FF80BD80B5FFF7C2
:1028C000D5FF80BD80B5FFF7D5FF80BD80B5FFF790
:1028D000D5FF80BD80B582B001468DF807000F207E
:1028E0000091FFF7DBFFFFF7E5FF00F003F802B010
:1028F00080BD000080B5FFF7C5FF80BD80B5FFF744
:10290000C5FF80BD80B5FFF7C5FF80BD82B0014621
:102910008DF8070000208DF806000091FFE79DF874
:102920000600032824DCFFE79DF80700C007002805
:1029300009D0FFE79DF8060040F64871C2F2000199
:1029400001220A5408E09DF8060040F64871C2F2E0
:10295000000100220A54FFE79DF8070040088DF8A7
:102960000700FFE79DF8060001308DF80600D6E766
:1029700002B0704780B584B001468DF80F00019118
:102980000BF01EFD0130029002989DF80F1040F6EA
:10299000F07EC2F2000E5EF82110884214D2FFE7EA
:1029A0009DF80F0040F6F071C2F2000151F82000CE
:1029B000C043029908449DF80F1040F6D072C2F24D
:1029C000000242F8210012E002989DF80F1040F634
:1029D000F072C2F2000252F82110401A9DF80F1056
:1029E00040F6D072C2F2000242F82100FFE704B0C4
:1029F00080BD000080B584B00A46034603908DF880
:102A00000B1003994FF080400192009305F038FAC3
:102A1000002865D0FFE703994FF08040002205F0C1
:102A20008FFB9DF80B0040F69871C2F2000151F83F
:102A300020009DF80B1040F67472C2F2000242F8BA
:102A400021009DF80B0052F820009DF80B1040F675
:102A5000E072C2F2000252F8211088421DD2FFE754
:102A60009DF80B0040F67471C2F2000151F820008D
:102A70004CF2503108449DF80B1040F6E072C2F25F
:102A8000000252F82110401A9DF80B1040F688728F
:102A9000C2F2000242F8210019E09DF80B0040F656
:102AA0007471C2F2000151F820009DF80B1040F63D
:102AB000E072C2F2000252F82110401A9DF80B1089
:102AC00040F68872C2F2000242F82100FFE79DF84A
:102AD0000B0040F6AC71C2F2000101220A5464E01E
:102AE00003994FF08040022205F02AFB9DF80B006D
:102AF00040F69871C2F2000151F820009DF80B10C9
:102B000040F6E072C2F2000242F821009DF80B008C
:102B100052F820009DF80B1040F67472C2F20002C9
:102B200052F8211088421DD2FFE79DF80B0040F6B5
:102B3000E071C2F2000151F820004CF2503108441B
:102B40009DF80B1040F67472C2F2000252F8211088
:102B5000401A9DF80B1040F6B072C2F2000242F823
:102B6000210019E09DF80B0040F6E071C2F200016F
:102B700051F820009DF80B1040F67472C2F200026A
:102B800052F82110401A9DF80B1040F6B072C2F2B4
:102B9000000242F82100FFE79DF80B0040F6AC71FF
:102BA000C2F2000102220A54FFE70BF009FC9DF873
:102BB0000BE040F6F071C2F2000141F82E0004B0C3
:102BC00080BD000081B000200090FFE7009803283E
:102BD00070DCFFE7009840F69871C2F20001002215
:102BE00041F82020009840F68871C2F2000141F8B7
:102BF0002020009840F6B071C2F2000141F8202078
:102C0000009840F6AC71C2F200010A54009840F6F8
:102C1000A871C2F200010A54009840F6C071C2F2D5
:102C200000010A54009840F6C471C2F200010A542F
:102C3000009840F6E071C2F2000141F820200098AF
:102C400040F67471C2F2000141F82020009840F66D
:102C5000F071C2F2000141F82020009840F6D071D6
:102C6000C2F2000141F82020009841F20001C2F2B6
:102C700000010A54009840F6C871C2F2000121F820
:102C80001020009840F68471C2F200010A540098A6
:102C900040F65471C2F2000141F82020009840F63D
:102CA0006471C2F2000141F82020FFE70098013072
:102CB00000908BE701B0704780B590B040F60000FF
:102CC000C4F2010001210A90099102F08FF90A98DB
:102CD000099902F08BF90A98099902F087F90A9884
:102CE000099902F083F900200F900E900D900C903E
:102CF0000B9008210C9103210D910E900F9040F242
:102D000001100B900BA9DDF828E0089070460791A0
:102D100004F014FA0A9906900846089904F0CAFAD1
:102D200040F202200B900A9905900846079904F09A
:102D300005FA0A9904900846059904F0BBFA40F296
:102D400004400B900A9903900846079904F0F6F99D
:102D50000A9902900846039904F0ACFA40F608007C
:102D60000B900A9901900846079904F0E7F90A992F
:102D700000900846019904F09DFA10B080BD000053
:102D800080B584B00A4603468DF80F008DF80E100A
:102D90009DF80F00014603280292019300916CD820
:102DA0000099DFE801F0021C36509DF80E00002863
:102DB0000AD0FFE740F60040C4F201000821C0F24B
:102DC000084104F0E7FA09E040F60040C4F20100CF
:102DD0000821C0F2084104F06DFAFFE74EE09DF8CB
:102DE0000E0000280AD0FFE740F60040C4F20100C0
:102DF0001021C0F2104104F0CDFA09E040F6004085
:102E0000C4F201001021C0F2104104F053FAFFE7B0
:102E100034E09DF80E0000280AD0FFE740F600409D
:102E2000C4F201002021C0F2204104F0B3FA09E00D
:102E300040F60040C4F201002021C0F2204104F01D
:102E400039FAFFE71AE09DF80E0000280AD0FFE7E4
:102E500040F60040C4F201004021C0F2404104F0BD
:102E600099FA09E040F60040C4F201004021C0F2A6
:102E7000404104F01FFAFFE700E0FFE704B080BD27
:102E800080B590B040F60040C4F2010001210A90E4
:102E9000099102F0ABF80A98099902F0A7F80A988C
:102EA000099902F0A3F80A98099902F09FF8002006
:102EB0000F900E900D900C900B9009990C910D9124
:102EC0000E900F910820C0F208400B900DF12C0ECF
:102ED0000A9A089010467146CDF81CE004F02EF9CD
:102EE0000A9906900846089904F0E4F91020C0F207
:102EF00010400B900A9905900846079904F01EF9B6
:102F00000A9904900846059904F0D4F92020C0F2EB
:102F100020400B900A9903900846079904F00EF997
:102F20000A9902900846039904F0C4F94020C0F2BF
:102F300040400B900A9901900846079904F0FEF86A
:102F40000A9900900846019904F0B4F910B080BDC8
:102F500080B584B00A4603468DF80F008DF80E1038
:102F60009DF80F00014603280292019300916AD850
:102F70000099DFE801F0021A344E9DF80E00002897
:102F800009D0FFE741F60000C4F2010048F28001D9
:102F900004F090F908E041F60000C4F2010048F2A4
:102FA000800104F0F7F9FFE74EE09DF80E000028DD
:102FB0000AD0FFE740F60040C4F201000121C0F250
:102FC000014104F077F909E040F60040C4F2010045
:102FD0000121C0F2014104F0DDF9FFE734E09DF882
:102FE0000E0000280AD0FFE741F20000C4F2010001
:102FF0001021C0F2104104F05DF909E041F2000037
:10300000C4F201001021C0F2104104F0C3F9FFE73F
:103010001AE09DF80E0000280AD0FFE740F60040B5
:10302000C4F201008021C0F2804104F043F909E0BC
:1030300040F60040C4F201008021C0F2804104F05B
:10304000A9F9FFE700E0FFE704B080BD80B592B0CA
:1030500041F60000C4F2010001210C900B9101F037
:10306000C5FF40F60040C4F201000A900B9901F040
:10307000BDFF41F20000C4F2010009900B9901F07C
:10308000B5FF0A980B9901F0B1FF00201190109044
:103090000F900E900D900B980E900F9004211091B0
:1030A000119048F280010D910DF1340E0C980891A9
:1030B0007146CDF81CE004F041F80C9906900846E2
:1030C000089904F067F90120C0F201400D900A99B7
:1030D00005900846079904F031F80A9904900846CB
:1030E000059904F057F91020C0F210400D9009998D
:1030F00003900846079904F021F8099902900846C0
:10310000039904F047F98020C0F280400D900A999D
:1031100001900846079904F011F80A9900900846B2
:10312000019904F037F912B080BD000080B592B06B
:1031300041F60000C4F2010001210C900B9101F056
:1031400055FF40F60040C4F201000A900B9901F0CF
:103150004DFF41F20040C4F2010009900B9901F0CB
:1031600045FF09980B9901F041FF00201190109044
:103170000F900E900D900B980E900F9004211091CF
:1031800011900121C0F201410D910DF1340E0C9806
:1031900008917146CDF81CE003F0D0FF0C99069021
:1031A0000846089904F0F6F80220C0F202400D909B
:1031B0000A9905900846079903F0C0FF0A99049000
:1031C0000846059904F0E6F840F201100D900999BF
:1031D00003900846079903F0B1FF09990290084649
:1031E000039904F0D7F808980D900998079903F00F
:1031F000A5FF099901900846089904F0CBF812B090
:1032000080BD000080B598B04FF0804001210E9045
:103210000D910BF0F3FB0020179016901590149071
:1032200013901290119010900F900E990C900846E8
:1032300004F04CFC4CF25031159140F20001C2F206
:10324000000109684DF6836EC4F21B3EA1FB0E1E01
:103250004FEA9E4E4FF47A720EFB02F244F6D35EB2
:10326000C1F2620EA2FB0E2E4FF0FF3303EB9E1352
:10327000ADF84C300C9B169314938DF85C300DF127
:103280004C0EDDF838C00B9060460A9171460992E9
:1032900005F00EF80E990890084604F015FD0E98FA
:1032A0000C9905F01DF90E980C9905F07FF90E9810
:1032B00004F046FD4FF4803010900C9811900F9060
:1032C00012900FA90E980D9A07911146079A04F0D3
:1032D00029FE10210E9A06901046079A04F022FE4D
:1032E0004FF480710E9A05901046079A04F01AFE6A
:1032F0004FF480510E9A04901046079A04F012FE83
:10330000039005F0BDFE0C990C9A05F0E9FD1C2117
:1033100002900846029A0191114605F073FF019848
:1033200005F036FD0E9804F081FB0E9804F044FD84
:103330000E9804F04DFD0E9804F056FD0E9804F022
:103340005FFD0E9804F020FD18B080BD80B590B0F0
:1033500040F60000C4F2010001210A90099101F039
:1033600045FE0A98099901F041FE41F20000C4F2BD
:1033700001000890099901F039FE0898099901F0B7
:1033800035FE00200F900E900D900C900B90099937
:103390000C910D910E900F910820C0F208400B90F7
:1033A0000DF12C0E0A9A079010467146CDF818E0E0
:1033B00003F0C4FE0A9905900846079903F07AFFC6
:1033C0001020C0F210400B900A990490084606990C
:1033D00003F0B4FE0A9903900846049903F06AFFCB
:1033E0000420C0F204400B90089902900846069908
:1033F00003F0A4FE089901900846029903F05AFFD1
:1034000007980B900898069903F098FE0899009089
:103410000846079903F04EFF10B080BD80B582B01A
:1034200000208DF8070041F60000C4F201000121E0
:10343000C0F2014103F0E8FE002807D1FFE79DF844
:10344000070040F001008DF80700FFE740F600405C
:10345000C4F201000221C0F2024103F0D5FE0028AF
:1034600007D1FFE79DF8070040F002008DF8070044
:10347000FFE741F20040C4F2010040F2011103F005
:10348000C3FE002807D1FFE79DF8070040F00400C5
:103490008DF80700FFE741F20040C4F2010001216E
:1034A000C0F2014103F0B0FE002807D1FFE79DF80C
:1034B000070040F008008DF80700FFE79DF80700BF
:1034C00002B080BD80B584B04FF0804004F0C0FFF2
:1034D000002819D0FFE74FF08040039004F0B0FCC3
:1034E00040F6987EC2F2000ECEF8000040F6A870BA
:1034F000C2F2000090F800E00EF1010E80F800E04A
:10350000039804F09DFAFFE74FF0804004F0AAFF13
:10351000002819D0FFE74FF08040029004F098FC9B
:1035200040F6987EC2F2000ECEF8040040F6A87075
:10353000C2F2000090F801E00EF1010E80F801E007
:10354000029804F087FAFFE74FF0804004F094FF00
:10355000002819D0FFE74FF08040019004F080FC74
:1035600040F6987EC2F2000ECEF8080040F6A87031
:10357000C2F2000090F802E00EF1010E80F802E0C5
:10358000019804F071FAFFE74FF0804004F07EFFED
:10359000002819D0FFE74FF08040009004F068FC4D
:1035A00040F6987EC2F2000ECEF80C0040F6A870ED
:1035B000C2F2000090F803E00EF1010E80F803E083
:1035C000009804F05BFAFFE704B080BD80B5FFF718
:1035D00057FCFFF7ABFDFFF76FFBFFF737FDFFF77A
:1035E000B5FEFFF70FFE80BD80B58CB00A460346DE
:1035F000ADF82E00ADF82C10BDF82C0000280A9272
:10360000099354D0FFE7BDF82E0001460328089126
:103610002CD80899DFE801F0020C162040F60000D3
:10362000C4F201000821C0F2084103F0B3FE3DE0FE
:1036300040F60000C4F201001021C0F2104103F076
:10364000A9FE33E041F20000C4F201000421C0F2FF
:10365000044103F09FFE29E041F20000C4F20100A2
:103660000821C0F2084103F095FE1FE040F600007B
:10367000C4F201000821C0F208410790069103F04E
:1036800089FE1021C0F21041079803F083FE41F239
:103690000000C4F201000421C0F20441059003F0CF
:1036A00079FE0598069903F075FEFFE753E0BDF833
:1036B0002E000146032804912CD80499DFE801F07C
:1036C000020C162040F60000C4F201000821C0F2EE
:1036D000084103F0EFFD3DE040F60000C4F20100B8
:1036E0001021C0F2104103F0E5FD33E041F200008B
:1036F000C4F201000421C0F2044103F0DBFD29E023
:1037000041F20000C4F201000821C0F2084103F0B8
:10371000D1FD1FE040F60000C4F201000821C0F214
:1037200008410390029103F0C5FD1021C0F2104141
:10373000039803F0BFFD41F20000C4F20100042130
:10374000C0F20441019003F0B5FD0198029903F025
:10375000B1FDFFE7FFE70CB080BD000080B588B089
:1037600000208DF81F008DF81E008DF81F00FFE768
:103770009DF81F00032801F3B381FFE79DF81F00A8
:1037800040F64871C2F20001085C012841F0A081B6
:10379000FFE79DF81F00FFF7EDF89DF81F0001F00F
:1037A000A1F99DF81FE040F6C071C2F2000111F8C6
:1037B0000E108E460E290690CDF814E001F27E819F
:1037C0000599DFE811F00F003F008F0067015802F4
:1037D0002403BF034604B90492053B061507870777
:1037E0006708D9089DF81F0040F6C071C2F20001B9
:1037F000085C9DF81F2040F6C473C2F20003985481
:103800009DF81F0001220A549DF81F0040F6AC717C
:10381000C2F2000100220A549DF81F0040F6E07138
:10382000C2F2000141F820209DF81F0040F674719B
:10383000C2F2000141F820209DF81F0001F032FA89
:1038400001F045B99DF81F0040F6C071C2F20001B9
:10385000085C9DF81F2040F6C473C2F20003985420
:103860009DF81F0040F64C72C2F20002002322F8BD
:1038700010309DF81F0040F6C872C2F2000222F814
:1038800010309DF81F0040F68472C2F200021354FB
:103890009DF81F0040F65472C2F2000242F8203038
:1038A0009DF81F00049119460393FFF769FA9DF8EC
:1038B0001F000399FFF74CFB9DF81F000121FFF744
:1038C00093FE9DF81F000221049A11540AF078FD1E
:1038D0009DF81F1040F6F072C2F2000242F821007B
:1038E00001F0F5B89DF81F0040F6C071C2F200016A
:1038F000085C9DF81F1040F6C472C2F200025054DA
:103900009DF81F0040F6AC71C2F20001085C00F0A7
:103910000300012840F09D80FFE79DF81F0040F65E
:10392000AC71C2F2000100220A549DF81F0040F65B
:103930008871C2F2000151F82000B0F5967F0CD3D7
:10394000FFE79DF81F0040F68871C2F2000151F8B0
:103950002000B0F52F7F30D9FFE79DF81F0040F61B
:103960008871C2F2000151F82000B0F5C87F0CD375
:10397000FFE79DF81F0040F68871C2F2000151F880
:103980002000B0F5167F18D9FFE79DF81F0040F61C
:103990008871C2F2000151F82000B0F5967F1DD366
:1039A000FFE79DF81F0040F68871C2F2000151F850
:1039B0002000B0F52F7F11D8FFE79DF81F0041F2DE
:1039C0000001C2F2000100220A549DF81F0040F6D7
:1039D000C071C2F2000103220A5434E09DF81F00B6
:1039E00040F68871C2F2000151F8200040F21451F3
:1039F00088421ED3FFE79DF81F0040F68871C2F28F
:103A0000000151F8200040F2A461884211D8FFE77C
:103A10009DF81F0041F20001C2F2000102220A5487
:103A20009DF81F0040F6C071C2F2000106220A5440
:103A300008E09DF81F0040F6C071C2F200010122AB
:103A40000A54FFE7FFE79DF81F000021FFF7CCFDB8
:103A50001EE09DF81F0040F6D071C2F2000151F83F
:103A600020001F2813D3FFE79DF81F0040F6C07108
:103A7000C2F2000101220A540AF0A2FC9DF81F10B4
:103A800040F6F072C2F2000242F82100FFE7FFE7C1
:103A900001F01DB89DF81F0040F6C071C2F2000190
:103AA000085C9DF81F1040F6C472C2F20002505428
:103AB0009DF81F0040F6AC71C2F20001085C00F0F6
:103AC0000300022840F0B680FFE79DF81F0040F693
:103AD000B071C2F2000151F82000B0F5967F0CD30E
:103AE000FFE79DF81F0040F6B071C2F2000151F8E7
:103AF0002000B0F52F7F30D9FFE79DF81F0040F67A
:103B0000B071C2F2000151F82000B0F5C87F0CD3AB
:103B1000FFE79DF81F0040F6B071C2F2000151F8B6
:103B20002000B0F5167F18D9FFE79DF81F0040F67A
:103B3000B071C2F2000151F82000B0F5967F28D391
:103B4000FFE79DF81F0040F6B071C2F2000151F886
:103B50002000B0F52F7F1CD8FFE79DF81F0041F231
:103B60000001C2F2000100220A549DF81F0040F635
:103B7000C071C2F2000109220A549DF81F0040F6EC
:103B8000C871C2F2000131F81020013221F8102072
:103B90004AE09DF81F0040F6B071C2F2000151F8F2
:103BA000200040F21451884234D3FFE79DF81F00F3
:103BB00040F6B071C2F2000151F8200040F2A46159
:103BC000884227D8FFE79DF81F0041F20001C2F2AA
:103BD000000102220A549DF81F0040F6C071C2F293
:103BE000000104220A549DF81F0040F64C71C2F2F5
:103BF000000131F81020013221F8102040F65470F5
:103C0000C2F200009DF81F1050F82120520040F829
:103C1000212008E09DF81F0040F6C071C2F20001AB
:103C200001220A54FFE7FFE79DF81F000121FFF77B
:103C3000DBFC1EE09DF81F0040F6D071C2F20001CF
:103C400051F820001F2813D3FFE79DF81F0040F60E
:103C5000C071C2F2000101220A540AF0B1FB9DF8C2
:103C60001F1040F6F072C2F2000242F82100FFE796
:103C7000FFE700F02CBF9DF81F0040F6C071C2F2B4
:103C80000001085C9DF81F1040F6C472C2F20002E9
:103C900050549DF81F0040F6AC71C2F20001085C60
:103CA00000F00300012840F09180FFE79DF81F001D
:103CB00040F6AC71C2F2000100220A549DF81F00C8
:103CC00040F68871C2F2000151F82000B0F5967FED
:103CD00015D3FFE79DF81F0040F68871C2F200017E
:103CE00051F82000B0F52F7F09D8FFE79DF81F009D
:103CF00040F6C071C2F2000105220A5460E09DF84E
:103D00001F0040F68871C2F2000151F8200040F215
:103D1000145188424AD3FFE79DF81F0040F688718E
:103D2000C2F2000151F8200040F2A46188423DD85F
:103D3000FFE79DF81F0040F6C071C2F200010622A5
:103D40000A549DF81F000021FFF74EFC9DF81F004C
:103D500040F64C71C2F2000131F81020013221F816
:103D600010209DF81F0040F65472C2F2000252F873
:103D700020E00EF1010E42F820E09DF81F0052F8FD
:103D800020E04FEA4E0E42F820E09DF81F0031F887
:103D90001000182809DBFFE79DF81F0040F6C071EE
:103DA000C2F2000106220A54FFE708E09DF81F0056
:103DB00040F6C071C2F2000101220A54FFE7FFE79A
:103DC0009DF81F000021FFF70FFC1EE09DF81F006B
:103DD00040F6D071C2F2000151F820001F2813D321
:103DE000FFE79DF81F0040F6C071C2F200010122FA
:103DF0000A540AF0E5FA9DF81F1040F6F072C2F27C
:103E0000000242F82100FFE7FFE700F060BE9DF8E6
:103E10001F0040F6C071C2F20001085C9DF81F103F
:103E200040F6C472C2F2000250549DF81F0040F6E2
:103E3000AC71C2F20001085C00F00300022860D1FE
:103E4000FFE79DF81F0040F6AC71C2F200010022AE
:103E50000A549DF81F0040F6B071C2F2000151F8FB
:103E6000200040F2145188423CD3FFE79DF81F0028
:103E700040F6B071C2F2000151F8200040F2A46196
:103E800088422FD8FFE79DF81F0040F6C071C2F2AC
:103E9000000104220A549DF81F0040F64C71C2F242
:103EA000000131F81020013221F8102040F6547042
:103EB000C2F200009DF81F2050F822305B0040F84D
:103EC00022309DF81F0031F81000182809DBFFE7A9
:103ED0009DF81F0040F6C071C2F2000107220A548B
:103EE000FFE708E09DF81F0040F6C071C2F2000134
:103EF00001220A54FFE79DF81F000121FFF774FB20
:103F00001EE09DF81F0040F6D071C2F2000151F88A
:103F100020001F2813D3FFE79DF81F0040F6C07153
:103F2000C2F2000101220A540AF04AFA9DF81F1059
:103F300040F6F072C2F2000242F82100FFE7FFE70C
:103F400000F0C5BD9DF81F0040F6C071C2F200012F
:103F5000085C9DF81F1040F6C472C2F20002505473
:103F60009DF81F0040F6AC71C2F20001085C00F041
:103F7000030002284CD1FFE79DF81F0040F6AC710A
:103F8000C2F2000100220A549DF81F0040F6B071F1
:103F9000C2F2000151F82000B0F5967F29D3FFE767
:103FA0009DF81F0040F6B071C2F2000151F82000E8
:103FB000B0F52F7F1DD8FFE79DF81F0040F6C071B8
:103FC000C2F2000104220A549DF81F0040F64C7111
:103FD000C2F2000131F81000182809DBFFE79DF854
:103FE0001F0040F6C071C2F2000107220A54FFE729
:103FF00008E09DF81F0040F6C071C2F200010122E6
:104000000A54FFE79DF81F000121FFF7EDFA1EE0BB
:104010009DF81F0040F6D071C2F2000151F8200057
:104020001F2813D3FFE79DF81F0040F6C071C2F2AE
:10403000000101220A540AF0C3F99DF81F1040F64E
:10404000F072C2F2000242F82100FFE7FFE700F041
:104050003EBD9DF81F0040F6C071C2F20001085C31
:104060009DF81F1040F6C472C2F2000250549DF831
:104070001F0040F6AC71C2F20001085C00F00300C2
:10408000012838D1FFE79DF81F0040F6AC71C2F25D
:10409000000100220A549DF81F0040F68871C2F208
:1040A000000151F82000B0F5967F15D3FFE79DF889
:1040B0001F0040F68871C2F2000151F82000B0F5EF
:1040C0002F7F09D8FFE79DF81F0040F6C071C2F2AC
:1040D000000108220A5408E09DF81F0040F6C07154
:1040E000C2F2000101220A54FFE79DF81F000021DF
:1040F000FFF77AFA1EE09DF81F0040F6D071C2F279
:10410000000151F820001F2813D3FFE79DF81F007E
:1041100040F6C071C2F2000101220A540AF050F9BF
:104120009DF81F1040F6F072C2F2000242F8210022
:10413000FFE7FFE700F0CBBC9DF81F0040F6C07121
:10414000C2F20001085C9DF81F1040F6C472C2F272
:10415000000250549DF81F0040F6AC71C2F20001FD
:10416000085C00F00300022840F09F80FFE79DF804
:104170001F0040F6AC71C2F2000100220A549DF803
:104180001F0040F6B071C2F2000151F8200043F266
:10419000D40188427AD3FFE79DF81F0040F6B07142
:1041A000C2F2000151F8200044F25C4188426DD80F
:1041B000FFE79DF81F0040F6C071C2F20001022225
:1041C0000A549DF81F0040F64C71C2F20001002213
:1041D00021F810209DF81F0040F68471C2F2000102
:1041E0000A5C01320A549DF81F00085C022838DB83
:1041F000FFE79DF81F0040F66471C2F2000151F81C
:10420000201040F65472C2F2000252F8200081429F
:1042100004D1FFE701208DF81E0003E000208DF897
:104220001E00FFE79DF81F009DF81E10FEF7A8FD79
:104230009DF81F009DF81E10FEF78AFE9DF81F00D6
:1042400040F68471C2F200014FF0000E01F800E068
:104250009DF81F0040F65471C2F2000141F820E0C1
:1042600013E09DF81F0040F65471C2F2000151F8AE
:10427000202040F66473C2F2000343F820209DF82A
:104280001F00002241F82020FFE708E09DF81F00F2
:1042900040F6C071C2F2000101220A54FFE79DF806
:1042A0001F000121FFF7A0F91EE09DF81F0040F656
:1042B000D071C2F2000151F820001F2813D3FFE78C
:1042C0009DF81F0040F6C071C2F2000101220A549D
:1042D0000AF076F89DF81F1040F6F072C2F2000264
:1042E00042F82100FFE7FFE7F1E39DF81F0040F6E9
:1042F000C071C2F20001085C9DF81F1040F6C47244
:10430000C2F2000250549DF81F0040F6AC71C2F298
:104310000001085C00F0030001286FD1FFE79DF861
:104320001F0040F6AC71C2F2000100220A549DF851
:104330001F0040F6C871C2F2000131F810000328D6
:104340002BDCFFE79DF81F0040F68871C2F20001E8
:1043500051F82000B0F5967F15D3FFE79DF81F00B8
:1043600040F68871C2F2000151F82000B0F52F7FAD
:1043700009D8FFE79DF81F0040F6C071C2F20001A6
:104380000A220A5408E09DF81F0040F6C071C2F2EC
:10439000000101220A54FFE72AE09DF81F0040F6C1
:1043A0008871C2F2000151F82000B0F5C87F15D322
:1043B000FFE79DF81F0040F68871C2F2000151F836
:1043C0002000B0F5167F09D8FFE79DF81F0040F6E2
:1043D000C071C2F200010A220A5408E09DF81F00D1
:1043E00040F6C071C2F2000101220A54FFE7FFE764
:1043F0009DF81F000021FFF7F7F81EE09DF81F0051
:1044000040F6D071C2F2000151F820001F2813D3EA
:10441000FFE79DF81F0040F6C071C2F200010122C3
:104420000A5409F0CDFF9DF81F1040F6F072C2F259
:10443000000242F82100FFE7FFE748E39DF81F0074
:1044400040F6C071C2F20001085C9DF81F1040F6F2
:10445000C472C2F2000250549DF81F0040F6AC71C5
:10446000C2F20001085C00F00300022840F0A080C6
:10447000FFE79DF81F0040F6AC71C2F20001002278
:104480000A549DF81F0040F6C871C2F2000131F8CD
:104490001000032840DCFFE79DF81F0040F6B071D4
:1044A000C2F2000151F82000B0F5967F2AD3FFE751
:1044B0009DF81F0040F6B071C2F2000151F82000D3
:1044C000B0F52F7F1ED8FFE79DF81F0040F6C071A2
:1044D000C2F2000109220A549DF81F0040F6C8717B
:1044E000C2F2000131F81020013221F810209DF8AD
:1044F0001F0031F8101040F64C72C2F2000222F890
:10450000101008E09DF81F0040F6C071C2F20001D3
:1045100001220A54FFE745E09DF81F0040F6B07104
:10452000C2F2000151F82000B0F5C87F30D3FFE798
:104530009DF81F0040F6B071C2F2000151F8200052
:10454000B0F5167F24D8FFE79DF81F0040F6C07134
:10455000C2F2000109220A549DF81F0040F64C7176
:10456000C2F2000131F81020013221F810209DF82C
:104570001F0031F810002F2809DBFFE79DF81F000E
:1045800040F6C071C2F200010B220A54FFE708E0B6
:104590009DF81F0040F6C071C2F2000101220A54CA
:1045A000FFE7FFE79DF81F000121FFF71DF81EE060
:1045B0009DF81F0040F6D071C2F2000151F82000B2
:1045C0001F2813D3FFE79DF81F0040F6C071C2F209
:1045D000000101220A5409F0F3FE9DF81F1040F675
:1045E000F072C2F2000242F82100FFE7FFE76EE23C
:1045F0009DF81F0040F6C071C2F20001085C9DF8F2
:104600001F1040F6C472C2F2000250549DF81F0001
:1046100040F6AC71C2F20001085C00F00300012812
:1046200038D1FFE79DF81F0040F6AC71C2F20001DF
:1046300000220A549DF81F0040F68871C2F2000162
:1046400051F82000B0F5C87F15D3FFE79DF81F0093
:1046500040F68871C2F2000151F82000B0F5167FD3
:1046600009D8FFE79DF81F0040F6C071C2F20001B3
:104670000C220A5408E09DF81F0040F6C071C2F2F7
:10468000000101220A54FFE79DF81F000021FEF7F8
:10469000ABFF1EE09DF81F0040F6D071C2F2000192
:1046A00051F820001F2813D3FFE79DF81F0040F6A4
:1046B000C071C2F2000101220A5409F081FE9DF886
:1046C0001F1040F6F072C2F2000242F82100FFE72C
:1046D000FFE7FCE19DF81F0040F6C071C2F2000147
:1046E000085C9DF81F1040F6C472C2F200025054DC
:1046F0009DF81F0040F6AC71C2F20001085C00F0AA
:104700000300022840F0A680FFE79DF81F0040F656
:10471000AC71C2F2000100220A549DF81F0040F65D
:10472000B071C2F2000151F8200043F2D401884276
:104730004CD3FFE79DF81F0040F6B071C2F20001B4
:1047400051F8200044F25C4188423FD8FFE79DF8D1
:104750001F0040F6C071C2F2000102220A549DF807
:104760001F0040F68471C2F200010A5C01320A5453
:104770009DF81F0040F64C72C2F20002002322F89E
:1047800010309DF81F0040F6C872C2F2000222F8F5
:1047900010309DF81F00085C022816DBFFE79DF82B
:1047A0001F0001210291FEF7EBFA9DF81F0002990C
:1047B000FEF7CEFB9DF81F0040F68471C2F20001A7
:1047C0004FF0000E01F800E0FFE73DE09DF81F000C
:1047D00040F6B071C2F2000151F82000B0F5C87F78
:1047E00028D3FFE79DF81F0040F6B071C2F2000128
:1047F00051F82000B0F5167F1CD8FFE79DF81F0088
:1048000040F64C71C2F2000131F81020013221F85B
:1048100010209DF81F0041F20001C2F200010022A9
:104820000A549DF81F0040F6C071C2F200010D222B
:104830000A5408E09DF81F0040F6C071C2F2000162
:1048400001220A54FFE7FFE79DF81F000121FEF750
:10485000CBFE1EE09DF81F0040F6D071C2F20001B1
:1048600051F820001F2813D3FFE79DF81F0040F6E2
:10487000C071C2F2000101220A5409F0A1FD9DF8A5
:104880001F1040F6F072C2F2000242F82100FFE76A
:10489000FFE71CE19DF81F0040F6C071C2F2000165
:1048A000085C9DF81F1040F6C472C2F2000250541A
:1048B0009DF81F0040F6AC71C2F20001085C00F0E8
:1048C0000300012838D1FFE79DF81F0040F6AC71C6
:1048D000C2F2000100220A549DF81F0040F68871C0
:1048E000C2F2000151F82000B0F5C87F15D3FFE7F0
:1048F0009DF81F0040F68871C2F2000151F82000B7
:10490000B0F5167F09D8FFE79DF81F0040F6C0718B
:10491000C2F200010E220A5408E09DF81F0040F682
:10492000C071C2F2000101220A54FFE79DF81F0086
:104930000021FEF759FE1EE09DF81F0040F6D071E1
:10494000C2F2000151F820001F2813D3FFE79DF8A1
:104950001F0040F6C071C2F2000101220A5409F0A2
:104960002FFD9DF81F1040F6F072C2F2000242F8CF
:104970002100FFE7FFE7AAE09DF81F0040F6C071A5
:10498000C2F20001085C9DF81F1040F6C472C2F22A
:10499000000250549DF81F0040F6AC71C2F20001B5
:1049A000085C00F00300022868D1FFE79DF81F00B3
:1049B00040F6AC71C2F2000100220A549DF81F00BB
:1049C00040F6B071C2F2000151F82000B0F5C87F86
:1049D0004AD3FFE79DF81F0040F6B071C2F2000114
:1049E00051F82000B0F5167F3ED8FFE79DF81F0074
:1049F00040F64C71C2F2000131F81020013221F86A
:104A000010209DF81F0031F8100050281DDBFFE733
:104A10009DF81F0040F6C071C2F2000102220A5444
:104A20009DF81F0001210191FEF7AAF99DF81F00D2
:104A30000199FEF78DFA9DF81F0040F64C71C2F205
:104A40000001002221F8102008E09DF81F0040F628
:104A5000C071C2F200010D220A54FFE79DF81F0049
:104A60000121FEF7C1FD08E09DF81F0040F6C0716E
:104A7000C2F2000101220A54FFE71EE09DF81F0068
:104A800040F6D071C2F2000151F820001F2813D364
:104A9000FFE79DF81F0040F6C071C2F2000101223D
:104AA0000A5409F08DFC9DF81F1040F6F072C2F216
:104AB000000242F82100FFE7FFE708E09DF81F0031
:104AC00040F6C071C2F2000100220A54FFE7FFE77E
:104AD000FFE79DF81F0001308DF81F00FEF748BE6C
:104AE00008B080BD80B586B001468DF81600012063
:104AF0008DF81500002004909DF81600024603284A
:104B00000391029212D80299DFE801F00205080C25
:104B1000012004900FE0102004900CE04FF480700E
:104B2000049008E04FF48050049004E09DF81500D4
:104B30008DF8170020E09DF8160040F6A871C2F22B
:104B40000001085C002812D0FFE79DF8160040F62F
:104B5000A871C2F2000100220A5404989DF81610B0
:104B60000192FDF747FF01988DF81500FFE79DF8CA
:104B700015008DF81700FFE79DF8170006B080BDFF
:104B800080B584B040F60040C4F201000821C0F2B4
:104B90000841039002F08EFB1020C0F210400399F0
:104BA00002900846029902F085FB2021C0F22041C4
:104BB000039802F07FFB4021C0F24041039802F0CD
:104BC00079FB41F60000C4F2010048F2800102F0D6
:104BD000E1FB0121C0F20141039802F0DBFB41F24D
:104BE0000000C4F20100029902F0D4FB8021C0F25F
:104BF0008041039802F0CEFB4FF08040019003F01B
:104C00006FF8019802F04EFF019802F019FF019829
:104C100002F020FF019802F027FF019802F02EFF1A
:104C20000021019803F080FC019803F0ADF804B076
:104C300080BD000080B582B04FF0804003F050F896
:104C400040F60040C4F201000821C0F20841019082
:104C500002F030FB1021C0F21041019802F02AFB53
:104C60002021C0F22041019802F024FB4021C0F233
:104C70004041019802F01EFB02B080BD80B582B0B9
:104C8000FEF7CCFB8DF807009DF80700002805D043
:104C9000FFE7FEF7C3FB8DF80700FFE79DF807006D
:104CA00002B080BD80B584B001468DF80F009DF83C
:104CB0000F00024603280291019222D80199DFE8F1
:104CC00001F0020910184FF080400121002203F08A
:104CD00037FA17E04FF080401021002203F030FA3D
:104CE00010E04FF080404FF48071002203F028FA6A
:104CF00008E04FF080404FF48051002203F020FA8A
:104D000000E0FFE704B080BD80B582B001460190AD
:104D10000198009100F060F802B080BD80B582B0CB
:104D2000014601900198009100F064F802B080BD46
:104D300080B582B0014601900198009100F01EF804
:104D400002B080BD80B584B001460390039800286E
:104D5000029110D0FFE7FFE70398411E039100285E
:104D600008D0FFE74FF47A7000F008F800F0C2FEB8
:104D70000190F1E7FFE704B080BD000080B584B08A
:104D80000146039003980028029105D0FFE703989D
:104D900009F022FB0190FFE704B080BD80B582B02E
:104DA0000146019001980091FFF7AEFF02B080BD6F
:104DB00080B582B00146019001980091FFF7AEFFE7
:104DC00002B080BD80B582B001460190019800918B
:104DD000FFF7AEFF02B080BD82B0014601900091A6
:104DE000FFE70198411E0191002801D0FFE7F8E795
:104DF00002B0704780B584B0014603900398002844
:104E000002910FD0FFE709F0C3FA002805D1FFE7B0
:104E1000039809F0C1FA019003E00398FFF792FFAD
:104E2000FFE7FFE704B080BD86B00A460346059061
:104E3000ADF812100020ADF81000ADF80E00BDF86E
:104E400012100139ADF80C10ADF81000019200936A
:104E5000FFE7BDF81000BDF80C1088423FDAFFE70D
:104E60000020ADF80E00FFE7BDF80E00BDF80C10F5
:104E7000BDF81020891A88422ADAFFE70598BDF8A4
:104E80000E1000EB410230F811005188884218DA08
:104E9000FFE70598BDF80E1000EB41004088ADF823
:104EA0000A000598BDF80E1000EB410230F8110021
:104EB0005080BDF80A000599BDF80E2021F81200B7
:104EC000FFE7FFE7BDF80E000130ADF80E00CBE7BD
:104ED000FFE7BDF810000130ADF81000B9E7002081
:104EE00006B0704780B500F005F880BD80B5FFF7CB
:104EF000F9FF80BD80B541F20401C2F200014FF616
:104F00000000C0F60F004FF4806200F017F880BD7B
:104F100080B586B013468C46864605900491ADF860
:104F20000E2005980499BDF80E200293CDF804C018
:104F3000CDF800E000F018F806B080BD80B586B06E
:104F400013468C46864605900491ADF80E200598D0
:104F50000499BDF80E200293CDF804C0CDF800E00E
:104F6000FFF7D6FF06B080BD80B586B013468C46ED
:104F7000864605900491ADF80E200020ADF80C0097
:104F80000293CDF804C0CDF800E0FFE7BDF80C00B7
:104F9000BDF80E10884213DAFFE7059802F092F888
:104FA000DDF810E0BDF80C102EF811000598023065
:104FB0000590FFE7BDF80C000130ADF80C00E5E707
:104FC00006B080BD80B584B00A46034603908DF8D4
:104FD0000B1003989DF80B100192009300F01AF843
:104FE00004B080BD80B500F0BDF880BD80B584B050
:104FF0000A46034603908DF80B1003989DF80B109A
:1050000001920093FFF7DEFF04B080BD80B5FFF78B
:10501000E9FF80BD80B584B00A46034603908DF851
:105020000B10039840F60001C4F20101884201927E
:1050300000930ED1FFE79DF80B00002804D0FFE796
:10504000042001F02FFC03E0042001F0E7FBFFE760
:1050500085E0039840F60041C4F2010188420ED178
:10506000FFE79DF80B00002804D0FFE7082001F0BF
:1050700019FC03E0082001F0D1FBFFE76FE0039883
:1050800041F20001C4F2010188420ED1FFE79DF810
:105090000B00002804D0FFE7102001F003FC03E020
:1050A000102001F0BBFBFFE759E0039841F20041FB
:1050B000C4F2010188420ED1FFE79DF80B000028E1
:1050C00004D0FFE7202001F0EDFB03E0202001F0F9
:1050D000A5FBFFE743E0039841F60001C4F201019C
:1050E00088420ED1FFE79DF80B00002804D0FFE7AF
:1050F000402001F0D7FB03E0402001F08FFBFFE7E9
:105100002DE0039841F60041C4F2010188420ED11E
:10511000FFE79DF80B00002804D0FFE7802001F096
:10512000C1FB03E0802001F079FBFFE717E0039863
:1051300042F20001C4F20101884210D1FFE79DF85C
:105140000B00002805D0FFE74FF4807001F0AAFBA8
:1051500004E04FF4807001F061FBFFE7FFE704B06B
:1051600080BD000080B582B040F60000C4F20100AE
:1051700001210191FFF74EFF40F60040C4F201000B
:105180000199FFF747FF41F20000C4F201000199C5
:10519000FFF740FF41F20040C4F201000199FFF720
:1051A00039FF41F60000C4F201000199FFF732FF18
:1051B00041F60040C4F201000199FFF72BFF42F2D3
:1051C0000000C4F201000199FFF724FF019801F0EB
:1051D00069FB01F09BFF01F0A5FF02B080BD00005C
:1051E00040F24000C2F20000006844F69C01C2F2A6
:1051F00000010A6810440860704700001EF0040FA8
:105200000CBFEFF30880EFF3098000F001B870479E
:1052100082B00146019041F60400C2F20000002273
:10522000C261826142610261C2608260426002606A
:10523000019A12680260019A52684260019A92686B
:105240008260019AD268C260019A12690261019A71
:1052500052694261019A92698261019AD269C2617E
:1052600001BE009102B0704780B5FFF7C7FFFFE7AE
:10527000FEE7000080B584B00A4603460390029121
:10528000039802990192009300F0FAF804B080BDEF
:1052900080B582B0014601900198009100F072F94A
:1052A00002B080BD80B582B00146019001980091A6
:1052B00000F0E6F902B080BD80B586B00A4603462C
:1052C00005908DF8131005980392029300F014FADC
:1052D0009DF813100029019006D0FFE70598C18AB8
:1052E00001F0FE01C18205E00598C18A41F001018B
:1052F000C182FFE70598817D00F006FB05990090CB
:10530000084600F03FF906B080BD000080B582B0CD
:10531000014601900198009100F040FA02B080BD72
:1053200080B584B00A46034603908DF80B100398AD
:105330009DF80B100192009300F07AFA04B080BD42
:1053400080B584B00A46034603908DF80B1003988D
:105350009DF80B100192009300F0D6FA04B080BDC6
:1053600082B0014601900120009102B07047000018
:1053700080B584B00A4603460390029103980299CF
:1053800001920093FFF776FF04B080BD80B582B034
:105390000146019001980091FFF77AFF02B080BDAD
:1053A00080B582B00146019001980091FFF77AFF25
:1053B00002B080BD80B584B00A46034603908DF8E4
:1053C0000B1003989DF80B1001920093FFF774FFE8
:1053D00004B080BD80B582B0014601900198009173
:1053E000FFF794FF02B080BD80B584B00A46034643
:1053F00003908DF80B1003989DF80B100192009309
:10540000FFF78EFF04B080BD80B584B00A46034626
:1054100003908DF80B1003989DF80B1001920093E8
:10542000FFF78EFF04B080BD80B586B001460590C1
:105430000598C268006904901046049A03911146C9
:1054400001F046FF0598416880680290084602997D
:1054500001F0AEFF0598407D012805DBFFE70598C8
:10546000C169407D8847FFE70598416880680190E1
:105470000846019901F02CFF002006B080BD000015
:1054800080B590B00A4603460F900E910F98406881
:105490000121089107920693FFF7A8FD0F98C068B5
:1054A0000899FFF7A3FD0F984168806805900846AA
:1054B000059901F07DFF0F98C168006904900846C6
:1054C000049901F075FF00200D900C900B900A904C
:1054D00009900F988068099008980A9003210B9111
:1054E00004210C910D900F99486809A9039101F0CE
:1054F00025FE0F99096909910F99C968029008461C
:10550000039901F01BFE0E990029019004D0FFE7DA
:105510000E980F99C86106E00F9844F6C551C0F681
:105520000001C161FFE7002010B080BD80B586B0EA
:10553000014605900598C268006904901046049AD7
:105540000391114601F034FF05984168806802908C
:105550000846029901F02CFF0598407D012805DBE3
:10556000FFE70598C169407D8847FFE705984168D6
:10557000806801900846019901F0AAFE002006B05B
:1055800080BD000080B588B00146079000208DF8EE
:105590001B000798C268006905901046059A04919F
:1055A000114601F005FF079841688068039008469E
:1055B000039901F0FDFE0798407D012805DBFFE718
:1055C0000798C169407D8847FFE70798C16800696F
:1055D00002900846029901F029FE002804D0FFE756
:1055E00001208DF81B00FFE7079841688068019053
:1055F0000846019901F06CFE9DF81B0008B080BDC3
:1056000080B586B00146059000208DF813000598FE
:105610004268806803901046039A0291114601F097
:10562000C7FE0598407D012805DBFFE70598C169A5
:10563000407D8847FFE70598C168006901900846EA
:10564000019901F0F3FD002804D0FFE701208DF857
:105650001300FFE7059841688068009008460099AC
:1056600001F036FE0598407D012805DBFFE705982F
:10567000C169407D8847FFE79DF8130006B080BDF3
:1056800080B586B00146059000208DF813008DF896
:105690001200059AD36812690390184602911146C8
:1056A00001F086FE059841688068019008460199DE
:1056B00001F00EFE03988DF81300FFE79DF813002C
:1056C000072815DCFFE79DF8120040008DF8120056
:1056D0000598FFF795FF9DF812E040EA0E008DF85F
:1056E0001200FFE79DF8130001308DF81300E5E785
:1056F0009DF8120006B080BD80B588B001460690C6
:105700000698C268006905901046059A04911146F2
:1057100001F04EFE069841688068039008460399A0
:1057200001F046FE0698407D012805DBFFE706985C
:10573000C169407D8847FFE70698C168006902900B
:105740000846029901F0C4FD0698407D012805DB5A
:10575000FFE70698C169407D8847FFE706984168E2
:10576000806801900846019901F0B2FD0698C16871
:10577000006900900846009901F058FD002804D007
:10578000FFE701208DF81F0003E000208DF81F00C7
:10579000FFE79DF81F0008B080BD000080B588B00D
:1057A000014606900698C268006905901046059A61
:1057B0000491114601F08CFD0698416880680390C1
:1057C0000846039901F0F4FD0698407D012805DBA9
:1057D000FFE70698C169407D8847FFE70698C168E2
:1057E000006902900846029901F0E2FD0698407DAA
:1057F000012805DBFFE70698C169407D8847FFE780
:105800000698C168006901900846019901F00EFDF3
:10581000002804D1FFE701208DF81F0003E00020DD
:105820008DF81F00FFE79DF81F0008B080BD000045
:1058300080B586B00A46034604908DF80F109DF897
:105840000F0000280292019306D0FFE70498FFF7AB
:105850006DFE8DF8170005E00498FFF7E5FD8DF863
:105860001700FFE79DF8170006B080BD80B588B02F
:105870000A46034607908DF81B109DF81B00000692
:1058800000280592049309D5FFE70798C1680069CD
:1058900003900846039901F08BFD08E00798C16862
:1058A000006902900846029901F012FDFFE707988F
:1058B0004168806801900846019901F079FD0798D8
:1058C000407D012805DBFFE70798C169407D8847D7
:1058D00003E00120FFF762FAFFE70798416880685C
:1058E00000900846009901F0F3FC0798407D0128DC
:1058F00006DBFFE70798C169407D01388847FFE76D
:10590000002008B080BD000080B586B00A4603467E
:1059100005908DF8131000208DF812000599D1F82C
:1059200004C08968039060460292019301F0D0FCA4
:1059300003988DF81200FFE79DF81200072812DC8B
:10594000FFE705989DF81310FFF790FF9DF81310DF
:1059500049008DF813100090FFE79DF81200013008
:105960008DF81200E8E7002006B080BD80B584B055
:105970000A460346039002910398016A21F001014F
:1059800001620398806920F0FF000299D1F804C0F9
:10599000D1F808E0C96841EA0C0141EA0E0140EA89
:1059A0001140039988610398006A20F00A00029967
:1059B0000968084340F00100039908620120019240
:1059C000009304B080BD000080B584B00A46034651
:1059D000039002910398016A21F01001016203987B
:1059E000806920F47F400299D1F804C0D1F808E022
:1059F000C96841EA0C0141EA0E0140EA112003990D
:105A000088610398006A20F0A0000299096840EAC2
:105A1000011040F0100003990862012001920093E8
:105A200004B080BD80B584B00A460346039002915D
:105A30000398016A21F4807101620398C06920F023
:105A4000FF000299D1F804C0D1F808E0C96841EA22
:105A50000C0141EA0E0140EA11400399C861039824
:105A6000006A20F430600299096840EA012040F49D
:105A700080700399086201200192009304B080BDF8
:105A800080B584B00A460346039002910398016AE8
:105A900021F4805101620398C06920F47F4002998B
:105AA000D1F804C0D1F808E0C96841EA0C0141EA24
:105AB0000E0140EA11200399C8610398006A20F49E
:105AC00040500299096840EA013040F4805003993F
:105AD000086201200192009304B080BD80B500F0FF
