:020000040800F2
:10000000C058002079B7000881B1000891B10008FC
:1000100093B1000895B1000897B1000800000000F6
:1000200000000000000000000000000099B100087E
:100030009BB10008000000009DB100089FB10008BE
:10004000A7B100089DB2000815B8000819B800084B
:100050001DB8000889B1000821B8000825B80008BB
:1000600029B800082DB8000831B8000829B20008E6
:1000700035B8000839B800083DB8000841B8000894
:1000800045B8000849B800084DB8000851B8000844
:1000900055B8000859B800085DB8000861B80008F4
:1000A00065B8000869B800086DB8000871B80008A4
:1000B00095B2000875B8000879B800087DB8000846
:1000C00081B8000885B8000889B800088DB8000814
:1000D00091B80008B1B1000895B8000899B80008B7
:1000E0009DB80008A1B80008A5B80008A9B8000884
:1000F000ADB80008B1B80008B5B80008B9B8000834
:10010000BDB80008C1B80008C5B80008C9B80008E3
:10011000CDB80008D1B80008D5B80008D9B8000893
:10012000DDB80008E1B80008E5B800084BB20008E7
:10013000C1F30F2101617047C1F30F214161704785
:1001400010B50400200001F075FF042114F1D40063
:1001500001F07DFF052114F1F40001F078FF10BDDE
:1001600080B501F06BFF02BD10B50C00110001F06D
:1001700065FF0100200001F07CFF10BD70B5040098
:100180000E0000250020A178200001F0F2FFA06DF4
:10019000A179405C012812D0C0F06D81032872D093
:1001A0003CD3052800F0AF80C0F08780072800F01E
:1001B000F680C0F0CE80082800F017815BE10321B3
:1001C000200001F0DBFFA06D6179415C200001F0AF
:1001D000D0FFA06DE179405CA16DE27911444978CE
:1001E00011EB0021A06DE2791044807810EB012022
:1001F000A16DE2791144C97811EB0021300001F0C2
:1002000038FF05002900C9B2200001F0B2FFA06D3F
:10021000A179415C200001F0ACFF2DE101F0C3FFAA
:1002200001F0C5FF06004FF47A7046430721200015
:1002300001F0A4FFA06D6179415C200001F099FFFD
:100240002900C9B2200001F094FFA06DA179415CA2
:10025000200001F08EFF3100090EC9B2200001F02C
:1002600088FF3100090CC9B2200001F082FF310083
:10027000090AC9B2200001F07CFF3100C9B2200098
:1002800001F077FFF8E07E48006801F0EEFE032100
:10029000200001F073FFA06D6179415C200001F046
:1002A00068FF2900C9B2200001F063FFA06DA179A9
:1002B000415C200001F05DFFDEE0A06DE179405C73
:1002C000002805D042F220016E48FFF735FF04E018
:1002D00042F220016B48FFF72BFF0321200001F0C1
:1002E0004DFFA06D6179415C200001F042FF2900C3
:1002F000C9B2200001F03DFFA06DA179415C200052
:1003000001F037FFB8E0A06DE179405C002805D02E
:1003100041F210015B48FFF70FFF04E041F21001CA
:100320005848FFF705FF0321200001F027FFA06DCB
:100330006179415C200001F01CFF2900C9B2200056
:1003400001F017FFA06DA179415C200001F011FFC1
:1003500092E0A06DE179405C002805D048F2800170
:100360004848FFF7E9FE04E048F280014548FFF7FE
:10037000DFFE0321200001F001FFA06D6179415CE7
:10038000200001F0F6FE2900C9B2200001F0F1FEC4
:10039000A06DA179415C200001F0EBFE6CE0A06D46
:1003A000E179405C002805D044F240013548FFF770
:1003B000C3FE04E044F240013248FFF7B9FE0321D6
:1003C000200001F0DBFEA06D6179415C200001F0AE
:1003D000D0FE2900C9B2200001F0CBFEA06DA179AA
:1003E000415C200001F0C5FE46E0A06DE179405C73
:1003F000002815D0234E42F220013000FFF79CFE6A
:1004000041F210013000FFF797FE48F28001300002
:10041000FFF792FE44F240013000FFF78DFE14E03A
:10042000184E42F220013000FFF782FE41F2100127
:100430003000FFF77DFE48F280013000FFF778FEC4
:1004400044F240013000FFF773FE0321200001F069
:1004500095FEA06D6179415C200001F08AFE2900C3
:10046000C9B2200001F085FEA06DA179415C200099
:1004700001F07FFE00E001252800C0B270BD000041
:100480003400002000080140F8B504000D001600FB
:1004900000270020A178200001F06BFEA06DA1795B
:1004A000405C012821D0C0F0F582032875D048D3E4
:1004B000052800F0CA80C0F09C80072800F0218148
:1004C000C0F0F180092800F07881C0F048810B2845
:1004D00000F06082C0F0E5810D2800F09B82C0F042
:1004E00079820E2800F0B682D4E2A06DE179405CFA
:1004F000A16DE2791144497811EB0021A06DE279F8
:100500001044807810EB0120A16DE2791144CE787F
:1005100016EB00260321200001F030FEA06D61796A
:10052000415C200001F025FE0021200001F021FEA9
:10053000A06DA179415C200001F01BFEC5F8C460EC
:10054000A9E2A06DE179405CA16DE279114449789E
:1005500011EB0021A06DE2791044807810EB0120AE
:10056000A16DE2791144CE7816EB0026032120001C
:1005700001F004FEA06D6179415C200001F0F9FDFD
:100580000021200001F0F5FDA06DA179415C200063
:1005900001F0EFFDC5F8C8607DE2A06DE179405C37
:1005A000A16DE2791144497811EB0021A06DE27947
:1005B0001044807810EB0120A16DE2791144CE78CF
:1005C00016EB00260321200001F0D8FDA06D617913
:1005D000415C200001F0CDFD0021200001F0C9FDAB
:1005E000A06DA179415C200001F0C3FDC5F8CC608D
:1005F00051E2A06DE179405CA16DE2791144497846
:1006000011EB0021A06DE2791044807810EB0120FD
:10061000A16DE2791144CE7816EB0026032120006B
:1006200001F0ACFDA06D6179415C200001F0A1FDFD
:100630000021200001F09DFDA06DA179415C20000A
:1006400001F097FDC5F8D06025E2D5F8C450072128
:10065000200001F093FDA06D6179415C200001F064
:1006600088FD0021200001F084FDA06DA179415C8E
:10067000200001F07EFD2900090EC9B2200001F022
:1006800078FD2900090CC9B2200001F072FD290093
:10069000090AC9B2200001F06CFD2900C9B220008E
:1006A00001F067FDF7E1D5F8C8500721200001F0FF
:1006B00065FDA06D6179415C200001F05AFD0021CB
:1006C000200001F056FDA06DA179415C200001F0F1
:1006D00050FD2900090EC9B2200001F04AFD290091
:1006E000090CC9B2200001F044FD2900090AC9B271
:1006F000200001F03EFD2900C9B2200001F039FDC3
:10070000C9E1D5F8CC500721200001F037FDA06DDC
:100710006179415C200001F02CFD0021200001F0F6
:1007200028FDA06DA179415C200001F022FD290087
:10073000090EC9B2200001F01CFD2900090CC9B244
:10074000200001F016FD2900090AC9B2200001F0BD
:1007500010FD2900C9B2200001F00BFD9BE1D5F886
:10076000D0500721200001F009FDA06D6179415CA6
:10077000200001F0FEFC0021200001F0FAFCA06D39
:10078000A179415C200001F0F4FC2900090EC9B2F6
:10079000200001F0EEFC2900090CC9B2200001F094
:1007A000E8FC2900090AC9B2200001F0E2FC290096
:1007B000C9B2200001F0DDFC6DE1A06DE179405C83
:1007C000A16DE2791144497811EB0021A06DE27925
:1007D0001044807810EB0120A16DE2791144C978B2
:1007E00011EB0021C5F8C410A06DE179084400792F
:1007F000A16DE2791144497911EB0021A06DE279F4
:100800001044807910EB0120A16DE2791144C9797F
:1008100011EB0021C5F8C810A06DE1790844007AF9
:10082000A16DE2791144497A11EB0021A06DE279C2
:100830001044807A10EB0120A16DE2791144C97A4D
:1008400011EB0021C5F8CC10A06DE1790844007BC4
:10085000A16DE2791144497B11EB0021A06DE27991
:100860001044807B10EB0120A16DE2791144C97B1B
:1008700011EB0021C5F8D0100321200001F07EFC0F
:10088000A06D6179415C200001F073FC0021200023
:1008900001F06FFCA06DA179415C200001F069FCC2
:1008A000F9E0D5F8C4601321200001F067FCA06DC9
:1008B0006179415C200001F05CFC0021200001F026
:1008C00058FCA06DA179415C200001F052FC310080
:1008D000090EC9B2200001F04CFC3100090CC9B26C
:1008E000200001F046FC3100090AC9B2200001F0E5
:1008F00040FC3100C9B2200001F03BFCD5F8C860D3
:100900003100090EC9B2200001F033FC3100090C9E
:10091000C9B2200001F02DFC3100090AC9B2200043
:1009200001F027FC3100C9B2200001F022FCD5F80B
:10093000CC603100090EC9B2200001F01AFC310070
:10094000090CC9B2200001F014FC3100090AC9B237
:10095000200001F00EFC3100C9B2200001F009FCBA
:10096000D5F8D0502900090EC9B2200001F001FCD1
:100970002900090CC9B2200001F0FBFB2900090A7B
:10098000C9B2200001F0F5FB2900C9B2200001F036
:10099000F0FB80E0D5F8C4102800FFF7E1FB010070
:1009A000300001F066FB07000321200001F0E6FBA8
:1009B000A06D6179415C200001F0DBFB3900C9B218
:1009C000200001F0D6FBA06DA179415C200001F070
:1009D000D0FB60E0D5F8C8102800FFF7C1FB01008C
:1009E000300001F046FB07000321200001F0C6FBA8
:1009F000A06D6179415C200001F0BBFB3900C9B2F8
:100A0000200001F0B6FBA06DA179415C200001F04F
:100A1000B0FB40E0D5F8CC102800FFF7A1FB0100A7
:100A2000300001F026FB07000321200001F0A6FBA7
:100A3000A06D6179415C200001F09BFB3900C9B2D7
:100A4000200001F096FBA06DA179415C200001F02F
:100A500090FB20E0D5F8D0102800FFF781FB0100C3
:100A6000300001F006FB07000321200001F086FBA7
:100A7000A06D6179415C200001F07BFB3900C9B2B7
:100A8000200001F076FBA06DA179415C200001F00F
:100A900070FB00E001273800C0B2F2BD80B5C9B2DA
:100AA00001F0D0FA02BDF8B50400002000200021BA
:100AB0000421A01D01F08CFB002529E02800C0B214
:100AC00004EB4000C088002140F6E4460027A6FB66
:100AD000002306FB013307FB003342F210760027A8
:100AE000A6FB020106FB031107FB0211B4F8BE20AE
:100AF000002301F0CDFBB4F8C020002301F0C8FBB7
:100B0000000B401C2900C9B204EB4101C8816D1CD7
:100B10002800C0B20428D1DB0020F2BD70B504006B
:100B20000D0013000026A06DA179405C01280BD0B8
:100B3000C0F0E181032800F0CC8055D3052800F0F7
:100B4000D281C0F04181D6E1A178200001F011FBF3
:100B50000B21200001F012FBA06D6179415C2000A7
:100B600001F007FB0021200001F003FBA06DA1793B
:100B7000415C200001F0FDFAD5F8E410090EC9B27D
:100B8000200001F0F6FAD5F8E410090CC9B22000F3
:100B900001F0EFFAD5F8E410090AC9B2200001F01B
:100BA000E8FAD5F8E410C9B2200001F0E2FAB5F88D
:100BB000E81089B2090AC9B2200001F0DAFAB5F8E2
:100BC000E810C9B2200001F0D4FAB5F8EA1089B2F1
:100BD000090AC9B2200001F0CCFAB5F8EA10C9B28E
:100BE000200001F0C6FA87E1A06DE179405CC5F80C
:100BF000E400D5F8E400A16DE2791144497811EBE5
:100C00000021C5F8E410D5F8E400A16DE2791144A3
:100C1000897811EB0021C5F8E410D5F8E400A16D46
:100C2000E2791144C97811EB0021C5F8E410A06DF8
:100C3000E17908440079A5F8E800B5F8E800A16D6D
:100C4000E2791144497911EB0021A5F8E810A06D73
:100C5000E17908448079A5F8EA00B5F8EA00A16DC9
:100C6000E2791144C97911EB0021A5F8EA10B5F831
:100C7000EA00C92802DBC820A5F8EA00B5F8E800B8
:100C8000C5F8E000D5F8E010B5F8EA004143C5F832
:100C9000E010D5F8E010D5F8E4004118C5F8E010F0
:100CA000A178200001F065FA0321200001F066FA26
:100CB000A06D6179415C200001F05BFA0021200009
:100CC00001F057FAA06DA179415C200001F051FAC2
:100CD00012E1A178200001F04CFA1121200001F06E
:100CE0004DFAA06D6179415C200001F042FA0021CB
:100CF000200001F03EFAA06DA179415C200001F0D6
:100D000038FAB5F8D61089B2090AC9B2200001F044
:100D100030FAB5F8D610C9B2200001F02AFAB5F8B9
:100D2000D81089B2090AC9B2200001F022FAB5F838
:100D3000D810C9B2200001F01CFAB5F8EC1089B245
:100D4000090AC9B2200001F014FAB5F8EC10C9B2D2
:100D5000200001F00EFAB5F8EE1089B2090AC9B206
:100D6000200001F006FAB5F8EE10C9B2200001F03B
:100D700000FAB5F8F01089B2090AC9B2200001F0F2
:100D8000F8F9B5F8F010C9B2200001F0F2F9B5F8A1
:100D9000DA1089B2090AC9B2200001F0EAF9B5F8FF
:100DA000DA10C9B2200001F0E4F9B5F8DC1089B21C
:100DB000090AC9B2200001F0DCF9B5F8DC10C9B2AB
:100DC000200001F0D6F997E0A06DE179405CA5F82C
:100DD000D600B5F8D600A16DE2791144497811EB3F
:100DE0000021A5F8D610A06DE17908448078A5F817
:100DF000D800B5F8D800A16DE2791144C97811EB9B
:100E00000021A5F8D810A06DE17908440079A5F873
:100E1000EC00B5F8EC00A16DE2791144497911EBD1
:100E20000021A5F8EC10B5F8EC00152802DB142021
:100E3000A5F8EC00A06DE17908448079A5F8EE00F2
:100E4000B5F8EE00A16DE2791144C97911EB0021EA
:100E5000A5F8EE10A06DE1790844007AA5F8F0003D
:100E6000B5F8F000A16DE2791144497A11EB002147
:100E7000A5F8F010A06DE1790844807AA5F8DA00B1
:100E8000B5F8DA00A16DE2791144C97A11EB0021BD
:100E9000A5F8DA10A06DE1790844007BA5F8DC0024
:100EA000B5F8DC00A16DE2791144497B11EB00211A
:100EB000A5F8DC10A178200001F05BF903212000E7
:100EC00001F05CF9A06D6179415C200001F051F9FD
:100ED0000021200001F04DF9A06DA179415C2000B6
:100EE00001F047F908E015F1D4022900200000F0D4
:100EF000F7F9060000E001263000C0B270BD70B501
:100F000004000D0013000026A06DA179405C0128AB
:100F10000BD0C0F0E181032800F0CC8055D3052828
:100F200000F0D281C0F04181D6E1A178200001F02B
:100F300020F90B21200001F021F9A06D6179415CBD
:100F4000200001F016F90021200001F012F9A06D37
:100F5000A179415C200001F00CF9D5F80411090ECB
:100F6000C9B2200001F005F9D5F80411090CC9B285
:100F7000200001F0FEF8D5F80411090AC9B22000DA
:100F800001F0F7F8D5F80411C9B2200001F0F1F82A
:100F9000B5F8081189B2090AC9B2200001F0E9F8D0
:100FA000B5F80811C9B2200001F0E3F8B5F80A114C
:100FB00089B2090AC9B2200001F0DBF8B5F80A11BC
:100FC000C9B2200001F0D5F887E1A06DE179405C5D
:100FD000C5F80401D5F80401A16DE27911444978FE
:100FE00011EB0021C5F80411D5F80401A16DE279D7
:100FF0001144897811EB0021C5F80411D5F80401DA
:10100000A16DE2791144C97811EB0021C5F80411F2
:10101000A06DE17908440079A5F80801B5F8080148
:10102000A16DE2791144497911EB0021A5F808116D
:10103000A06DE17908448079A5F80A01B5F80A01A4
:10104000A16DE2791144C97911EB0021A5F80A11CB
:10105000B5F80A01C92802DBC820A5F80A01B5F8CD
:101060000801C5F80001D5F80011B5F80A0141439F
:10107000C5F80011D5F80011D5F804014118C5F8DC
:101080000011A178200001F074F80321200001F084
:1010900075F8A06D6179415C200001F06AF80021CB
:1010A000200001F066F8A06DA179415C200001F0FC
:1010B00060F812E1A178200001F05BF81121200016
:1010C00001F05CF8A06D6179415C200001F051F8FD
:1010D0000021200001F04DF8A06DA179415C2000B5
:1010E00001F047F8B5F8F61089B2090AC9B2200034
:1010F00001F03FF8B5F8F610C9B2200001F039F858
:10110000B5F8F81089B2090AC9B2200001F031F827
:10111000B5F8F810C9B2200001F02BF8B5F80C11A1
:1011200089B2090AC9B2200001F023F8B5F80C1100
:10113000C9B2200001F01DF8B5F80E1189B2090AF4
:10114000C9B2200001F015F8B5F80E11C9B220009F
:1011500001F00FF8B5F8101189B2090AC9B22000E0
:1011600001F007F8B5F81011C9B2200001F001F83C
:10117000B5F8FA1089B2090AC9B2200000F0F9FFE7
:10118000B5F8FA10C9B2200000F0F3FFB5F8FC1072
:1011900089B2090AC9B2200000F0EBFFB5F8FC10D3
:1011A000C9B2200000F0E5FF97E0A06DE179405C56
:1011B000A5F8F600B5F8F600A16DE279114449787A
:1011C00011EB0021A5F8F610A06DE17908448078B4
:1011D000A5F8F800B5F8F800A16DE2791144C978D6
:1011E00011EB0021A5F8F810A06DE1790844007911
:1011F000A5F80C01B5F80C01A16DE279114449790B
:1012000011EB0021A5F80C11B5F80C01152802DB33
:101210001420A5F80C01A06DE17908448079A5F8A7
:101220000E01B5F80E01A16DE2791144C97911EBF7
:101230000021A5F80E11A06DE1790844007AA5F807
:101240001001B5F81001A16DE2791144497A11EB52
:101250000021A5F81011A06DE1790844807AA5F865
:10126000FA00B5F8FA00A16DE2791144C97A11EBE0
:101270000021A5F8FA10A06DE1790844007BA5F8DB
:10128000FC00B5F8FC00A16DE2791144497B11EB3B
:101290000021A5F8FC10A178200000F06AFF0321CE
:1012A000200000F06BFFA06D6179415C200000F030
:1012B00060FF0021200000F05CFFA06DA179415C7F
:1012C000200000F056FF08E015F1F402290020008C
:1012D00000F006F8060000E001263000C0B270BD44
:1012E0002DE9F84F88B006000C0015009846002044
:1012F00000200020002028690190002001F0F1F872
:1013000000201CE00021020092B204EB4202A2F88D
:10131000B610002104AA03009BB2D154002106AAF2
:1013200003009BB222F81310002103AA03009BB212
:10133000D154002102AA03009BB2D154401C0100E9
:1013400089B20429DEDB009600988178009800F0CD
:1013500010FFE88AC0000C30010089B2009800F04C
:101360000DFF2978009800F004FF0021009800F09C
:1013700000FF0521009800F0FCFE286980B24FF4C0
:10138000FA6190FBF1F189B2C900091DC9B2009858
:1013900000F0EFFE002042F22001DFF8680CFEF7BB
:1013A000CBFE41F21001DFF85C0CFEF7C5FE48F2FF
:1013B0008001DFF8500CFEF7BFFE44F24001DFF879
:1013C000440CFEF7B9FEDFF8406CDFF8401C30003B
:1013D000FEF7B2FEDFF8381C3000FEF7ADFEDFF896
:1013E000341C3000FEF7A8FE40F60801DFF8280C98
:1013F000FEF7A2FE44F240013000FEF79DFE48F2E7
:1014000080013000FEF798FEDFF8101C3000FEF778
:1014100093FEDFF80C1C3000FEF78EFE0027CDF89F
:10142000148002E001F076F87F1C3800E98A80B26F
:10143000884280F0A981DFF8D41B3000FEF77CFEE3
:10144000DFF8CC1B3000FEF773FEDFF8C81B30005E
:10145000FEF772FEDFF8C08B40F6080949464046A9
:10146000FEF766FE44F240013000FEF765FE48F2EA
:1014700080013000FEF75CFEDFF8A0AB5146300083
:10148000FEF75AFEDFF898BB59463000FEF750FED3
:101490000199200001F04CFA0100059800F0E9FDE7
:1014A0000199A88A41180191DFF8641B3000FEF70A
:1014B00043FEDFF8581B3000FEF73AFE494640462F
:1014C000FEF73AFEDFF84C1B3000FEF731FE48F223
:1014D00080013000FEF730FE44F240013000FEF79C
:1014E00027FE59463000FEF727FE51463000FEF732
:1014F0001FFE042001F094FB2000FFF7D4FA5FF0F8
:10150000000856E0002003AA4346DBB2D054002076
:1015100002AA4346DBB2D05417E0688B92B29042E5
:10152000F0D202A84246D2B2825C521C4346DBB2E1
:10153000C2544246D2B2805C042806DB781C424684
:10154000D2B204EB4202A2F8B6004046C0B2085C38
:10155000142818DB00204246D2B288544046C0B25C
:1015600004EB4000C18906A84246D2B230F812000E
:10157000081A80B2052806DA781C4146C9B204EB85
:101580004101A1F8B6004046C0B204EB4000C18959
:1015900089B2090AC9B2009800F0EBFD4046C0B21A
:1015A00004EB4000C189C9B2009800F0E2FD18F1D7
:1015B00001084046C0B20428BFF634AF380080B2FC
:1015C000002817D14046C0B204EB4000C089A9886A
:1015D000884208D36888C8304146C9B204EB41014B
:1015E000C989884206DA01204146C9B204EB4101AB
:1015F000A1F8B6004046C0B204EB4000B0F8B60017
:1016000000281CD1380080B2E98A491E884216D1D0
:101610004046C0B204EB4000C0892989884207D304
:10162000E8884146C9B204EB4101C989884206D223
:10163000781C4146C9B204EB4101A1F8B60040460E
:10164000C0B204EB4000B0F8B60000289BD104A95A
:101650004046C0B2085C002809D14046C0B204EB45
:101660004000C08906AA4346DBB222F81300404678
:10167000C0B2085C401C4246D2B2885438002A8B63
:1016800080B2904210D24146C9B22820414304EBB7
:101690000100390089B200EB41004146C9B204EBB8
:1016A0004101C989C1826EE728204246D2B2424335
:1016B00022441632002305E0B2F802C0A2F800C0AE
:1016C000921C5B1C9C465FFA8CFCB5F818E0BEF1DE
:1016D000010EF445F0DB4346DBB204EB4303DB8948
:1016E000138001224346DBB243432344DB8AC446D2
:1016F0005FFA8CFC04EB4C0CBCF80EC063450CD2BA
:101700004246D2B204EB4202D3894246D2B200FB37
:1017100002F02044C28A9A1A1AE04346DBB204EB74
:101720004303DB89C4465FFA8CFC00FB0CFCA44439
:10173000BCF816C063450BD24246D2B200FB02F0A1
:101740002044C08A4246D2B204EB4202D289821AB5
:101750001000AB8B80B29842BFF4DFAE03A84246C4
:10176000D2B2825C521C4346DBB2C2544246D2B271
:10177000805C0428FFF6E9AE781C4246D2B204EB46
:101780004202A2F8B600E0E6002516E02800C0B24A
:1017900004EB4000B0F8B61089B2090AC9B200984B
:1017A00000F0E7FC2800C0B204EB4000B0F8B6102F
:1017B000C9B2009800F0DDFC6D1C2800C0B20428FE
:1017C000E4DBDFF8404842F220012000FEF7B0FCE5
:1017D00041F210012000FEF7ABFC48F28005290021
:1017E0002000FEF7A5FC44F2400739002000FEF778
:1017F0009FFCDFF818183000FEF79EFCDFF8101889
:101800003000FEF795FCDFF80C183000FEF794FC72
:1018100040F60801DFF80008FEF78AFC39003000C6
:10182000FEF78AFC29003000FEF782FCDFF8EC1797
:101830003000FEF781FCDFF8E8173000FEF778FC97
:10184000059800F012FC002009B0BDE8F08F70B5DB
:1018500004000D000026A06DA179405C012811D084
:10186000C0F05E81032851D029D3052800F0928072
:1018700073D3072800F0DE80C0F0B480082800F0A1
:1018800012814DE1A178200000F073FC04212000BA
:1018900000F074FCA06D6179415C200000F069FCEF
:1018A0000021200000F065FCA06DA179415C2000C2
:1018B00000F05FFC2978200000F05BFC31E1A178AA
:1018C000200000F056FC0521200000F057FCA06D20
:1018D0006179415C200000F04CFC0021200000F008
:1018E00048FCA06DA179415C200000F042FCB5F8F5
:1018F000BE1089B2090AC9B2200000F03AFCB5F85E
:10190000BE10C9B2200000F034FC0AE1A17820002A
:1019100000F02FFC0521200000F030FCA06D617963
:10192000415C200000F025FC0021200000F021FC9B
:10193000A06DA179415C200000F01BFCB5F8C0103F
:1019400089B2090AC9B2200000F013FCB5F8C01032
:10195000C9B2200000F00DFCE3E0A06DE179405C2D
:101960002870A178200000F004FC0321200000F082
:1019700005FCA06D6179415C200000F0FAFB0021BC
:10198000200000F0F6FBA06DA179415C200000F082
:10199000F0FBC6E0A06DE179405CA5F8BE00B5F8AB
:1019A000BE00A16DE2791144497811EB0021A5F840
:1019B000BE10A178200000F0DCFB0321200000F025
:1019C000DDFBA06D6179415C200000F0D2FB0021BD
:1019D000200000F0CEFBA06DA179415C200000F05A
:1019E000C8FB9EE0A06DE179405CA5F8C000B5F8A9
:1019F000BE00A16DE2791144497811EB0021A5F8F0
:101A0000C010A178200000F0B4FB0321200000F0FA
:101A1000B5FBA06D6179415C200000F0AAFB0021BC
:101A2000200000F0A6FBA06DA179415C200000F031
:101A3000A0FB76E0A178200000F09BFB08212000AD
:101A400000F09CFBA06D6179415C200000F091FBEF
:101A50000021200000F08DFBA06DA179415C2000E9
:101A600000F087FB2978200000F083FBB5F8BE105A
:101A700089B2090AC9B2200000F07BFBB5F8BE109C
:101A8000C9B2200000F075FBB5F8C01089B2090A90
:101A9000C9B2200000F06DFBB5F8C010C9B220003B
:101AA00000F067FB3DE0A06DE179405C2870A06D1F
:101AB000E17908444078A5F8BE00B5F8BE00A16DF4
:101AC000E2791144897811EB0021A5F8BE10A06DD0
:101AD000E1790844C078A5F8C000B5F8C000A16D50
:101AE000E2791144097911EB0021A5F8C010A17821
:101AF000200000F03EFB0321200000F03FFBA06D22
:101B00006179415C200000F034FB0021200000F0EE
:101B100030FBA06DA179415C200000F02AFB00E0C1
:101B200001263000C0B270BD38B50024836D457900
:101B30005B5D002B08D0022B0CD006D3042B10D0F9
:101B40000CD3052B11D014E014E01100FEF716FBA6
:101B500004000FE0FEF798FC04000BE0FFF777FEAF
:101B600008E0FEF7DBFF040004E0FFF7C8F904001B
:101B700000E001242000C0B232BD70B504000D00A9
:101B80001600200000F0DFFA01281FD1200000F02D
:101B9000FEFA00280FD1200000F0FDFA00280AD13B
:101BA000320029002000FFF7BFFF00280AD12000E3
:101BB00000F0E9FA06E02278521EDFF868142000EF
:101BC00001F00FFE200000F0BAFA02E0200000F061
:101BD000BEFA70BD80B500F03FFA02BD10B504003A
:101BE00001F05AFF04210022B634200001F070FFFA
:101BF000002010BD80B501F053FF002002BD38B5B4
:101C000004000020002516E0012001F04DFF012016
:101C100001F04FFF012001F051FF012001F053FFBF
:101C200008E02800C0B204EB4000B0F8B600C0B233
:101C300001F049FF6D1C2800C0B2042827DA2800F3
:101C4000C0B2002805D0022817D00CD30328E8D052
:101C5000DAE72800C0B204EB4000B0F8B600C0B22A
:101C600001F022FFE6E72800C0B204EB4000B0F824
:101C7000B600C0B201F01DFFDCE72800C0B204EBE3
:101C80004000B0F8B600C0B201F018FFD2E7002063
:101C900032BD2DE9F84F04000D0016009846FFF7FD
:101CA00099FF07003800C0B2FF2801D10220A6E149
:101CB0003800C0B20F2843D1D24C42F2200120009C
:101CC000FEF736FA41F210012000FEF731FA48F231
:101CD00080012000FEF72CFA44F240012000FEF7BC
:101CE00027FA300000F0C1F9CF4CD04D2900200078
:101CF000FEF71EFA40F2022631002000FEF718FA25
:101D0000DFF82C8340F204414046FEF711FA290027
:101D10004046FEF70DFAC24D29002000FEF708FAF2
:101D200040F201112000FEF703FA31004046FEF7B1
:101D3000FFF929004046FEF7FBF900F0CEFB57E122
:101D40008DF800809DF80000002801D1032056E1A5
:101D5000DFF8D492DFF8D48241464846FEF7E8F92E
:101D600040F2022A51464846FEF7E2F9DFF8C0B2D7
:101D700040F204415846FEF7DBF941465846FEF76B
:101D8000D7F9DFF89C8241464846FEF7D1F940F288
:101D900001114846FEF7CCF951465846FEF7C8F9FE
:101DA00041465846FEF7C4F99DF800102800FEF79A
:101DB00075FE2800FFF712FF20003900C9B2012983
:101DC0000BD0C0F0FA8003293FD022D3052974D06C
:101DD00057D3062900F0B180EFE0D5F8C4203100D8
:101DE0002800FEF7C1F9874C42F220012000FEF7DF
:101DF000A3F941F210012000FEF79EF948F280019C
:101E00002000FEF799F944F240012000FEF794F912
:101E1000E9E0D5F8C82031002800FEF7A5F9794C93
:101E200042F220012000FEF787F941F21001200064
:101E3000FEF782F948F280012000FEF77DF944F2B6
:101E400040012000FEF778F9CDE0D5F8CC20310034
:101E50002800FEF789F96B4C42F220012000FEF7C2
:101E60006BF941F210012000FEF766F948F280019B
:101E70002000FEF761F944F240012000FEF75CF912
:101E8000B1E0D5F8D02031002800FEF76DF95D4CA7
:101E900042F220012000FEF74FF941F2100120002C
:101EA000FEF74AF948F280012000FEF745F944F2B6
:101EB00040012000FEF740F995E0330015F1D4020F
:101EC0002900FFF70DFA4F4C42F220012000FEF7E7
:101ED0002FF941F210012000FEF72AF948F280069E
:101EE00031002000FEF724F944F240094946200061
:101EF000FEF71EF9444C45492000FEF71DF9444900
:101F00002000FEF719F943492000FEF715F940F6C5
:101F100008014148FEF710F949462000FEF70CF988
:101F200031002000FEF708F93C492000FEF704F9D3
:101F300041462000FEF700F955E0330015F1F402A8
:101F40002900FFF7CDF92F4C42F220012000FEF7C7
:101F5000EFF841F210012000FEF7EAF848F280069F
:101F600031002000FEF7E4F844F240094946200021
:101F7000FEF7DEF8244C25492000FEF7DDF8244961
:101F80002000FEF7D9F823492000FEF7D5F840F6E7
:101F900008012148FEF7D0F849462000FEF7CCF8AA
:101FA00031002000FEF7C8F81C492000FEF7C4F8F5
:101FB00041462000FEF7C0F815E0124C42F2200125
:101FC0002000FEF7B5F841F210012000FEF7B0F84E
:101FD00048F280012000FEF7ABF844F240012000F7
:101FE000FEF7A6F8FF272800FFF709FEFFF702FE1D
:101FF0003800C0B2FF2800D000273800C0B2BDE8CA
:10200000F28F000000080140001001402000200471
:102010004000400480008004000C014001000104E5
:102020000200020494B600080018014004000404F1
:102030000014014080B500F073FC01BD80B500F0D4
:1020400077FC02BD80B5C9B200F0C7FC02BD80B507
:10205000C9B200F0DDFC02BD80B500F093FD02BD09
:1020600080B5D2B201F067FD02BD80B501F068FD18
:1020700001BD80B501F068FD02BD80B501F068FDCD
:1020800002BDF0B40246106895681318506803EB5F
:102090005004C0071DD54D441BE013F8017B05F823
:1020A000017B491EF9D1A0B1B60813F8011B06F057
:1020B0000306032E08BF13F8016B01EB062149420A
:1020C000801C294405D011F8016B05F8016B401EF6
:1020D000F9D1A3420ED013F8016B16F0030104BF2F
:1020E00013F8011BC91C30090F28DAD113F8010BB2
:1020F0000F30D6E7F0BC02F10C007047F8B584B0A1
:1021000005000A9C0B9E0C980D9F5FF0000C039736
:10211000C0B202900196A4B20094DBB289B228004A
:1021200001F01AFD052001900420009003230322F2
:102130000021280001F036FDC0B205B0F0BD80B529
:1021400001F03DFD02BD80B501F03DFD02BD80B551
:10215000012101F03CFD02BD80B5C9B201F03CFD9A
:1021600002BD80B501F041FD02BD80B501F041FD29
:1021700002BD80B5C9B201F040FD02BD80B589B293
:1021800001F040FD02BD80B501F041FD02BD80B50A
:1021900001F041FD02BD80B501F023FD02BD80B517
:1021A00001F03DFD01BD80B501F03DFD01BD80B5F3
:1021B00001F03DFD02BD80B5C9B201F03CFD01BD9D
:1021C00080B501F03DFD02BD80B501F041FD02BDCD
:1021D0002DE9F04105000C000020294801F034FDF4
:1021E0002000C0B2032802DB264801F02DFD264E58
:1021F000306800780028FAD02000C0B2032804DB41
:102200002248006800780028FAD0306801F024FDE8
:102210002000C0B2032803DB1C48006801F01CFD4D
:1022200000270CE02100C9B20022A846404601F078
:102230004FFC03E0154800688088E8807F1C380068
:102240002100C0B2C9B2884216D23800C0B20028FC
:1022500005D002280BD006D30328EBD0E2E7306884
:1022600040882880EAE7306880886880E6E7074889
:1022700000684088A880E1E70020BDE8F081000008
:1022800000240140003C0140000000200400002028
:10229000BBBBE1B1B2F5803F80F07E80022A1ED93F
:1022A0008C46B1FBF2F102FB11C31B0443EA10435D
:1022B000B3FBF2FC02FB1C3380B240EA0343B3FBE6
:1022C000F2F002FB103240EA0C4000237047022A71
:1022D00005D98446B0FBF2F002FB10C270474AB148
:1022E00005D100F0010249085FEA30007047002282
:1022F0000023704701F0B4BC0B0002000021002055
:102300007047904271EB030CF6D3B3F5803F2FD2A8
:10231000F0B5B3FA83F7B1FA81F4A7F10F0E3D1BC4
:102320005340CEF1200602FA0EF2F3415340B5F1CC
:102330000F0746D80F3C2C444140C4F12006A04072
:10234000F1414140B1FBF3F603FB1611A2FB064538
:10235000001BA94102D2761E8018594180EA010271
:1023600021FA0EF362FA0EF200215A403046F0BD17
:1023700030B4B1FBF3FC03FB1C11A2FB0C45001BAA
:10238000A94103D2ACF1010C8018594130BC02467E
:102390000B46604600217047B2F1807F65D3F0B5EF
:1023A000B2FA82F7B1FA81F4C7F10F063D1B22FAA7
:1023B00006F307F1110EF24120355A40B5F10F072F
:1023C000B8D94140C4F12006A040F1414140B1FBE1
:1023D000F3FC03FB1C11A2FB0C45001BA94103D21B
:1023E000BCF1010C801859410F2F12D30F3FC903C4
:1023F00041EA5041B1FBF3F603FB1611A2FB06457F
:10240000D4EBC030A94102D2761E8018594146EA69
:10241000CC3C07B34140C7F12006B840F1414140F0
:10242000B1FBF3F603FB1611A2FB0645001BA94105
:1024300002D2761E8018594180EA010221FA0EF379
:10244000C7F1200462FA0EF20CFA07F05A402CFA97
:1024500004F13043F0BD80EA010221FA0EF30021BD
:1024600062FA0EF260465A40F0BD8C46B1FBF2F1C2
:1024700002FB11C31B0243EA1063B3FBF2FC02FB35
:102480001C331B024CEA002043EA1063B3FBF2FC4E
:1024900002FB1C331B024CEA002043EA1063B3FB2F
:1024A000F2FC02FB1C331B024CEA002043EA1063DF
:1024B000B3FBF2FC02FB1C324CEA00200023704705
:1024C00080B501F0CEFB01BD80B5C0B201F0CDFBFF
:1024D00001BD80B501F0CEFB01BD80B501F0CEFBA2
:1024E00001BD80B501F0CEFB01BD80B501F0CEFB92
:1024F00002BD80B501F0CEFB01BD80B50F20FFF716
:10250000E3FFFFF7E6FFFFF7E8FF01BD80B501F04D
:10251000C5FB01BD80B501F0C5FB02BD806810EAB6
:10252000112080B2C1F30F21884201D1012000E0C7
:102530000020C0B27047C1F30F210161704730B570
:1025400085B0DFF814460121200001F0AFFB012126
:10255000200001F0ABFB0121200001F0A7FB0121CD
:10256000200001F0A3FB6846142101F0C5FB012007
:10257000019001200290002003900120049042F27B
:10258000200500956946200001F01FFC290020006D
:10259000FFF7D1FF41F2100500956946200001F0D8
:1025A00014FC29002000FFF7C6FF48F280050095C3
:1025B0006946200001F009FC29002000FFF7BBFF5D
:1025C00044F2400500956946200001F0FEFB290019
:1025D0002000FFF7B0FF05B030BD2DE9F04F85B00A
:1025E000DFF878450121200001F060FB0121200087
:1025F00001F05CFB0121200001F058FB01212000CB
:1026000001F054FB0121200001F050FB01212000CA
:1026100001F04CFB0121200001F048FB01212000CA
:1026200001F044FBDFF838550121280001F03EFBA2
:102630000121280001F03AFB0121280001F036FBBE
:102640000121280001F032FB0121280001F02EFBBE
:102650000121280001F02AFB0121280001F026FBBE
:102660000121280001F022FB6846142101F044FBFF
:102670000120019001200290042003900120049089
:10268000DFF8E00400906946200001F09EFBDFF8CF
:10269000D4142000FFF74FFFDFF8CC6400966946A2
:1026A000200001F092FB31002000FFF744FFDFF82B
:1026B000BC7400976946200001F087FB39002000B8
:1026C000FFF739FFDFF8A884CDF8008069462000C5
:1026D00001F07BFB41462000FFF72DFF44F240094B
:1026E000CDF800906946200001F06FFB49462000BC
:1026F000FFF721FF42F2200ACDF800A06946200032
:1027000001F063FB51462000FFF715FF41F2100B6B
:10271000CDF800B06946200001F057FB5946200073
:10272000FFF709FF40F6080000906946200001F01D
:102730004CFB40F608012000FFF7FDFE48F2800444
:1027400000946946280001F040FB21002800FFF7B3
:10275000F2FECDF800906946280001F036FB4946AC
:102760002800FFF7E8FECDF800A06946280001F038
:102770002CFB51462800FFF7DEFECDF800B069467D
:10278000280001F022FB59462800FFF7D4FEDFF8AD
:10279000D40300906946280001F017FBDFF8C4134A
:1027A0002800FFF7C8FE00966946280001F00DFBDF
:1027B00031002800FFF7BFFE00976946280001F0AE
:1027C00004FB39002800FFF7B6FECDF8008069460B
:1027D000280001F0FAFA41462800FFF7ACFE05B0E8
:1027E000BDE8F08F38B504000220207004210022DB
:1027F000651C280001F06CF96420A4F8BE00642078
:10280000A4F8C0004FF44840C4F8C4004AF6801051
:10281000C4F8C80047F60C30C4F8CC004FF4B440FC
:10282000C4F8D0000421002214F1B605280001F0FC
:102830004FF94FF4E170A4F8D600FA20A4F8D800BC
:102840004FF44870A4F8DA004FF4FA71A4F8DC10E1
:1028500045F20821C4F8E410C649D1F8E42002F595
:1028600024526832C4F8E020C822A4F8E8203522B7
:10287000A4F8EA20B4F8EA20C92A02DBC822A4F8A6
:10288000EA204FF46162A4F8F2200622A4F8EC20BA
:102890001422A4F8EE200222A4F8F020B4F8EC20D0
:1028A000152A02DB1422A4F8EC20A4F8F6004FF459
:1028B0001670A4F8F8004FF4AF60A4F8FA0040F2E4
:1028C0004C40A4F8FC004AF2F870C4F80401D1F8B6
:1028D000040100F588503030C4F80001C820A4F885
:1028E00008011620A4F80A01B4F80A01C92802DB7D
:1028F000C820A4F80A0140F6C410A4F8120106206A
:10290000A4F80C011E20A4F80E010220A4F8100166
:10291000B4F80C01152802DB1420A4F80C0131BD19
:1029200080B5FFF75FFFFFF70AFEFFF756FE01BD18
:1029300038B500220023007801280AD049D30328A3
:1029400017D016D3052834D023D3072811D030D37D
:102950003FE0894C00250A000023A2FB040102FB92
:10296000051103FB041141F632120023FFF790FC1E
:1029700032E0824C00250A000023A2FB040102FB86
:10298000051103FB041149F26E620023FFF780FC7E
:1029900022E07B4C00250A000023A2FB040102FB7D
:1029A000051103FB04114FF448620023FFF770FC8C
:1029B00012E0734C00250A000023A2FB040102FB75
:1029C000051103FB04114FF4C8520023FFF760FC0C
:1029D00002E044F62060002132BD10B40022002243
:1029E0000FE000231400E4B20444637006E0CB0758
:1029F000F7D501231400E4B204446370C9B2490856
:102A0000521C1300DBB2042BF1DB002010BC70471A
:102A100001700020704738B50024504D51492800FE
:102A2000FFF77CFD002801D154F001044E49280035
:102A3000FFF774FD002801D154F002044B4928002F
:102A4000FFF76CFD002801D154F004044849280028
:102A5000FFF764FD002801D154F008042000C0B243
:102A600032BD38B500243D4D44F240012800FFF747
:102A700055FD002801D154F0010442F22001280044
:102A8000FFF74CFD002801D154F0020441F210017F
:102A90002800FFF743FD002801D154F0040440F65C
:102AA00008012800FFF73AFD002801D154F008047E
:102AB0002000C0B232BD38B50024294D48F2800153
:102AC0002800FFF72BFD002801D154F0010444F247
:102AD00040012800FFF722FD002801D154F0020434
:102AE00042F220012800FFF719FD002801D154F01F
:102AF000040441F210012800FFF710FD002801D165
:102B000054F008042000C0B232BD38B50024144D82
:102B100014492800FFF702FD002801D154F00104F8
:102B200011492800FFF7FAFC002801D154F00204F3
:102B30000E492800FFF7F2FC002801D154F00404EC
:102B40000B492800FFF7EAFC002801D154F00804E3
:102B50002000C0B232BD0000000801400018014052
:102B60000014014080008004400040042000200444
:102B70001000100454450020EA4C0F00001BB70061
:102B800040420F0010B5FFF746FF0400FFF769FF52
:102B90000443FFF790FF0443FFF7B7FF044314F02B
:102BA0000F04E4B2012C16D033D3032C17D014D366
:102BB000052C18D015D3072C19D016D3092C1AD0F0
:102BC00017D30B2C1BD018D30D2C1CD019D30F2CC2
:102BD0001DD01AD31DE001201CE002201AE00320C2
:102BE00018E0042016E0052014E0062012E007207B
:102BF00010E008200EE009200CE00A200AE00B207B
:102C000008E00C2006E00D2004E00E2002E00F207A
:102C100000E0FF20C0B210BD80B501F01DF901BD7C
:102C200080B501F015F901BDDFF89C060068C0F31E
:102C300002207047012210F01F018A40DFF88C1635
:102C400040B2400941F820207047020052B2002AE9
:102C500009D50901DFF8782640B210F00F001044C2
:102C600000F8041C04E00901DFF8682640B21154A2
:102C7000704710B410F00700D0F10703052B01D303
:102C8000042301E0D0F10703041D072C01D200202A
:102C900000E0C01E012414FA03F35B1E19408140BA
:102CA00014FA00F0401E1040084310BC704781B079
:102CB000DFF824160A6802430A6009680840009099
:102CC000009801B07047DFF810160A6832EA000079
:102CD0000860704781B0DFF804160A6802430A6092
:102CE000096808400090009801B07047DFF8EC15C3
:102CF0000A6832EA00000860704770B410EB116097
:102D000091FAA1F3B3FA83F391FAA1F1B1FA81F444
:102D100005680F26DBB299008E40B543E4B2A100EE
:102D20008A402A43026070BC7047C1F30F210161E1
:102D30007047C1F30F2141617047C16851F40051E0
:102D4000C1607047016931F490410161416931F01E
:102D50002A01416170470068800910F00100704746
:102D60000068C00910F0010070477FF04001016069
:102D70007047C16851F02001C1607047C16851F0CF
:102D80004001C1607047C16851F08001C160704767
:102D9000C16831F04001C1607047C16831F0800105
:102DA000C1607047C068800910F001007047C068BA
:102DB000C00910F001007047C9B24160704700219E
:102DC000017000214170002181700021C17000213B
:102DD000017100214171002181710021C171002127
:102DE00081600021C1600021016100214161002159
:102DF0008161002180F83C10002180F83D10002105
:102E000080F83F100021A0F840100021A0F84210E7
:102E10000021A0F844100021A0F84610002180F8FD
:102E20003E10002180F848100021C1640021016596
:102E30000021416500218165002101770021417752
:102E40000021C17700210184002141840021818477
:102E50000021C18401218177002180F82810002100
:102E6000C1620021016300214163002181630021CF
:102E7000C165002070472DE9F84F04000F0090460F
:102E800099460A9EDDF82CA00C9DDDF834B0200098
:102E9000FFF795FF84F83D90A4F84670C4F8588079
:102EA0006577E684C4F838A0C4F85CB0002C0AD07A
:102EB000DFF8D0090068844205D1200000F047FD0A
:102EC0000020BDE8F28F002C05D0002C03D120009B
:102ED00000F0D6FDF4E7002C05D0002C03D1200033
:102EE00000F0D0FDECE70220EBE780B5C268002AD5
:102EF0000DD0C9B2012905D109228168C068FFF748
:102F0000FCFE04E008228168C068FFF7F6FE00209E
:102F100002BD80B54269002A0BD0C9B2012904D193
:102F200001694069FFF705FF03E001694069FFF7A8
:102F3000FCFE002002BD38B505000C000020E96D44
:102F4000002901D0E86D8047E4B2002C03D0E8648A
:102F5000E86C286502E0E862E86A2863002032BD78
:102F600070B505000E0014000021E86D002803D0A4
:102F7000E86D80470100891CE4B2002C1FD0296550
:102F8000E86C296D884209D2296DE86C091A8E42D5
:102F900035D2012085F84800012031E0286DE96C28
:102FA00088422CD2E96C5FF0FF30411A286D41183D
:102FB0008E4224D2012085F84800012020E02963B8
:102FC000E86A296B884209D2296BE86A091A8E429D
:102FD00015D2012085F82800012011E0286BE96A4C
:102FE00088420CD2E96A5FF0FF30411A286B411821
:102FF0008E4204D2012085F82800012000E0002044
:1030000070BD38B504000025C9B200291FD0E06C9E
:10301000002842D0606D00283FD0E06C002801D12C
:1030200000203CE00122616D2000FFF799FF0500C0
:103030002800C0B2002830D02278521EDFF8081ACB
:10304000200000F0CEFB200000F081FB25E0E06ACC
:10305000002822D0606B00281FD0E06A002801D130
:1030600000201CE00022616B2000FFF779FF0500C3
:103070002800C0B200280DD0E06A00280AD02278CB
:10308000521EDFF8C819200000F0ABFB200000F052
:103090007CFB02E0002084F828002800C0B232BD8A
:1030A00010B50400DFF8A829117094F83F0000283B
:1030B00005D002283DD01CD3032866D066E0B4F8C2
:1030C0004200002814D160781178884210D110781D
:1030D000A16D0870012084F83F000120A4F844008D
:1030E00001212000FFF727FF0121200000F020FB35
:1030F0004CE01078002814D01078B4F84610C9B20B
:1031000088420ED21078A16D48701078A4F8400063
:10311000B4F84400401CA4F84400022084F83F00A6
:1031200002E0002084F83F0001212000FFF703FFA8
:103130002CE0A06DB4F84210084411788170B4F806
:103140004200401CA4F84200B4F84400401CA4F81B
:103150004400B4F84200B4F8461080B2884202D36A
:103160000020A4F8420001212000FFF7E4FEB4F89B
:103170004200B4F8401080B2884205D3032084F89E
:103180003F00012084F83E0000E0FFE7002010BD72
:1031900010B50400DFF8BC28117094F83F00002837
:1031A00007D0022837D01ED3042800F089805BD3D3
:1031B00087E0B4F84200002814D160781178884282
:1031C00010D11078A16D0870012084F83F00012013
:1031D000A4F8440001212000FFF7ADFE01212000EA
:1031E00000F0A6FA6DE01078A16D48701078A4F890
:1031F0004000B4F840000002A4F84000022084F827
:103200003F00B4F84400401CA4F844000121200011
:10321000FFF791FE55E01078A16D8870B4F840106A
:1032200010784118A4F84010B4F84400401CA4F8E9
:103230004400B4F8400000280ED0B4F84000B4F8C0
:10324000461080B2884207D2B4F84000A4F8440087
:10325000032084F83F0002E0002084F83F000121B1
:103260002000FFF768FE2CE0A06DB4F8421008447F
:103270001178C170B4F84200401CA4F84200B4F8C0
:103280004400401CA4F84400B4F84200B4F84610CE
:1032900080B2884202D30020A4F84200012120001D
:1032A000FFF749FEB4F84200B4F8401080B28842FB
:1032B00005D3042084F83F00012084F83E0000E09C
:1032C000FFE7002010BD00000CED00E000E100E091
:1032D00018ED00E000E400E01C100240181002406D
:1032E00080B5B0F84620FF2A03DAC9B2FFF7D8FE4E
:1032F00002E0C9B2FFF74CFF02BD10B50400C9B22D
:10330000A069FFF759FD01E0FFF704F9A069FFF795
:1033100022FD0028F8D0A069FFF727FD002010BD8E
:1033200010B50400208C00282CD0608C218C80B239
:10333000884223D0A06B618C415CA069FFF73CFD03
:10334000608C401C6084608CE18C80B2884201D328
:1033500000206084608C218C80B2884218D3A08CBD
:10336000002815D0608CA18C80B2884210D3A0694F
:10337000FFF713FDA069FFF701FD09E0A069FFF762
:103380000CFD05E0A069FFF708FD200000F0FDF945
:1033900000212000FFF7CFFD002010BD10B5040074
:1033A0006069002809D0E07F002806D10D21A069BE
:1033B000FFF702FD0120E07714E06069002809D0E2
:1033C000E07F012806D10A21A069FFF7F5FC022061
:1033D000E07707E00020E077A069FFF7D9FC200044
:1033E00000F0D3F9002010BD10B50400A06B002838
:1033F0001ED0208CE28C80B2904201D30020208429
:10340000A06B228C8154208C401C2084A069FFF783
:10341000CEFC00280AD101212000FFF77AFD01210E
:103420002000FFF762FDA069FFF7ADFC002000E07F
:10343000012010BD38B504000D000120A16B00294A
:1034400037D0607F012802D0607F022801D16D1C37
:1034500008E0607F032801D1AD1C03E0607F0428F1
:1034600000D12D1D60792179401A002800D06D1CF3
:10347000E08CFB280DDB290089B2090AC9B22000C3
:10348000FFF7B2FF2900C9B22000FFF7ADFFED1C26
:1034900005E02900C9B22000FFF7A6FFAD1C617945
:1034A0002279891A002903D0E1782000FFF79CFFD8
:1034B000A584C0B232BD38B50400607F002854D066
:1034C00000F0D2FC002850D10020607F012809D1F3
:1034D000218CA06B00F0D9FC0100C9B22000FFF7DD
:1034E00083FF40E0607F02280AD1228CA16B072075
:1034F00000F0C6FC0100C9B22000FFF775FF32E002
:10350000607F032810D1218CA06B00F0B5FC050072
:103510002900090AC9B22000FFF766FF2900C9B2D5
:103520002000FFF761FF1EE0607F04281BD1218C83
:10353000A06B00F09DFC05002900090EC9B2200017
:10354000FFF752FF2900090CC9B22000FFF74CFF1A
:103550002900090AC9B22000FFF746FF2900C9B2B5
:103560002000FFF741FF002000E0012032BDF8B548
:10357000040000260025B4F8407094F83D000028AF
:1035800000F0D48000F070FC002840F0CF8094F868
:103590003D00012820D1791EB4F84600FA2808DA47
:1035A000A06D4170A06D0A0092B210448578891C0C
:1035B0000CE0080080B2000AA26D5070A06D81700E
:1035C000A06D0A0092B21044C578C91C89B2A06DE2
:1035D00000F05BFC0600A5E094F83D00022821D134
:1035E0007A1EB4F84600FA2808DAA06D4270A06D81
:1035F000110089B208448578921C0CE0100080B25A
:10360000000AA16D4870A06D8270A06D110089B292
:103610000844C578D21C92B2A16D072000F030FC9E
:1036200006007FE094F83D0003282ED1B91EB4F8BF
:103630004600FA280FDAA06D4170A06D0A0092B220
:1036400010444078A26D0B009BB21A44957815EB9C
:103650000025891C13E0080080B2000AA26D50709A
:10366000A06D8170A06D0A0092B210448078A26DA6
:103670000B009BB21A44D57815EB0025C91C89B202
:10368000A06D00F0F9FB06004CE094F83D00042822
:1036900048D1391FB4F84600FA281DDAA06D4170F0
:1036A000A06D0A0092B2104410F8010CA26D0B003C
:1036B0009BB2D25C12EB0022A06D0B009BB21844AF
:1036C000407810EB0220A26D0B009BB21A44957853
:1036D00015EB0025891C20E0080080B2000AA26DCD
:1036E0005070A06D8170A06D0A0092B2805CA26DD6
:1036F0000B009BB21A44527812EB0022A06D0B0013
:103700009BB21844807810EB0220A26D0B009BB294
:103710001A44D57815EB0025C91C89B2A06D00F0BC
:10372000A7FB0600AE4201D0012000E00020F2BD60
:10373000C9B2002903D0002180F8481002E000211E
:1037400080F828100020704790F83E00704710B5B0
:10375000040000212000FFF7DCFB002084F83F007C
:103760000020A4F840000020A4F842000020A4F8A3
:103770004400002084F83E000020E0640020206522
:10378000002084F84800002010BD10B5040001207E
:10379000A07700202084002060840020A0840020E6
:1037A000E06200202063002084F828000020E077F9
:1037B00000212000FFF7ADFB00212000FFF795FB63
:1037C000002010BD41790279891A002907D0816D46
:1037D0000279895CC078814201D0012000E000209C
:1037E00070470CB4F8B504000D00A069FFF7DFFACC
:1037F000002802D106E0FEF78DFEA069FFF7B0FABF
:103800000028F8D1A069FFF7CDFA002802D10CE01A
:10381000FEF780FEA069FFF79EFA002802D0E07F45
:103820000028F5D0A069FFF7A0FA01212000FFF7DA
:1038300070FB01212000FFF758FB0020002006ABA1
:10384000854F2A004FF48061380000F02FFB0500FF
:10385000002606E0300080B2395C2000FFF74DFD05
:10386000761C3000290080B289B28842F2D3002150
:103870002000FFF74EFB00212000FFF736FBF1BCD4
:103880005DF80CFB3000002080B5744A90420DD1E9
:10389000C9B2002904D04FF48040FFF71BFA03E0BF
:1038A0004FF48040FFF722FA002044E06C4A904237
:1038B0000DD1C9B2002904D05FF40030FFF7F7F949
:1038C00003E05FF40030FFF7FEF9002033E0654AC3
:1038D00090420DD1C9B2002904D05FF48020FFF7D7
:1038E000E6F903E05FF48020FFF7EDF9002022E025
:1038F0005D4A90420DD1C9B2002904D05FF4002086
:10390000FFF7D5F903E05FF40020FFF7DCF90020B2
:1039100011E0564A90420DD1C9B2002904D05FF49B
:103920008010FFF7C4F903E05FF48010FFF7CBF9D4
:10393000002000E0012002BD30B4029D039CC17054
:10394000027143718571C471002030BC7047F0B5BD
:103950008BB00400464D0121280000F0A7F968460D
:10396000142100F0C9F909200190032002900020E1
:103970000390012004903F4E00966946280000F015
:1039800024FA3D480090082001906946280000F084
:103990001CFA324F380000F00DFB01213800FFF710
:1039A00073FF05A8182100F0A7F95FF4E130059036
:1039B0000020069000200790002008900C2009901D
:1039C00000200A9005A9380000F036FB3800FFF708
:1039D000B9F9FFF729F900220221FFF74AF901009E
:1039E0002520FFF732F92520FFF724F93800FFF7EB
:1039F000C0F93800FFF7A1F9E560A660A7610220D1
:103A00002070E06D002804D064206065642060634D
:103A100003E000206065002060630020607755208F
:103A200060705A20A07000212000FFF772FA002178
:103A30002000FFF75AFA11492000FFF7D2FE0020BC
:103A40000BB0F0BD00000000B4B60008D4B600080A
:103A5000BE480020BF480020D43E0020003801406E
:103A60000044004000480040004C0040005000402E
:103A700000080140020002040400040428B7000802
:103A8000002070470020704780B500F02DFB01BD7D
:103A900080B500F02DFB02BD80B500F02DFB01BD0F
:103AA00080B500F02DFB01BD80B5C0B200F02CFB4D
:103AB00001BD80B5C0B200F02CFB01BD80B5C0B225
:103AC00000F02CFB01BD80B5C0B200F02CFB01BDA5
:103AD00062F30F2262F31F42401810F0030308D074
:103AE000C91A1FD3DB0748BF00F8012D28BF20F8F3
:103AF000022D130030B414461546103928BF20E9B2
:103B00003C00FAD8490728BF20E90C0048BF40F81C
:103B1000042D890028BF20F8022D48BF00F8012D90
:103B200030BC7047C91818BF00F8012DCB0728BF5B
:103B300000F8012D704780B5D2B200F05FFB02BDE6
:103B400080B500F060FD01BD80B500F0AEFD02BDA6
:103B500080B500F0E7FD02BDF8B584B005000A9C11
:103B60000B9E0C980D9F5FF0000C0397C0B2029063
:103B70000196A4B20094DBB289B22800FFF77BF96A
:103B800004002000C0B2002808D100F06DF9002820
:103B900004D0002085F83D00002068772000C0B2E6
:103BA00005B0F0BD3EB5069D079CE4B20194EDB2B0
:103BB0000095DBB2D2B2C9B2FFF7BEFE3EBD80B502
:103BC000FFF7C5FD02BD80B5FFF7BEFD02BD80B5A4
:103BD000C9B2FFF716FA02BD80B5C9B2FFF780FB84
:103BE00002BD80B5FFF7EEFD02BD80B5FFF798FB83
:103BF00002BD80B5FFF7D2FB02BD80B5C9B2FFF7A9
:103C0000F3FB02BD80B589B2FFF714FC02BD80B59D
:103C1000FFF751FC02BD80B5FFF7A9FC02BD80B5DE
:103C200000F0EFFF01BD80B500F0A8FF01BD80B539
:103C300000F0E3FF02BD80B5C9B200F0E6FF01BDB0
:103C400080B501F0C5FB02BD80B501F0C7FB02BD28
:103C500080B501F0DFFB02BD80B501F02DFC02BD97
:103C6000704780B501F08EFF01BD80B5C0B201F094
:103C700097FF01BD80B501F0AFFF01BD80B501F038
:103C8000FCFF01BD80B502F049F801BD80B502F02E
:103C90008EF802BD80B502F014FA01BD80B502F0C5
:103CA0003DFB01BD80B503F018FA02BD80B5C9B275
:103CB00003F01CFA01BD80B503F01DFA01BD30B45C
:103CC000002513E050F8042BD30744BFA9F10103EA
:103CD0009A18091F042942F8045BFAD213468C078C
:103CE00044BF15809B1CC90748BF1D7050F8041BBA
:103CF0000029E7D130BC7047002203F001BAB1F5CA
:103D0000807F02D34FF0FF30704701700120704771
:103D10000078401E8041C043C00F704770B410EB64
:103D2000116091FAA1F3B3FA83F391FAA1F1B1FA18
:103D300081F405680F26DBB299008E40B543E4B2EA
:103D4000A1008A402A43026070BC704770B410EB37
:103D5000116091FAA1F3B3FA83F391FAA1F1B1FAE8
:103D600081F405680326DBB299008E40B543E4B2C6
:103D7000A1008A402A43026070BC704770B410EB07
:103D8000116091FAA1F3B3FA83F391FAA1F1B1FAB8
:103D900081F405680426DBB299008E40B543E4B295
:103DA000A1008A402A43026070BC704710B4C36807
:103DB0000C00240A94FAA4F4B4FA84F433EA11232C
:103DC000A2401A43C26010BC70472DE9F0410400C4
:103DD0000D002E683602360C96FAA6F0B0FA80F77F
:103DE000FFB22EE05FF001103900B1F1080810FABF
:103DF00008F858F0806809E03000F840C0071FD587
:103E0000082FEFD240F2011818FA07F86A68414605
:103E10002000FFF783FF2A6941462000FFF7C6FF15
:103E20006868012802D06868092809D1AA68414653
:103E30002000FFF78BFFEA6841462000FFF79EFF56
:103E40007F1C3000F8400028D6D10120BDE8F08169
:103E500080B503F06FF901BD80B503F07BF901BDBA
:103E600080B503F08DF901BD80B503F08DF902BD79
:103E700080B503F08DF902BD80B503F08DF902BD68
:103E800080B5C0B203F08CF902BD80B503F08DF9A6
:103E900002BD8268521C8260426832B10268531CC3
:103EA000036011704168491E4160704708B584B0D5
:103EB0000023039300290EBF01930190491E029134
:103EC000009301A904AB07487844183003F072F955
:103ED000019909B100220A70002858BF039805B063
:103EE00000BD00BFAFFFFFFFC068400B10F0010036
:103EF0007047026932F440521143016170474269D0
:103F000032F44072114341617047F0B464231924C4
:103F100004FB01F59600B5FBF6F56426B5FBF6F556
:103F200004FB01F69700B6FBF7F604FB01F75FEA26
:103F3000820CB7FBFCF75FF0640CB7FBFCF703FBEC
:103F40001766360132366427B6FBF7F616F0F00630
:103F500016EB051604FB01F59700B5FBF7F5614379
:103F60009200B1FBF2F16422B1FBF2F103FB1153B9
:103F7000190132316422B1FBF2F111F00F018E19F7
:103F8000B6B28660F0BC70474F490A6810430860BB
:103F900070474D490A6832EA0000086070474B4993
:103FA0000A6810430860704748490A6832EA00000E
:103FB0000860704710B501244549884208D14FF484
:103FC0008040FFF7ECFF4FF48040FFF7EDFF30E05B
:103FD0004049884208D15FF40030FFF7D5FF5FF415
:103FE0000030FFF7D6FF24E03B49884208D15FF458
:103FF0008020FFF7C9FF5FF48020FFF7CAFF18E0B9
:104000003649884208D15FF40020FFF7BDFF5FF416
:104010000020FFF7BEFF0CE03149884208D15FF471
:104020008010FFF7B1FF5FF48010FFF7B2FF00E0F0
:1040300000242000C0B210BDF8B584B005000F0008
:10404000002600242800FFF74FFF002837D1E96839
:104050002448014078680143F86801433869014306
:10406000E960B9682800FFF744FF79692800FFF785
:1040700046FF684604F065F81548854201D1039C67
:1040800012E01448854201D1029C0DE0124885429D
:1040900001D1029C08E01148854201D1029C03E055
:1040A0000F48854200D1029C002C08D038680028B7
:1040B00005D001263A6821002800FFF726FF3000CE
:1040C000C0B205B0F0BD0000101002400C1002405C
:1040D000003801400044004000480040004C0040CF
:1040E00000500040F3E9FFFF80B504F08BF901BDFB
:1040F00080B504F0B9F902BD80B504F0C0F901BD86
:1041000080B504F0E6F901BD80B5C0B204F0F8F95D
:1041100001BD80B5C0B204F001FA01BD80B5C0B2E6
:1041200004F00CFA01BD80B5C0B204F017FA01BD6D
:104130000121017001214170002181700021C170B5
:104140000021017100214171022181712321C1717E
:104150000D210172412141720D2181724121C172F3
:104160000021017300214173002181730021C1737B
:104170000021017400214174002181740021C17467
:104180000021017500214175002181750021C17553
:104190000021017600214176002181760021C1763F
:1041A0000021C16100210162DFF8E01541628162F6
:1041B0000021C16200210163002141637047002199
:1041C0008163DFF8CC15C16344F2400202644164AC
:1041D00048F280018164002180F84C10002180F8B1
:1041E0004D10002141653421A0F84E1000210165D9
:1041F00000207047002070470020704770B5040011
:104200000E00150000202000FFF792FF002C0ED0BA
:10421000DFF880050068844209D12000FFF7CFFF56
:10422000EDB2002D15D0012084F84C0019E0002CCF
:1042300005D0002C03D12000FFF7DCFFF0E7002CB5
:1042400005D0002C03D12000FFF7D6FFE8E70120BE
:104250000BE0310014F1380004F09AF9012084F8E1
:104260004C00200000F002F8C0B270BD10B5040090
:104270000020211D200000F048F8211D200000F042
:1042800044F80100C9B2002903D1A11D200000F0AB
:104290003CF8C0B210BD2DE9F04104000D0016003D
:1042A00000200020012114F1380004F075F9070006
:1042B0003800C0B2002801D002271CE05FF00008DF
:1042C00001E018F1010840463100C0B2C9B288428D
:1042D00011D24046C0B2295C14F1380004F069F9EB
:1042E00014F1380004F061F907003800C0B200286A
:1042F000E7D04746FF1C14F1380004F052F93800AB
:10430000C0B2BDE8F0810120704780B590F84C2024
:10431000002A03D10222FFF7F6FF02E00222FFF794
:10432000BAFF02BD0021C161704738B504000D001D
:10433000A06A60620020E061DFF85C04854204D37B
:10434000050041F24460E0610BE045F2082085423F
:1043500003D205000320E06103E029002000FFF7FD
:10436000E1FFE562E06A4FF47A71B0FBF1F020639F
:10437000E0694519DFF82404854206D30020A070C7
:104380000020207000206070E8E0DFF8140485420F
:1043900007D30020A07002202070002060706D0004
:1043A000DCE0DFF80004854208D30020A070032081
:1043B00020700020607003204543CFE0DFF8E80361
:1043C000854207D30020A070042020700020607078
:1043D000AD00C3E0DFF8D403854208D30020A0700D
:1043E000052020700020607006204543B6E0DFF80D
:1043F000C003854207D30020A07006202070002053
:104400006070ED00AAE0DFF8AC03854208D300201D
:10441000A07007202070002060700C2045439DE0B4
:10442000DFF89403854207D30020A0700620207097
:10443000012060702D0191E0DFF88003854208D3F0
:104440000020A070072020700120607018204543D4
:1044500084E0DFF86C03854207D30020A0700620BB
:104460002070022060706D0178E0DFF8580385420B
:1044700008D30020A0700720207002206070302038
:1044800045436BE0DFF84003854207D30020A0706E
:104490000620207003206070AD015FE0DFF82C0380
:1044A000854208D30020A070072020700320607090
:1044B0006020454352E0DFF81803854207D300200F
:1044C000A0700420207005206070ED0146E0DFF848
:1044D0000403854208D30020A07005202070052029
:1044E0006070C020454339E0DFF8EC0285420AD312
:1044F0000120A0700620207004206070ED01606A29
:10450000400860622AE04BF21C7085420BD3012008
:10451000A0700720207004206070C0204543606AAE
:10452000400860621AE048F6551085420AD301201F
:10453000A07006202070052060702D02606A40087F
:1045400060620BE00120A0700720207005206070E1
:104550004FF4C0704543606A40086062AD002800B7
:1045600004F02CF80500606A04F028F80100280027
:1045700004F032F86063606B04F0ACF8E070E0784F
:1045800004F01CF80100606B04F0BAF8DFF84C127C
:1045900004F0F6F804F060F920620D202072207813
:1045A00040016072607A617850EA81006072607ADE
:1045B00050F00100607248202073A078002801D1DB
:1045C000002000E010206073617BE078014361739C
:1045D0004A202074206A800C10F03F006074206A2A
:1045E000400C10F0010050F04C002075206A400A89
:1045F0006075206A000A10F0010050F04E0020762D
:10460000206A607631BD38B504002000FFF72EFE29
:104610000028FAD10221002214F10A052800FFF730
:1046200057FA0221002214F10E052800FFF750FA74
:104630000221002214F112052800FFF749FA022195
:10464000002214F116052800FFF742FA0221002289
:1046500014F11A052800FFF73BFA0221002214F199
:1046600008052800FFF734FA0221002214F10C0596
:104670002800FFF72DFA0221002214F1100528006E
:10468000FFF726FA0221002214F114052800FFF793
:104690001FFA0221002214F118052800FFF718FA6A
:1046A000A06A60620020E06231BD10B50400002005
:1046B000E06A814202D02000FFF737FE14F10801C2
:1046C0002000FFF722FEC0B2002801D0012027E021
:1046D00014F10C012000FFF718FEC0B2002801D031
:1046E00002201DE014F110012000FFF70EFEC0B201
:1046F000002801D0032013E014F114012000FFF77B
:1047000004FEC0B2002801D0042009E014F1180111
:104710002000FFF7FAFD0100C9B2002900D00520F2
:10472000C0B210BD70B50400002542F6E0664FF43B
:104730007A7101FB06F12000FFF7B7FF00281FD1B7
:10474000FDF731FDFDF733FD0A214E43B04201D2A2
:10475000361A00E0861B0A2E05D20C49322000FBD7
:104760001616A66208E0761D0A20B6FBF0F1642258
:10477000064802FB0101A1622000FFF744FF00E0B0
:1047800002252800C0B270BD00000000001BB70069
:10479000000C01403400002080D5430281A81201A2
:1047A00041548900818D5B0021AA4400C1C62D00BF
:1047B0001155220061E31600892A1100B1710B0026
:1047C00045950800D9B80500A34A04006DDC020035
:1047D00052250200376E0100A9120100FFFF7F4B36
:1047E00081B0DFF810150A6802430A6009680840C2
:1047F0000090009801B07047DFF8F8140A6832EAB8
:1048000000000860704781B0DFF8EC140A680243CA
:104810000A60096808400090009801B07047DFF80E
:10482000D8140A6832EA000008607047DFF8CC0448
:10483000016831F440610160016851F40061016078
:104840007047016851F00101016070470168490833
:10485000490001607047016851F0800101607047B4
:1048600041627047406A7047026A32EA01010162A0
:10487000704770B4012901D1002116E0042901D14B
:10488000012112E0102901D102210EE0402901D1BD
:1048900003210AE0B1F5807F01D1042105E0B1F5E3
:1048A000806F01D1052100E0062110F11803DFF827
:1048B00050040C00E4B2005DC318DFF848441D68E2
:1048C00003260800C0B2205C8640B543120CC9B272
:1048D000605C82402A431A6070BC704770B4012942
:1048E00001D1002116E0042901D1012112E0102993
:1048F00001D102210EE0402901D103210AE0B1F5E6
:10490000807F01D1042105E0B1F5806F01D105213F
:1049100000E0062110F11803DFF8E4030C00E4B214
:10492000005DC318DFF8DC431D68F0260800C0B244
:10493000205C8640B543120CC9B2605C82402A43B9
:104940001A6070BC704770B4012901D1002316E0D1
:10495000042901D1012312E0102901D102230EE024
:10496000402901D103230AE0B1F5807F01D104235E
:1049700005E0B1F5806F01D1052300E00623DFF8E3
:104980008843056A0A261900C9B2615C8E40B543A6
:10499000DBB2E15C8A402A43026270BC70478368E4
:1049A000DFF868231340194381607047426832F092
:1049B0007002114341607047826832F07002114307
:1049C00081607047816831F08001816070477FF0BD
:1049D000010101617047006910F0010070477FF02C
:1049E0004001016170470069800910F001007047C3
:1049F000C16831F04001C1607047C16831F4804145
:104A0000C160704738B58AB005A81421FFF774F962
:104A100068461421FFF770F9BD4C0121200000F019
:104A2000F4F8BC4D0121280003F04DFF43F23000A3
:104A30000090FFF7FBFE0820019069462800FFF771
:104A4000C4F90020ADF81400002006907FF07F40EC
:104A500007900020089005A9200004F057F82000D6
:104A6000FFF7F9FE60212000FFF7A6FF5FF4803218
:104A700010212000FFF7FDFE07212000FFF78FFF28
:104A800010212000FFF7F0FE002210212000FFF788
:104A900025FF002210212000FFF755FF2000FFF71F
:104AA000A7FF2000FFF7A9FF00212000FFF77EFFEE
:104AB0002000FFF787FF0BB030BD70B50020964C8B
:104AC00020680078002817D1002021688860002025
:104AD000216848600120216808708D4C2000FFF794
:104AE0007EFF2000FFF773FF00212000FFF7B8FED4
:104AF0002000FFF7A6FE70BD2068007801280ED1C7
:104B0000834D2800FFF76FFF0028F4D02800FFF73F
:104B1000A9FE21688860022021680870EBE7206800
:104B20000078022829D17D4D2878401C2870784EC5
:104B30003000FFF750FF002806D03000FFF747FF96
:104B400077480178491C017028780A28D3DB3000A7
:104B5000FFF788FE05003000FFF778FE032021688C
:104B600008706F4800784FF6FF7101FB0055206810
:104B700080682D1A20688560BDE7BCE770B5664C7B
:104B80006848006800692168C860674804F0B9F89F
:104B9000002004F0BEF806000025206800780328F5
:104BA0000CD004F0B6F80500B54204D25FF0FF3037
:104BB000801B2D1800E0AD1B652DEED32068C0686A
:104BC00004F09FF800202168C860652D03D34FF6DC
:104BD000FF70216888600020216808702068806864
:104BE00003F0ECFC04F0A6F80022504B04F0C6F8E9
:104BF00004F0E8F92168486070BD474800688068A3
:104C0000704780B5FFF7FEFE01BD80B5484A90426F
:104C10000AD1C9B2002903D00120FFF7E1FD02E06B
:104C20000120FFF7DDFD63E0B0F1804F0AD1C9B28A
:104C3000002903D00120FFF7D3FD02E00120FFF798
:104C4000DBFD55E0324A90420AD1C9B2002903D0B7
:104C50000220FFF7C5FD02E00220FFF7C1FD47E09B
:104C6000344A90420AD1C9B2002903D00420FFF788
:104C7000B7FD02E00420FFF7B3FD39E02E4A904271
:104C80000AD1C9B2002903D00820FFF7A9FD02E02C
:104C90000820FFF7A5FD2BE0284A90420AD1C9B2AF
:104CA000002903D01020FFF79BFD02E01020FFF742
:104CB00097FD1DE0224A90420AD1C9B2002903D0D3
:104CC0002020FFF78DFD02E02020FFF789FD0FE097
:104CD0001C4A90420CD1C9B2002904D04FF40050B4
:104CE000FFF791FD03E04FF40050FFF798FDFFE759
:104CF00001BD00001C1002401810024004000140D9
:104D0000E4B70008ECB70008F4B70008F8BFFFFFED
:104D100000040040000C01402C000020BC48002092
:104D2000BD48002028000020BB4A00080088C3407E
:104D3000002C014000080040000C00400010004022
:104D40000014004000340140DFF808070068C0F399
:104D500002207047012210F01F018A40DFF8F81688
:104D600040B2400941F820207047020052B2002AA8
:104D700009D50901DFF8E42640B210F00F00104415
:104D800000F8041C04E00901DFF8D42640B21154F5
:104D9000704710B410F00700D0F10703052B01D3C2
:104DA000042301E0D0F10703041D072C01D20020E9
:104DB00000E0C01E012414FA03F35B1E1940814079
:104DC00014FA00F0401E1040084310BC704730B485
:104DD0005FF44003B3FA83F410F12C0311F4407034
:104DE000E04013EB80031C681F2511F01F00854075
:104DF000AC4312F01F0211F01F0112FA01F121431E
:104E0000196030BC7047F0B44023B3FA83F30C3020
:104E100011F00074DC4010EB84004FF478631C0048
:104E2000B4FA84F4B3FA83F30568072611F0F8772F
:104E3000E740BE40B54311F0F871D94012FA01F1D4
:104E400029430160F0BC7047816851F00101816025
:104E5000704781684908490081607047816851F056
:104E60000401816070478068800810F0010070477D
:104E7000816851F4A0018160704781B0DFF8E415CA
:104E80000A6802430A60096808400090009801B06F
:104E9000704781B0DFF8D0150A6802430A600968DC
:104EA00008400090009801B07047DFF8BC150A6810
:104EB00032EA000008607047DFF8B02502EB01031A
:104EC00013F8013C1B18114411F8011C0818006864
:104ED00050F0010018607047DFF8902502EB0103E5
:104EE00013F8013C1B18114411F8011C0818006844
:104EF000400840001860704710B4DFF8703503EBCD
:104F0000010414F8014C2418194411F8011C081864
:104F10004068000C00040243626010BC704701212D
:104F2000416070475FF48031416070470221416009
:104F300070475FF400314160704704214160704761
:104F40005FF4802141607047DFF8202502EB010308
:104F500013F8013C1B18114411F8011C08180068D3
:104F600050F0020018607047DFF804150A6832F448
:104F7000404210430860704718B585B0DFF8F4442C
:104F800001212000FEF792FE68461421FEF7B4FED0
:104F900040F60F70009000200190002004906946B8
:104FA0002000FEF712FF002006B010BD38B5050046
:104FB0000C00002D01D1012032E0DFF8BC04854255
:104FC0000CD12000C0B2002804D04FF40070FFF7CD
:104FD00060FF03E04FF40070FFF767FFDFF89C0409
:104FE00085420CD12000C0B2002804D04FF480606C
:104FF000FFF74FFF03E04FF48060FFF756FFDFF845
:10500000800485420BD1E4B2002C04D04FF4004060
:10501000FFF73FFF03E04FF40040FFF746FF00209B
:1050200032BD38B588B0DFF85C04D0E90023CDE9A3
:10503000012303A81421FEF75FFEDFF84C0400688B
:105040000090DFF83444200004F037F801212000FC
:10505000FFF7ACFF002001904FF48075029501A985
:10506000200004F07EF85FF4602003905FF480106D
:1050700004900020059002200690079503A92000C7
:1050800004F089F84FF40040FFF76EFF0020009015
:105090006946200003F0E9FF0A224FF40071200066
:1050A000FFF795FE01220A212000FFF7ACFEDFF892
:1050B000DC532A0040F205212000FFF788FE012280
:1050C00029002000FFF79FFE2000FFF7BDFE200013
:1050D00000F003F8002009B030BD10B50400002C2A
:1050E00010D0A06850F00800A060A0680007FCD4B1
:1050F0002000FFF7B3FE2000FFF7B5FE0028FAD12D
:10510000002000E0012010BD10B58AB0DFF8804318
:105110000121200004F0C8F80120FFF7AEFE684628
:105120002821FEF7E9FD2420089000200290D948AC
:105130000068801D01904FF48060079080200590EA
:1051400000200390D44800904FF480700690002017
:1051500004904FF4005009906A460121200004F0A9
:105160003BF901212000FFF7A7FEFFF7EDFD00222C
:105170000121FFF70EFE01000B20FFF7F6FD0B20CB
:10518000FFF7E8FD01212000FFF7DEFE00200AB056
:1051900010BD10B5BE4C242201212000FFF7ACFE4B
:1051A00001212000FFF788FEB34C2000FFF74CFEE2
:1051B0002000FFF792FF00220021200000F0E0F81D
:1051C000002010BD10B5B24C01212000FFF784FE75
:1051D0002000FFF7A4FE2000FFF7AFFE2000FFF73E
:1051E000A5FEA548FFF735FE002010BD38B588B0F4
:1051F000AA48D0E90023CDE9012303A81421FEF732
:105200007BFDA748006800909D4C200003F055FFEF
:1052100001212000FFF7CAFE002001904FF48075A5
:10522000029501A9200003F09CFF5FF46020039029
:105230005FF48010049000200590022006900795EE
:1052400003A9200003F0A7FF4FF40040FFF78CFEF6
:10525000002000906946200003F007FF914D2A00CE
:105260004FF400712000FFF7B2FD03222900200057
:10527000FFF7C9FD8C4D2A0040F205212000FFF701
:10528000A6FD032229002000FFF7BDFD2000FFF747
:10529000DBFD2000FFF721FF002009B030BD10B575
:1052A0008AB0824C0521200003F0FEFF0220FFF7A8
:1052B000E4FD68462821FEF71FFD24200890002009
:1052C00002907B480068801D01904FF48060079039
:1052D0008020059000200390764800904FF4807065
:1052E0000690002004904FF4005009906A46052172
:1052F000200004F071F805212000FFF7DDFDFFF725
:1053000023FD00220121FFF744FD01003B20FFF7B0
:105310002CFD3B20FFF71EFD05212000FFF714FEAA
:1053200000200AB010BD10B5604C242205212000D9
:10533000FFF7E2FD05212000FFF7BEFD504C2000E5
:10534000FFF782FD2000FFF7C8FE220000210020A9
:1053500000F016F8002010BD10B5544C05212000B7
:10536000FFF7BAFD2000FFF7DDFD2000FFF7E8FDA5
:105370002000FFF7DEFD4248FFF76BFD002010BD67
:1053800038B50D001400002801D0FFF771FD002D85
:1053900002D02800FFF76CFD002C02D02000FFF7A0
:1053A00067FD002032BD80B5FFF7AEFEFFF739FE86
:1053B000002002BD80B5FFF772FFFFF717FF002046
:1053C00002BD80B5FFF7EFFFFFF7F4FF002002BD3D
:1053D00080B5FFF7D1FDFFF7F4FF02BD80B5264988
:1053E000884206D100202B4909680870FFF7D1FEDA
:1053F0000FE02249884201D100200AE0204988427A
:1054000006D100202A4909680870FFF78CFF00E0E8
:10541000002002BD80B51849884208D11D480168A6
:105420000978491C00680170FFF7CCFE11E01349B0
:10543000884201D100200CE01149884208D11C4863
:1054400001680978491C00680170FFF785FF00E0DA
:10545000002002BD0CED00E000E100E018ED00E0EE
:1054600000E400E01410024018100240BCB700082D
:1054700004100240001001400024014000280140B7
:10548000003C0140ACB7000804B800080B00300035
:1054900000000240000000204C240140B4B7000886
:1054A00008B800080C0060000D00900000040240E5
:1054B000040000204C3C014038B592B004000020AC
:1054C00009A82421FEF718FC68462421FEF714FCE5
:1054D000A11D00200EE00A8809AB0500EDB223F8FB
:1054E0001520891C0A886B460500EDB223F81520AB
:1054F000891C401C0200D2B2122AECDB122109A83E
:1055000003F090FF1221684603F08CFF0122112165
:1055100009A803F0C0FF608001221121684603F052
:10552000BAFFA080002013B030BD0000DFF8380CB7
:105530000068C0F302207047012210F01F018A406A
:10554000DFF8281C40B2400941F8202070470200D3
:1055500052B2002A09D50901DFF8C82A40B210F07A
:105560000F00104400F8041C04E00901DFF8002CCF
:1055700040B21154704710B410F00700D0F1070387
:10558000052B01D3042301E0D0F10703041D072CF0
:1055900001D2002000E0C01E012414FA03F35B1EB8
:1055A0001940814014FA00F0401E1040084310BC1E
:1055B0007047806810EA112080B2C1F30F21884241
:1055C00001D1012000E00020C0B27047C1F30F21DB
:1055D00001617047C1F30F2141617047016851F0CB
:1055E0000101016070470168490849000160704786
:1055F000016831F08001016070474162704770B40A
:10560000012901D1002316E0042901D1012312E070
:10561000102901D102230EE0402901D103230AE021
:10562000B1F5807F01D1042305E0B1F5806F01D190
:10563000052300E00623DFF83C4B056A0A26190023
:10564000C9B2615C8E40B543DBB2E15C8A402A435B
:10565000026270BC704710B4012901D1002216E02B
:10566000042901D1012212E0102901D102220EE009
:10567000402901D103220AE0B1F5807F01D1042243
:1056800005E0B1F5806F01D1052200E00622DFF8C8
:10569000E43A006A0A241100C9B2595C8C402040E7
:1056A000D2B2995CC84010BC7047406B7047806BA9
:1056B0007047C06B7047006C70478368DFF8F42B4D
:1056C0001340194381607047426832F07002114301
:1056D00041607047816831F08001816070477FF0E0
:1056E0000101016170477FF00201016170470069AB
:1056F000400810F0010070477FF00401016170471D
:105700000069800810F0010070477FF00801016116
:1057100070470069C00810F0010070477FF0100169
:10572000016170470069000910F001007047C1680D
:1057300051F00201C1607047C16851F00401C160BD
:105740007047C16851F00801C1607047C16851F0ED
:105750001001C160704730B585B0DFF81C4A0121E7
:105760002000FEF7A3FA01212000FEF79FFA012195
:105770002000FEF79BFA01212000FEF797FA684609
:105780001421FEF7B9FA01200190012002900020B7
:10579000039001200490DFF8E45900956946200049
:1057A000FEF713FB29002000FFF714FFDFF8D059A4
:1057B000009569462000FEF708FB29002000FFF74E
:1057C00009FFDFF8C059009569462000FEF7FDFA91
:1057D00029002000FFF7FEFEDFF8DC5A009569463D
:1057E0002000FEF7F2FA29002000FFF7F3FE05B0D3
:1057F00030BDF0B585B0DFF8904901212000FEF7FB
:1058000055FADFF8745901212800FEF74FFADFF846
:105810007C6901213000FEF749FA01213000FEF7D2
:1058200045FA68461421FEF767FA0120019001202D
:1058300002900420039001200490DFF8547900972F
:1058400069462000FEF7C1FA39002000FFF7BEFECE
:10585000DFF8684A009469462800FEF7B6FA21008E
:105860002800FFF7B3FE40F20114009469463000AF
:10587000FEF7ABFA21003000FFF7A8FE009769465B
:105880003000FEF7A2FA39003000FFF79FFE05B0A6
:10589000F0BD30B585B0DFF8284A01212000FEF7C1
:1058A00005FA01212000FEF701FA01212000FEF790
:1058B000FDF901212000FEF7F9F968461421FEF7F1
:1058C0001BFA082001900320029000200390002082
:1058D000049040F20115009569462000FEF775FA24
:1058E00029002000FFF776FE40F202250095694668
:1058F0002000FEF76AFA29002000FFF76BFE40F255
:105900000445009569462000FEF75FFA2900200053
:10591000FFF760FE40F60805009569462000FEF797
:1059200054FA29002000FFF755FE05B030BDF0B550
:1059300085B0DFF8544801212000FEF7B7F90121B6
:105940002000FEF7B3F9DFF8445801212800FEF7E4
:10595000ADF901212800FEF7A9F968461421FEF7E8
:10596000CBF9012001900120029004200390012036
:105970000490DFF84869009669462000FEF725FA92
:1059800031002000FFF722FE40F201170097694620
:105990002000FEF71AFA39002000FFF717FE40F248
:1059A0000224009469462800FEF70FFA210028001F
:1059B000FFF70CFE009669462800FEF706FA310054
:1059C0002800FFF703FE05B0F0BDF0B585B0DFF8A5
:1059D000F04801212000FEF769F901212000FEF7BF
:1059E00065F9DFF8E05801212800FEF75FF9012191
:1059F0002800FEF75BF968461421FEF77DF90120C7
:105A00000190012002900020039001200490DFF813
:105A1000A868009669462000FEF7D7F931002000FB
:105A2000FFF7D8FDDFF85477009769462000FEF7AE
:105A3000CCF939002000FFF7CDFDDFF88C48009449
:105A400069462800FEF7C1F921002800FFF7C2FDD2
:105A5000009669462800FEF7B8F931002800FFF7E4
:105A6000B9FD05B0F0BD00B589B001215FF08040FF
:105A7000FCF7A1FB04A81421FEF73EF968461021AB
:105A8000FEF73AF95FF0804002F0DFFF4CF2503051
:105A90000690DFF838080068DFF83418B0FBF1F141
:105AA0004FF47A7041434FF47A70B1FBF0F0401E2E
:105AB000ADF81000002007900020059000208DF820
:105AC000200004A95FF0804003F020F85FF08040E0
:105AD000FFF78EFD00215FF08040FFF7EEFD002113
